{
  "_format": "hh-sol-artifact-1",
  "contractName": "PqVerifierAdapter",
  "sourceName": "contracts/PqVerifierAdapter.sol",
  "abi": [
    {
      "inputs": [
        {
          "internalType": "address",
          "name": "externalVerifier_",
          "type": "address"
        },
        {
          "internalType": "enum PqVerifierAdapter.BackendType",
          "name": "backendType_",
          "type": "uint8"
        }
      ],
      "stateMutability": "nonpayable",
      "type": "constructor"
    },
    {
      "inputs": [
        {
          "internalType": "address",
          "name": "owner",
          "type": "address"
        }
      ],
      "name": "OwnableInvalidOwner",
      "type": "error"
    },
    {
      "inputs": [
        {
          "internalType": "address",
          "name": "account",
          "type": "address"
        }
      ],
      "name": "OwnableUnauthorizedAccount",
      "type": "error"
    },
    {
      "anonymous": false,
      "inputs": [
        {
          "indexed": false,
          "internalType": "enum PqVerifierAdapter.BackendType",
          "name": "previousType",
          "type": "uint8"
        },
        {
          "indexed": false,
          "internalType": "enum PqVerifierAdapter.BackendType",
          "name": "newType",
          "type": "uint8"
        }
      ],
      "name": "BackendTypeUpdated",
      "type": "event"
    },
    {
      "anonymous": false,
      "inputs": [
        {
          "indexed": true,
          "internalType": "address",
          "name": "previousVerifier",
          "type": "address"
        },
        {
          "indexed": true,
          "internalType": "address",
          "name": "newVerifier",
          "type": "address"
        }
      ],
      "name": "ExternalVerifierUpdated",
      "type": "event"
    },
    {
      "anonymous": false,
      "inputs": [
        {
          "indexed": true,
          "internalType": "address",
          "name": "previousOwner",
          "type": "address"
        },
        {
          "indexed": true,
          "internalType": "address",
          "name": "newOwner",
          "type": "address"
        }
      ],
      "name": "OwnershipTransferred",
      "type": "event"
    },
    {
      "inputs": [],
      "name": "backendType",
      "outputs": [
        {
          "internalType": "enum PqVerifierAdapter.BackendType",
          "name": "",
          "type": "uint8"
        }
      ],
      "stateMutability": "view",
      "type": "function"
    },
    {
      "inputs": [],
      "name": "externalVerifier",
      "outputs": [
        {
          "internalType": "address",
          "name": "",
          "type": "address"
        }
      ],
      "stateMutability": "view",
      "type": "function"
    },
    {
      "inputs": [],
      "name": "owner",
      "outputs": [
        {
          "internalType": "address",
          "name": "",
          "type": "address"
        }
      ],
      "stateMutability": "view",
      "type": "function"
    },
    {
      "inputs": [],
      "name": "renounceOwnership",
      "outputs": [],
      "stateMutability": "nonpayable",
      "type": "function"
    },
    {
      "inputs": [
        {
          "internalType": "enum PqVerifierAdapter.BackendType",
          "name": "backendType_",
          "type": "uint8"
        }
      ],
      "name": "setBackendType",
      "outputs": [],
      "stateMutability": "nonpayable",
      "type": "function"
    },
    {
      "inputs": [
        {
          "internalType": "address",
          "name": "externalVerifier_",
          "type": "address"
        }
      ],
      "name": "setExternalVerifier",
      "outputs": [],
      "stateMutability": "nonpayable",
      "type": "function"
    },
    {
      "inputs": [
        {
          "internalType": "address",
          "name": "newOwner",
          "type": "address"
        }
      ],
      "name": "transferOwnership",
      "outputs": [],
      "stateMutability": "nonpayable",
      "type": "function"
    },
    {
      "inputs": [
        {
          "internalType": "bytes",
          "name": "proof",
          "type": "bytes"
        },
        {
          "internalType": "uint256[]",
          "name": "input",
          "type": "uint256[]"
        }
      ],
      "name": "verifyProof",
      "outputs": [
        {
          "internalType": "bool",
          "name": "",
          "type": "bool"
        }
      ],
      "stateMutability": "view",
      "type": "function"
    }
  ],
  "bytecode": "0x608060405234801561001057600080fd5b50604051610a80380380610a8083398101604081905261002f91610148565b338061005657604051631e4fbdf760e01b8152600060048201526024015b60405180910390fd5b61005f816100f8565b506001600160a01b0382166100ab5760405162461bcd60e51b8152602060048201526012602482015271065787465726e616c56657269666965723d360741b604482015260640161004d565b600180546001600160a01b0384166001600160a01b03198216811783558392916001600160a81b03191617600160a01b83838111156100ec576100ec610192565b021790555050506101a8565b600080546001600160a01b038381166001600160a01b0319831681178455604051919092169283917f8be0079c531659141344cd1fd0a4f28419497f9722a3daafe3b4186f6b6457e09190a35050565b6000806040838503121561015b57600080fd5b82516001600160a01b038116811461017257600080fd5b60208401519092506002811061018757600080fd5b809150509250929050565b634e487b7160e01b600052602160045260246000fd5b6108c9806101b76000396000f3fe608060405234801561001057600080fd5b50600436106100885760003560e01c8063715018a61161005b578063715018a61461011a5780638da5cb5b14610122578063a913059d14610133578063f2fde38b1461014657600080fd5b80630b41fbb01461008d5780631e8e1e13146100b7578063227e9286146100da5780632e3c7b4e146100ef575b600080fd5b6001546100a190600160a01b900460ff1681565b6040516100ae9190610605565b60405180910390f35b6100ca6100c5366004610619565b610159565b60405190151581526020016100ae565b6100ed6100e83660046106de565b6101ce565b005b600154610102906001600160a01b031681565b6040516001600160a01b0390911681526020016100ae565b6100ed610247565b6000546001600160a01b0316610102565b6100ed610141366004610706565b61025b565b6100ed610154366004610706565b610305565b60008060018054600160a01b900460ff169081111561017a5761017a6105cd565b036101925761018b85858585610343565b90506101c6565b6001808054600160a01b900460ff16908111156101b1576101b16105cd565b036101c25761018b8585858561045c565b5060005b949350505050565b6101d6610550565b60018054600160a01b80820460ff16928492909160ff60a01b19909116908383811115610205576102056105cd565b02179055507fa208d9b87860f8c1601ace1bbe21c6a1d305a2c301fcbe8407b5533706f832bc818360405161023b92919061072f565b60405180910390a15050565b61024f610550565b610259600061057d565b565b610263610550565b6001600160a01b0381166102b35760405162461bcd60e51b8152602060048201526012602482015271065787465726e616c56657269666965723d360741b60448201526064015b60405180910390fd5b600180546001600160a01b038381166001600160a01b0319831681179093556040519116919082907ff6bcadbdb000f7f9de7f317bd85594481b9e26477d4e56109bb7933e58af24e490600090a35050565b61030d610550565b6001600160a01b03811661033757604051631e4fbdf760e01b8152600060048201526024016102aa565b6103408161057d565b50565b600080838360405160200161035992919061077c565b60408051601f198184030181529082905260015490925060009182916001600160a01b031690637bf41d7760e11b9061039a908b908b9088906024016107dd565b60408051601f198184030181529181526020820180516001600160e01b03166001600160e01b03199094169390931790925290516103d89190610823565b600060405180830381855afa9150503d8060008114610413576040519150601f19603f3d011682016040523d82523d6000602084013e610418565b606091505b509150915081801561042b575080516020145b1561044e5780806020019051810190610444919061083f565b93505050506101c6565b506000979650505050505050565b600154604051600091829182916001600160a01b031690631e8e1e1360e01b90610490908a908a908a908a90602401610861565b60408051601f198184030181529181526020820180516001600160e01b03166001600160e01b03199094169390931790925290516104ce9190610823565b600060405180830381855afa9150503d8060008114610509576040519150601f19603f3d011682016040523d82523d6000602084013e61050e565b606091505b5091509150818015610521575080516020145b15610543578080602001905181019061053a919061083f565b925050506101c6565b5060009695505050505050565b6000546001600160a01b031633146102595760405163118cdaa760e01b81523360048201526024016102aa565b600080546001600160a01b038381166001600160a01b0319831681178455604051919092169283917f8be0079c531659141344cd1fd0a4f28419497f9722a3daafe3b4186f6b6457e09190a35050565b634e487b7160e01b600052602160045260246000fd5b6002811061060157634e487b7160e01b600052602160045260246000fd5b9052565b6020810161061382846105e3565b92915050565b6000806000806040858703121561062f57600080fd5b843567ffffffffffffffff8082111561064757600080fd5b818701915087601f83011261065b57600080fd5b81358181111561066a57600080fd5b88602082850101111561067c57600080fd5b60209283019650945090860135908082111561069757600080fd5b818701915087601f8301126106ab57600080fd5b8135818111156106ba57600080fd5b8860208260051b85010111156106cf57600080fd5b95989497505060200194505050565b6000602082840312156106f057600080fd5b8135600281106106ff57600080fd5b9392505050565b60006020828403121561071857600080fd5b81356001600160a01b03811681146106ff57600080fd5b6040810161073d82856105e3565b6106ff60208301846105e3565b81835260006001600160fb1b0383111561076357600080fd5b8260051b80836020870137939093016020019392505050565b6020815260006101c660208301848661074a565b81835281816020850137506000828201602090810191909152601f909101601f19169091010190565b60005b838110156107d45781810151838201526020016107bc565b50506000910152565b6040815260006107f1604083018587610790565b8281036020840152835180825261080f8160208401602088016107b9565b601f01601f19160160200195945050505050565b600082516108358184602087016107b9565b9190910192915050565b60006020828403121561085157600080fd5b815180151581146106ff57600080fd5b604081526000610875604083018688610790565b828103602084015261088881858761074a565b97965050505050505056fea264697066735822122089504ef6816f315501e420ad761036ad541351d568ead6921244bc34fb1cf7cc64736f6c63430008180033",
  "linkReferences": {},
  "deployedLinkReferences": {}
}