{
  "_format": "hh-sol-artifact-1",
  "contractName": "PqVerifierAdapter",
  "sourceName": "contracts/PqVerifierAdapter.sol",
  "abi": [
    {
      "inputs": [
        {
          "internalType": "address",
          "name": "externalVerifier_",
          "type": "address"
        }
      ],
      "stateMutability": "nonpayable",
      "type": "constructor"
    },
    {
      "anonymous": false,
      "inputs": [
        {
          "indexed": true,
          "internalType": "address",
          "name": "previousVerifier",
          "type": "address"
        },
        {
          "indexed": true,
          "internalType": "address",
          "name": "newVerifier",
          "type": "address"
        }
      ],
      "name": "ExternalVerifierUpdated",
      "type": "event"
    },
    {
      "inputs": [],
      "name": "externalVerifier",
      "outputs": [
        {
          "internalType": "address",
          "name": "",
          "type": "address"
        }
      ],
      "stateMutability": "view",
      "type": "function"
    },
    {
      "inputs": [],
      "name": "owner",
      "outputs": [
        {
          "internalType": "address",
          "name": "",
          "type": "address"
        }
      ],
      "stateMutability": "view",
      "type": "function"
    },
    {
      "inputs": [
        {
          "internalType": "address",
          "name": "externalVerifier_",
          "type": "address"
        }
      ],
      "name": "setExternalVerifier",
      "outputs": [],
      "stateMutability": "nonpayable",
      "type": "function"
    },
    {
      "inputs": [
        {
          "internalType": "bytes",
          "name": "proof",
          "type": "bytes"
        },
        {
          "internalType": "uint256[]",
          "name": "input",
          "type": "uint256[]"
        }
      ],
      "name": "verifyProof",
      "outputs": [
        {
          "internalType": "bool",
          "name": "",
          "type": "bool"
        }
      ],
      "stateMutability": "view",
      "type": "function"
    }
  ],
  "bytecode": "0x608060405234801561001057600080fd5b5060405161072138038061072183398101604081905261002f916100b1565b6001600160a01b03811661007e5760405162461bcd60e51b8152602060048201526012602482015271065787465726e616c56657269666965723d360741b604482015260640160405180910390fd5b60008054336001600160a01b031991821617909155600180549091166001600160a01b03929092169190911790556100e1565b6000602082840312156100c357600080fd5b81516001600160a01b03811681146100da57600080fd5b9392505050565b610631806100f06000396000f3fe608060405234801561001057600080fd5b506004361061004c5760003560e01c80631e8e1e13146100515780632e3c7b4e146100795780638da5cb5b146100a4578063a913059d146100b7575b600080fd5b61006461005f3660046103bd565b6100cc565b60405190151581526020015b60405180910390f35b60015461008c906001600160a01b031681565b6040516001600160a01b039091168152602001610070565b60005461008c906001600160a01b031681565b6100ca6100c5366004610482565b6102d5565b005b60008083836040516020016100e29291906104e4565b60408051601f198184030181529082905260015490925060009182916001600160a01b031690637bf41d7760e11b90610123908b908b908890602401610545565b60408051601f198184030181529181526020820180516001600160e01b03166001600160e01b0319909416939093179092529051610161919061058b565b600060405180830381855afa9150503d806000811461019c576040519150601f19603f3d011682016040523d82523d6000602084013e6101a1565b606091505b50915091508180156101b557506020815110155b156101d857808060200190518101906101ce91906105a7565b93505050506102cd565b60015460405160009182916001600160a01b0390911690631e8e1e1360e01b9061020c908d908d908d908d906024016105c9565b60408051601f198184030181529181526020820180516001600160e01b03166001600160e01b031990941693909317909252905161024a919061058b565b600060405180830381855afa9150503d8060008114610285576040519150601f19603f3d011682016040523d82523d6000602084013e61028a565b606091505b509150915081801561029e57506020815110155b156102c357808060200190518101906102b791906105a7565b955050505050506102cd565b6000955050505050505b949350505050565b6000546001600160a01b031633146103205760405162461bcd60e51b81526020600482015260096024820152683737ba1037bbb732b960b91b60448201526064015b60405180910390fd5b6001600160a01b03811661036b5760405162461bcd60e51b8152602060048201526012602482015271065787465726e616c56657269666965723d360741b6044820152606401610317565b600180546001600160a01b038381166001600160a01b0319831681179093556040519116919082907ff6bcadbdb000f7f9de7f317bd85594481b9e26477d4e56109bb7933e58af24e490600090a35050565b600080600080604085870312156103d357600080fd5b843567ffffffffffffffff808211156103eb57600080fd5b818701915087601f8301126103ff57600080fd5b81358181111561040e57600080fd5b88602082850101111561042057600080fd5b60209283019650945090860135908082111561043b57600080fd5b818701915087601f83011261044f57600080fd5b81358181111561045e57600080fd5b8860208260051b850101111561047357600080fd5b95989497505060200194505050565b60006020828403121561049457600080fd5b81356001600160a01b03811681146104ab57600080fd5b9392505050565b81835260006001600160fb1b038311156104cb57600080fd5b8260051b80836020870137939093016020019392505050565b6020815260006102cd6020830184866104b2565b81835281816020850137506000828201602090810191909152601f909101601f19169091010190565b60005b8381101561053c578181015183820152602001610524565b50506000910152565b6040815260006105596040830185876104f8565b82810360208401528351808252610577816020840160208801610521565b601f01601f19160160200195945050505050565b6000825161059d818460208701610521565b9190910192915050565b6000602082840312156105b957600080fd5b815180151581146104ab57600080fd5b6040815260006105dd6040830186886104f8565b82810360208401526105f08185876104b2565b97965050505050505056fea26469706673582212208fec9528d646077312641febf85ac0ecdb722fe602451ddfe89a2869a72e8c3d64736f6c63430008180033",
  "linkReferences": {},
  "deployedLinkReferences": {}
}