{
  "_format": "hh-sol-artifact-1",
  "contractName": "PoolFactory",
  "sourceName": "contracts/PoolFactory.sol",
  "abi": [
    {
      "inputs": [
        {
          "internalType": "address",
          "name": "verifier_",
          "type": "address"
        },
        {
          "internalType": "address payable",
          "name": "treasury_",
          "type": "address"
        }
      ],
      "stateMutability": "nonpayable",
      "type": "constructor"
    },
    {
      "anonymous": false,
      "inputs": [
        {
          "indexed": true,
          "internalType": "address",
          "name": "pool",
          "type": "address"
        },
        {
          "indexed": false,
          "internalType": "uint256",
          "name": "denomination",
          "type": "uint256"
        }
      ],
      "name": "PoolCreated",
      "type": "event"
    },
    {
      "inputs": [],
      "name": "allPools",
      "outputs": [
        {
          "internalType": "address[]",
          "name": "",
          "type": "address[]"
        }
      ],
      "stateMutability": "view",
      "type": "function"
    },
    {
      "inputs": [
        {
          "internalType": "uint256",
          "name": "denomination",
          "type": "uint256"
        },
        {
          "internalType": "uint256",
          "name": "baseRelayerFee",
          "type": "uint256"
        },
        {
          "internalType": "uint256",
          "name": "protocolFeeBps",
          "type": "uint256"
        }
      ],
      "name": "createPool",
      "outputs": [
        {
          "internalType": "address",
          "name": "",
          "type": "address"
        }
      ],
      "stateMutability": "nonpayable",
      "type": "function"
    },
    {
      "inputs": [
        {
          "internalType": "uint256",
          "name": "",
          "type": "uint256"
        }
      ],
      "name": "pools",
      "outputs": [
        {
          "internalType": "address",
          "name": "",
          "type": "address"
        }
      ],
      "stateMutability": "view",
      "type": "function"
    },
    {
      "inputs": [],
      "name": "treasury",
      "outputs": [
        {
          "internalType": "address payable",
          "name": "",
          "type": "address"
        }
      ],
      "stateMutability": "view",
      "type": "function"
    },
    {
      "inputs": [],
      "name": "verifier",
      "outputs": [
        {
          "internalType": "address",
          "name": "",
          "type": "address"
        }
      ],
      "stateMutability": "view",
      "type": "function"
    }
  ],
  "bytecode": "0x60c060405234801561001057600080fd5b506040516119bd3803806119bd83398101604081905261002f9161005e565b6001600160a01b039182166080521660a052610098565b6001600160a01b038116811461005b57600080fd5b50565b6000806040838503121561007157600080fd5b825161007c81610046565b602084015190925061008d81610046565b809150509250929050565b60805160a0516118f46100c96000396000818160a501526101550152600081816061015261013101526118f46000f3fe608060405234801561001057600080fd5b50600436106100575760003560e01c80632b7ac3f31461005c57806361d027b3146100a0578063ac4afa38146100c7578063c3391d27146100da578063c5c63e65146100ed575b600080fd5b6100837f000000000000000000000000000000000000000000000000000000000000000081565b6040516001600160a01b0390911681526020015b60405180910390f35b6100837f000000000000000000000000000000000000000000000000000000000000000081565b6100836100d53660046102c3565b610102565b6100836100e83660046102dc565b61012c565b6100f5610254565b6040516100979190610308565b6000818154811061011257600080fd5b6000918252602090912001546001600160a01b0316905081565b6000807f00000000000000000000000000000000000000000000000000000000000000008585857f0000000000000000000000000000000000000000000000000000000000000000604051610180906102b6565b6001600160a01b039586168152602081019490945260408401929092526060830152909116608082015260a001604051809103906000f0801580156101c9573d6000803e3d6000fd5b50600080546001810182559080527f290decd9548b62a8d60345a988386fc84ba6bc95484008f6362f93160ef3e5630180546001600160a01b0319166001600160a01b038316908117909155604051878152919250907f641e49906554552c8c33d7e09e02d1270590f405bc1da0c7b99a9c2808abdd059060200160405180910390a2949350505050565b606060008054806020026020016040519081016040528092919081815260200182805480156102ac57602002820191906000526020600020905b81546001600160a01b0316815260019091019060200180831161028e575b5050505050905090565b6115698061035683390190565b6000602082840312156102d557600080fd5b5035919050565b6000806000606084860312156102f157600080fd5b505081359360208301359350604090920135919050565b6020808252825182820181905260009190848201906040850190845b818110156103495783516001600160a01b031683529284019291840191600101610324565b5090969550505050505056fe60c06040523480156200001157600080fd5b50604051620015693803806200156983398101604081905262000034916200030b565b33806200005c57604051631e4fbdf760e01b8152600060048201526024015b60405180910390fd5b62000067816200020a565b50600180556001600160a01b038516620000b15760405162461bcd60e51b815260206004820152600a602482015269076657269666965723d360b41b604482015260640162000053565b60008411620000f45760405162461bcd60e51b815260206004820152600e60248201526d064656e6f6d696e6174696f6e3d360941b604482015260640162000053565b612710821115620001485760405162461bcd60e51b815260206004820152601560248201527f70726f746f636f6c2066656520746f6f20686967680000000000000000000000604482015260640162000053565b6001600160a01b0381166200018d5760405162461bcd60e51b815260206004820152600a602482015269074726561737572793d360b41b604482015260640162000053565b6001600160a01b0385811660805260a085905260048490556005839055600680546001600160a01b0319169183169190911790556040805160006020820152469181019190915260600160408051601f1981840301815291905280516020909101206003819055620001ff906200025a565b5050505050620003c9565b600080546001600160a01b038381166001600160a01b0319831681178455604051919092169283917f8be0079c531659141344cd1fd0a4f28419497f9722a3daafe3b4186f6b6457e09190a35050565b6000600a606e546064811062000274576200027462000368565b01549050801562000296576000818152600960205260409020805460ff191690555b81600a606e5460648110620002af57620002af62000368565b01556000828152600960205260409020805460ff19166001908117909155606e54606491620002df91906200037e565b620002eb9190620003a6565b606e555050565b6001600160a01b03811681146200030857600080fd5b50565b600080600080600060a086880312156200032457600080fd5b85516200033181620002f2565b8095505060208601519350604086015192506060860151915060808601516200035a81620002f2565b809150509295509295909350565b634e487b7160e01b600052603260045260246000fd5b80820180821115620003a057634e487b7160e01b600052601160045260246000fd5b92915050565b600082620003c457634e487b7160e01b600052601260045260246000fd5b500690565b60805160a05161115762000412600039600081816103710152818161061d01528181610654015281816108c301526109f901526000818161024e01526107ed01526111576000f3fe6080604052600436106101445760003560e01c80636d9833e3116100b6578063cd87a3b41161006f578063cd87a3b4146103e4578063f0f44260146103f9578063f1c621ee14610419578063f2fde38b14610439578063fdab463d14610459578063fe1c42511461046f57610162565b80636d9833e31461031a578063715018a61461034a5780638bca6d161461035f5780638da5cb5b14610393578063b214faa5146103b1578063c0417e58146103c457610162565b80632b7ac3f3116101085780632b7ac3f31461023c5780632dfdf0b51461028857806335659fb81461029e57806338c86911146102b4578063583d434f146102e457806361d027b3146102fa57610162565b80630f3b566a1461017b578063156428ba146101a457806321a0adb6146101e4578063263516a8146102065780632a21b72e1461021c57610162565b3661016257604051630265cbaf60e51b815260040160405180910390fd5b604051630265cbaf60e51b815260040160405180910390fd5b34801561018757600080fd5b5061019160045481565b6040519081526020015b60405180910390f35b3480156101b057600080fd5b506101d46101bf366004610ebf565b60076020526000908152604090205460ff1681565b604051901515815260200161019b565b3480156101f057600080fd5b506102046101ff366004610efd565b61049f565b005b34801561021257600080fd5b50610191606e5481565b34801561022857600080fd5b50610204610237366004610ebf565b61098d565b34801561024857600080fd5b506102707f000000000000000000000000000000000000000000000000000000000000000081565b6040516001600160a01b03909116815260200161019b565b34801561029457600080fd5b5061019160025481565b3480156102aa57600080fd5b5061019160055481565b3480156102c057600080fd5b506101d46102cf366004610ebf565b60086020526000908152604090205460ff1681565b3480156102f057600080fd5b5061019161271081565b34801561030657600080fd5b50600654610270906001600160a01b031681565b34801561032657600080fd5b506101d4610335366004610ebf565b60009081526009602052604090205460ff1690565b34801561035657600080fd5b506102046109db565b34801561036b57600080fd5b506101917f000000000000000000000000000000000000000000000000000000000000000081565b34801561039f57600080fd5b506000546001600160a01b0316610270565b6102046103bf366004610ebf565b6109ef565b3480156103d057600080fd5b506102046103df366004610ebf565b610b6e565b3480156103f057600080fd5b50610191606481565b34801561040557600080fd5b50610204610414366004610fb3565b610bfe565b34801561042557600080fd5b50610191610434366004610ebf565b610c9b565b34801561044557600080fd5b50610204610454366004610fb3565b610cb2565b34801561046557600080fd5b5061019160035481565b34801561047b57600080fd5b506101d461048a366004610ebf565b60096020526000908152604090205460ff1681565b6104a7610ced565b6001600160a01b0384166104f05760405162461bcd60e51b815260206004820152600b60248201526a0726563697069656e743d360ac1b60448201526064015b60405180910390fd5b6001600160a01b0383166105325760405162461bcd60e51b8152602060048201526009602482015268072656c617965723d360bc1b60448201526064016104e7565b60008581526008602052604090205460ff16156105835760405162461bcd60e51b815260206004820152600f60248201526e1b9d5b1b1a599a595c881cdc195b9d608a1b60448201526064016104e7565b60008681526009602052604090205460ff166105d05760405162461bcd60e51b815260206004820152600c60248201526b1d5b9adb9bdddb881c9bdbdd60a21b60448201526064016104e7565b6004548210156106135760405162461bcd60e51b815260206004820152600e60248201526d6665652062656c6f77206261736560901b60448201526064016104e7565b60006127106005547f00000000000000000000000000000000000000000000000000000000000000006106469190610fed565b6106509190611020565b90507f000000000000000000000000000000000000000000000000000000000000000061067d8285611034565b11156106bb5760405162461bcd60e51b815260206004820152600d60248201526c0cccacae640e8dede40d0d2ced609b1b60448201526064016104e7565b60408051600780825261010082019092526000916020820160e0803683370190505090508760001c816000815181106106f6576106f6611047565b6020026020010181815250508660001c8160018151811061071957610719611047565b602002602001018181525050856001600160a01b03168160028151811061074257610742611047565b602002602001018181525050846001600160a01b03168160038151811061076b5761076b611047565b602002602001018181525050838160048151811061078b5761078b611047565b60200260200101818152505082816005815181106107ab576107ab611047565b60200260200101818152505046816006815181106107cb576107cb611047565b6020908102919091010152604051631e8e1e1360e01b81526001600160a01b037f00000000000000000000000000000000000000000000000000000000000000001690631e8e1e1390610826908d908d90869060040161105d565b602060405180830381865afa158015610843573d6000803e3d6000fd5b505050506040513d601f19601f8201168201806040525081019061086791906110d8565b6108a35760405162461bcd60e51b815260206004820152600d60248201526c34b73b30b634b210383937b7b360991b60448201526064016104e7565b6000878152600860205260408120805460ff19166001179055826108e7867f00000000000000000000000000000000000000000000000000000000000000006110fa565b6108f191906110fa565b90506108fd8782610d17565b841561090d5761090d8686610d17565b821561092957600654610929906001600160a01b031684610d17565b856001600160a01b0316876001600160a01b0316897f6c3a45613039e0a1117bd6ce110ab3c920271709c010983d921a2cd268e2ea478860405161096f91815260200190565b60405180910390a450505061098360018055565b5050505050505050565b610995610db5565b600480549082905560408051828152602081018490527f02e87ceabfa0e381e169014833b5c0798e7de6068c766961d962847388a426fe91015b60405180910390a15050565b6109e3610db5565b6109ed6000610de2565b565b6109f7610ced565b7f00000000000000000000000000000000000000000000000000000000000000003414610a535760405162461bcd60e51b815260206004820152600a60248201526918985908185b5bdd5b9d60b21b60448201526064016104e7565b60008181526007602052604090205460ff1615610aa45760405162461bcd60e51b815260206004820152600f60248201526e18dbdb5b5a5d1b595b9d081d5cd959608a1b60448201526064016104e7565b600081815260076020908152604091829020805460ff191660011790556003546002549251610ae9939192859291019283526020830191909152604082015260600190565b60405160208183030381529060405280519060200120600381905550610b10600354610e32565b600254600354604080519283526020830191909152429082015281907f8154af7b1b360f500640de68c82af19c52c4ad4189d7a7c7a41506e19a1fdd6c9060600160405180910390a2600280546001019055610b6b60018055565b50565b610b76610db5565b612710811115610bc05760405162461bcd60e51b81526020600482015260156024820152740e0e4dee8dec6ded840cccaca40e8dede40d0d2ced605b1b60448201526064016104e7565b600580549082905560408051828152602081018490527ff247e7445763d3e9a01aee4b64de35f02273d6a1d7264694bb9298109319c8be91016109cf565b610c06610db5565b6001600160a01b038116610c495760405162461bcd60e51b815260206004820152600a602482015269074726561737572793d360b41b60448201526064016104e7565b600680546001600160a01b038381166001600160a01b0319831681179093556040519116919082907f4ab5be82436d353e61ca18726e984e561f5c1cc7c6d38b29d2553c790434705a90600090a35050565b600a8160648110610cab57600080fd5b0154905081565b610cba610db5565b6001600160a01b038116610ce457604051631e4fbdf760e01b8152600060048201526024016104e7565b610b6b81610de2565b600260015403610d1057604051633ee5aeb560e01b815260040160405180910390fd5b6002600155565b6000826001600160a01b03168260405160006040518083038185875af1925050503d8060008114610d64576040519150601f19603f3d011682016040523d82523d6000602084013e610d69565b606091505b5050905080610db05760405162461bcd60e51b8152602060048201526013602482015272195d1a081d1c985b9cd9995c8819985a5b1959606a1b60448201526064016104e7565b505050565b6000546001600160a01b031633146109ed5760405163118cdaa760e01b81523360048201526024016104e7565b600080546001600160a01b038381166001600160a01b0319831681178455604051919092169283917f8be0079c531659141344cd1fd0a4f28419497f9722a3daafe3b4186f6b6457e09190a35050565b6000600a606e5460648110610e4957610e49611047565b015490508015610e6a576000818152600960205260409020805460ff191690555b81600a606e5460648110610e8057610e80611047565b01556000828152600960205260409020805460ff19166001908117909155606e54606491610eae9190611034565b610eb8919061110d565b606e555050565b600060208284031215610ed157600080fd5b5035919050565b6001600160a01b0381168114610b6b57600080fd5b8035610ef881610ed8565b919050565b60008060008060008060008060e0898b031215610f1957600080fd5b883567ffffffffffffffff80821115610f3157600080fd5b818b0191508b601f830112610f4557600080fd5b813581811115610f5457600080fd5b8c6020828501011115610f6657600080fd5b60209283019a50985050890135955060408901359450610f8860608a01610eed565b9350610f9660808a01610eed565b925060a0890135915060c089013590509295985092959890939650565b600060208284031215610fc557600080fd5b8135610fd081610ed8565b9392505050565b634e487b7160e01b600052601160045260246000fd5b808202811582820484141761100457611004610fd7565b92915050565b634e487b7160e01b600052601260045260246000fd5b60008261102f5761102f61100a565b500490565b8082018082111561100457611004610fd7565b634e487b7160e01b600052603260045260246000fd5b60408152826040820152828460608301376000606084830101526000601f19601f85011682016060810160206060858403016020860152818651808452608085019150602088019450600093505b808410156110cb57845182529382019360019390930192908201906110ab565b5098975050505050505050565b6000602082840312156110ea57600080fd5b81518015158114610fd057600080fd5b8181038181111561100457611004610fd7565b60008261111c5761111c61100a565b50069056fea2646970667358221220490f471f3f722cf24eec8ab50d488d904f73f087f2510f65dd80c07ecf4bad1d64736f6c63430008180033a26469706673582212209f06765d4b49710fbaac99d0d5b786f6279e3284ee0a61fe2e23db4d24e8696d64736f6c63430008180033",
  "linkReferences": {},
  "deployedLinkReferences": {}
}