{
  "_format": "hh-sol-artifact-1",
  "contractName": "PoolFactory",
  "sourceName": "contracts/PoolFactory.sol",
  "abi": [
    {
      "inputs": [
        {
          "internalType": "address",
          "name": "verifier_",
          "type": "address"
        },
        {
          "internalType": "address payable",
          "name": "treasury_",
          "type": "address"
        }
      ],
      "stateMutability": "nonpayable",
      "type": "constructor"
    },
    {
      "anonymous": false,
      "inputs": [
        {
          "indexed": true,
          "internalType": "address",
          "name": "pool",
          "type": "address"
        },
        {
          "indexed": false,
          "internalType": "uint256",
          "name": "denomination",
          "type": "uint256"
        }
      ],
      "name": "PoolCreated",
      "type": "event"
    },
    {
      "inputs": [],
      "name": "allPools",
      "outputs": [
        {
          "internalType": "address[]",
          "name": "",
          "type": "address[]"
        }
      ],
      "stateMutability": "view",
      "type": "function"
    },
    {
      "inputs": [
        {
          "internalType": "uint256",
          "name": "denomination",
          "type": "uint256"
        },
        {
          "internalType": "uint256",
          "name": "baseRelayerFee",
          "type": "uint256"
        },
        {
          "internalType": "uint256",
          "name": "protocolFeeBps",
          "type": "uint256"
        }
      ],
      "name": "createPool",
      "outputs": [
        {
          "internalType": "address",
          "name": "",
          "type": "address"
        }
      ],
      "stateMutability": "nonpayable",
      "type": "function"
    },
    {
      "inputs": [
        {
          "internalType": "uint256",
          "name": "",
          "type": "uint256"
        }
      ],
      "name": "pools",
      "outputs": [
        {
          "internalType": "address",
          "name": "",
          "type": "address"
        }
      ],
      "stateMutability": "view",
      "type": "function"
    },
    {
      "inputs": [],
      "name": "treasury",
      "outputs": [
        {
          "internalType": "address payable",
          "name": "",
          "type": "address"
        }
      ],
      "stateMutability": "view",
      "type": "function"
    },
    {
      "inputs": [],
      "name": "verifier",
      "outputs": [
        {
          "internalType": "address",
          "name": "",
          "type": "address"
        }
      ],
      "stateMutability": "view",
      "type": "function"
    }
  ],
  "bytecode": "0x60c060405234801561001057600080fd5b5060405161235f38038061235f83398101604081905261002f9161005e565b6001600160a01b039182166080521660a052610098565b6001600160a01b038116811461005b57600080fd5b50565b6000806040838503121561007157600080fd5b825161007c81610046565b602084015190925061008d81610046565b809150509250929050565b60805160a0516122966100c96000396000818160a501526101550152600081816061015261013101526122966000f3fe608060405234801561001057600080fd5b50600436106100575760003560e01c80632b7ac3f31461005c57806361d027b3146100a0578063ac4afa38146100c7578063c3391d27146100da578063c5c63e65146100ed575b600080fd5b6100837f000000000000000000000000000000000000000000000000000000000000000081565b6040516001600160a01b0390911681526020015b60405180910390f35b6100837f000000000000000000000000000000000000000000000000000000000000000081565b6100836100d53660046102c3565b610102565b6100836100e83660046102dc565b61012c565b6100f5610254565b6040516100979190610308565b6000818154811061011257600080fd5b6000918252602090912001546001600160a01b0316905081565b6000807f00000000000000000000000000000000000000000000000000000000000000008585857f0000000000000000000000000000000000000000000000000000000000000000604051610180906102b6565b6001600160a01b039586168152602081019490945260408401929092526060830152909116608082015260a001604051809103906000f0801580156101c9573d6000803e3d6000fd5b50600080546001810182559080527f290decd9548b62a8d60345a988386fc84ba6bc95484008f6362f93160ef3e5630180546001600160a01b0319166001600160a01b038316908117909155604051878152919250907f641e49906554552c8c33d7e09e02d1270590f405bc1da0c7b99a9c2808abdd059060200160405180910390a2949350505050565b606060008054806020026020016040519081016040528092919081815260200182805480156102ac57602002820191906000526020600020905b81546001600160a01b0316815260019091019060200180831161028e575b5050505050905090565b611f0b8061035683390190565b6000602082840312156102d557600080fd5b5035919050565b6000806000606084860312156102f157600080fd5b505081359360208301359350604090920135919050565b6020808252825182820181905260009190848201906040850190845b818110156103495783516001600160a01b031683529284019291840191600101610324565b5090969550505050505056fe60c06040523480156200001157600080fd5b5060405162001f0b38038062001f0b83398101604081905262000034916200043d565b33806200005c57604051631e4fbdf760e01b8152600060048201526024015b60405180910390fd5b6200006781620001f3565b50600180556001600160a01b038516620000b15760405162461bcd60e51b815260206004820152600a602482015269076657269666965723d360b41b604482015260640162000053565b60008411620000f45760405162461bcd60e51b815260206004820152600e60248201526d064656e6f6d696e6174696f6e3d360941b604482015260640162000053565b612710821115620001485760405162461bcd60e51b815260206004820152601560248201527f70726f746f636f6c2066656520746f6f20686967680000000000000000000000604482015260640162000053565b6001600160a01b0381166200018d5760405162461bcd60e51b815260206004820152600a602482015269074726561737572793d360b41b604482015260640162000053565b6001600160a01b0385811660805260a08590526005849055600683905560078054600160a01b9284166001600160a81b0319909116179190911760ff60a81b19169055620001da62000243565b600454620001e8906200035d565b505050505062000526565b600080546001600160a01b038381166001600160a01b0319831681178455604051919092169283917f8be0079c531659141344cd1fd0a4f28419497f9722a3daafe3b4186f6b6457e09190a35050565b60405170424c55454152435f545245455f5a45524f60781b602082015246603182015260009060510160408051808303601f1901815291905280516020909101206071819055905060005b601463ffffffff82161015620003535760718163ffffffff1660158110620002ba57620002ba6200049a565b015460868263ffffffff1660148110620002d857620002d86200049a565b015562000320607163ffffffff831660158110620002fa57620002fa6200049a565b015460718363ffffffff16601581106200031857620003186200049a565b0154620003f5565b60716200032f836001620004c6565b63ffffffff16601581106200034857620003486200049a565b01556001016200028e565b5050608554600455565b6000600c607054606481106200037757620003776200049a565b01549050801562000399576000818152600a60205260409020805460ff191690555b81600c60705460648110620003b257620003b26200049a565b01556000828152600a60205260409020805460ff19166001908117909155607054606491620003e29190620004ed565b620003ee919062000503565b6070555050565b604080516020808201859052818301849052825180830384018152606090920190925280519101205b92915050565b6001600160a01b03811681146200043a57600080fd5b50565b600080600080600060a086880312156200045657600080fd5b8551620004638162000424565b8095505060208601519350604086015192506060860151915060808601516200048c8162000424565b809150509295509295909350565b634e487b7160e01b600052603260045260246000fd5b634e487b7160e01b600052601160045260246000fd5b63ffffffff818116838216019080821115620004e657620004e6620004b0565b5092915050565b808201808211156200041e576200041e620004b0565b6000826200052157634e487b7160e01b600052601260045260246000fd5b500690565b60805160a05161199c6200056f600039600081816104fd0152818161094e0152818161098501528181610bf40152610dbe0152600081816103790152610b1e015261199c6000f3fe6080604052600436106102085760003560e01c8063715018a611610118578063e7549e82116100a0578063f1c621ee1161006f578063f1c621ee14610656578063f2fde38b14610676578063f62ac70f14610696578063fdab463d146106b6578063fe1c4251146106cc57610226565b8063e7549e82146105d5578063e8295588146105f6578063f0f4426014610616578063f178e47c1461063657610226565b80638da5cb5b116100e75780638da5cb5b1461054f578063b214faa51461056d578063c0417e5814610580578063c6ccf7ce146105a0578063cd87a3b4146105c057610226565b8063715018a6146104b557806371d5a1dd146104ca5780638bca6d16146104eb5780638cba8b6a1461051f57610226565b80632b7ac3f31161019b57806338c869111161016a57806338c86911146103ff5780634e4c416a1461042f578063583d434f1461044f57806361d027b3146104655780636d9833e31461048557610226565b80632b7ac3f3146103675780632dfdf0b5146103b3578063304ce729146103c957806335659fb8146103e957610226565b8063239a25e5116101d7578063239a25e5146102fc578063263516a81461031c5780632a21b72e146103325780632a894a731461035257610226565b80630be4f4221461023f5780630f3b566a14610276578063156428ba1461029a57806321a0adb6146102da57610226565b3661022657604051630265cbaf60e51b815260040160405180910390fd5b604051630265cbaf60e51b815260040160405180910390fd5b34801561024b57600080fd5b5060035461025c9063ffffffff1681565b60405163ffffffff90911681526020015b60405180910390f35b34801561028257600080fd5b5061028c60055481565b60405190815260200161026d565b3480156102a657600080fd5b506102ca6102b53660046115b8565b60086020526000908152604090205460ff1681565b604051901515815260200161026d565b3480156102e657600080fd5b506102fa6102f53660046115f6565b6106fc565b005b34801561030857600080fd5b506102ca6103173660046116d2565b610cbe565b34801561032857600080fd5b5061028c60705481565b34801561033e57600080fd5b506102fa61034d3660046115b8565b610cd6565b34801561035e57600080fd5b5061025c601481565b34801561037357600080fd5b5061039b7f000000000000000000000000000000000000000000000000000000000000000081565b6040516001600160a01b03909116815260200161026d565b3480156103bf57600080fd5b5061028c60025481565b3480156103d557600080fd5b5061028c6103e436600461171a565b610d24565b3480156103f557600080fd5b5061028c60065481565b34801561040b57600080fd5b506102ca61041a3660046115b8565b60096020526000908152604090205460ff1681565b34801561043b57600080fd5b506102fa61044a366004611767565b610d39565b34801561045b57600080fd5b5061028c61271081565b34801561047157600080fd5b5060075461039b906001600160a01b031681565b34801561049157600080fd5b506102ca6104a03660046115b8565b6000908152600a602052604090205460ff1690565b3480156104c157600080fd5b506102fa610da0565b3480156104d657600080fd5b506007546102ca90600160a81b900460ff1681565b3480156104f757600080fd5b5061028c7f000000000000000000000000000000000000000000000000000000000000000081565b34801561052b57600080fd5b506102ca61053a36600461178b565b600b6020526000908152604090205460ff1681565b34801561055b57600080fd5b506000546001600160a01b031661039b565b6102fa61057b3660046115b8565b610db4565b34801561058c57600080fd5b506102fa61059b3660046115b8565b610f63565b3480156105ac57600080fd5b506102fa6105bb366004611767565b610ff3565b3480156105cc57600080fd5b5061028c606481565b3480156105e157600080fd5b506007546102ca90600160a01b900460ff1681565b34801561060257600080fd5b5061028c6106113660046115b8565b61105a565b34801561062257600080fd5b506102fa61063136600461178b565b611071565b34801561064257600080fd5b5061028c6106513660046115b8565b61110e565b34801561066257600080fd5b5061028c6106713660046115b8565b61111e565b34801561068257600080fd5b506102fa61069136600461178b565b61112e565b3480156106a257600080fd5b506102fa6106b13660046117a8565b611169565b3480156106c257600080fd5b5061028c60045481565b3480156106d857600080fd5b506102ca6106e73660046115b8565b600a6020526000908152604090205460ff1681565b610704611212565b6001600160a01b03841661074d5760405162461bcd60e51b815260206004820152600b60248201526a0726563697069656e743d360ac1b60448201526064015b60405180910390fd5b6001600160a01b03831661078f5760405162461bcd60e51b8152602060048201526009602482015268072656c617965723d360bc1b6044820152606401610744565b600754600160a01b900460ff16156107f257336001600160a01b038416146107f25760405162461bcd60e51b815260206004820152601660248201527539b2b73232b91036bab9ba103132903932b630bcb2b960511b6044820152606401610744565b600754600160a81b900460ff1615610863576001600160a01b0383166000908152600b602052604090205460ff166108635760405162461bcd60e51b81526020600482015260146024820152731c995b185e595c881b9bdd08185c1c1c9bdd995960621b6044820152606401610744565b60008581526009602052604090205460ff16156108b45760405162461bcd60e51b815260206004820152600f60248201526e1b9d5b1b1a599a595c881cdc195b9d608a1b6044820152606401610744565b6000868152600a602052604090205460ff166109015760405162461bcd60e51b815260206004820152600c60248201526b1d5b9adb9bdddb881c9bdbdd60a21b6044820152606401610744565b6005548210156109445760405162461bcd60e51b815260206004820152600e60248201526d6665652062656c6f77206261736560901b6044820152606401610744565b60006127106006547f000000000000000000000000000000000000000000000000000000000000000061097791906117f7565b6109819190611824565b90507f00000000000000000000000000000000000000000000000000000000000000006109ae8285611838565b11156109ec5760405162461bcd60e51b815260206004820152600d60248201526c0cccacae640e8dede40d0d2ced609b1b6044820152606401610744565b60408051600780825261010082019092526000916020820160e0803683370190505090508760001c81600081518110610a2757610a2761184b565b6020026020010181815250508660001c81600181518110610a4a57610a4a61184b565b602002602001018181525050856001600160a01b031681600281518110610a7357610a7361184b565b602002602001018181525050846001600160a01b031681600381518110610a9c57610a9c61184b565b6020026020010181815250508381600481518110610abc57610abc61184b565b6020026020010181815250508281600581518110610adc57610adc61184b565b6020026020010181815250504681600681518110610afc57610afc61184b565b6020908102919091010152604051631e8e1e1360e01b81526001600160a01b037f00000000000000000000000000000000000000000000000000000000000000001690631e8e1e1390610b57908d908d908690600401611861565b602060405180830381865afa158015610b74573d6000803e3d6000fd5b505050506040513d601f19601f82011682018060405250810190610b9891906118dc565b610bd45760405162461bcd60e51b815260206004820152600d60248201526c34b73b30b634b210383937b7b360991b6044820152606401610744565b6000878152600960205260408120805460ff1916600117905582610c18867f00000000000000000000000000000000000000000000000000000000000000006118f9565b610c2291906118f9565b9050610c2e878261123c565b8415610c3e57610c3e868661123c565b8215610c5a57600754610c5a906001600160a01b03168461123c565b856001600160a01b0316876001600160a01b0316897f6c3a45613039e0a1117bd6ce110ab3c920271709c010983d921a2cd268e2ea4788604051610ca091815260200190565b60405180910390a4505050610cb460018055565b5050505050505050565b600081610ccc8686866112da565b1495945050505050565b610cde6113b9565b600580549082905560408051828152602081018490527f02e87ceabfa0e381e169014833b5c0798e7de6068c766961d962847388a426fe91015b60405180910390a15050565b6000610d318484846112da565b949350505050565b610d416113b9565b6007805460ff60a81b198116600160a81b84151581810292909217909355604080519390920460ff1680151584526020840191909152917fac8a542e802a136959c104624d34be608945dacbfa86af270dae2405957c64399101610d18565b610da86113b9565b610db260006113e6565b565b610dbc611212565b7f00000000000000000000000000000000000000000000000000000000000000003414610e185760405162461bcd60e51b815260206004820152600a60248201526918985908185b5bdd5b9d60b21b6044820152606401610744565b60008181526008602052604090205460ff1615610e695760405162461bcd60e51b815260206004820152600f60248201526e18dbdb5b5a5d1b595b9d081d5cd959608a1b6044820152606401610744565b6003546210000063ffffffff90911610610eb45760405162461bcd60e51b815260206004820152600c60248201526b1d1c9959481a5cc8199d5b1b60a21b6044820152606401610744565b6000818152600860205260409020805460ff19166001179055610ed681611436565b6004819055610ee4906114fc565b6003546004546040805163ffffffff90931683526020830191909152429082015281907f8154af7b1b360f500640de68c82af19c52c4ad4189d7a7c7a41506e19a1fdd6c9060600160405180910390a26003805463ffffffff198116600163ffffffff9283168101909216179091556002805482019055805550565b50565b610f6b6113b9565b612710811115610fb55760405162461bcd60e51b81526020600482015260156024820152740e0e4dee8dec6ded840cccaca40e8dede40d0d2ced605b1b6044820152606401610744565b600680549082905560408051828152602081018490527ff247e7445763d3e9a01aee4b64de35f02273d6a1d7264694bb9298109319c8be9101610d18565b610ffb6113b9565b6007805460ff60a01b198116600160a01b84151581810292909217909355604080519390920460ff1680151584526020840191909152917fb8902f76e68eedf9d19810500094a11c4da1e45ff8e1a6d119b92b21653c021e9101610d18565b6071816015811061106a57600080fd5b0154905081565b6110796113b9565b6001600160a01b0381166110bc5760405162461bcd60e51b815260206004820152600a602482015269074726561737572793d360b41b6044820152606401610744565b600780546001600160a01b038381166001600160a01b0319831681179093556040519116919082907f4ab5be82436d353e61ca18726e984e561f5c1cc7c6d38b29d2553c790434705a90600090a35050565b6086816014811061106a57600080fd5b600c816064811061106a57600080fd5b6111366113b9565b6001600160a01b03811661116057604051631e4fbdf760e01b815260006004820152602401610744565b610f60816113e6565b6111716113b9565b6001600160a01b0382166111b35760405162461bcd60e51b8152602060048201526009602482015268072656c617965723d360bc1b6044820152606401610744565b6001600160a01b0382166000818152600b6020908152604091829020805460ff191685151590811790915591519182527fc18c96b23e5afbaf72346174b2e46029640a336fed31d8eb543c7d9e38ca5d76910160405180910390a25050565b60026001540361123557604051633ee5aeb560e01b815260040160405180910390fd5b6002600155565b6000826001600160a01b03168260405160006040518083038185875af1925050503d8060008114611289576040519150601f19603f3d011682016040523d82523d6000602084013e61128e565b606091505b50509050806112d55760405162461bcd60e51b8152602060048201526013602482015272195d1a081d1c985b9cd9995c8819985a5b1959606a1b6044820152606401610744565b505050565b60006210000063ffffffff83161061132d5760405162461bcd60e51b81526020600482015260166024820152756c656166496e646578206f7574206f662072616e676560501b6044820152606401610744565b838260005b601463ffffffff821610156113ae576000868263ffffffff166014811061135b5761135b61184b565b6020020135905061136d60028461190c565b63ffffffff1660000361138b576113848482611589565b9350611398565b6113958185611589565b93505b6113a360028461192f565b925050600101611332565b509095945050505050565b6000546001600160a01b03163314610db25760405163118cdaa760e01b8152336004820152602401610744565b600080546001600160a01b038381166001600160a01b0319831681178455604051919092169283917f8be0079c531659141344cd1fd0a4f28419497f9722a3daafe3b4186f6b6457e09190a35050565b60035460009063ffffffff16828280805b601463ffffffff821610156114f15761146160028661190c565b63ffffffff166000036114af5783925060718163ffffffff166015811061148a5761148a61184b565b015491508360868263ffffffff16601481106114a8576114a861184b565b01556114d0565b60868163ffffffff16601481106114c8576114c861184b565b015492508391505b6114da8383611589565b93506114e760028661192f565b9450600101611447565b509195945050505050565b6000600c607054606481106115135761151361184b565b015490508015611534576000818152600a60205260409020805460ff191690555b81600c6070546064811061154a5761154a61184b565b01556000828152600a60205260409020805460ff191660019081179091556070546064916115789190611838565b6115829190611952565b6070555050565b604080516020808201859052818301849052825180830384018152606090920190925280519101205b92915050565b6000602082840312156115ca57600080fd5b5035919050565b6001600160a01b0381168114610f6057600080fd5b80356115f1816115d1565b919050565b60008060008060008060008060e0898b03121561161257600080fd5b883567ffffffffffffffff8082111561162a57600080fd5b818b0191508b601f83011261163e57600080fd5b81358181111561164d57600080fd5b8c602082850101111561165f57600080fd5b60209283019a5098505089013595506040890135945061168160608a016115e6565b935061168f60808a016115e6565b925060a0890135915060c089013590509295985092959890939650565b8061028081018310156115b257600080fd5b803563ffffffff811681146115f157600080fd5b6000806000806102e085870312156116e957600080fd5b843593506116fa86602087016116ac565b92506117096102a086016116be565b939692955092936102c00135925050565b60008060006102c0848603121561173057600080fd5b8335925061174185602086016116ac565b91506117506102a085016116be565b90509250925092565b8015158114610f6057600080fd5b60006020828403121561177957600080fd5b813561178481611759565b9392505050565b60006020828403121561179d57600080fd5b8135611784816115d1565b600080604083850312156117bb57600080fd5b82356117c6816115d1565b915060208301356117d681611759565b809150509250929050565b634e487b7160e01b600052601160045260246000fd5b80820281158282048414176115b2576115b26117e1565b634e487b7160e01b600052601260045260246000fd5b6000826118335761183361180e565b500490565b808201808211156115b2576115b26117e1565b634e487b7160e01b600052603260045260246000fd5b60408152826040820152828460608301376000606084830101526000601f19601f85011682016060810160206060858403016020860152818651808452608085019150602088019450600093505b808410156118cf57845182529382019360019390930192908201906118af565b5098975050505050505050565b6000602082840312156118ee57600080fd5b815161178481611759565b818103818111156115b2576115b26117e1565b600063ffffffff808416806119235761192361180e565b92169190910692915050565b600063ffffffff808416806119465761194661180e565b92169190910492915050565b6000826119615761196161180e565b50069056fea26469706673582212200d15da596a087c2fe43ae010e7990829145ffd19c3a0d223ddb44c14ce4bcdff64736f6c63430008180033a2646970667358221220c1f098e39d606f940aa2e6f8e02756781a21e6207108eb2cc2ee10c1f307faa464736f6c63430008180033",
  "linkReferences": {},
  "deployedLinkReferences": {}
}