{"contracts/PoolFactory.sol":{"PoolFactory":{"abi":[{"inputs":[{"internalType":"address","name":"verifier_","type":"address"}],"stateMutability":"nonpayable","type":"constructor"},{"anonymous":false,"inputs":[{"indexed":true,"internalType":"address","name":"pool","type":"address"},{"indexed":false,"internalType":"uint256","name":"denomination","type":"uint256"}],"name":"PoolCreated","type":"event"},{"inputs":[],"name":"allPools","outputs":[{"internalType":"address[]","name":"","type":"address[]"}],"stateMutability":"view","type":"function"},{"inputs":[{"internalType":"uint256","name":"denomination","type":"uint256"}],"name":"createPool","outputs":[{"internalType":"address","name":"","type":"address"}],"stateMutability":"nonpayable","type":"function"},{"inputs":[{"internalType":"uint256","name":"","type":"uint256"}],"name":"pools","outputs":[{"internalType":"address","name":"","type":"address"}],"stateMutability":"view","type":"function"},{"inputs":[],"name":"verifier","outputs":[{"internalType":"address","name":"","type":"address"}],"stateMutability":"view","type":"function"}],"evm":{"bytecode":{"linkReferences":{},"object":"60a060405234801561001057600080fd5b5060405161124838038061124883398101604081905261002f91610040565b6001600160a01b0316608052610070565b60006020828403121561005257600080fd5b81516001600160a01b038116811461006957600080fd5b9392505050565b6080516111b8610090600039600081816056015260d501526111b86000f3fe608060405234801561001057600080fd5b506004361061004c5760003560e01c80632b7ac3f3146100515780638259e6a014610095578063ac4afa38146100a8578063c5c63e65146100bb575b600080fd5b6100787f000000000000000000000000000000000000000000000000000000000000000081565b6040516001600160a01b0390911681526020015b60405180910390f35b6100786100a3366004610254565b6100d0565b6100786100b6366004610254565b6101bb565b6100c36101e5565b60405161008c919061026d565b6000807f00000000000000000000000000000000000000000000000000000000000000008360405161010190610247565b6001600160a01b0390921682526020820152604001604051809103906000f080158015610132573d6000803e3d6000fd5b50600080546001810182559080527f290decd9548b62a8d60345a988386fc84ba6bc95484008f6362f93160ef3e5630180546001600160a01b0319166001600160a01b038316908117909155604051858152919250907f641e49906554552c8c33d7e09e02d1270590f405bc1da0c7b99a9c2808abdd059060200160405180910390a292915050565b600081815481106101cb57600080fd5b6000918252602090912001546001600160a01b0316905081565b6060600080548060200260200160405190810160405280929190818152602001828054801561023d57602002820191906000526020600020905b81546001600160a01b0316815260019091019060200180831161021f575b5050505050905090565b610ec8806102bb83390190565b60006020828403121561026657600080fd5b5035919050565b6020808252825182820181905260009190848201906040850190845b818110156102ae5783516001600160a01b031683529284019291840191600101610289565b5090969550505050505056fe60c06040523480156200001157600080fd5b5060405162000ec838038062000ec88339810160408190526200003491620001b0565b6001600160a01b0382166200007d5760405162461bcd60e51b815260206004820152600a602482015269076657269666965723d360b41b60448201526064015b60405180910390fd5b60008111620000c05760405162461bcd60e51b815260206004820152600e60248201526d064656e6f6d696e6174696f6e3d360941b604482015260640162000074565b6001600160a01b03821660805260a08190526040805160006020820152469181019190915260600160408051601f1981840301815291905280516020909101206001819055620001109062000118565b50506200024d565b6000600560695460648110620001325762000132620001ec565b01549050801562000154576000818152600460205260409020805460ff191690555b816005606954606481106200016d576200016d620001ec565b01556000828152600460205260409020805460ff191660019081179091556069546064916200019d919062000202565b620001a991906200022a565b6069555050565b60008060408385031215620001c457600080fd5b82516001600160a01b0381168114620001dc57600080fd5b6020939093015192949293505050565b634e487b7160e01b600052603260045260246000fd5b808201808211156200022457634e487b7160e01b600052601160045260246000fd5b92915050565b6000826200024857634e487b7160e01b600052601260045260246000fd5b500690565b60805160a051610c396200028f60003960008181610226015281816103bf0152818161062301526107f4015260008181610164015261054e0152610c396000f3fe6080604052600436106100c25760003560e01c80636d9833e31161007f578063cd87a3b411610059578063cd87a3b41461025b578063f1c621ee14610270578063fdab463d14610290578063fe1c4251146102a657600080fd5b80636d9833e3146101e45780638bca6d1614610214578063b214faa51461024857600080fd5b8063156428ba146100c757806321a0adb61461010c578063263516a81461012e5780632b7ac3f3146101525780632dfdf0b51461019e57806338c86911146101b4575b600080fd5b3480156100d357600080fd5b506100f76100e23660046109fa565b60026020526000908152604090205460ff1681565b60405190151581526020015b60405180910390f35b34801561011857600080fd5b5061012c610127366004610a2f565b6102d6565b005b34801561013a57600080fd5b5061014460695481565b604051908152602001610103565b34801561015e57600080fd5b506101867f000000000000000000000000000000000000000000000000000000000000000081565b6040516001600160a01b039091168152602001610103565b3480156101aa57600080fd5b5061014460005481565b3480156101c057600080fd5b506100f76101cf3660046109fa565b60036020526000908152604090205460ff1681565b3480156101f057600080fd5b506100f76101ff3660046109fa565b60009081526004602052604090205460ff1690565b34801561022057600080fd5b506101447f000000000000000000000000000000000000000000000000000000000000000081565b61012c6102563660046109fa565b6107f2565b34801561026757600080fd5b50610144606481565b34801561027c57600080fd5b5061014461028b3660046109fa565b610956565b34801561029c57600080fd5b5061014460015481565b3480156102b257600080fd5b506100f76102c13660046109fa565b60046020526000908152604090205460ff1681565b6001600160a01b03841661031f5760405162461bcd60e51b815260206004820152600b60248201526a0726563697069656e743d360ac1b60448201526064015b60405180910390fd5b60008581526003602052604090205460ff16156103705760405162461bcd60e51b815260206004820152600f60248201526e1b9d5b1b1a599a595c881cdc195b9d608a1b6044820152606401610316565b60008681526004602052604090205460ff166103bd5760405162461bcd60e51b815260206004820152600c60248201526b1d5b9adb9bdddb881c9bdbdd60a21b6044820152606401610316565b7f000000000000000000000000000000000000000000000000000000000000000082111561041c5760405162461bcd60e51b815260206004820152600c60248201526b0cccaca40e8dede40d0d2ced60a31b6044820152606401610316565b60408051600780825261010082019092526000916020820160e0803683370190505090508660001c8160008151811061045757610457610ae5565b6020026020010181815250508560001c8160018151811061047a5761047a610ae5565b602002602001018181525050846001600160a01b0316816002815181106104a3576104a3610ae5565b602002602001018181525050836001600160a01b0316816003815181106104cc576104cc610ae5565b60200260200101818152505082816004815181106104ec576104ec610ae5565b602002602001018181525050818160058151811061050c5761050c610ae5565b602002602001018181525050468160068151811061052c5761052c610ae5565b6020908102919091010152604051631e8e1e1360e01b81526001600160a01b037f00000000000000000000000000000000000000000000000000000000000000001690631e8e1e1390610587908c908c908690600401610afb565b602060405180830381865afa1580156105a4573d6000803e3d6000fd5b505050506040513d601f19601f820116820180604052508101906105c89190610b76565b6106045760405162461bcd60e51b815260206004820152600d60248201526c34b73b30b634b210383937b7b360991b6044820152606401610316565b6000868152600360205260408120805460ff19166001179055610647847f0000000000000000000000000000000000000000000000000000000000000000610bb5565b90506000866001600160a01b03168260405160006040518083038185875af1925050503d8060008114610696576040519150601f19603f3d011682016040523d82523d6000602084013e61069b565b606091505b50509050806106ec5760405162461bcd60e51b815260206004820152601960248201527f726563697069656e74207472616e73666572206661696c6564000000000000006044820152606401610316565b8415610797576000866001600160a01b03168660405160006040518083038185875af1925050503d806000811461073f576040519150601f19603f3d011682016040523d82523d6000602084013e610744565b606091505b50509050806107955760405162461bcd60e51b815260206004820152601760248201527f72656c61796572207472616e73666572206661696c65640000000000000000006044820152606401610316565b505b856001600160a01b0316876001600160a01b0316897f6c3a45613039e0a1117bd6ce110ab3c920271709c010983d921a2cd268e2ea47886040516107dd91815260200190565b60405180910390a45050505050505050505050565b7f0000000000000000000000000000000000000000000000000000000000000000341461084e5760405162461bcd60e51b815260206004820152600a60248201526918985908185b5bdd5b9d60b21b6044820152606401610316565b60008181526002602052604090205460ff161561089f5760405162461bcd60e51b815260206004820152600f60248201526e18dbdb5b5a5d1b595b9d081d5cd959608a1b6044820152606401610316565b6000818152600260209081526040808320805460ff19166001908117909155549254815192830193909352810183905260608101919091526080016040516020818303038152906040528051906020012060018190555061090160015461096d565b600054600154604080519283526020830191909152429082015281907f8154af7b1b360f500640de68c82af19c52c4ad4189d7a7c7a41506e19a1fdd6c9060600160405180910390a250600080546001019055565b6005816064811061096657600080fd5b0154905081565b600060056069546064811061098457610984610ae5565b0154905080156109a5576000818152600460205260409020805460ff191690555b816005606954606481106109bb576109bb610ae5565b01556000828152600460205260409020805460ff191660019081179091556069546064916109e99190610bce565b6109f39190610be1565b6069555050565b600060208284031215610a0c57600080fd5b5035919050565b80356001600160a01b0381168114610a2a57600080fd5b919050565b60008060008060008060008060e0898b031215610a4b57600080fd5b883567ffffffffffffffff80821115610a6357600080fd5b818b0191508b601f830112610a7757600080fd5b813581811115610a8657600080fd5b8c6020828501011115610a9857600080fd5b60209283019a50985050890135955060408901359450610aba60608a01610a13565b9350610ac860808a01610a13565b925060a0890135915060c089013590509295985092959890939650565b634e487b7160e01b600052603260045260246000fd5b60408152826040820152828460608301376000606084830101526000601f19601f85011682016060810160206060858403016020860152818651808452608085019150602088019450600093505b80841015610b695784518252938201936001939093019290820190610b49565b5098975050505050505050565b600060208284031215610b8857600080fd5b81518015158114610b9857600080fd5b9392505050565b634e487b7160e01b600052601160045260246000fd5b81810381811115610bc857610bc8610b9f565b92915050565b80820180821115610bc857610bc8610b9f565b600082610bfe57634e487b7160e01b600052601260045260246000fd5b50069056fea2646970667358221220c700d928676ce7c3f7dc742c307d00664685803df8f40d45c9698f603bd7dc5e64736f6c63430008180033a264697066735822122061349fd304ffd79958742d0a87ceabc7a646ce7d80024e8744b7bdf66b3d2daf64736f6c63430008180033","opcodes":"PUSH1 0xA0 PUSH1 0x40 MSTORE CALLVALUE DUP1 ISZERO PUSH2 0x10 JUMPI PUSH1 0x0 DUP1 REVERT JUMPDEST POP PUSH1 0x40 MLOAD PUSH2 0x1248 CODESIZE SUB DUP1 PUSH2 0x1248 DUP4 CODECOPY DUP2 ADD PUSH1 0x40 DUP2 SWAP1 MSTORE PUSH2 0x2F SWAP2 PUSH2 0x40 JUMP JUMPDEST PUSH1 0x1 PUSH1 0x1 PUSH1 0xA0 SHL SUB AND PUSH1 0x80 MSTORE PUSH2 0x70 JUMP JUMPDEST PUSH1 0x0 PUSH1 0x20 DUP3 DUP5 SUB SLT ISZERO PUSH2 0x52 JUMPI PUSH1 0x0 DUP1 REVERT JUMPDEST DUP2 MLOAD PUSH1 0x1 PUSH1 0x1 PUSH1 0xA0 SHL SUB DUP2 AND DUP2 EQ PUSH2 0x69 JUMPI PUSH1 0x0 DUP1 REVERT JUMPDEST SWAP4 SWAP3 POP POP POP JUMP JUMPDEST PUSH1 0x80 MLOAD PUSH2 0x11B8 PUSH2 0x90 PUSH1 0x0 CODECOPY PUSH1 0x0 DUP2 DUP2 PUSH1 0x56 ADD MSTORE PUSH1 0xD5 ADD MSTORE PUSH2 0x11B8 PUSH1 0x0 RETURN INVALID PUSH1 0x80 PUSH1 0x40 MSTORE CALLVALUE DUP1 ISZERO PUSH2 0x10 JUMPI PUSH1 0x0 DUP1 REVERT JUMPDEST POP PUSH1 0x4 CALLDATASIZE LT PUSH2 0x4C JUMPI PUSH1 0x0 CALLDATALOAD PUSH1 0xE0 SHR DUP1 PUSH4 0x2B7AC3F3 EQ PUSH2 0x51 JUMPI DUP1 PUSH4 0x8259E6A0 EQ PUSH2 0x95 JUMPI DUP1 PUSH4 0xAC4AFA38 EQ PUSH2 0xA8 JUMPI DUP1 PUSH4 0xC5C63E65 EQ PUSH2 0xBB JUMPI JUMPDEST PUSH1 0x0 DUP1 REVERT JUMPDEST PUSH2 0x78 PUSH32 0x0 DUP2 JUMP JUMPDEST PUSH1 0x40 MLOAD PUSH1 0x1 PUSH1 0x1 PUSH1 0xA0 SHL SUB SWAP1 SWAP2 AND DUP2 MSTORE PUSH1 0x20 ADD JUMPDEST PUSH1 0x40 MLOAD DUP1 SWAP2 SUB SWAP1 RETURN JUMPDEST PUSH2 0x78 PUSH2 0xA3 CALLDATASIZE PUSH1 0x4 PUSH2 0x254 JUMP JUMPDEST PUSH2 0xD0 JUMP JUMPDEST PUSH2 0x78 PUSH2 0xB6 CALLDATASIZE PUSH1 0x4 PUSH2 0x254 JUMP JUMPDEST PUSH2 0x1BB JUMP JUMPDEST PUSH2 0xC3 PUSH2 0x1E5 JUMP JUMPDEST PUSH1 0x40 MLOAD PUSH2 0x8C SWAP2 SWAP1 PUSH2 0x26D JUMP JUMPDEST PUSH1 0x0 DUP1 PUSH32 0x0 DUP4 PUSH1 0x40 MLOAD PUSH2 0x101 SWAP1 PUSH2 0x247 JUMP JUMPDEST PUSH1 0x1 PUSH1 0x1 PUSH1 0xA0 SHL SUB SWAP1 SWAP3 AND DUP3 MSTORE PUSH1 0x20 DUP3 ADD MSTORE PUSH1 0x40 ADD PUSH1 0x40 MLOAD DUP1 SWAP2 SUB SWAP1 PUSH1 0x0 CREATE DUP1 ISZERO DUP1 ISZERO PUSH2 0x132 JUMPI RETURNDATASIZE PUSH1 0x0 DUP1 RETURNDATACOPY RETURNDATASIZE PUSH1 0x0 REVERT JUMPDEST POP PUSH1 0x0 DUP1 SLOAD PUSH1 0x1 DUP2 ADD DUP3 SSTORE SWAP1 DUP1 MSTORE PUSH32 0x290DECD9548B62A8D60345A988386FC84BA6BC95484008F6362F93160EF3E563 ADD DUP1 SLOAD PUSH1 0x1 PUSH1 0x1 PUSH1 0xA0 SHL SUB NOT AND PUSH1 0x1 PUSH1 0x1 PUSH1 0xA0 SHL SUB DUP4 AND SWAP1 DUP2 OR SWAP1 SWAP2 SSTORE PUSH1 0x40 MLOAD DUP6 DUP2 MSTORE SWAP2 SWAP3 POP SWAP1 PUSH32 0x641E49906554552C8C33D7E09E02D1270590F405BC1DA0C7B99A9C2808ABDD05 SWAP1 PUSH1 0x20 ADD PUSH1 0x40 MLOAD DUP1 SWAP2 SUB SWAP1 LOG2 SWAP3 SWAP2 POP POP JUMP JUMPDEST PUSH1 0x0 DUP2 DUP2 SLOAD DUP2 LT PUSH2 0x1CB JUMPI PUSH1 0x0 DUP1 REVERT JUMPDEST PUSH1 0x0 SWAP2 DUP3 MSTORE PUSH1 0x20 SWAP1 SWAP2 KECCAK256 ADD SLOAD PUSH1 0x1 PUSH1 0x1 PUSH1 0xA0 SHL SUB AND SWAP1 POP DUP2 JUMP JUMPDEST PUSH1 0x60 PUSH1 0x0 DUP1 SLOAD DUP1 PUSH1 0x20 MUL PUSH1 0x20 ADD PUSH1 0x40 MLOAD SWAP1 DUP2 ADD PUSH1 0x40 MSTORE DUP1 SWAP3 SWAP2 SWAP1 DUP2 DUP2 MSTORE PUSH1 0x20 ADD DUP3 DUP1 SLOAD DUP1 ISZERO PUSH2 0x23D JUMPI PUSH1 0x20 MUL DUP3 ADD SWAP2 SWAP1 PUSH1 0x0 MSTORE PUSH1 0x20 PUSH1 0x0 KECCAK256 SWAP1 JUMPDEST DUP2 SLOAD PUSH1 0x1 PUSH1 0x1 PUSH1 0xA0 SHL SUB AND DUP2 MSTORE PUSH1 0x1 SWAP1 SWAP2 ADD SWAP1 PUSH1 0x20 ADD DUP1 DUP4 GT PUSH2 0x21F JUMPI JUMPDEST POP POP POP POP POP SWAP1 POP SWAP1 JUMP JUMPDEST PUSH2 0xEC8 DUP1 PUSH2 0x2BB DUP4 CODECOPY ADD SWAP1 JUMP JUMPDEST PUSH1 0x0 PUSH1 0x20 DUP3 DUP5 SUB SLT ISZERO PUSH2 0x266 JUMPI PUSH1 0x0 DUP1 REVERT JUMPDEST POP CALLDATALOAD SWAP2 SWAP1 POP JUMP JUMPDEST PUSH1 0x20 DUP1 DUP3 MSTORE DUP3 MLOAD DUP3 DUP3 ADD DUP2 SWAP1 MSTORE PUSH1 0x0 SWAP2 SWAP1 DUP5 DUP3 ADD SWAP1 PUSH1 0x40 DUP6 ADD SWAP1 DUP5 JUMPDEST DUP2 DUP2 LT ISZERO PUSH2 0x2AE JUMPI DUP4 MLOAD PUSH1 0x1 PUSH1 0x1 PUSH1 0xA0 SHL SUB AND DUP4 MSTORE SWAP3 DUP5 ADD SWAP3 SWAP2 DUP5 ADD SWAP2 PUSH1 0x1 ADD PUSH2 0x289 JUMP JUMPDEST POP SWAP1 SWAP7 SWAP6 POP POP POP POP POP POP JUMP INVALID PUSH1 0xC0 PUSH1 0x40 MSTORE CALLVALUE DUP1 ISZERO PUSH3 0x11 JUMPI PUSH1 0x0 DUP1 REVERT JUMPDEST POP PUSH1 0x40 MLOAD PUSH3 0xEC8 CODESIZE SUB DUP1 PUSH3 0xEC8 DUP4 CODECOPY DUP2 ADD PUSH1 0x40 DUP2 SWAP1 MSTORE PUSH3 0x34 SWAP2 PUSH3 0x1B0 JUMP JUMPDEST PUSH1 0x1 PUSH1 0x1 PUSH1 0xA0 SHL SUB DUP3 AND PUSH3 0x7D JUMPI PUSH1 0x40 MLOAD PUSH3 0x461BCD PUSH1 0xE5 SHL DUP2 MSTORE PUSH1 0x20 PUSH1 0x4 DUP3 ADD MSTORE PUSH1 0xA PUSH1 0x24 DUP3 ADD MSTORE PUSH10 0x76657269666965723D3 PUSH1 0xB4 SHL PUSH1 0x44 DUP3 ADD MSTORE PUSH1 0x64 ADD JUMPDEST PUSH1 0x40 MLOAD DUP1 SWAP2 SUB SWAP1 REVERT JUMPDEST PUSH1 0x0 DUP2 GT PUSH3 0xC0 JUMPI PUSH1 0x40 MLOAD PUSH3 0x461BCD PUSH1 0xE5 SHL DUP2 MSTORE PUSH1 0x20 PUSH1 0x4 DUP3 ADD MSTORE PUSH1 0xE PUSH1 0x24 DUP3 ADD MSTORE PUSH14 0x64656E6F6D696E6174696F6E3D3 PUSH1 0x94 SHL PUSH1 0x44 DUP3 ADD MSTORE PUSH1 0x64 ADD PUSH3 0x74 JUMP JUMPDEST PUSH1 0x1 PUSH1 0x1 PUSH1 0xA0 SHL SUB DUP3 AND PUSH1 0x80 MSTORE PUSH1 0xA0 DUP2 SWAP1 MSTORE PUSH1 0x40 DUP1 MLOAD PUSH1 0x0 PUSH1 0x20 DUP3 ADD MSTORE CHAINID SWAP2 DUP2 ADD SWAP2 SWAP1 SWAP2 MSTORE PUSH1 0x60 ADD PUSH1 0x40 DUP1 MLOAD PUSH1 0x1F NOT DUP2 DUP5 SUB ADD DUP2 MSTORE SWAP2 SWAP1 MSTORE DUP1 MLOAD PUSH1 0x20 SWAP1 SWAP2 ADD KECCAK256 PUSH1 0x1 DUP2 SWAP1 SSTORE PUSH3 0x110 SWAP1 PUSH3 0x118 JUMP JUMPDEST POP POP PUSH3 0x24D JUMP JUMPDEST PUSH1 0x0 PUSH1 0x5 PUSH1 0x69 SLOAD PUSH1 0x64 DUP2 LT PUSH3 0x132 JUMPI PUSH3 0x132 PUSH3 0x1EC JUMP JUMPDEST ADD SLOAD SWAP1 POP DUP1 ISZERO PUSH3 0x154 JUMPI PUSH1 0x0 DUP2 DUP2 MSTORE PUSH1 0x4 PUSH1 0x20 MSTORE PUSH1 0x40 SWAP1 KECCAK256 DUP1 SLOAD PUSH1 0xFF NOT AND SWAP1 SSTORE JUMPDEST DUP2 PUSH1 0x5 PUSH1 0x69 SLOAD PUSH1 0x64 DUP2 LT PUSH3 0x16D JUMPI PUSH3 0x16D PUSH3 0x1EC JUMP JUMPDEST ADD SSTORE PUSH1 0x0 DUP3 DUP2 MSTORE PUSH1 0x4 PUSH1 0x20 MSTORE PUSH1 0x40 SWAP1 KECCAK256 DUP1 SLOAD PUSH1 0xFF NOT AND PUSH1 0x1 SWAP1 DUP2 OR SWAP1 SWAP2 SSTORE PUSH1 0x69 SLOAD PUSH1 0x64 SWAP2 PUSH3 0x19D SWAP2 SWAP1 PUSH3 0x202 JUMP JUMPDEST PUSH3 0x1A9 SWAP2 SWAP1 PUSH3 0x22A JUMP JUMPDEST PUSH1 0x69 SSTORE POP POP JUMP JUMPDEST PUSH1 0x0 DUP1 PUSH1 0x40 DUP4 DUP6 SUB SLT ISZERO PUSH3 0x1C4 JUMPI PUSH1 0x0 DUP1 REVERT JUMPDEST DUP3 MLOAD PUSH1 0x1 PUSH1 0x1 PUSH1 0xA0 SHL SUB DUP2 AND DUP2 EQ PUSH3 0x1DC JUMPI PUSH1 0x0 DUP1 REVERT JUMPDEST PUSH1 0x20 SWAP4 SWAP1 SWAP4 ADD MLOAD SWAP3 SWAP5 SWAP3 SWAP4 POP POP POP JUMP JUMPDEST PUSH4 0x4E487B71 PUSH1 0xE0 SHL PUSH1 0x0 MSTORE PUSH1 0x32 PUSH1 0x4 MSTORE PUSH1 0x24 PUSH1 0x0 REVERT JUMPDEST DUP1 DUP3 ADD DUP1 DUP3 GT ISZERO PUSH3 0x224 JUMPI PUSH4 0x4E487B71 PUSH1 0xE0 SHL PUSH1 0x0 MSTORE PUSH1 0x11 PUSH1 0x4 MSTORE PUSH1 0x24 PUSH1 0x0 REVERT JUMPDEST SWAP3 SWAP2 POP POP JUMP JUMPDEST PUSH1 0x0 DUP3 PUSH3 0x248 JUMPI PUSH4 0x4E487B71 PUSH1 0xE0 SHL PUSH1 0x0 MSTORE PUSH1 0x12 PUSH1 0x4 MSTORE PUSH1 0x24 PUSH1 0x0 REVERT JUMPDEST POP MOD SWAP1 JUMP JUMPDEST PUSH1 0x80 MLOAD PUSH1 0xA0 MLOAD PUSH2 0xC39 PUSH3 0x28F PUSH1 0x0 CODECOPY PUSH1 0x0 DUP2 DUP2 PUSH2 0x226 ADD MSTORE DUP2 DUP2 PUSH2 0x3BF ADD MSTORE DUP2 DUP2 PUSH2 0x623 ADD MSTORE PUSH2 0x7F4 ADD MSTORE PUSH1 0x0 DUP2 DUP2 PUSH2 0x164 ADD MSTORE PUSH2 0x54E ADD MSTORE PUSH2 0xC39 PUSH1 0x0 RETURN INVALID PUSH1 0x80 PUSH1 0x40 MSTORE PUSH1 0x4 CALLDATASIZE LT PUSH2 0xC2 JUMPI PUSH1 0x0 CALLDATALOAD PUSH1 0xE0 SHR DUP1 PUSH4 0x6D9833E3 GT PUSH2 0x7F JUMPI DUP1 PUSH4 0xCD87A3B4 GT PUSH2 0x59 JUMPI DUP1 PUSH4 0xCD87A3B4 EQ PUSH2 0x25B JUMPI DUP1 PUSH4 0xF1C621EE EQ PUSH2 0x270 JUMPI DUP1 PUSH4 0xFDAB463D EQ PUSH2 0x290 JUMPI DUP1 PUSH4 0xFE1C4251 EQ PUSH2 0x2A6 JUMPI PUSH1 0x0 DUP1 REVERT JUMPDEST DUP1 PUSH4 0x6D9833E3 EQ PUSH2 0x1E4 JUMPI DUP1 PUSH4 0x8BCA6D16 EQ PUSH2 0x214 JUMPI DUP1 PUSH4 0xB214FAA5 EQ PUSH2 0x248 JUMPI PUSH1 0x0 DUP1 REVERT JUMPDEST DUP1 PUSH4 0x156428BA EQ PUSH2 0xC7 JUMPI DUP1 PUSH4 0x21A0ADB6 EQ PUSH2 0x10C JUMPI DUP1 PUSH4 0x263516A8 EQ PUSH2 0x12E JUMPI DUP1 PUSH4 0x2B7AC3F3 EQ PUSH2 0x152 JUMPI DUP1 PUSH4 0x2DFDF0B5 EQ PUSH2 0x19E JUMPI DUP1 PUSH4 0x38C86911 EQ PUSH2 0x1B4 JUMPI JUMPDEST PUSH1 0x0 DUP1 REVERT JUMPDEST CALLVALUE DUP1 ISZERO PUSH2 0xD3 JUMPI PUSH1 0x0 DUP1 REVERT JUMPDEST POP PUSH2 0xF7 PUSH2 0xE2 CALLDATASIZE PUSH1 0x4 PUSH2 0x9FA JUMP JUMPDEST PUSH1 0x2 PUSH1 0x20 MSTORE PUSH1 0x0 SWAP1 DUP2 MSTORE PUSH1 0x40 SWAP1 KECCAK256 SLOAD PUSH1 0xFF AND DUP2 JUMP JUMPDEST PUSH1 0x40 MLOAD SWAP1 ISZERO ISZERO DUP2 MSTORE PUSH1 0x20 ADD JUMPDEST PUSH1 0x40 MLOAD DUP1 SWAP2 SUB SWAP1 RETURN JUMPDEST CALLVALUE DUP1 ISZERO PUSH2 0x118 JUMPI PUSH1 0x0 DUP1 REVERT JUMPDEST POP PUSH2 0x12C PUSH2 0x127 CALLDATASIZE PUSH1 0x4 PUSH2 0xA2F JUMP JUMPDEST PUSH2 0x2D6 JUMP JUMPDEST STOP JUMPDEST CALLVALUE DUP1 ISZERO PUSH2 0x13A JUMPI PUSH1 0x0 DUP1 REVERT JUMPDEST POP PUSH2 0x144 PUSH1 0x69 SLOAD DUP2 JUMP JUMPDEST PUSH1 0x40 MLOAD SWAP1 DUP2 MSTORE PUSH1 0x20 ADD PUSH2 0x103 JUMP JUMPDEST CALLVALUE DUP1 ISZERO PUSH2 0x15E JUMPI PUSH1 0x0 DUP1 REVERT JUMPDEST POP PUSH2 0x186 PUSH32 0x0 DUP2 JUMP JUMPDEST PUSH1 0x40 MLOAD PUSH1 0x1 PUSH1 0x1 PUSH1 0xA0 SHL SUB SWAP1 SWAP2 AND DUP2 MSTORE PUSH1 0x20 ADD PUSH2 0x103 JUMP JUMPDEST CALLVALUE DUP1 ISZERO PUSH2 0x1AA JUMPI PUSH1 0x0 DUP1 REVERT JUMPDEST POP PUSH2 0x144 PUSH1 0x0 SLOAD DUP2 JUMP JUMPDEST CALLVALUE DUP1 ISZERO PUSH2 0x1C0 JUMPI PUSH1 0x0 DUP1 REVERT JUMPDEST POP PUSH2 0xF7 PUSH2 0x1CF CALLDATASIZE PUSH1 0x4 PUSH2 0x9FA JUMP JUMPDEST PUSH1 0x3 PUSH1 0x20 MSTORE PUSH1 0x0 SWAP1 DUP2 MSTORE PUSH1 0x40 SWAP1 KECCAK256 SLOAD PUSH1 0xFF AND DUP2 JUMP JUMPDEST CALLVALUE DUP1 ISZERO PUSH2 0x1F0 JUMPI PUSH1 0x0 DUP1 REVERT JUMPDEST POP PUSH2 0xF7 PUSH2 0x1FF CALLDATASIZE PUSH1 0x4 PUSH2 0x9FA JUMP JUMPDEST PUSH1 0x0 SWAP1 DUP2 MSTORE PUSH1 0x4 PUSH1 0x20 MSTORE PUSH1 0x40 SWAP1 KECCAK256 SLOAD PUSH1 0xFF AND SWAP1 JUMP JUMPDEST CALLVALUE DUP1 ISZERO PUSH2 0x220 JUMPI PUSH1 0x0 DUP1 REVERT JUMPDEST POP PUSH2 0x144 PUSH32 0x0 DUP2 JUMP JUMPDEST PUSH2 0x12C PUSH2 0x256 CALLDATASIZE PUSH1 0x4 PUSH2 0x9FA JUMP JUMPDEST PUSH2 0x7F2 JUMP JUMPDEST CALLVALUE DUP1 ISZERO PUSH2 0x267 JUMPI PUSH1 0x0 DUP1 REVERT JUMPDEST POP PUSH2 0x144 PUSH1 0x64 DUP2 JUMP JUMPDEST CALLVALUE DUP1 ISZERO PUSH2 0x27C JUMPI PUSH1 0x0 DUP1 REVERT JUMPDEST POP PUSH2 0x144 PUSH2 0x28B CALLDATASIZE PUSH1 0x4 PUSH2 0x9FA JUMP JUMPDEST PUSH2 0x956 JUMP JUMPDEST CALLVALUE DUP1 ISZERO PUSH2 0x29C JUMPI PUSH1 0x0 DUP1 REVERT JUMPDEST POP PUSH2 0x144 PUSH1 0x1 SLOAD DUP2 JUMP JUMPDEST CALLVALUE DUP1 ISZERO PUSH2 0x2B2 JUMPI PUSH1 0x0 DUP1 REVERT JUMPDEST POP PUSH2 0xF7 PUSH2 0x2C1 CALLDATASIZE PUSH1 0x4 PUSH2 0x9FA JUMP JUMPDEST PUSH1 0x4 PUSH1 0x20 MSTORE PUSH1 0x0 SWAP1 DUP2 MSTORE PUSH1 0x40 SWAP1 KECCAK256 SLOAD PUSH1 0xFF AND DUP2 JUMP JUMPDEST PUSH1 0x1 PUSH1 0x1 PUSH1 0xA0 SHL SUB DUP5 AND PUSH2 0x31F JUMPI PUSH1 0x40 MLOAD PUSH3 0x461BCD PUSH1 0xE5 SHL DUP2 MSTORE PUSH1 0x20 PUSH1 0x4 DUP3 ADD MSTORE PUSH1 0xB PUSH1 0x24 DUP3 ADD MSTORE PUSH11 0x726563697069656E743D3 PUSH1 0xAC SHL PUSH1 0x44 DUP3 ADD MSTORE PUSH1 0x64 ADD JUMPDEST PUSH1 0x40 MLOAD DUP1 SWAP2 SUB SWAP1 REVERT JUMPDEST PUSH1 0x0 DUP6 DUP2 MSTORE PUSH1 0x3 PUSH1 0x20 MSTORE PUSH1 0x40 SWAP1 KECCAK256 SLOAD PUSH1 0xFF AND ISZERO PUSH2 0x370 JUMPI PUSH1 0x40 MLOAD PUSH3 0x461BCD PUSH1 0xE5 SHL DUP2 MSTORE PUSH1 0x20 PUSH1 0x4 DUP3 ADD MSTORE PUSH1 0xF PUSH1 0x24 DUP3 ADD MSTORE PUSH15 0x1B9D5B1B1A599A595C881CDC195B9D PUSH1 0x8A SHL PUSH1 0x44 DUP3 ADD MSTORE PUSH1 0x64 ADD PUSH2 0x316 JUMP JUMPDEST PUSH1 0x0 DUP7 DUP2 MSTORE PUSH1 0x4 PUSH1 0x20 MSTORE PUSH1 0x40 SWAP1 KECCAK256 SLOAD PUSH1 0xFF AND PUSH2 0x3BD JUMPI PUSH1 0x40 MLOAD PUSH3 0x461BCD PUSH1 0xE5 SHL DUP2 MSTORE PUSH1 0x20 PUSH1 0x4 DUP3 ADD MSTORE PUSH1 0xC PUSH1 0x24 DUP3 ADD MSTORE PUSH12 0x1D5B9ADB9BDDDB881C9BDBDD PUSH1 0xA2 SHL PUSH1 0x44 DUP3 ADD MSTORE PUSH1 0x64 ADD PUSH2 0x316 JUMP JUMPDEST PUSH32 0x0 DUP3 GT ISZERO PUSH2 0x41C JUMPI PUSH1 0x40 MLOAD PUSH3 0x461BCD PUSH1 0xE5 SHL DUP2 MSTORE PUSH1 0x20 PUSH1 0x4 DUP3 ADD MSTORE PUSH1 0xC PUSH1 0x24 DUP3 ADD MSTORE PUSH12 0xCCCACA40E8DEDE40D0D2CED PUSH1 0xA3 SHL PUSH1 0x44 DUP3 ADD MSTORE PUSH1 0x64 ADD PUSH2 0x316 JUMP JUMPDEST PUSH1 0x40 DUP1 MLOAD PUSH1 0x7 DUP1 DUP3 MSTORE PUSH2 0x100 DUP3 ADD SWAP1 SWAP3 MSTORE PUSH1 0x0 SWAP2 PUSH1 0x20 DUP3 ADD PUSH1 0xE0 DUP1 CALLDATASIZE DUP4 CALLDATACOPY ADD SWAP1 POP POP SWAP1 POP DUP7 PUSH1 0x0 SHR DUP2 PUSH1 0x0 DUP2 MLOAD DUP2 LT PUSH2 0x457 JUMPI PUSH2 0x457 PUSH2 0xAE5 JUMP JUMPDEST PUSH1 0x20 MUL PUSH1 0x20 ADD ADD DUP2 DUP2 MSTORE POP POP DUP6 PUSH1 0x0 SHR DUP2 PUSH1 0x1 DUP2 MLOAD DUP2 LT PUSH2 0x47A JUMPI PUSH2 0x47A PUSH2 0xAE5 JUMP JUMPDEST PUSH1 0x20 MUL PUSH1 0x20 ADD ADD DUP2 DUP2 MSTORE POP POP DUP5 PUSH1 0x1 PUSH1 0x1 PUSH1 0xA0 SHL SUB AND DUP2 PUSH1 0x2 DUP2 MLOAD DUP2 LT PUSH2 0x4A3 JUMPI PUSH2 0x4A3 PUSH2 0xAE5 JUMP JUMPDEST PUSH1 0x20 MUL PUSH1 0x20 ADD ADD DUP2 DUP2 MSTORE POP POP DUP4 PUSH1 0x1 PUSH1 0x1 PUSH1 0xA0 SHL SUB AND DUP2 PUSH1 0x3 DUP2 MLOAD DUP2 LT PUSH2 0x4CC JUMPI PUSH2 0x4CC PUSH2 0xAE5 JUMP JUMPDEST PUSH1 0x20 MUL PUSH1 0x20 ADD ADD DUP2 DUP2 MSTORE POP POP DUP3 DUP2 PUSH1 0x4 DUP2 MLOAD DUP2 LT PUSH2 0x4EC JUMPI PUSH2 0x4EC PUSH2 0xAE5 JUMP JUMPDEST PUSH1 0x20 MUL PUSH1 0x20 ADD ADD DUP2 DUP2 MSTORE POP POP DUP2 DUP2 PUSH1 0x5 DUP2 MLOAD DUP2 LT PUSH2 0x50C JUMPI PUSH2 0x50C PUSH2 0xAE5 JUMP JUMPDEST PUSH1 0x20 MUL PUSH1 0x20 ADD ADD DUP2 DUP2 MSTORE POP POP CHAINID DUP2 PUSH1 0x6 DUP2 MLOAD DUP2 LT PUSH2 0x52C JUMPI PUSH2 0x52C PUSH2 0xAE5 JUMP JUMPDEST PUSH1 0x20 SWAP1 DUP2 MUL SWAP2 SWAP1 SWAP2 ADD ADD MSTORE PUSH1 0x40 MLOAD PUSH4 0x1E8E1E13 PUSH1 0xE0 SHL DUP2 MSTORE PUSH1 0x1 PUSH1 0x1 PUSH1 0xA0 SHL SUB PUSH32 0x0 AND SWAP1 PUSH4 0x1E8E1E13 SWAP1 PUSH2 0x587 SWAP1 DUP13 SWAP1 DUP13 SWAP1 DUP7 SWAP1 PUSH1 0x4 ADD PUSH2 0xAFB JUMP JUMPDEST PUSH1 0x20 PUSH1 0x40 MLOAD DUP1 DUP4 SUB DUP2 DUP7 GAS STATICCALL ISZERO DUP1 ISZERO PUSH2 0x5A4 JUMPI RETURNDATASIZE PUSH1 0x0 DUP1 RETURNDATACOPY RETURNDATASIZE PUSH1 0x0 REVERT JUMPDEST POP POP POP POP PUSH1 0x40 MLOAD RETURNDATASIZE PUSH1 0x1F NOT PUSH1 0x1F DUP3 ADD AND DUP3 ADD DUP1 PUSH1 0x40 MSTORE POP DUP2 ADD SWAP1 PUSH2 0x5C8 SWAP2 SWAP1 PUSH2 0xB76 JUMP JUMPDEST PUSH2 0x604 JUMPI PUSH1 0x40 MLOAD PUSH3 0x461BCD PUSH1 0xE5 SHL DUP2 MSTORE PUSH1 0x20 PUSH1 0x4 DUP3 ADD MSTORE PUSH1 0xD PUSH1 0x24 DUP3 ADD MSTORE PUSH13 0x34B73B30B634B210383937B7B3 PUSH1 0x99 SHL PUSH1 0x44 DUP3 ADD MSTORE PUSH1 0x64 ADD PUSH2 0x316 JUMP JUMPDEST PUSH1 0x0 DUP7 DUP2 MSTORE PUSH1 0x3 PUSH1 0x20 MSTORE PUSH1 0x40 DUP2 KECCAK256 DUP1 SLOAD PUSH1 0xFF NOT AND PUSH1 0x1 OR SWAP1 SSTORE PUSH2 0x647 DUP5 PUSH32 0x0 PUSH2 0xBB5 JUMP JUMPDEST SWAP1 POP PUSH1 0x0 DUP7 PUSH1 0x1 PUSH1 0x1 PUSH1 0xA0 SHL SUB AND DUP3 PUSH1 0x40 MLOAD PUSH1 0x0 PUSH1 0x40 MLOAD DUP1 DUP4 SUB DUP2 DUP6 DUP8 GAS CALL SWAP3 POP POP POP RETURNDATASIZE DUP1 PUSH1 0x0 DUP2 EQ PUSH2 0x696 JUMPI PUSH1 0x40 MLOAD SWAP2 POP PUSH1 0x1F NOT PUSH1 0x3F RETURNDATASIZE ADD AND DUP3 ADD PUSH1 0x40 MSTORE RETURNDATASIZE DUP3 MSTORE RETURNDATASIZE PUSH1 0x0 PUSH1 0x20 DUP5 ADD RETURNDATACOPY PUSH2 0x69B JUMP JUMPDEST PUSH1 0x60 SWAP2 POP JUMPDEST POP POP SWAP1 POP DUP1 PUSH2 0x6EC JUMPI PUSH1 0x40 MLOAD PUSH3 0x461BCD PUSH1 0xE5 SHL DUP2 MSTORE PUSH1 0x20 PUSH1 0x4 DUP3 ADD MSTORE PUSH1 0x19 PUSH1 0x24 DUP3 ADD MSTORE PUSH32 0x726563697069656E74207472616E73666572206661696C656400000000000000 PUSH1 0x44 DUP3 ADD MSTORE PUSH1 0x64 ADD PUSH2 0x316 JUMP JUMPDEST DUP5 ISZERO PUSH2 0x797 JUMPI PUSH1 0x0 DUP7 PUSH1 0x1 PUSH1 0x1 PUSH1 0xA0 SHL SUB AND DUP7 PUSH1 0x40 MLOAD PUSH1 0x0 PUSH1 0x40 MLOAD DUP1 DUP4 SUB DUP2 DUP6 DUP8 GAS CALL SWAP3 POP POP POP RETURNDATASIZE DUP1 PUSH1 0x0 DUP2 EQ PUSH2 0x73F JUMPI PUSH1 0x40 MLOAD SWAP2 POP PUSH1 0x1F NOT PUSH1 0x3F RETURNDATASIZE ADD AND DUP3 ADD PUSH1 0x40 MSTORE RETURNDATASIZE DUP3 MSTORE RETURNDATASIZE PUSH1 0x0 PUSH1 0x20 DUP5 ADD RETURNDATACOPY PUSH2 0x744 JUMP JUMPDEST PUSH1 0x60 SWAP2 POP JUMPDEST POP POP SWAP1 POP DUP1 PUSH2 0x795 JUMPI PUSH1 0x40 MLOAD PUSH3 0x461BCD PUSH1 0xE5 SHL DUP2 MSTORE PUSH1 0x20 PUSH1 0x4 DUP3 ADD MSTORE PUSH1 0x17 PUSH1 0x24 DUP3 ADD MSTORE PUSH32 0x72656C61796572207472616E73666572206661696C6564000000000000000000 PUSH1 0x44 DUP3 ADD MSTORE PUSH1 0x64 ADD PUSH2 0x316 JUMP JUMPDEST POP JUMPDEST DUP6 PUSH1 0x1 PUSH1 0x1 PUSH1 0xA0 SHL SUB AND DUP8 PUSH1 0x1 PUSH1 0x1 PUSH1 0xA0 SHL SUB AND DUP10 PUSH32 0x6C3A45613039E0A1117BD6CE110AB3C920271709C010983D921A2CD268E2EA47 DUP9 PUSH1 0x40 MLOAD PUSH2 0x7DD SWAP2 DUP2 MSTORE PUSH1 0x20 ADD SWAP1 JUMP JUMPDEST PUSH1 0x40 MLOAD DUP1 SWAP2 SUB SWAP1 LOG4 POP POP POP POP POP POP POP POP POP POP POP JUMP JUMPDEST PUSH32 0x0 CALLVALUE EQ PUSH2 0x84E JUMPI PUSH1 0x40 MLOAD PUSH3 0x461BCD PUSH1 0xE5 SHL DUP2 MSTORE PUSH1 0x20 PUSH1 0x4 DUP3 ADD MSTORE PUSH1 0xA PUSH1 0x24 DUP3 ADD MSTORE PUSH10 0x18985908185B5BDD5B9D PUSH1 0xB2 SHL PUSH1 0x44 DUP3 ADD MSTORE PUSH1 0x64 ADD PUSH2 0x316 JUMP JUMPDEST PUSH1 0x0 DUP2 DUP2 MSTORE PUSH1 0x2 PUSH1 0x20 MSTORE PUSH1 0x40 SWAP1 KECCAK256 SLOAD PUSH1 0xFF AND ISZERO PUSH2 0x89F JUMPI PUSH1 0x40 MLOAD PUSH3 0x461BCD PUSH1 0xE5 SHL DUP2 MSTORE PUSH1 0x20 PUSH1 0x4 DUP3 ADD MSTORE PUSH1 0xF PUSH1 0x24 DUP3 ADD MSTORE PUSH15 0x18DBDB5B5A5D1B595B9D081D5CD959 PUSH1 0x8A SHL PUSH1 0x44 DUP3 ADD MSTORE PUSH1 0x64 ADD PUSH2 0x316 JUMP JUMPDEST PUSH1 0x0 DUP2 DUP2 MSTORE PUSH1 0x2 PUSH1 0x20 SWAP1 DUP2 MSTORE PUSH1 0x40 DUP1 DUP4 KECCAK256 DUP1 SLOAD PUSH1 0xFF NOT AND PUSH1 0x1 SWAP1 DUP2 OR SWAP1 SWAP2 SSTORE SLOAD SWAP3 SLOAD DUP2 MLOAD SWAP3 DUP4 ADD SWAP4 SWAP1 SWAP4 MSTORE DUP2 ADD DUP4 SWAP1 MSTORE PUSH1 0x60 DUP2 ADD SWAP2 SWAP1 SWAP2 MSTORE PUSH1 0x80 ADD PUSH1 0x40 MLOAD PUSH1 0x20 DUP2 DUP4 SUB SUB DUP2 MSTORE SWAP1 PUSH1 0x40 MSTORE DUP1 MLOAD SWAP1 PUSH1 0x20 ADD KECCAK256 PUSH1 0x1 DUP2 SWAP1 SSTORE POP PUSH2 0x901 PUSH1 0x1 SLOAD PUSH2 0x96D JUMP JUMPDEST PUSH1 0x0 SLOAD PUSH1 0x1 SLOAD PUSH1 0x40 DUP1 MLOAD SWAP3 DUP4 MSTORE PUSH1 0x20 DUP4 ADD SWAP2 SWAP1 SWAP2 MSTORE TIMESTAMP SWAP1 DUP3 ADD MSTORE DUP2 SWAP1 PUSH32 0x8154AF7B1B360F500640DE68C82AF19C52C4AD4189D7A7C7A41506E19A1FDD6C SWAP1 PUSH1 0x60 ADD PUSH1 0x40 MLOAD DUP1 SWAP2 SUB SWAP1 LOG2 POP PUSH1 0x0 DUP1 SLOAD PUSH1 0x1 ADD SWAP1 SSTORE JUMP JUMPDEST PUSH1 0x5 DUP2 PUSH1 0x64 DUP2 LT PUSH2 0x966 JUMPI PUSH1 0x0 DUP1 REVERT JUMPDEST ADD SLOAD SWAP1 POP DUP2 JUMP JUMPDEST PUSH1 0x0 PUSH1 0x5 PUSH1 0x69 SLOAD PUSH1 0x64 DUP2 LT PUSH2 0x984 JUMPI PUSH2 0x984 PUSH2 0xAE5 JUMP JUMPDEST ADD SLOAD SWAP1 POP DUP1 ISZERO PUSH2 0x9A5 JUMPI PUSH1 0x0 DUP2 DUP2 MSTORE PUSH1 0x4 PUSH1 0x20 MSTORE PUSH1 0x40 SWAP1 KECCAK256 DUP1 SLOAD PUSH1 0xFF NOT AND SWAP1 SSTORE JUMPDEST DUP2 PUSH1 0x5 PUSH1 0x69 SLOAD PUSH1 0x64 DUP2 LT PUSH2 0x9BB JUMPI PUSH2 0x9BB PUSH2 0xAE5 JUMP JUMPDEST ADD SSTORE PUSH1 0x0 DUP3 DUP2 MSTORE PUSH1 0x4 PUSH1 0x20 MSTORE PUSH1 0x40 SWAP1 KECCAK256 DUP1 SLOAD PUSH1 0xFF NOT AND PUSH1 0x1 SWAP1 DUP2 OR SWAP1 SWAP2 SSTORE PUSH1 0x69 SLOAD PUSH1 0x64 SWAP2 PUSH2 0x9E9 SWAP2 SWAP1 PUSH2 0xBCE JUMP JUMPDEST PUSH2 0x9F3 SWAP2 SWAP1 PUSH2 0xBE1 JUMP JUMPDEST PUSH1 0x69 SSTORE POP POP JUMP JUMPDEST PUSH1 0x0 PUSH1 0x20 DUP3 DUP5 SUB SLT ISZERO PUSH2 0xA0C JUMPI PUSH1 0x0 DUP1 REVERT JUMPDEST POP CALLDATALOAD SWAP2 SWAP1 POP JUMP JUMPDEST DUP1 CALLDATALOAD PUSH1 0x1 PUSH1 0x1 PUSH1 0xA0 SHL SUB DUP2 AND DUP2 EQ PUSH2 0xA2A JUMPI PUSH1 0x0 DUP1 REVERT JUMPDEST SWAP2 SWAP1 POP JUMP JUMPDEST PUSH1 0x0 DUP1 PUSH1 0x0 DUP1 PUSH1 0x0 DUP1 PUSH1 0x0 DUP1 PUSH1 0xE0 DUP10 DUP12 SUB SLT ISZERO PUSH2 0xA4B JUMPI PUSH1 0x0 DUP1 REVERT JUMPDEST DUP9 CALLDATALOAD PUSH8 0xFFFFFFFFFFFFFFFF DUP1 DUP3 GT ISZERO PUSH2 0xA63 JUMPI PUSH1 0x0 DUP1 REVERT JUMPDEST DUP2 DUP12 ADD SWAP2 POP DUP12 PUSH1 0x1F DUP4 ADD SLT PUSH2 0xA77 JUMPI PUSH1 0x0 DUP1 REVERT JUMPDEST DUP2 CALLDATALOAD DUP2 DUP2 GT ISZERO PUSH2 0xA86 JUMPI PUSH1 0x0 DUP1 REVERT JUMPDEST DUP13 PUSH1 0x20 DUP3 DUP6 ADD ADD GT ISZERO PUSH2 0xA98 JUMPI PUSH1 0x0 DUP1 REVERT JUMPDEST PUSH1 0x20 SWAP3 DUP4 ADD SWAP11 POP SWAP9 POP POP DUP10 ADD CALLDATALOAD SWAP6 POP PUSH1 0x40 DUP10 ADD CALLDATALOAD SWAP5 POP PUSH2 0xABA PUSH1 0x60 DUP11 ADD PUSH2 0xA13 JUMP JUMPDEST SWAP4 POP PUSH2 0xAC8 PUSH1 0x80 DUP11 ADD PUSH2 0xA13 JUMP JUMPDEST SWAP3 POP PUSH1 0xA0 DUP10 ADD CALLDATALOAD SWAP2 POP PUSH1 0xC0 DUP10 ADD CALLDATALOAD SWAP1 POP SWAP3 SWAP6 SWAP9 POP SWAP3 SWAP6 SWAP9 SWAP1 SWAP4 SWAP7 POP JUMP JUMPDEST PUSH4 0x4E487B71 PUSH1 0xE0 SHL PUSH1 0x0 MSTORE PUSH1 0x32 PUSH1 0x4 MSTORE PUSH1 0x24 PUSH1 0x0 REVERT JUMPDEST PUSH1 0x40 DUP2 MSTORE DUP3 PUSH1 0x40 DUP3 ADD MSTORE DUP3 DUP5 PUSH1 0x60 DUP4 ADD CALLDATACOPY PUSH1 0x0 PUSH1 0x60 DUP5 DUP4 ADD ADD MSTORE PUSH1 0x0 PUSH1 0x1F NOT PUSH1 0x1F DUP6 ADD AND DUP3 ADD PUSH1 0x60 DUP2 ADD PUSH1 0x20 PUSH1 0x60 DUP6 DUP5 SUB ADD PUSH1 0x20 DUP7 ADD MSTORE DUP2 DUP7 MLOAD DUP1 DUP5 MSTORE PUSH1 0x80 DUP6 ADD SWAP2 POP PUSH1 0x20 DUP9 ADD SWAP5 POP PUSH1 0x0 SWAP4 POP JUMPDEST DUP1 DUP5 LT ISZERO PUSH2 0xB69 JUMPI DUP5 MLOAD DUP3 MSTORE SWAP4 DUP3 ADD SWAP4 PUSH1 0x1 SWAP4 SWAP1 SWAP4 ADD SWAP3 SWAP1 DUP3 ADD SWAP1 PUSH2 0xB49 JUMP JUMPDEST POP SWAP9 SWAP8 POP POP POP POP POP POP POP POP JUMP JUMPDEST PUSH1 0x0 PUSH1 0x20 DUP3 DUP5 SUB SLT ISZERO PUSH2 0xB88 JUMPI PUSH1 0x0 DUP1 REVERT JUMPDEST DUP2 MLOAD DUP1 ISZERO ISZERO DUP2 EQ PUSH2 0xB98 JUMPI PUSH1 0x0 DUP1 REVERT JUMPDEST SWAP4 SWAP3 POP POP POP JUMP JUMPDEST PUSH4 0x4E487B71 PUSH1 0xE0 SHL PUSH1 0x0 MSTORE PUSH1 0x11 PUSH1 0x4 MSTORE PUSH1 0x24 PUSH1 0x0 REVERT JUMPDEST DUP2 DUP2 SUB DUP2 DUP2 GT ISZERO PUSH2 0xBC8 JUMPI PUSH2 0xBC8 PUSH2 0xB9F JUMP JUMPDEST SWAP3 SWAP2 POP POP JUMP JUMPDEST DUP1 DUP3 ADD DUP1 DUP3 GT ISZERO PUSH2 0xBC8 JUMPI PUSH2 0xBC8 PUSH2 0xB9F JUMP JUMPDEST PUSH1 0x0 DUP3 PUSH2 0xBFE JUMPI PUSH4 0x4E487B71 PUSH1 0xE0 SHL PUSH1 0x0 MSTORE PUSH1 0x12 PUSH1 0x4 MSTORE PUSH1 0x24 PUSH1 0x0 REVERT JUMPDEST POP MOD SWAP1 JUMP INVALID LOG2 PUSH5 0x6970667358 0x22 SLT KECCAK256 0xC7 STOP 0xD9 0x28 PUSH8 0x6CE7C3F7DC742C30 PUSH30 0x664685803DF8F40D45C9698F603BD7DC5E64736F6C63430008180033A2 PUSH5 0x6970667358 0x22 SLT KECCAK256 PUSH2 0x349F 0xD3 DIV SELFDESTRUCT 0xD7 SWAP10 PC PUSH21 0x2D0A87CEABC7A646CE7D80024E8744B7BDF66B3D2D 0xAF PUSH5 0x736F6C6343 STOP ADDMOD XOR STOP CALLER "},"methodIdentifiers":{"allPools()":"c5c63e65","createPool(uint256)":"8259e6a0","pools(uint256)":"ac4afa38","verifier()":"2b7ac3f3"}}}}}