{"contracts/PoseidonHasherMock.sol":{"PoseidonHasherMock":{"abi":[{"inputs":[{"internalType":"bytes32","name":"left","type":"bytes32"},{"internalType":"bytes32","name":"right","type":"bytes32"}],"name":"hash","outputs":[{"internalType":"bytes32","name":"","type":"bytes32"}],"stateMutability":"pure","type":"function"}],"evm":{"bytecode":{"linkReferences":{},"object":"608060405234801561001057600080fd5b5060ef8061001f6000396000f3fe6080604052348015600f57600080fd5b506004361060285760003560e01c8063412f9cac14602d575b600080fd5b608660383660046098565b6040516f504f534549444f4e5f4d4f434b5f563160801b6020820152603081018390526050810182905260009060700160405160208183030381529060405280519060200120905092915050565b60405190815260200160405180910390f35b6000806040838503121560aa57600080fd5b5050803592602090910135915056fea264697066735822122093b8242f0ddf01f46f8265d8a62fc3385372c5ce8ebe457ee8cde9eecebb637a64736f6c63430008180033","opcodes":"PUSH1 0x80 PUSH1 0x40 MSTORE CALLVALUE DUP1 ISZERO PUSH2 0x10 JUMPI PUSH1 0x0 DUP1 REVERT JUMPDEST POP PUSH1 0xEF DUP1 PUSH2 0x1F PUSH1 0x0 CODECOPY PUSH1 0x0 RETURN INVALID PUSH1 0x80 PUSH1 0x40 MSTORE CALLVALUE DUP1 ISZERO PUSH1 0xF JUMPI PUSH1 0x0 DUP1 REVERT JUMPDEST POP PUSH1 0x4 CALLDATASIZE LT PUSH1 0x28 JUMPI PUSH1 0x0 CALLDATALOAD PUSH1 0xE0 SHR DUP1 PUSH4 0x412F9CAC EQ PUSH1 0x2D JUMPI JUMPDEST PUSH1 0x0 DUP1 REVERT JUMPDEST PUSH1 0x86 PUSH1 0x38 CALLDATASIZE PUSH1 0x4 PUSH1 0x98 JUMP JUMPDEST PUSH1 0x40 MLOAD PUSH16 0x504F534549444F4E5F4D4F434B5F5631 PUSH1 0x80 SHL PUSH1 0x20 DUP3 ADD MSTORE PUSH1 0x30 DUP2 ADD DUP4 SWAP1 MSTORE PUSH1 0x50 DUP2 ADD DUP3 SWAP1 MSTORE PUSH1 0x0 SWAP1 PUSH1 0x70 ADD PUSH1 0x40 MLOAD PUSH1 0x20 DUP2 DUP4 SUB SUB DUP2 MSTORE SWAP1 PUSH1 0x40 MSTORE DUP1 MLOAD SWAP1 PUSH1 0x20 ADD KECCAK256 SWAP1 POP SWAP3 SWAP2 POP POP JUMP JUMPDEST PUSH1 0x40 MLOAD SWAP1 DUP2 MSTORE PUSH1 0x20 ADD PUSH1 0x40 MLOAD DUP1 SWAP2 SUB SWAP1 RETURN JUMPDEST PUSH1 0x0 DUP1 PUSH1 0x40 DUP4 DUP6 SUB SLT ISZERO PUSH1 0xAA JUMPI PUSH1 0x0 DUP1 REVERT JUMPDEST POP POP DUP1 CALLDATALOAD SWAP3 PUSH1 0x20 SWAP1 SWAP2 ADD CALLDATALOAD SWAP2 POP JUMP INVALID LOG2 PUSH5 0x6970667358 0x22 SLT KECCAK256 SWAP4 0xB8 0x24 0x2F 0xD 0xDF ADD DELEGATECALL PUSH16 0x8265D8A62FC3385372C5CE8EBE457EE8 0xCD 0xE9 0xEE 0xCE 0xBB PUSH4 0x7A64736F PUSH13 0x63430008180033000000000000 "},"methodIdentifiers":{"hash(bytes32,bytes32)":"412f9cac"}}}}}