{"contracts/PrivacyPoolV2.sol":{"PrivacyPoolV2":{"abi":[{"inputs":[{"internalType":"address","name":"verifier_","type":"address"},{"internalType":"address","name":"hasher_","type":"address"},{"internalType":"uint256","name":"denomination_","type":"uint256"},{"internalType":"uint256","name":"baseRelayerFee_","type":"uint256"},{"internalType":"uint256","name":"protocolFeeBps_","type":"uint256"},{"internalType":"address payable","name":"treasury_","type":"address"}],"stateMutability":"nonpayable","type":"constructor"},{"inputs":[],"name":"DirectEthDisabled","type":"error"},{"inputs":[{"internalType":"address","name":"owner","type":"address"}],"name":"OwnableInvalidOwner","type":"error"},{"inputs":[{"internalType":"address","name":"account","type":"address"}],"name":"OwnableUnauthorizedAccount","type":"error"},{"inputs":[],"name":"ReentrancyGuardReentrantCall","type":"error"},{"anonymous":false,"inputs":[{"indexed":false,"internalType":"bool","name":"previousValue","type":"bool"},{"indexed":false,"internalType":"bool","name":"newValue","type":"bool"}],"name":"ApprovedRelayersOnlyUpdated","type":"event"},{"anonymous":false,"inputs":[{"indexed":false,"internalType":"uint256","name":"previousValue","type":"uint256"},{"indexed":false,"internalType":"uint256","name":"newValue","type":"uint256"}],"name":"BaseRelayerFeeUpdated","type":"event"},{"anonymous":false,"inputs":[{"indexed":true,"internalType":"bytes32","name":"commitment","type":"bytes32"},{"indexed":false,"internalType":"uint256","name":"leafIndex","type":"uint256"},{"indexed":false,"internalType":"bytes32","name":"root","type":"bytes32"},{"indexed":false,"internalType":"uint256","name":"timestamp","type":"uint256"}],"name":"Deposit","type":"event"},{"anonymous":false,"inputs":[{"indexed":true,"internalType":"address","name":"previousOwner","type":"address"},{"indexed":true,"internalType":"address","name":"newOwner","type":"address"}],"name":"OwnershipTransferred","type":"event"},{"anonymous":false,"inputs":[{"indexed":false,"internalType":"uint256","name":"previousValue","type":"uint256"},{"indexed":false,"internalType":"uint256","name":"newValue","type":"uint256"}],"name":"ProtocolFeeBpsUpdated","type":"event"},{"anonymous":false,"inputs":[{"indexed":true,"internalType":"address","name":"relayer","type":"address"},{"indexed":false,"internalType":"bool","name":"approved","type":"bool"}],"name":"RelayerApprovalUpdated","type":"event"},{"anonymous":false,"inputs":[{"indexed":false,"internalType":"bool","name":"previousValue","type":"bool"},{"indexed":false,"internalType":"bool","name":"newValue","type":"bool"}],"name":"RelayerOnlyUpdated","type":"event"},{"anonymous":false,"inputs":[{"indexed":true,"internalType":"address","name":"previousTreasury","type":"address"},{"indexed":true,"internalType":"address","name":"newTreasury","type":"address"}],"name":"TreasuryUpdated","type":"event"},{"anonymous":false,"inputs":[{"indexed":true,"internalType":"bytes32","name":"nullifierHash","type":"bytes32"},{"indexed":true,"internalType":"address","name":"recipient","type":"address"},{"indexed":true,"internalType":"address","name":"relayer","type":"address"},{"indexed":false,"internalType":"uint256","name":"fee","type":"uint256"}],"name":"Withdrawal","type":"event"},{"stateMutability":"payable","type":"fallback"},{"inputs":[],"name":"FEE_BPS_DENOMINATOR","outputs":[{"internalType":"uint256","name":"","type":"uint256"}],"stateMutability":"view","type":"function"},{"inputs":[],"name":"ROOT_HISTORY_SIZE","outputs":[{"internalType":"uint256","name":"","type":"uint256"}],"stateMutability":"view","type":"function"},{"inputs":[],"name":"TREE_LEVELS","outputs":[{"internalType":"uint32","name":"","type":"uint32"}],"stateMutability":"view","type":"function"},{"inputs":[{"internalType":"address","name":"","type":"address"}],"name":"approvedRelayers","outputs":[{"internalType":"bool","name":"","type":"bool"}],"stateMutability":"view","type":"function"},{"inputs":[],"name":"approvedRelayersOnly","outputs":[{"internalType":"bool","name":"","type":"bool"}],"stateMutability":"view","type":"function"},{"inputs":[],"name":"baseRelayerFee","outputs":[{"internalType":"uint256","name":"","type":"uint256"}],"stateMutability":"view","type":"function"},{"inputs":[{"internalType":"bytes32","name":"","type":"bytes32"}],"name":"commitmentUsed","outputs":[{"internalType":"bool","name":"","type":"bool"}],"stateMutability":"view","type":"function"},{"inputs":[{"internalType":"bytes32","name":"leaf","type":"bytes32"},{"internalType":"bytes32[20]","name":"siblings","type":"bytes32[20]"},{"internalType":"uint32","name":"leafIndex","type":"uint32"}],"name":"computeRootFromPath","outputs":[{"internalType":"bytes32","name":"","type":"bytes32"}],"stateMutability":"view","type":"function"},{"inputs":[],"name":"currentRoot","outputs":[{"internalType":"bytes32","name":"","type":"bytes32"}],"stateMutability":"view","type":"function"},{"inputs":[],"name":"denomination","outputs":[{"internalType":"uint256","name":"","type":"uint256"}],"stateMutability":"view","type":"function"},{"inputs":[{"internalType":"bytes32","name":"commitment","type":"bytes32"}],"name":"deposit","outputs":[],"stateMutability":"payable","type":"function"},{"inputs":[],"name":"depositCount","outputs":[{"internalType":"uint256","name":"","type":"uint256"}],"stateMutability":"view","type":"function"},{"inputs":[{"internalType":"uint256","name":"","type":"uint256"}],"name":"filledSubtrees","outputs":[{"internalType":"bytes32","name":"","type":"bytes32"}],"stateMutability":"view","type":"function"},{"inputs":[],"name":"hasher","outputs":[{"internalType":"contract IPoseidonHasher","name":"","type":"address"}],"stateMutability":"view","type":"function"},{"inputs":[{"internalType":"bytes32","name":"root","type":"bytes32"}],"name":"isKnownRoot","outputs":[{"internalType":"bool","name":"","type":"bool"}],"stateMutability":"view","type":"function"},{"inputs":[],"name":"nextLeafIndex","outputs":[{"internalType":"uint32","name":"","type":"uint32"}],"stateMutability":"view","type":"function"},{"inputs":[{"internalType":"bytes32","name":"","type":"bytes32"}],"name":"nullifierSpent","outputs":[{"internalType":"bool","name":"","type":"bool"}],"stateMutability":"view","type":"function"},{"inputs":[],"name":"owner","outputs":[{"internalType":"address","name":"","type":"address"}],"stateMutability":"view","type":"function"},{"inputs":[],"name":"protocolFeeBps","outputs":[{"internalType":"uint256","name":"","type":"uint256"}],"stateMutability":"view","type":"function"},{"inputs":[],"name":"relayerOnly","outputs":[{"internalType":"bool","name":"","type":"bool"}],"stateMutability":"view","type":"function"},{"inputs":[],"name":"renounceOwnership","outputs":[],"stateMutability":"nonpayable","type":"function"},{"inputs":[{"internalType":"uint256","name":"","type":"uint256"}],"name":"rootHistory","outputs":[{"internalType":"bytes32","name":"","type":"bytes32"}],"stateMutability":"view","type":"function"},{"inputs":[],"name":"rootHistoryIndex","outputs":[{"internalType":"uint256","name":"","type":"uint256"}],"stateMutability":"view","type":"function"},{"inputs":[{"internalType":"bytes32","name":"","type":"bytes32"}],"name":"rootKnown","outputs":[{"internalType":"bool","name":"","type":"bool"}],"stateMutability":"view","type":"function"},{"inputs":[{"internalType":"bool","name":"enabled","type":"bool"}],"name":"setApprovedRelayersOnly","outputs":[],"stateMutability":"nonpayable","type":"function"},{"inputs":[{"internalType":"uint256","name":"newBaseRelayerFee","type":"uint256"}],"name":"setBaseRelayerFee","outputs":[],"stateMutability":"nonpayable","type":"function"},{"inputs":[{"internalType":"uint256","name":"newProtocolFeeBps","type":"uint256"}],"name":"setProtocolFeeBps","outputs":[],"stateMutability":"nonpayable","type":"function"},{"inputs":[{"internalType":"address","name":"relayer","type":"address"},{"internalType":"bool","name":"approved","type":"bool"}],"name":"setRelayerApproval","outputs":[],"stateMutability":"nonpayable","type":"function"},{"inputs":[{"internalType":"bool","name":"enabled","type":"bool"}],"name":"setRelayerOnly","outputs":[],"stateMutability":"nonpayable","type":"function"},{"inputs":[{"internalType":"address payable","name":"newTreasury","type":"address"}],"name":"setTreasury","outputs":[],"stateMutability":"nonpayable","type":"function"},{"inputs":[{"internalType":"address","name":"newOwner","type":"address"}],"name":"transferOwnership","outputs":[],"stateMutability":"nonpayable","type":"function"},{"inputs":[],"name":"treasury","outputs":[{"internalType":"address payable","name":"","type":"address"}],"stateMutability":"view","type":"function"},{"inputs":[],"name":"verifier","outputs":[{"internalType":"contract IVerifier","name":"","type":"address"}],"stateMutability":"view","type":"function"},{"inputs":[{"internalType":"bytes32","name":"leaf","type":"bytes32"},{"internalType":"bytes32[20]","name":"siblings","type":"bytes32[20]"},{"internalType":"uint32","name":"leafIndex","type":"uint32"},{"internalType":"bytes32","name":"expectedRoot","type":"bytes32"}],"name":"verifyMerklePath","outputs":[{"internalType":"bool","name":"","type":"bool"}],"stateMutability":"view","type":"function"},{"inputs":[{"internalType":"bytes","name":"proof","type":"bytes"},{"internalType":"bytes32","name":"root","type":"bytes32"},{"internalType":"bytes32","name":"nullifierHash","type":"bytes32"},{"internalType":"address payable","name":"recipient","type":"address"},{"internalType":"address payable","name":"relayer","type":"address"},{"internalType":"uint256","name":"fee","type":"uint256"},{"internalType":"uint256","name":"refund","type":"uint256"}],"name":"withdraw","outputs":[],"stateMutability":"nonpayable","type":"function"},{"inputs":[{"internalType":"uint256","name":"","type":"uint256"}],"name":"zeros","outputs":[{"internalType":"bytes32","name":"","type":"bytes32"}],"stateMutability":"view","type":"function"},{"stateMutability":"payable","type":"receive"}],"evm":{"bytecode":{"linkReferences":{},"object":"60e06040523480156200001157600080fd5b506040516200206938038062002069833981016040819052620000349162000497565b33806200005c57604051631e4fbdf760e01b8152600060048201526024015b60405180910390fd5b62000067816200023d565b50600180556001600160a01b038616620000b15760405162461bcd60e51b815260206004820152600a602482015269076657269666965723d360b41b604482015260640162000053565b6001600160a01b038516620000f45760405162461bcd60e51b815260206004820152600860248201526706861736865723d360c41b604482015260640162000053565b60008411620001375760405162461bcd60e51b815260206004820152600e60248201526d064656e6f6d696e6174696f6e3d360941b604482015260640162000053565b6127108211156200018b5760405162461bcd60e51b815260206004820152601560248201527f70726f746f636f6c2066656520746f6f20686967680000000000000000000000604482015260640162000053565b6001600160a01b038116620001d05760405162461bcd60e51b815260206004820152600a602482015269074726561737572793d360b41b604482015260640162000053565b6001600160a01b0386811660805285811660a05260c08590526005849055600683905560078054600160a01b9284166001600160a81b0319909116179190911760ff60a81b19169055620002236200028d565b600454620002319062000365565b505050505050620005ae565b600080546001600160a01b038381166001600160a01b0319831681178455604051919092169283917f8be0079c531659141344cd1fd0a4f28419497f9722a3daafe3b4186f6b6457e09190a35050565b46607181905560005b601463ffffffff821610156200035b5760718163ffffffff1660158110620002c257620002c262000508565b015460868263ffffffff1660148110620002e057620002e062000508565b015562000328607163ffffffff83166015811062000302576200030262000508565b015460718363ffffffff166015811062000320576200032062000508565b0154620003fd565b60716200033783600162000534565b63ffffffff166015811062000350576200035062000508565b015560010162000296565b5050608554600455565b6000600c607054606481106200037f576200037f62000508565b015490508015620003a1576000818152600a60205260409020805460ff191690555b81600c60705460648110620003ba57620003ba62000508565b01556000828152600a60205260409020805460ff19166001908117909155607054606491620003ea91906200055b565b620003f6919062000571565b6070555050565b60a05160405163104be72b60e21b815260048101849052602481018390526000916001600160a01b03169063412f9cac90604401602060405180830381865afa1580156200044f573d6000803e3d6000fd5b505050506040513d601f19601f8201168201806040525081019062000475919062000594565b90505b92915050565b6001600160a01b03811681146200049457600080fd5b50565b60008060008060008060c08789031215620004b157600080fd5b8651620004be816200047e565b6020880151909650620004d1816200047e565b8095505060408701519350606087015192506080870151915060a0870151620004fa816200047e565b809150509295509295509295565b634e487b7160e01b600052603260045260246000fd5b634e487b7160e01b600052601160045260246000fd5b63ffffffff8181168382160190808211156200055457620005546200051e565b5092915050565b808201808211156200047857620004786200051e565b6000826200058f57634e487b7160e01b600052601260045260246000fd5b500690565b600060208284031215620005a757600080fd5b5051919050565b60805160a05160c051611a6162000608600039600081816105080152818161098d015281816109c401528181610c330152610dfd01526000818161063301526115e80152600081816103840152610b5d0152611a616000f3fe6080604052600436106102135760003560e01c806371d5a1dd11610118578063e8295588116100a0578063f1c621ee1161006f578063f1c621ee14610695578063f2fde38b146106b5578063f62ac70f146106d5578063fdab463d146106f5578063fe1c42511461070b57610231565b8063e829558814610601578063ed33639f14610621578063f0f4426014610655578063f178e47c1461067557610231565b8063b214faa5116100e7578063b214faa514610578578063c0417e581461058b578063c6ccf7ce146105ab578063cd87a3b4146105cb578063e7549e82146105e057610231565b806371d5a1dd146104d55780638bca6d16146104f65780638cba8b6a1461052a5780638da5cb5b1461055a57610231565b80632dfdf0b51161019b5780634e4c416a1161016a5780634e4c416a1461043a578063583d434f1461045a57806361d027b3146104705780636d9833e314610490578063715018a6146104c057610231565b80632dfdf0b5146103be578063304ce729146103d457806335659fb8146103f457806338c869111461040a57610231565b8063239a25e5116101e2578063239a25e514610307578063263516a8146103275780632a21b72e1461033d5780632a894a731461035d5780632b7ac3f31461037257610231565b80630be4f4221461024a5780630f3b566a14610281578063156428ba146102a557806321a0adb6146102e557610231565b3661023157604051630265cbaf60e51b815260040160405180910390fd5b604051630265cbaf60e51b815260040160405180910390fd5b34801561025657600080fd5b506003546102679063ffffffff1681565b60405163ffffffff90911681526020015b60405180910390f35b34801561028d57600080fd5b5061029760055481565b604051908152602001610278565b3480156102b157600080fd5b506102d56102c0366004611664565b60086020526000908152604090205460ff1681565b6040519015158152602001610278565b3480156102f157600080fd5b506103056103003660046116a2565b61073b565b005b34801561031357600080fd5b506102d561032236600461177e565b610cfd565b34801561033357600080fd5b5061029760705481565b34801561034957600080fd5b50610305610358366004611664565b610d15565b34801561036957600080fd5b50610267601481565b34801561037e57600080fd5b506103a67f000000000000000000000000000000000000000000000000000000000000000081565b6040516001600160a01b039091168152602001610278565b3480156103ca57600080fd5b5061029760025481565b3480156103e057600080fd5b506102976103ef3660046117c6565b610d63565b34801561040057600080fd5b5061029760065481565b34801561041657600080fd5b506102d5610425366004611664565b60096020526000908152604090205460ff1681565b34801561044657600080fd5b50610305610455366004611813565b610d78565b34801561046657600080fd5b5061029761271081565b34801561047c57600080fd5b506007546103a6906001600160a01b031681565b34801561049c57600080fd5b506102d56104ab366004611664565b6000908152600a602052604090205460ff1690565b3480156104cc57600080fd5b50610305610ddf565b3480156104e157600080fd5b506007546102d590600160a81b900460ff1681565b34801561050257600080fd5b506102977f000000000000000000000000000000000000000000000000000000000000000081565b34801561053657600080fd5b506102d5610545366004611837565b600b6020526000908152604090205460ff1681565b34801561056657600080fd5b506000546001600160a01b03166103a6565b610305610586366004611664565b610df3565b34801561059757600080fd5b506103056105a6366004611664565b610fa2565b3480156105b757600080fd5b506103056105c6366004611813565b611032565b3480156105d757600080fd5b50610297606481565b3480156105ec57600080fd5b506007546102d590600160a01b900460ff1681565b34801561060d57600080fd5b5061029761061c366004611664565b611099565b34801561062d57600080fd5b506103a67f000000000000000000000000000000000000000000000000000000000000000081565b34801561066157600080fd5b50610305610670366004611837565b6110b0565b34801561068157600080fd5b50610297610690366004611664565b61114d565b3480156106a157600080fd5b506102976106b0366004611664565b61115d565b3480156106c157600080fd5b506103056106d0366004611837565b61116d565b3480156106e157600080fd5b506103056106f0366004611854565b6111a8565b34801561070157600080fd5b5061029760045481565b34801561071757600080fd5b506102d5610726366004611664565b600a6020526000908152604090205460ff1681565b610743611251565b6001600160a01b03841661078c5760405162461bcd60e51b815260206004820152600b60248201526a0726563697069656e743d360ac1b60448201526064015b60405180910390fd5b6001600160a01b0383166107ce5760405162461bcd60e51b8152602060048201526009602482015268072656c617965723d360bc1b6044820152606401610783565b600754600160a01b900460ff161561083157336001600160a01b038416146108315760405162461bcd60e51b815260206004820152601660248201527539b2b73232b91036bab9ba103132903932b630bcb2b960511b6044820152606401610783565b600754600160a81b900460ff16156108a2576001600160a01b0383166000908152600b602052604090205460ff166108a25760405162461bcd60e51b81526020600482015260146024820152731c995b185e595c881b9bdd08185c1c1c9bdd995960621b6044820152606401610783565b60008581526009602052604090205460ff16156108f35760405162461bcd60e51b815260206004820152600f60248201526e1b9d5b1b1a599a595c881cdc195b9d608a1b6044820152606401610783565b6000868152600a602052604090205460ff166109405760405162461bcd60e51b815260206004820152600c60248201526b1d5b9adb9bdddb881c9bdbdd60a21b6044820152606401610783565b6005548210156109835760405162461bcd60e51b815260206004820152600e60248201526d6665652062656c6f77206261736560901b6044820152606401610783565b60006127106006547f00000000000000000000000000000000000000000000000000000000000000006109b691906118a3565b6109c091906118d0565b90507f00000000000000000000000000000000000000000000000000000000000000006109ed82856118e4565b1115610a2b5760405162461bcd60e51b815260206004820152600d60248201526c0cccacae640e8dede40d0d2ced609b1b6044820152606401610783565b60408051600780825261010082019092526000916020820160e0803683370190505090508760001c81600081518110610a6657610a666118f7565b6020026020010181815250508660001c81600181518110610a8957610a896118f7565b602002602001018181525050856001600160a01b031681600281518110610ab257610ab26118f7565b602002602001018181525050846001600160a01b031681600381518110610adb57610adb6118f7565b6020026020010181815250508381600481518110610afb57610afb6118f7565b6020026020010181815250508281600581518110610b1b57610b1b6118f7565b6020026020010181815250504681600681518110610b3b57610b3b6118f7565b6020908102919091010152604051631e8e1e1360e01b81526001600160a01b037f00000000000000000000000000000000000000000000000000000000000000001690631e8e1e1390610b96908d908d90869060040161190d565b602060405180830381865afa158015610bb3573d6000803e3d6000fd5b505050506040513d601f19601f82011682018060405250810190610bd79190611988565b610c135760405162461bcd60e51b815260206004820152600d60248201526c34b73b30b634b210383937b7b360991b6044820152606401610783565b6000878152600960205260408120805460ff1916600117905582610c57867f00000000000000000000000000000000000000000000000000000000000000006119a5565b610c6191906119a5565b9050610c6d878261127b565b8415610c7d57610c7d868661127b565b8215610c9957600754610c99906001600160a01b03168461127b565b856001600160a01b0316876001600160a01b0316897f6c3a45613039e0a1117bd6ce110ab3c920271709c010983d921a2cd268e2ea4788604051610cdf91815260200190565b60405180910390a4505050610cf360018055565b5050505050505050565b600081610d0b868686611319565b1495945050505050565b610d1d6113f8565b600580549082905560408051828152602081018490527f02e87ceabfa0e381e169014833b5c0798e7de6068c766961d962847388a426fe91015b60405180910390a15050565b6000610d70848484611319565b949350505050565b610d806113f8565b6007805460ff60a81b198116600160a81b84151581810292909217909355604080519390920460ff1680151584526020840191909152917fac8a542e802a136959c104624d34be608945dacbfa86af270dae2405957c64399101610d57565b610de76113f8565b610df16000611425565b565b610dfb611251565b7f00000000000000000000000000000000000000000000000000000000000000003414610e575760405162461bcd60e51b815260206004820152600a60248201526918985908185b5bdd5b9d60b21b6044820152606401610783565b60008181526008602052604090205460ff1615610ea85760405162461bcd60e51b815260206004820152600f60248201526e18dbdb5b5a5d1b595b9d081d5cd959608a1b6044820152606401610783565b6003546210000063ffffffff90911610610ef35760405162461bcd60e51b815260206004820152600c60248201526b1d1c9959481a5cc8199d5b1b60a21b6044820152606401610783565b6000818152600860205260409020805460ff19166001179055610f1581611475565b6004819055610f239061153b565b6003546004546040805163ffffffff90931683526020830191909152429082015281907f8154af7b1b360f500640de68c82af19c52c4ad4189d7a7c7a41506e19a1fdd6c9060600160405180910390a26003805463ffffffff198116600163ffffffff9283168101909216179091556002805482019055805550565b50565b610faa6113f8565b612710811115610ff45760405162461bcd60e51b81526020600482015260156024820152740e0e4dee8dec6ded840cccaca40e8dede40d0d2ced605b1b6044820152606401610783565b600680549082905560408051828152602081018490527ff247e7445763d3e9a01aee4b64de35f02273d6a1d7264694bb9298109319c8be9101610d57565b61103a6113f8565b6007805460ff60a01b198116600160a01b84151581810292909217909355604080519390920460ff1680151584526020840191909152917fb8902f76e68eedf9d19810500094a11c4da1e45ff8e1a6d119b92b21653c021e9101610d57565b607181601581106110a957600080fd5b0154905081565b6110b86113f8565b6001600160a01b0381166110fb5760405162461bcd60e51b815260206004820152600a602482015269074726561737572793d360b41b6044820152606401610783565b600780546001600160a01b038381166001600160a01b0319831681179093556040519116919082907f4ab5be82436d353e61ca18726e984e561f5c1cc7c6d38b29d2553c790434705a90600090a35050565b608681601481106110a957600080fd5b600c81606481106110a957600080fd5b6111756113f8565b6001600160a01b03811661119f57604051631e4fbdf760e01b815260006004820152602401610783565b610f9f81611425565b6111b06113f8565b6001600160a01b0382166111f25760405162461bcd60e51b8152602060048201526009602482015268072656c617965723d360bc1b6044820152606401610783565b6001600160a01b0382166000818152600b6020908152604091829020805460ff191685151590811790915591519182527fc18c96b23e5afbaf72346174b2e46029640a336fed31d8eb543c7d9e38ca5d76910160405180910390a25050565b60026001540361127457604051633ee5aeb560e01b815260040160405180910390fd5b6002600155565b6000826001600160a01b03168260405160006040518083038185875af1925050503d80600081146112c8576040519150601f19603f3d011682016040523d82523d6000602084013e6112cd565b606091505b50509050806113145760405162461bcd60e51b8152602060048201526013602482015272195d1a081d1c985b9cd9995c8819985a5b1959606a1b6044820152606401610783565b505050565b60006210000063ffffffff83161061136c5760405162461bcd60e51b81526020600482015260166024820152756c656166496e646578206f7574206f662072616e676560501b6044820152606401610783565b838260005b601463ffffffff821610156113ed576000868263ffffffff166014811061139a5761139a6118f7565b602002013590506113ac6002846119b8565b63ffffffff166000036113ca576113c384826115c8565b93506113d7565b6113d481856115c8565b93505b6113e26002846119db565b925050600101611371565b509095945050505050565b6000546001600160a01b03163314610df15760405163118cdaa760e01b8152336004820152602401610783565b600080546001600160a01b038381166001600160a01b0319831681178455604051919092169283917f8be0079c531659141344cd1fd0a4f28419497f9722a3daafe3b4186f6b6457e09190a35050565b60035460009063ffffffff16828280805b601463ffffffff82161015611530576114a06002866119b8565b63ffffffff166000036114ee5783925060718163ffffffff16601581106114c9576114c96118f7565b015491508360868263ffffffff16601481106114e7576114e76118f7565b015561150f565b60868163ffffffff1660148110611507576115076118f7565b015492508391505b61151983836115c8565b93506115266002866119db565b9450600101611486565b509195945050505050565b6000600c60705460648110611552576115526118f7565b015490508015611573576000818152600a60205260409020805460ff191690555b81600c60705460648110611589576115896118f7565b01556000828152600a60205260409020805460ff191660019081179091556070546064916115b791906118e4565b6115c191906119fe565b6070555050565b60405163104be72b60e21b815260048101839052602481018290526000907f00000000000000000000000000000000000000000000000000000000000000006001600160a01b03169063412f9cac90604401602060405180830381865afa158015611637573d6000803e3d6000fd5b505050506040513d601f19601f8201168201806040525081019061165b9190611a12565b90505b92915050565b60006020828403121561167657600080fd5b5035919050565b6001600160a01b0381168114610f9f57600080fd5b803561169d8161167d565b919050565b60008060008060008060008060e0898b0312156116be57600080fd5b883567ffffffffffffffff808211156116d657600080fd5b818b0191508b601f8301126116ea57600080fd5b8135818111156116f957600080fd5b8c602082850101111561170b57600080fd5b60209283019a5098505089013595506040890135945061172d60608a01611692565b935061173b60808a01611692565b925060a0890135915060c089013590509295985092959890939650565b80610280810183101561165e57600080fd5b803563ffffffff8116811461169d57600080fd5b6000806000806102e0858703121561179557600080fd5b843593506117a68660208701611758565b92506117b56102a0860161176a565b939692955092936102c00135925050565b60008060006102c084860312156117dc57600080fd5b833592506117ed8560208601611758565b91506117fc6102a0850161176a565b90509250925092565b8015158114610f9f57600080fd5b60006020828403121561182557600080fd5b813561183081611805565b9392505050565b60006020828403121561184957600080fd5b81356118308161167d565b6000806040838503121561186757600080fd5b82356118728161167d565b9150602083013561188281611805565b809150509250929050565b634e487b7160e01b600052601160045260246000fd5b808202811582820484141761165e5761165e61188d565b634e487b7160e01b600052601260045260246000fd5b6000826118df576118df6118ba565b500490565b8082018082111561165e5761165e61188d565b634e487b7160e01b600052603260045260246000fd5b60408152826040820152828460608301376000606084830101526000601f19601f85011682016060810160206060858403016020860152818651808452608085019150602088019450600093505b8084101561197b578451825293820193600193909301929082019061195b565b5098975050505050505050565b60006020828403121561199a57600080fd5b815161183081611805565b8181038181111561165e5761165e61188d565b600063ffffffff808416806119cf576119cf6118ba565b92169190910692915050565b600063ffffffff808416806119f2576119f26118ba565b92169190910492915050565b600082611a0d57611a0d6118ba565b500690565b600060208284031215611a2457600080fd5b505191905056fea264697066735822122083f378d908dde31750fa7a91ebdbd38c28d99e93b85a19cd2bf91d500f94c57964736f6c63430008180033","opcodes":"PUSH1 0xE0 PUSH1 0x40 MSTORE CALLVALUE DUP1 ISZERO PUSH3 0x11 JUMPI PUSH1 0x0 DUP1 REVERT JUMPDEST POP PUSH1 0x40 MLOAD PUSH3 0x2069 CODESIZE SUB DUP1 PUSH3 0x2069 DUP4 CODECOPY DUP2 ADD PUSH1 0x40 DUP2 SWAP1 MSTORE PUSH3 0x34 SWAP2 PUSH3 0x497 JUMP JUMPDEST CALLER DUP1 PUSH3 0x5C JUMPI PUSH1 0x40 MLOAD PUSH4 0x1E4FBDF7 PUSH1 0xE0 SHL DUP2 MSTORE PUSH1 0x0 PUSH1 0x4 DUP3 ADD MSTORE PUSH1 0x24 ADD JUMPDEST PUSH1 0x40 MLOAD DUP1 SWAP2 SUB SWAP1 REVERT JUMPDEST PUSH3 0x67 DUP2 PUSH3 0x23D JUMP JUMPDEST POP PUSH1 0x1 DUP1 SSTORE PUSH1 0x1 PUSH1 0x1 PUSH1 0xA0 SHL SUB DUP7 AND PUSH3 0xB1 JUMPI PUSH1 0x40 MLOAD PUSH3 0x461BCD PUSH1 0xE5 SHL DUP2 MSTORE PUSH1 0x20 PUSH1 0x4 DUP3 ADD MSTORE PUSH1 0xA PUSH1 0x24 DUP3 ADD MSTORE PUSH10 0x76657269666965723D3 PUSH1 0xB4 SHL PUSH1 0x44 DUP3 ADD MSTORE PUSH1 0x64 ADD PUSH3 0x53 JUMP JUMPDEST PUSH1 0x1 PUSH1 0x1 PUSH1 0xA0 SHL SUB DUP6 AND PUSH3 0xF4 JUMPI PUSH1 0x40 MLOAD PUSH3 0x461BCD PUSH1 0xE5 SHL DUP2 MSTORE PUSH1 0x20 PUSH1 0x4 DUP3 ADD MSTORE PUSH1 0x8 PUSH1 0x24 DUP3 ADD MSTORE PUSH8 0x6861736865723D3 PUSH1 0xC4 SHL PUSH1 0x44 DUP3 ADD MSTORE PUSH1 0x64 ADD PUSH3 0x53 JUMP JUMPDEST PUSH1 0x0 DUP5 GT PUSH3 0x137 JUMPI PUSH1 0x40 MLOAD PUSH3 0x461BCD PUSH1 0xE5 SHL DUP2 MSTORE PUSH1 0x20 PUSH1 0x4 DUP3 ADD MSTORE PUSH1 0xE PUSH1 0x24 DUP3 ADD MSTORE PUSH14 0x64656E6F6D696E6174696F6E3D3 PUSH1 0x94 SHL PUSH1 0x44 DUP3 ADD MSTORE PUSH1 0x64 ADD PUSH3 0x53 JUMP JUMPDEST PUSH2 0x2710 DUP3 GT ISZERO PUSH3 0x18B JUMPI PUSH1 0x40 MLOAD PUSH3 0x461BCD PUSH1 0xE5 SHL DUP2 MSTORE PUSH1 0x20 PUSH1 0x4 DUP3 ADD MSTORE PUSH1 0x15 PUSH1 0x24 DUP3 ADD MSTORE PUSH32 0x70726F746F636F6C2066656520746F6F20686967680000000000000000000000 PUSH1 0x44 DUP3 ADD MSTORE PUSH1 0x64 ADD PUSH3 0x53 JUMP JUMPDEST PUSH1 0x1 PUSH1 0x1 PUSH1 0xA0 SHL SUB DUP2 AND PUSH3 0x1D0 JUMPI PUSH1 0x40 MLOAD PUSH3 0x461BCD PUSH1 0xE5 SHL DUP2 MSTORE PUSH1 0x20 PUSH1 0x4 DUP3 ADD MSTORE PUSH1 0xA PUSH1 0x24 DUP3 ADD MSTORE PUSH10 0x74726561737572793D3 PUSH1 0xB4 SHL PUSH1 0x44 DUP3 ADD MSTORE PUSH1 0x64 ADD PUSH3 0x53 JUMP JUMPDEST PUSH1 0x1 PUSH1 0x1 PUSH1 0xA0 SHL SUB DUP7 DUP2 AND PUSH1 0x80 MSTORE DUP6 DUP2 AND PUSH1 0xA0 MSTORE PUSH1 0xC0 DUP6 SWAP1 MSTORE PUSH1 0x5 DUP5 SWAP1 SSTORE PUSH1 0x6 DUP4 SWAP1 SSTORE PUSH1 0x7 DUP1 SLOAD PUSH1 0x1 PUSH1 0xA0 SHL SWAP3 DUP5 AND PUSH1 0x1 PUSH1 0x1 PUSH1 0xA8 SHL SUB NOT SWAP1 SWAP2 AND OR SWAP2 SWAP1 SWAP2 OR PUSH1 0xFF PUSH1 0xA8 SHL NOT AND SWAP1 SSTORE PUSH3 0x223 PUSH3 0x28D JUMP JUMPDEST PUSH1 0x4 SLOAD PUSH3 0x231 SWAP1 PUSH3 0x365 JUMP JUMPDEST POP POP POP POP POP POP PUSH3 0x5AE JUMP JUMPDEST PUSH1 0x0 DUP1 SLOAD PUSH1 0x1 PUSH1 0x1 PUSH1 0xA0 SHL SUB DUP4 DUP2 AND PUSH1 0x1 PUSH1 0x1 PUSH1 0xA0 SHL SUB NOT DUP4 AND DUP2 OR DUP5 SSTORE PUSH1 0x40 MLOAD SWAP2 SWAP1 SWAP3 AND SWAP3 DUP4 SWAP2 PUSH32 0x8BE0079C531659141344CD1FD0A4F28419497F9722A3DAAFE3B4186F6B6457E0 SWAP2 SWAP1 LOG3 POP POP JUMP JUMPDEST CHAINID PUSH1 0x71 DUP2 SWAP1 SSTORE PUSH1 0x0 JUMPDEST PUSH1 0x14 PUSH4 0xFFFFFFFF DUP3 AND LT ISZERO PUSH3 0x35B JUMPI PUSH1 0x71 DUP2 PUSH4 0xFFFFFFFF AND PUSH1 0x15 DUP2 LT PUSH3 0x2C2 JUMPI PUSH3 0x2C2 PUSH3 0x508 JUMP JUMPDEST ADD SLOAD PUSH1 0x86 DUP3 PUSH4 0xFFFFFFFF AND PUSH1 0x14 DUP2 LT PUSH3 0x2E0 JUMPI PUSH3 0x2E0 PUSH3 0x508 JUMP JUMPDEST ADD SSTORE PUSH3 0x328 PUSH1 0x71 PUSH4 0xFFFFFFFF DUP4 AND PUSH1 0x15 DUP2 LT PUSH3 0x302 JUMPI PUSH3 0x302 PUSH3 0x508 JUMP JUMPDEST ADD SLOAD PUSH1 0x71 DUP4 PUSH4 0xFFFFFFFF AND PUSH1 0x15 DUP2 LT PUSH3 0x320 JUMPI PUSH3 0x320 PUSH3 0x508 JUMP JUMPDEST ADD SLOAD PUSH3 0x3FD JUMP JUMPDEST PUSH1 0x71 PUSH3 0x337 DUP4 PUSH1 0x1 PUSH3 0x534 JUMP JUMPDEST PUSH4 0xFFFFFFFF AND PUSH1 0x15 DUP2 LT PUSH3 0x350 JUMPI PUSH3 0x350 PUSH3 0x508 JUMP JUMPDEST ADD SSTORE PUSH1 0x1 ADD PUSH3 0x296 JUMP JUMPDEST POP POP PUSH1 0x85 SLOAD PUSH1 0x4 SSTORE JUMP JUMPDEST PUSH1 0x0 PUSH1 0xC PUSH1 0x70 SLOAD PUSH1 0x64 DUP2 LT PUSH3 0x37F JUMPI PUSH3 0x37F PUSH3 0x508 JUMP JUMPDEST ADD SLOAD SWAP1 POP DUP1 ISZERO PUSH3 0x3A1 JUMPI PUSH1 0x0 DUP2 DUP2 MSTORE PUSH1 0xA PUSH1 0x20 MSTORE PUSH1 0x40 SWAP1 KECCAK256 DUP1 SLOAD PUSH1 0xFF NOT AND SWAP1 SSTORE JUMPDEST DUP2 PUSH1 0xC PUSH1 0x70 SLOAD PUSH1 0x64 DUP2 LT PUSH3 0x3BA JUMPI PUSH3 0x3BA PUSH3 0x508 JUMP JUMPDEST ADD SSTORE PUSH1 0x0 DUP3 DUP2 MSTORE PUSH1 0xA PUSH1 0x20 MSTORE PUSH1 0x40 SWAP1 KECCAK256 DUP1 SLOAD PUSH1 0xFF NOT AND PUSH1 0x1 SWAP1 DUP2 OR SWAP1 SWAP2 SSTORE PUSH1 0x70 SLOAD PUSH1 0x64 SWAP2 PUSH3 0x3EA SWAP2 SWAP1 PUSH3 0x55B JUMP JUMPDEST PUSH3 0x3F6 SWAP2 SWAP1 PUSH3 0x571 JUMP JUMPDEST PUSH1 0x70 SSTORE POP POP JUMP JUMPDEST PUSH1 0xA0 MLOAD PUSH1 0x40 MLOAD PUSH4 0x104BE72B PUSH1 0xE2 SHL DUP2 MSTORE PUSH1 0x4 DUP2 ADD DUP5 SWAP1 MSTORE PUSH1 0x24 DUP2 ADD DUP4 SWAP1 MSTORE PUSH1 0x0 SWAP2 PUSH1 0x1 PUSH1 0x1 PUSH1 0xA0 SHL SUB AND SWAP1 PUSH4 0x412F9CAC SWAP1 PUSH1 0x44 ADD PUSH1 0x20 PUSH1 0x40 MLOAD DUP1 DUP4 SUB DUP2 DUP7 GAS STATICCALL ISZERO DUP1 ISZERO PUSH3 0x44F JUMPI RETURNDATASIZE PUSH1 0x0 DUP1 RETURNDATACOPY RETURNDATASIZE PUSH1 0x0 REVERT JUMPDEST POP POP POP POP PUSH1 0x40 MLOAD RETURNDATASIZE PUSH1 0x1F NOT PUSH1 0x1F DUP3 ADD AND DUP3 ADD DUP1 PUSH1 0x40 MSTORE POP DUP2 ADD SWAP1 PUSH3 0x475 SWAP2 SWAP1 PUSH3 0x594 JUMP JUMPDEST SWAP1 POP JUMPDEST SWAP3 SWAP2 POP POP JUMP JUMPDEST PUSH1 0x1 PUSH1 0x1 PUSH1 0xA0 SHL SUB DUP2 AND DUP2 EQ PUSH3 0x494 JUMPI PUSH1 0x0 DUP1 REVERT JUMPDEST POP JUMP JUMPDEST PUSH1 0x0 DUP1 PUSH1 0x0 DUP1 PUSH1 0x0 DUP1 PUSH1 0xC0 DUP8 DUP10 SUB SLT ISZERO PUSH3 0x4B1 JUMPI PUSH1 0x0 DUP1 REVERT JUMPDEST DUP7 MLOAD PUSH3 0x4BE DUP2 PUSH3 0x47E JUMP JUMPDEST PUSH1 0x20 DUP9 ADD MLOAD SWAP1 SWAP7 POP PUSH3 0x4D1 DUP2 PUSH3 0x47E JUMP JUMPDEST DUP1 SWAP6 POP POP PUSH1 0x40 DUP8 ADD MLOAD SWAP4 POP PUSH1 0x60 DUP8 ADD MLOAD SWAP3 POP PUSH1 0x80 DUP8 ADD MLOAD SWAP2 POP PUSH1 0xA0 DUP8 ADD MLOAD PUSH3 0x4FA DUP2 PUSH3 0x47E JUMP JUMPDEST DUP1 SWAP2 POP POP SWAP3 SWAP6 POP SWAP3 SWAP6 POP SWAP3 SWAP6 JUMP JUMPDEST PUSH4 0x4E487B71 PUSH1 0xE0 SHL PUSH1 0x0 MSTORE PUSH1 0x32 PUSH1 0x4 MSTORE PUSH1 0x24 PUSH1 0x0 REVERT JUMPDEST PUSH4 0x4E487B71 PUSH1 0xE0 SHL PUSH1 0x0 MSTORE PUSH1 0x11 PUSH1 0x4 MSTORE PUSH1 0x24 PUSH1 0x0 REVERT JUMPDEST PUSH4 0xFFFFFFFF DUP2 DUP2 AND DUP4 DUP3 AND ADD SWAP1 DUP1 DUP3 GT ISZERO PUSH3 0x554 JUMPI PUSH3 0x554 PUSH3 0x51E JUMP JUMPDEST POP SWAP3 SWAP2 POP POP JUMP JUMPDEST DUP1 DUP3 ADD DUP1 DUP3 GT ISZERO PUSH3 0x478 JUMPI PUSH3 0x478 PUSH3 0x51E JUMP JUMPDEST PUSH1 0x0 DUP3 PUSH3 0x58F JUMPI PUSH4 0x4E487B71 PUSH1 0xE0 SHL PUSH1 0x0 MSTORE PUSH1 0x12 PUSH1 0x4 MSTORE PUSH1 0x24 PUSH1 0x0 REVERT JUMPDEST POP MOD SWAP1 JUMP JUMPDEST PUSH1 0x0 PUSH1 0x20 DUP3 DUP5 SUB SLT ISZERO PUSH3 0x5A7 JUMPI PUSH1 0x0 DUP1 REVERT JUMPDEST POP MLOAD SWAP2 SWAP1 POP JUMP JUMPDEST PUSH1 0x80 MLOAD PUSH1 0xA0 MLOAD PUSH1 0xC0 MLOAD PUSH2 0x1A61 PUSH3 0x608 PUSH1 0x0 CODECOPY PUSH1 0x0 DUP2 DUP2 PUSH2 0x508 ADD MSTORE DUP2 DUP2 PUSH2 0x98D ADD MSTORE DUP2 DUP2 PUSH2 0x9C4 ADD MSTORE DUP2 DUP2 PUSH2 0xC33 ADD MSTORE PUSH2 0xDFD ADD MSTORE PUSH1 0x0 DUP2 DUP2 PUSH2 0x633 ADD MSTORE PUSH2 0x15E8 ADD MSTORE PUSH1 0x0 DUP2 DUP2 PUSH2 0x384 ADD MSTORE PUSH2 0xB5D ADD MSTORE PUSH2 0x1A61 PUSH1 0x0 RETURN INVALID PUSH1 0x80 PUSH1 0x40 MSTORE PUSH1 0x4 CALLDATASIZE LT PUSH2 0x213 JUMPI PUSH1 0x0 CALLDATALOAD PUSH1 0xE0 SHR DUP1 PUSH4 0x71D5A1DD GT PUSH2 0x118 JUMPI DUP1 PUSH4 0xE8295588 GT PUSH2 0xA0 JUMPI DUP1 PUSH4 0xF1C621EE GT PUSH2 0x6F JUMPI DUP1 PUSH4 0xF1C621EE EQ PUSH2 0x695 JUMPI DUP1 PUSH4 0xF2FDE38B EQ PUSH2 0x6B5 JUMPI DUP1 PUSH4 0xF62AC70F EQ PUSH2 0x6D5 JUMPI DUP1 PUSH4 0xFDAB463D EQ PUSH2 0x6F5 JUMPI DUP1 PUSH4 0xFE1C4251 EQ PUSH2 0x70B JUMPI PUSH2 0x231 JUMP JUMPDEST DUP1 PUSH4 0xE8295588 EQ PUSH2 0x601 JUMPI DUP1 PUSH4 0xED33639F EQ PUSH2 0x621 JUMPI DUP1 PUSH4 0xF0F44260 EQ PUSH2 0x655 JUMPI DUP1 PUSH4 0xF178E47C EQ PUSH2 0x675 JUMPI PUSH2 0x231 JUMP JUMPDEST DUP1 PUSH4 0xB214FAA5 GT PUSH2 0xE7 JUMPI DUP1 PUSH4 0xB214FAA5 EQ PUSH2 0x578 JUMPI DUP1 PUSH4 0xC0417E58 EQ PUSH2 0x58B JUMPI DUP1 PUSH4 0xC6CCF7CE EQ PUSH2 0x5AB JUMPI DUP1 PUSH4 0xCD87A3B4 EQ PUSH2 0x5CB JUMPI DUP1 PUSH4 0xE7549E82 EQ PUSH2 0x5E0 JUMPI PUSH2 0x231 JUMP JUMPDEST DUP1 PUSH4 0x71D5A1DD EQ PUSH2 0x4D5 JUMPI DUP1 PUSH4 0x8BCA6D16 EQ PUSH2 0x4F6 JUMPI DUP1 PUSH4 0x8CBA8B6A EQ PUSH2 0x52A JUMPI DUP1 PUSH4 0x8DA5CB5B EQ PUSH2 0x55A JUMPI PUSH2 0x231 JUMP JUMPDEST DUP1 PUSH4 0x2DFDF0B5 GT PUSH2 0x19B JUMPI DUP1 PUSH4 0x4E4C416A GT PUSH2 0x16A JUMPI DUP1 PUSH4 0x4E4C416A EQ PUSH2 0x43A JUMPI DUP1 PUSH4 0x583D434F EQ PUSH2 0x45A JUMPI DUP1 PUSH4 0x61D027B3 EQ PUSH2 0x470 JUMPI DUP1 PUSH4 0x6D9833E3 EQ PUSH2 0x490 JUMPI DUP1 PUSH4 0x715018A6 EQ PUSH2 0x4C0 JUMPI PUSH2 0x231 JUMP JUMPDEST DUP1 PUSH4 0x2DFDF0B5 EQ PUSH2 0x3BE JUMPI DUP1 PUSH4 0x304CE729 EQ PUSH2 0x3D4 JUMPI DUP1 PUSH4 0x35659FB8 EQ PUSH2 0x3F4 JUMPI DUP1 PUSH4 0x38C86911 EQ PUSH2 0x40A JUMPI PUSH2 0x231 JUMP JUMPDEST DUP1 PUSH4 0x239A25E5 GT PUSH2 0x1E2 JUMPI DUP1 PUSH4 0x239A25E5 EQ PUSH2 0x307 JUMPI DUP1 PUSH4 0x263516A8 EQ PUSH2 0x327 JUMPI DUP1 PUSH4 0x2A21B72E EQ PUSH2 0x33D JUMPI DUP1 PUSH4 0x2A894A73 EQ PUSH2 0x35D JUMPI DUP1 PUSH4 0x2B7AC3F3 EQ PUSH2 0x372 JUMPI PUSH2 0x231 JUMP JUMPDEST DUP1 PUSH4 0xBE4F422 EQ PUSH2 0x24A JUMPI DUP1 PUSH4 0xF3B566A EQ PUSH2 0x281 JUMPI DUP1 PUSH4 0x156428BA EQ PUSH2 0x2A5 JUMPI DUP1 PUSH4 0x21A0ADB6 EQ PUSH2 0x2E5 JUMPI PUSH2 0x231 JUMP JUMPDEST CALLDATASIZE PUSH2 0x231 JUMPI PUSH1 0x40 MLOAD PUSH4 0x265CBAF PUSH1 0xE5 SHL DUP2 MSTORE PUSH1 0x4 ADD PUSH1 0x40 MLOAD DUP1 SWAP2 SUB SWAP1 REVERT JUMPDEST PUSH1 0x40 MLOAD PUSH4 0x265CBAF PUSH1 0xE5 SHL DUP2 MSTORE PUSH1 0x4 ADD PUSH1 0x40 MLOAD DUP1 SWAP2 SUB SWAP1 REVERT JUMPDEST CALLVALUE DUP1 ISZERO PUSH2 0x256 JUMPI PUSH1 0x0 DUP1 REVERT JUMPDEST POP PUSH1 0x3 SLOAD PUSH2 0x267 SWAP1 PUSH4 0xFFFFFFFF AND DUP2 JUMP JUMPDEST PUSH1 0x40 MLOAD PUSH4 0xFFFFFFFF SWAP1 SWAP2 AND DUP2 MSTORE PUSH1 0x20 ADD JUMPDEST PUSH1 0x40 MLOAD DUP1 SWAP2 SUB SWAP1 RETURN JUMPDEST CALLVALUE DUP1 ISZERO PUSH2 0x28D JUMPI PUSH1 0x0 DUP1 REVERT JUMPDEST POP PUSH2 0x297 PUSH1 0x5 SLOAD DUP2 JUMP JUMPDEST PUSH1 0x40 MLOAD SWAP1 DUP2 MSTORE PUSH1 0x20 ADD PUSH2 0x278 JUMP JUMPDEST CALLVALUE DUP1 ISZERO PUSH2 0x2B1 JUMPI PUSH1 0x0 DUP1 REVERT JUMPDEST POP PUSH2 0x2D5 PUSH2 0x2C0 CALLDATASIZE PUSH1 0x4 PUSH2 0x1664 JUMP JUMPDEST PUSH1 0x8 PUSH1 0x20 MSTORE PUSH1 0x0 SWAP1 DUP2 MSTORE PUSH1 0x40 SWAP1 KECCAK256 SLOAD PUSH1 0xFF AND DUP2 JUMP JUMPDEST PUSH1 0x40 MLOAD SWAP1 ISZERO ISZERO DUP2 MSTORE PUSH1 0x20 ADD PUSH2 0x278 JUMP JUMPDEST CALLVALUE DUP1 ISZERO PUSH2 0x2F1 JUMPI PUSH1 0x0 DUP1 REVERT JUMPDEST POP PUSH2 0x305 PUSH2 0x300 CALLDATASIZE PUSH1 0x4 PUSH2 0x16A2 JUMP JUMPDEST PUSH2 0x73B JUMP JUMPDEST STOP JUMPDEST CALLVALUE DUP1 ISZERO PUSH2 0x313 JUMPI PUSH1 0x0 DUP1 REVERT JUMPDEST POP PUSH2 0x2D5 PUSH2 0x322 CALLDATASIZE PUSH1 0x4 PUSH2 0x177E JUMP JUMPDEST PUSH2 0xCFD JUMP JUMPDEST CALLVALUE DUP1 ISZERO PUSH2 0x333 JUMPI PUSH1 0x0 DUP1 REVERT JUMPDEST POP PUSH2 0x297 PUSH1 0x70 SLOAD DUP2 JUMP JUMPDEST CALLVALUE DUP1 ISZERO PUSH2 0x349 JUMPI PUSH1 0x0 DUP1 REVERT JUMPDEST POP PUSH2 0x305 PUSH2 0x358 CALLDATASIZE PUSH1 0x4 PUSH2 0x1664 JUMP JUMPDEST PUSH2 0xD15 JUMP JUMPDEST CALLVALUE DUP1 ISZERO PUSH2 0x369 JUMPI PUSH1 0x0 DUP1 REVERT JUMPDEST POP PUSH2 0x267 PUSH1 0x14 DUP2 JUMP JUMPDEST CALLVALUE DUP1 ISZERO PUSH2 0x37E JUMPI PUSH1 0x0 DUP1 REVERT JUMPDEST POP PUSH2 0x3A6 PUSH32 0x0 DUP2 JUMP JUMPDEST PUSH1 0x40 MLOAD PUSH1 0x1 PUSH1 0x1 PUSH1 0xA0 SHL SUB SWAP1 SWAP2 AND DUP2 MSTORE PUSH1 0x20 ADD PUSH2 0x278 JUMP JUMPDEST CALLVALUE DUP1 ISZERO PUSH2 0x3CA JUMPI PUSH1 0x0 DUP1 REVERT JUMPDEST POP PUSH2 0x297 PUSH1 0x2 SLOAD DUP2 JUMP JUMPDEST CALLVALUE DUP1 ISZERO PUSH2 0x3E0 JUMPI PUSH1 0x0 DUP1 REVERT JUMPDEST POP PUSH2 0x297 PUSH2 0x3EF CALLDATASIZE PUSH1 0x4 PUSH2 0x17C6 JUMP JUMPDEST PUSH2 0xD63 JUMP JUMPDEST CALLVALUE DUP1 ISZERO PUSH2 0x400 JUMPI PUSH1 0x0 DUP1 REVERT JUMPDEST POP PUSH2 0x297 PUSH1 0x6 SLOAD DUP2 JUMP JUMPDEST CALLVALUE DUP1 ISZERO PUSH2 0x416 JUMPI PUSH1 0x0 DUP1 REVERT JUMPDEST POP PUSH2 0x2D5 PUSH2 0x425 CALLDATASIZE PUSH1 0x4 PUSH2 0x1664 JUMP JUMPDEST PUSH1 0x9 PUSH1 0x20 MSTORE PUSH1 0x0 SWAP1 DUP2 MSTORE PUSH1 0x40 SWAP1 KECCAK256 SLOAD PUSH1 0xFF AND DUP2 JUMP JUMPDEST CALLVALUE DUP1 ISZERO PUSH2 0x446 JUMPI PUSH1 0x0 DUP1 REVERT JUMPDEST POP PUSH2 0x305 PUSH2 0x455 CALLDATASIZE PUSH1 0x4 PUSH2 0x1813 JUMP JUMPDEST PUSH2 0xD78 JUMP JUMPDEST CALLVALUE DUP1 ISZERO PUSH2 0x466 JUMPI PUSH1 0x0 DUP1 REVERT JUMPDEST POP PUSH2 0x297 PUSH2 0x2710 DUP2 JUMP JUMPDEST CALLVALUE DUP1 ISZERO PUSH2 0x47C JUMPI PUSH1 0x0 DUP1 REVERT JUMPDEST POP PUSH1 0x7 SLOAD PUSH2 0x3A6 SWAP1 PUSH1 0x1 PUSH1 0x1 PUSH1 0xA0 SHL SUB AND DUP2 JUMP JUMPDEST CALLVALUE DUP1 ISZERO PUSH2 0x49C JUMPI PUSH1 0x0 DUP1 REVERT JUMPDEST POP PUSH2 0x2D5 PUSH2 0x4AB CALLDATASIZE PUSH1 0x4 PUSH2 0x1664 JUMP JUMPDEST PUSH1 0x0 SWAP1 DUP2 MSTORE PUSH1 0xA PUSH1 0x20 MSTORE PUSH1 0x40 SWAP1 KECCAK256 SLOAD PUSH1 0xFF AND SWAP1 JUMP JUMPDEST CALLVALUE DUP1 ISZERO PUSH2 0x4CC JUMPI PUSH1 0x0 DUP1 REVERT JUMPDEST POP PUSH2 0x305 PUSH2 0xDDF JUMP JUMPDEST CALLVALUE DUP1 ISZERO PUSH2 0x4E1 JUMPI PUSH1 0x0 DUP1 REVERT JUMPDEST POP PUSH1 0x7 SLOAD PUSH2 0x2D5 SWAP1 PUSH1 0x1 PUSH1 0xA8 SHL SWAP1 DIV PUSH1 0xFF AND DUP2 JUMP JUMPDEST CALLVALUE DUP1 ISZERO PUSH2 0x502 JUMPI PUSH1 0x0 DUP1 REVERT JUMPDEST POP PUSH2 0x297 PUSH32 0x0 DUP2 JUMP JUMPDEST CALLVALUE DUP1 ISZERO PUSH2 0x536 JUMPI PUSH1 0x0 DUP1 REVERT JUMPDEST POP PUSH2 0x2D5 PUSH2 0x545 CALLDATASIZE PUSH1 0x4 PUSH2 0x1837 JUMP JUMPDEST PUSH1 0xB PUSH1 0x20 MSTORE PUSH1 0x0 SWAP1 DUP2 MSTORE PUSH1 0x40 SWAP1 KECCAK256 SLOAD PUSH1 0xFF AND DUP2 JUMP JUMPDEST CALLVALUE DUP1 ISZERO PUSH2 0x566 JUMPI PUSH1 0x0 DUP1 REVERT JUMPDEST POP PUSH1 0x0 SLOAD PUSH1 0x1 PUSH1 0x1 PUSH1 0xA0 SHL SUB AND PUSH2 0x3A6 JUMP JUMPDEST PUSH2 0x305 PUSH2 0x586 CALLDATASIZE PUSH1 0x4 PUSH2 0x1664 JUMP JUMPDEST PUSH2 0xDF3 JUMP JUMPDEST CALLVALUE DUP1 ISZERO PUSH2 0x597 JUMPI PUSH1 0x0 DUP1 REVERT JUMPDEST POP PUSH2 0x305 PUSH2 0x5A6 CALLDATASIZE PUSH1 0x4 PUSH2 0x1664 JUMP JUMPDEST PUSH2 0xFA2 JUMP JUMPDEST CALLVALUE DUP1 ISZERO PUSH2 0x5B7 JUMPI PUSH1 0x0 DUP1 REVERT JUMPDEST POP PUSH2 0x305 PUSH2 0x5C6 CALLDATASIZE PUSH1 0x4 PUSH2 0x1813 JUMP JUMPDEST PUSH2 0x1032 JUMP JUMPDEST CALLVALUE DUP1 ISZERO PUSH2 0x5D7 JUMPI PUSH1 0x0 DUP1 REVERT JUMPDEST POP PUSH2 0x297 PUSH1 0x64 DUP2 JUMP JUMPDEST CALLVALUE DUP1 ISZERO PUSH2 0x5EC JUMPI PUSH1 0x0 DUP1 REVERT JUMPDEST POP PUSH1 0x7 SLOAD PUSH2 0x2D5 SWAP1 PUSH1 0x1 PUSH1 0xA0 SHL SWAP1 DIV PUSH1 0xFF AND DUP2 JUMP JUMPDEST CALLVALUE DUP1 ISZERO PUSH2 0x60D JUMPI PUSH1 0x0 DUP1 REVERT JUMPDEST POP PUSH2 0x297 PUSH2 0x61C CALLDATASIZE PUSH1 0x4 PUSH2 0x1664 JUMP JUMPDEST PUSH2 0x1099 JUMP JUMPDEST CALLVALUE DUP1 ISZERO PUSH2 0x62D JUMPI PUSH1 0x0 DUP1 REVERT JUMPDEST POP PUSH2 0x3A6 PUSH32 0x0 DUP2 JUMP JUMPDEST CALLVALUE DUP1 ISZERO PUSH2 0x661 JUMPI PUSH1 0x0 DUP1 REVERT JUMPDEST POP PUSH2 0x305 PUSH2 0x670 CALLDATASIZE PUSH1 0x4 PUSH2 0x1837 JUMP JUMPDEST PUSH2 0x10B0 JUMP JUMPDEST CALLVALUE DUP1 ISZERO PUSH2 0x681 JUMPI PUSH1 0x0 DUP1 REVERT JUMPDEST POP PUSH2 0x297 PUSH2 0x690 CALLDATASIZE PUSH1 0x4 PUSH2 0x1664 JUMP JUMPDEST PUSH2 0x114D JUMP JUMPDEST CALLVALUE DUP1 ISZERO PUSH2 0x6A1 JUMPI PUSH1 0x0 DUP1 REVERT JUMPDEST POP PUSH2 0x297 PUSH2 0x6B0 CALLDATASIZE PUSH1 0x4 PUSH2 0x1664 JUMP JUMPDEST PUSH2 0x115D JUMP JUMPDEST CALLVALUE DUP1 ISZERO PUSH2 0x6C1 JUMPI PUSH1 0x0 DUP1 REVERT JUMPDEST POP PUSH2 0x305 PUSH2 0x6D0 CALLDATASIZE PUSH1 0x4 PUSH2 0x1837 JUMP JUMPDEST PUSH2 0x116D JUMP JUMPDEST CALLVALUE DUP1 ISZERO PUSH2 0x6E1 JUMPI PUSH1 0x0 DUP1 REVERT JUMPDEST POP PUSH2 0x305 PUSH2 0x6F0 CALLDATASIZE PUSH1 0x4 PUSH2 0x1854 JUMP JUMPDEST PUSH2 0x11A8 JUMP JUMPDEST CALLVALUE DUP1 ISZERO PUSH2 0x701 JUMPI PUSH1 0x0 DUP1 REVERT JUMPDEST POP PUSH2 0x297 PUSH1 0x4 SLOAD DUP2 JUMP JUMPDEST CALLVALUE DUP1 ISZERO PUSH2 0x717 JUMPI PUSH1 0x0 DUP1 REVERT JUMPDEST POP PUSH2 0x2D5 PUSH2 0x726 CALLDATASIZE PUSH1 0x4 PUSH2 0x1664 JUMP JUMPDEST PUSH1 0xA PUSH1 0x20 MSTORE PUSH1 0x0 SWAP1 DUP2 MSTORE PUSH1 0x40 SWAP1 KECCAK256 SLOAD PUSH1 0xFF AND DUP2 JUMP JUMPDEST PUSH2 0x743 PUSH2 0x1251 JUMP JUMPDEST PUSH1 0x1 PUSH1 0x1 PUSH1 0xA0 SHL SUB DUP5 AND PUSH2 0x78C JUMPI PUSH1 0x40 MLOAD PUSH3 0x461BCD PUSH1 0xE5 SHL DUP2 MSTORE PUSH1 0x20 PUSH1 0x4 DUP3 ADD MSTORE PUSH1 0xB PUSH1 0x24 DUP3 ADD MSTORE PUSH11 0x726563697069656E743D3 PUSH1 0xAC SHL PUSH1 0x44 DUP3 ADD MSTORE PUSH1 0x64 ADD JUMPDEST PUSH1 0x40 MLOAD DUP1 SWAP2 SUB SWAP1 REVERT JUMPDEST PUSH1 0x1 PUSH1 0x1 PUSH1 0xA0 SHL SUB DUP4 AND PUSH2 0x7CE JUMPI PUSH1 0x40 MLOAD PUSH3 0x461BCD PUSH1 0xE5 SHL DUP2 MSTORE PUSH1 0x20 PUSH1 0x4 DUP3 ADD MSTORE PUSH1 0x9 PUSH1 0x24 DUP3 ADD MSTORE PUSH9 0x72656C617965723D3 PUSH1 0xBC SHL PUSH1 0x44 DUP3 ADD MSTORE PUSH1 0x64 ADD PUSH2 0x783 JUMP JUMPDEST PUSH1 0x7 SLOAD PUSH1 0x1 PUSH1 0xA0 SHL SWAP1 DIV PUSH1 0xFF AND ISZERO PUSH2 0x831 JUMPI CALLER PUSH1 0x1 PUSH1 0x1 PUSH1 0xA0 SHL SUB DUP5 AND EQ PUSH2 0x831 JUMPI PUSH1 0x40 MLOAD PUSH3 0x461BCD PUSH1 0xE5 SHL DUP2 MSTORE PUSH1 0x20 PUSH1 0x4 DUP3 ADD MSTORE PUSH1 0x16 PUSH1 0x24 DUP3 ADD MSTORE PUSH22 0x39B2B73232B91036BAB9BA103132903932B630BCB2B9 PUSH1 0x51 SHL PUSH1 0x44 DUP3 ADD MSTORE PUSH1 0x64 ADD PUSH2 0x783 JUMP JUMPDEST PUSH1 0x7 SLOAD PUSH1 0x1 PUSH1 0xA8 SHL SWAP1 DIV PUSH1 0xFF AND ISZERO PUSH2 0x8A2 JUMPI PUSH1 0x1 PUSH1 0x1 PUSH1 0xA0 SHL SUB DUP4 AND PUSH1 0x0 SWAP1 DUP2 MSTORE PUSH1 0xB PUSH1 0x20 MSTORE PUSH1 0x40 SWAP1 KECCAK256 SLOAD PUSH1 0xFF AND PUSH2 0x8A2 JUMPI PUSH1 0x40 MLOAD PUSH3 0x461BCD PUSH1 0xE5 SHL DUP2 MSTORE PUSH1 0x20 PUSH1 0x4 DUP3 ADD MSTORE PUSH1 0x14 PUSH1 0x24 DUP3 ADD MSTORE PUSH20 0x1C995B185E595C881B9BDD08185C1C1C9BDD9959 PUSH1 0x62 SHL PUSH1 0x44 DUP3 ADD MSTORE PUSH1 0x64 ADD PUSH2 0x783 JUMP JUMPDEST PUSH1 0x0 DUP6 DUP2 MSTORE PUSH1 0x9 PUSH1 0x20 MSTORE PUSH1 0x40 SWAP1 KECCAK256 SLOAD PUSH1 0xFF AND ISZERO PUSH2 0x8F3 JUMPI PUSH1 0x40 MLOAD PUSH3 0x461BCD PUSH1 0xE5 SHL DUP2 MSTORE PUSH1 0x20 PUSH1 0x4 DUP3 ADD MSTORE PUSH1 0xF PUSH1 0x24 DUP3 ADD MSTORE PUSH15 0x1B9D5B1B1A599A595C881CDC195B9D PUSH1 0x8A SHL PUSH1 0x44 DUP3 ADD MSTORE PUSH1 0x64 ADD PUSH2 0x783 JUMP JUMPDEST PUSH1 0x0 DUP7 DUP2 MSTORE PUSH1 0xA PUSH1 0x20 MSTORE PUSH1 0x40 SWAP1 KECCAK256 SLOAD PUSH1 0xFF AND PUSH2 0x940 JUMPI PUSH1 0x40 MLOAD PUSH3 0x461BCD PUSH1 0xE5 SHL DUP2 MSTORE PUSH1 0x20 PUSH1 0x4 DUP3 ADD MSTORE PUSH1 0xC PUSH1 0x24 DUP3 ADD MSTORE PUSH12 0x1D5B9ADB9BDDDB881C9BDBDD PUSH1 0xA2 SHL PUSH1 0x44 DUP3 ADD MSTORE PUSH1 0x64 ADD PUSH2 0x783 JUMP JUMPDEST PUSH1 0x5 SLOAD DUP3 LT ISZERO PUSH2 0x983 JUMPI PUSH1 0x40 MLOAD PUSH3 0x461BCD PUSH1 0xE5 SHL DUP2 MSTORE PUSH1 0x20 PUSH1 0x4 DUP3 ADD MSTORE PUSH1 0xE PUSH1 0x24 DUP3 ADD MSTORE PUSH14 0x6665652062656C6F772062617365 PUSH1 0x90 SHL PUSH1 0x44 DUP3 ADD MSTORE PUSH1 0x64 ADD PUSH2 0x783 JUMP JUMPDEST PUSH1 0x0 PUSH2 0x2710 PUSH1 0x6 SLOAD PUSH32 0x0 PUSH2 0x9B6 SWAP2 SWAP1 PUSH2 0x18A3 JUMP JUMPDEST PUSH2 0x9C0 SWAP2 SWAP1 PUSH2 0x18D0 JUMP JUMPDEST SWAP1 POP PUSH32 0x0 PUSH2 0x9ED DUP3 DUP6 PUSH2 0x18E4 JUMP JUMPDEST GT ISZERO PUSH2 0xA2B JUMPI PUSH1 0x40 MLOAD PUSH3 0x461BCD PUSH1 0xE5 SHL DUP2 MSTORE PUSH1 0x20 PUSH1 0x4 DUP3 ADD MSTORE PUSH1 0xD PUSH1 0x24 DUP3 ADD MSTORE PUSH13 0xCCCACAE640E8DEDE40D0D2CED PUSH1 0x9B SHL PUSH1 0x44 DUP3 ADD MSTORE PUSH1 0x64 ADD PUSH2 0x783 JUMP JUMPDEST PUSH1 0x40 DUP1 MLOAD PUSH1 0x7 DUP1 DUP3 MSTORE PUSH2 0x100 DUP3 ADD SWAP1 SWAP3 MSTORE PUSH1 0x0 SWAP2 PUSH1 0x20 DUP3 ADD PUSH1 0xE0 DUP1 CALLDATASIZE DUP4 CALLDATACOPY ADD SWAP1 POP POP SWAP1 POP DUP8 PUSH1 0x0 SHR DUP2 PUSH1 0x0 DUP2 MLOAD DUP2 LT PUSH2 0xA66 JUMPI PUSH2 0xA66 PUSH2 0x18F7 JUMP JUMPDEST PUSH1 0x20 MUL PUSH1 0x20 ADD ADD DUP2 DUP2 MSTORE POP POP DUP7 PUSH1 0x0 SHR DUP2 PUSH1 0x1 DUP2 MLOAD DUP2 LT PUSH2 0xA89 JUMPI PUSH2 0xA89 PUSH2 0x18F7 JUMP JUMPDEST PUSH1 0x20 MUL PUSH1 0x20 ADD ADD DUP2 DUP2 MSTORE POP POP DUP6 PUSH1 0x1 PUSH1 0x1 PUSH1 0xA0 SHL SUB AND DUP2 PUSH1 0x2 DUP2 MLOAD DUP2 LT PUSH2 0xAB2 JUMPI PUSH2 0xAB2 PUSH2 0x18F7 JUMP JUMPDEST PUSH1 0x20 MUL PUSH1 0x20 ADD ADD DUP2 DUP2 MSTORE POP POP DUP5 PUSH1 0x1 PUSH1 0x1 PUSH1 0xA0 SHL SUB AND DUP2 PUSH1 0x3 DUP2 MLOAD DUP2 LT PUSH2 0xADB JUMPI PUSH2 0xADB PUSH2 0x18F7 JUMP JUMPDEST PUSH1 0x20 MUL PUSH1 0x20 ADD ADD DUP2 DUP2 MSTORE POP POP DUP4 DUP2 PUSH1 0x4 DUP2 MLOAD DUP2 LT PUSH2 0xAFB JUMPI PUSH2 0xAFB PUSH2 0x18F7 JUMP JUMPDEST PUSH1 0x20 MUL PUSH1 0x20 ADD ADD DUP2 DUP2 MSTORE POP POP DUP3 DUP2 PUSH1 0x5 DUP2 MLOAD DUP2 LT PUSH2 0xB1B JUMPI PUSH2 0xB1B PUSH2 0x18F7 JUMP JUMPDEST PUSH1 0x20 MUL PUSH1 0x20 ADD ADD DUP2 DUP2 MSTORE POP POP CHAINID DUP2 PUSH1 0x6 DUP2 MLOAD DUP2 LT PUSH2 0xB3B JUMPI PUSH2 0xB3B PUSH2 0x18F7 JUMP JUMPDEST PUSH1 0x20 SWAP1 DUP2 MUL SWAP2 SWAP1 SWAP2 ADD ADD MSTORE PUSH1 0x40 MLOAD PUSH4 0x1E8E1E13 PUSH1 0xE0 SHL DUP2 MSTORE PUSH1 0x1 PUSH1 0x1 PUSH1 0xA0 SHL SUB PUSH32 0x0 AND SWAP1 PUSH4 0x1E8E1E13 SWAP1 PUSH2 0xB96 SWAP1 DUP14 SWAP1 DUP14 SWAP1 DUP7 SWAP1 PUSH1 0x4 ADD PUSH2 0x190D JUMP JUMPDEST PUSH1 0x20 PUSH1 0x40 MLOAD DUP1 DUP4 SUB DUP2 DUP7 GAS STATICCALL ISZERO DUP1 ISZERO PUSH2 0xBB3 JUMPI RETURNDATASIZE PUSH1 0x0 DUP1 RETURNDATACOPY RETURNDATASIZE PUSH1 0x0 REVERT JUMPDEST POP POP POP POP PUSH1 0x40 MLOAD RETURNDATASIZE PUSH1 0x1F NOT PUSH1 0x1F DUP3 ADD AND DUP3 ADD DUP1 PUSH1 0x40 MSTORE POP DUP2 ADD SWAP1 PUSH2 0xBD7 SWAP2 SWAP1 PUSH2 0x1988 JUMP JUMPDEST PUSH2 0xC13 JUMPI PUSH1 0x40 MLOAD PUSH3 0x461BCD PUSH1 0xE5 SHL DUP2 MSTORE PUSH1 0x20 PUSH1 0x4 DUP3 ADD MSTORE PUSH1 0xD PUSH1 0x24 DUP3 ADD MSTORE PUSH13 0x34B73B30B634B210383937B7B3 PUSH1 0x99 SHL PUSH1 0x44 DUP3 ADD MSTORE PUSH1 0x64 ADD PUSH2 0x783 JUMP JUMPDEST PUSH1 0x0 DUP8 DUP2 MSTORE PUSH1 0x9 PUSH1 0x20 MSTORE PUSH1 0x40 DUP2 KECCAK256 DUP1 SLOAD PUSH1 0xFF NOT AND PUSH1 0x1 OR SWAP1 SSTORE DUP3 PUSH2 0xC57 DUP7 PUSH32 0x0 PUSH2 0x19A5 JUMP JUMPDEST PUSH2 0xC61 SWAP2 SWAP1 PUSH2 0x19A5 JUMP JUMPDEST SWAP1 POP PUSH2 0xC6D DUP8 DUP3 PUSH2 0x127B JUMP JUMPDEST DUP5 ISZERO PUSH2 0xC7D JUMPI PUSH2 0xC7D DUP7 DUP7 PUSH2 0x127B JUMP JUMPDEST DUP3 ISZERO PUSH2 0xC99 JUMPI PUSH1 0x7 SLOAD PUSH2 0xC99 SWAP1 PUSH1 0x1 PUSH1 0x1 PUSH1 0xA0 SHL SUB AND DUP5 PUSH2 0x127B JUMP JUMPDEST DUP6 PUSH1 0x1 PUSH1 0x1 PUSH1 0xA0 SHL SUB AND DUP8 PUSH1 0x1 PUSH1 0x1 PUSH1 0xA0 SHL SUB AND DUP10 PUSH32 0x6C3A45613039E0A1117BD6CE110AB3C920271709C010983D921A2CD268E2EA47 DUP9 PUSH1 0x40 MLOAD PUSH2 0xCDF SWAP2 DUP2 MSTORE PUSH1 0x20 ADD SWAP1 JUMP JUMPDEST PUSH1 0x40 MLOAD DUP1 SWAP2 SUB SWAP1 LOG4 POP POP POP PUSH2 0xCF3 PUSH1 0x1 DUP1 SSTORE JUMP JUMPDEST POP POP POP POP POP POP POP POP JUMP JUMPDEST PUSH1 0x0 DUP2 PUSH2 0xD0B DUP7 DUP7 DUP7 PUSH2 0x1319 JUMP JUMPDEST EQ SWAP6 SWAP5 POP POP POP POP POP JUMP JUMPDEST PUSH2 0xD1D PUSH2 0x13F8 JUMP JUMPDEST PUSH1 0x5 DUP1 SLOAD SWAP1 DUP3 SWAP1 SSTORE PUSH1 0x40 DUP1 MLOAD DUP3 DUP2 MSTORE PUSH1 0x20 DUP2 ADD DUP5 SWAP1 MSTORE PUSH32 0x2E87CEABFA0E381E169014833B5C0798E7DE6068C766961D962847388A426FE SWAP2 ADD JUMPDEST PUSH1 0x40 MLOAD DUP1 SWAP2 SUB SWAP1 LOG1 POP POP JUMP JUMPDEST PUSH1 0x0 PUSH2 0xD70 DUP5 DUP5 DUP5 PUSH2 0x1319 JUMP JUMPDEST SWAP5 SWAP4 POP POP POP POP JUMP JUMPDEST PUSH2 0xD80 PUSH2 0x13F8 JUMP JUMPDEST PUSH1 0x7 DUP1 SLOAD PUSH1 0xFF PUSH1 0xA8 SHL NOT DUP2 AND PUSH1 0x1 PUSH1 0xA8 SHL DUP5 ISZERO ISZERO DUP2 DUP2 MUL SWAP3 SWAP1 SWAP3 OR SWAP1 SWAP4 SSTORE PUSH1 0x40 DUP1 MLOAD SWAP4 SWAP1 SWAP3 DIV PUSH1 0xFF AND DUP1 ISZERO ISZERO DUP5 MSTORE PUSH1 0x20 DUP5 ADD SWAP2 SWAP1 SWAP2 MSTORE SWAP2 PUSH32 0xAC8A542E802A136959C104624D34BE608945DACBFA86AF270DAE2405957C6439 SWAP2 ADD PUSH2 0xD57 JUMP JUMPDEST PUSH2 0xDE7 PUSH2 0x13F8 JUMP JUMPDEST PUSH2 0xDF1 PUSH1 0x0 PUSH2 0x1425 JUMP JUMPDEST JUMP JUMPDEST PUSH2 0xDFB PUSH2 0x1251 JUMP JUMPDEST PUSH32 0x0 CALLVALUE EQ PUSH2 0xE57 JUMPI PUSH1 0x40 MLOAD PUSH3 0x461BCD PUSH1 0xE5 SHL DUP2 MSTORE PUSH1 0x20 PUSH1 0x4 DUP3 ADD MSTORE PUSH1 0xA PUSH1 0x24 DUP3 ADD MSTORE PUSH10 0x18985908185B5BDD5B9D PUSH1 0xB2 SHL PUSH1 0x44 DUP3 ADD MSTORE PUSH1 0x64 ADD PUSH2 0x783 JUMP JUMPDEST PUSH1 0x0 DUP2 DUP2 MSTORE PUSH1 0x8 PUSH1 0x20 MSTORE PUSH1 0x40 SWAP1 KECCAK256 SLOAD PUSH1 0xFF AND ISZERO PUSH2 0xEA8 JUMPI PUSH1 0x40 MLOAD PUSH3 0x461BCD PUSH1 0xE5 SHL DUP2 MSTORE PUSH1 0x20 PUSH1 0x4 DUP3 ADD MSTORE PUSH1 0xF PUSH1 0x24 DUP3 ADD MSTORE PUSH15 0x18DBDB5B5A5D1B595B9D081D5CD959 PUSH1 0x8A SHL PUSH1 0x44 DUP3 ADD MSTORE PUSH1 0x64 ADD PUSH2 0x783 JUMP JUMPDEST PUSH1 0x3 SLOAD PUSH3 0x100000 PUSH4 0xFFFFFFFF SWAP1 SWAP2 AND LT PUSH2 0xEF3 JUMPI PUSH1 0x40 MLOAD PUSH3 0x461BCD PUSH1 0xE5 SHL DUP2 MSTORE PUSH1 0x20 PUSH1 0x4 DUP3 ADD MSTORE PUSH1 0xC PUSH1 0x24 DUP3 ADD MSTORE PUSH12 0x1D1C9959481A5CC8199D5B1B PUSH1 0xA2 SHL PUSH1 0x44 DUP3 ADD MSTORE PUSH1 0x64 ADD PUSH2 0x783 JUMP JUMPDEST PUSH1 0x0 DUP2 DUP2 MSTORE PUSH1 0x8 PUSH1 0x20 MSTORE PUSH1 0x40 SWAP1 KECCAK256 DUP1 SLOAD PUSH1 0xFF NOT AND PUSH1 0x1 OR SWAP1 SSTORE PUSH2 0xF15 DUP2 PUSH2 0x1475 JUMP JUMPDEST PUSH1 0x4 DUP2 SWAP1 SSTORE PUSH2 0xF23 SWAP1 PUSH2 0x153B JUMP JUMPDEST PUSH1 0x3 SLOAD PUSH1 0x4 SLOAD PUSH1 0x40 DUP1 MLOAD PUSH4 0xFFFFFFFF SWAP1 SWAP4 AND DUP4 MSTORE PUSH1 0x20 DUP4 ADD SWAP2 SWAP1 SWAP2 MSTORE TIMESTAMP SWAP1 DUP3 ADD MSTORE DUP2 SWAP1 PUSH32 0x8154AF7B1B360F500640DE68C82AF19C52C4AD4189D7A7C7A41506E19A1FDD6C SWAP1 PUSH1 0x60 ADD PUSH1 0x40 MLOAD DUP1 SWAP2 SUB SWAP1 LOG2 PUSH1 0x3 DUP1 SLOAD PUSH4 0xFFFFFFFF NOT DUP2 AND PUSH1 0x1 PUSH4 0xFFFFFFFF SWAP3 DUP4 AND DUP2 ADD SWAP1 SWAP3 AND OR SWAP1 SWAP2 SSTORE PUSH1 0x2 DUP1 SLOAD DUP3 ADD SWAP1 SSTORE DUP1 SSTORE POP JUMP JUMPDEST POP JUMP JUMPDEST PUSH2 0xFAA PUSH2 0x13F8 JUMP JUMPDEST PUSH2 0x2710 DUP2 GT ISZERO PUSH2 0xFF4 JUMPI PUSH1 0x40 MLOAD PUSH3 0x461BCD PUSH1 0xE5 SHL DUP2 MSTORE PUSH1 0x20 PUSH1 0x4 DUP3 ADD MSTORE PUSH1 0x15 PUSH1 0x24 DUP3 ADD MSTORE PUSH21 0xE0E4DEE8DEC6DED840CCCACA40E8DEDE40D0D2CED PUSH1 0x5B SHL PUSH1 0x44 DUP3 ADD MSTORE PUSH1 0x64 ADD PUSH2 0x783 JUMP JUMPDEST PUSH1 0x6 DUP1 SLOAD SWAP1 DUP3 SWAP1 SSTORE PUSH1 0x40 DUP1 MLOAD DUP3 DUP2 MSTORE PUSH1 0x20 DUP2 ADD DUP5 SWAP1 MSTORE PUSH32 0xF247E7445763D3E9A01AEE4B64DE35F02273D6A1D7264694BB9298109319C8BE SWAP2 ADD PUSH2 0xD57 JUMP JUMPDEST PUSH2 0x103A PUSH2 0x13F8 JUMP JUMPDEST PUSH1 0x7 DUP1 SLOAD PUSH1 0xFF PUSH1 0xA0 SHL NOT DUP2 AND PUSH1 0x1 PUSH1 0xA0 SHL DUP5 ISZERO ISZERO DUP2 DUP2 MUL SWAP3 SWAP1 SWAP3 OR SWAP1 SWAP4 SSTORE PUSH1 0x40 DUP1 MLOAD SWAP4 SWAP1 SWAP3 DIV PUSH1 0xFF AND DUP1 ISZERO ISZERO DUP5 MSTORE PUSH1 0x20 DUP5 ADD SWAP2 SWAP1 SWAP2 MSTORE SWAP2 PUSH32 0xB8902F76E68EEDF9D19810500094A11C4DA1E45FF8E1A6D119B92B21653C021E SWAP2 ADD PUSH2 0xD57 JUMP JUMPDEST PUSH1 0x71 DUP2 PUSH1 0x15 DUP2 LT PUSH2 0x10A9 JUMPI PUSH1 0x0 DUP1 REVERT JUMPDEST ADD SLOAD SWAP1 POP DUP2 JUMP JUMPDEST PUSH2 0x10B8 PUSH2 0x13F8 JUMP JUMPDEST PUSH1 0x1 PUSH1 0x1 PUSH1 0xA0 SHL SUB DUP2 AND PUSH2 0x10FB JUMPI PUSH1 0x40 MLOAD PUSH3 0x461BCD PUSH1 0xE5 SHL DUP2 MSTORE PUSH1 0x20 PUSH1 0x4 DUP3 ADD MSTORE PUSH1 0xA PUSH1 0x24 DUP3 ADD MSTORE PUSH10 0x74726561737572793D3 PUSH1 0xB4 SHL PUSH1 0x44 DUP3 ADD MSTORE PUSH1 0x64 ADD PUSH2 0x783 JUMP JUMPDEST PUSH1 0x7 DUP1 SLOAD PUSH1 0x1 PUSH1 0x1 PUSH1 0xA0 SHL SUB DUP4 DUP2 AND PUSH1 0x1 PUSH1 0x1 PUSH1 0xA0 SHL SUB NOT DUP4 AND DUP2 OR SWAP1 SWAP4 SSTORE PUSH1 0x40 MLOAD SWAP2 AND SWAP2 SWAP1 DUP3 SWAP1 PUSH32 0x4AB5BE82436D353E61CA18726E984E561F5C1CC7C6D38B29D2553C790434705A SWAP1 PUSH1 0x0 SWAP1 LOG3 POP POP JUMP JUMPDEST PUSH1 0x86 DUP2 PUSH1 0x14 DUP2 LT PUSH2 0x10A9 JUMPI PUSH1 0x0 DUP1 REVERT JUMPDEST PUSH1 0xC DUP2 PUSH1 0x64 DUP2 LT PUSH2 0x10A9 JUMPI PUSH1 0x0 DUP1 REVERT JUMPDEST PUSH2 0x1175 PUSH2 0x13F8 JUMP JUMPDEST PUSH1 0x1 PUSH1 0x1 PUSH1 0xA0 SHL SUB DUP2 AND PUSH2 0x119F JUMPI PUSH1 0x40 MLOAD PUSH4 0x1E4FBDF7 PUSH1 0xE0 SHL DUP2 MSTORE PUSH1 0x0 PUSH1 0x4 DUP3 ADD MSTORE PUSH1 0x24 ADD PUSH2 0x783 JUMP JUMPDEST PUSH2 0xF9F DUP2 PUSH2 0x1425 JUMP JUMPDEST PUSH2 0x11B0 PUSH2 0x13F8 JUMP JUMPDEST PUSH1 0x1 PUSH1 0x1 PUSH1 0xA0 SHL SUB DUP3 AND PUSH2 0x11F2 JUMPI PUSH1 0x40 MLOAD PUSH3 0x461BCD PUSH1 0xE5 SHL DUP2 MSTORE PUSH1 0x20 PUSH1 0x4 DUP3 ADD MSTORE PUSH1 0x9 PUSH1 0x24 DUP3 ADD MSTORE PUSH9 0x72656C617965723D3 PUSH1 0xBC SHL PUSH1 0x44 DUP3 ADD MSTORE PUSH1 0x64 ADD PUSH2 0x783 JUMP JUMPDEST PUSH1 0x1 PUSH1 0x1 PUSH1 0xA0 SHL SUB DUP3 AND PUSH1 0x0 DUP2 DUP2 MSTORE PUSH1 0xB PUSH1 0x20 SWAP1 DUP2 MSTORE PUSH1 0x40 SWAP2 DUP3 SWAP1 KECCAK256 DUP1 SLOAD PUSH1 0xFF NOT AND DUP6 ISZERO ISZERO SWAP1 DUP2 OR SWAP1 SWAP2 SSTORE SWAP2 MLOAD SWAP2 DUP3 MSTORE PUSH32 0xC18C96B23E5AFBAF72346174B2E46029640A336FED31D8EB543C7D9E38CA5D76 SWAP2 ADD PUSH1 0x40 MLOAD DUP1 SWAP2 SUB SWAP1 LOG2 POP POP JUMP JUMPDEST PUSH1 0x2 PUSH1 0x1 SLOAD SUB PUSH2 0x1274 JUMPI PUSH1 0x40 MLOAD PUSH4 0x3EE5AEB5 PUSH1 0xE0 SHL DUP2 MSTORE PUSH1 0x4 ADD PUSH1 0x40 MLOAD DUP1 SWAP2 SUB SWAP1 REVERT JUMPDEST PUSH1 0x2 PUSH1 0x1 SSTORE JUMP JUMPDEST PUSH1 0x0 DUP3 PUSH1 0x1 PUSH1 0x1 PUSH1 0xA0 SHL SUB AND DUP3 PUSH1 0x40 MLOAD PUSH1 0x0 PUSH1 0x40 MLOAD DUP1 DUP4 SUB DUP2 DUP6 DUP8 GAS CALL SWAP3 POP POP POP RETURNDATASIZE DUP1 PUSH1 0x0 DUP2 EQ PUSH2 0x12C8 JUMPI PUSH1 0x40 MLOAD SWAP2 POP PUSH1 0x1F NOT PUSH1 0x3F RETURNDATASIZE ADD AND DUP3 ADD PUSH1 0x40 MSTORE RETURNDATASIZE DUP3 MSTORE RETURNDATASIZE PUSH1 0x0 PUSH1 0x20 DUP5 ADD RETURNDATACOPY PUSH2 0x12CD JUMP JUMPDEST PUSH1 0x60 SWAP2 POP JUMPDEST POP POP SWAP1 POP DUP1 PUSH2 0x1314 JUMPI PUSH1 0x40 MLOAD PUSH3 0x461BCD PUSH1 0xE5 SHL DUP2 MSTORE PUSH1 0x20 PUSH1 0x4 DUP3 ADD MSTORE PUSH1 0x13 PUSH1 0x24 DUP3 ADD MSTORE PUSH19 0x195D1A081D1C985B9CD9995C8819985A5B1959 PUSH1 0x6A SHL PUSH1 0x44 DUP3 ADD MSTORE PUSH1 0x64 ADD PUSH2 0x783 JUMP JUMPDEST POP POP POP JUMP JUMPDEST PUSH1 0x0 PUSH3 0x100000 PUSH4 0xFFFFFFFF DUP4 AND LT PUSH2 0x136C JUMPI PUSH1 0x40 MLOAD PUSH3 0x461BCD PUSH1 0xE5 SHL DUP2 MSTORE PUSH1 0x20 PUSH1 0x4 DUP3 ADD MSTORE PUSH1 0x16 PUSH1 0x24 DUP3 ADD MSTORE PUSH22 0x6C656166496E646578206F7574206F662072616E6765 PUSH1 0x50 SHL PUSH1 0x44 DUP3 ADD MSTORE PUSH1 0x64 ADD PUSH2 0x783 JUMP JUMPDEST DUP4 DUP3 PUSH1 0x0 JUMPDEST PUSH1 0x14 PUSH4 0xFFFFFFFF DUP3 AND LT ISZERO PUSH2 0x13ED JUMPI PUSH1 0x0 DUP7 DUP3 PUSH4 0xFFFFFFFF AND PUSH1 0x14 DUP2 LT PUSH2 0x139A JUMPI PUSH2 0x139A PUSH2 0x18F7 JUMP JUMPDEST PUSH1 0x20 MUL ADD CALLDATALOAD SWAP1 POP PUSH2 0x13AC PUSH1 0x2 DUP5 PUSH2 0x19B8 JUMP JUMPDEST PUSH4 0xFFFFFFFF AND PUSH1 0x0 SUB PUSH2 0x13CA JUMPI PUSH2 0x13C3 DUP5 DUP3 PUSH2 0x15C8 JUMP JUMPDEST SWAP4 POP PUSH2 0x13D7 JUMP JUMPDEST PUSH2 0x13D4 DUP2 DUP6 PUSH2 0x15C8 JUMP JUMPDEST SWAP4 POP JUMPDEST PUSH2 0x13E2 PUSH1 0x2 DUP5 PUSH2 0x19DB JUMP JUMPDEST SWAP3 POP POP PUSH1 0x1 ADD PUSH2 0x1371 JUMP JUMPDEST POP SWAP1 SWAP6 SWAP5 POP POP POP POP POP JUMP JUMPDEST PUSH1 0x0 SLOAD PUSH1 0x1 PUSH1 0x1 PUSH1 0xA0 SHL SUB AND CALLER EQ PUSH2 0xDF1 JUMPI PUSH1 0x40 MLOAD PUSH4 0x118CDAA7 PUSH1 0xE0 SHL DUP2 MSTORE CALLER PUSH1 0x4 DUP3 ADD MSTORE PUSH1 0x24 ADD PUSH2 0x783 JUMP JUMPDEST PUSH1 0x0 DUP1 SLOAD PUSH1 0x1 PUSH1 0x1 PUSH1 0xA0 SHL SUB DUP4 DUP2 AND PUSH1 0x1 PUSH1 0x1 PUSH1 0xA0 SHL SUB NOT DUP4 AND DUP2 OR DUP5 SSTORE PUSH1 0x40 MLOAD SWAP2 SWAP1 SWAP3 AND SWAP3 DUP4 SWAP2 PUSH32 0x8BE0079C531659141344CD1FD0A4F28419497F9722A3DAAFE3B4186F6B6457E0 SWAP2 SWAP1 LOG3 POP POP JUMP JUMPDEST PUSH1 0x3 SLOAD PUSH1 0x0 SWAP1 PUSH4 0xFFFFFFFF AND DUP3 DUP3 DUP1 DUP1 JUMPDEST PUSH1 0x14 PUSH4 0xFFFFFFFF DUP3 AND LT ISZERO PUSH2 0x1530 JUMPI PUSH2 0x14A0 PUSH1 0x2 DUP7 PUSH2 0x19B8 JUMP JUMPDEST PUSH4 0xFFFFFFFF AND PUSH1 0x0 SUB PUSH2 0x14EE JUMPI DUP4 SWAP3 POP PUSH1 0x71 DUP2 PUSH4 0xFFFFFFFF AND PUSH1 0x15 DUP2 LT PUSH2 0x14C9 JUMPI PUSH2 0x14C9 PUSH2 0x18F7 JUMP JUMPDEST ADD SLOAD SWAP2 POP DUP4 PUSH1 0x86 DUP3 PUSH4 0xFFFFFFFF AND PUSH1 0x14 DUP2 LT PUSH2 0x14E7 JUMPI PUSH2 0x14E7 PUSH2 0x18F7 JUMP JUMPDEST ADD SSTORE PUSH2 0x150F JUMP JUMPDEST PUSH1 0x86 DUP2 PUSH4 0xFFFFFFFF AND PUSH1 0x14 DUP2 LT PUSH2 0x1507 JUMPI PUSH2 0x1507 PUSH2 0x18F7 JUMP JUMPDEST ADD SLOAD SWAP3 POP DUP4 SWAP2 POP JUMPDEST PUSH2 0x1519 DUP4 DUP4 PUSH2 0x15C8 JUMP JUMPDEST SWAP4 POP PUSH2 0x1526 PUSH1 0x2 DUP7 PUSH2 0x19DB JUMP JUMPDEST SWAP5 POP PUSH1 0x1 ADD PUSH2 0x1486 JUMP JUMPDEST POP SWAP2 SWAP6 SWAP5 POP POP POP POP POP JUMP JUMPDEST PUSH1 0x0 PUSH1 0xC PUSH1 0x70 SLOAD PUSH1 0x64 DUP2 LT PUSH2 0x1552 JUMPI PUSH2 0x1552 PUSH2 0x18F7 JUMP JUMPDEST ADD SLOAD SWAP1 POP DUP1 ISZERO PUSH2 0x1573 JUMPI PUSH1 0x0 DUP2 DUP2 MSTORE PUSH1 0xA PUSH1 0x20 MSTORE PUSH1 0x40 SWAP1 KECCAK256 DUP1 SLOAD PUSH1 0xFF NOT AND SWAP1 SSTORE JUMPDEST DUP2 PUSH1 0xC PUSH1 0x70 SLOAD PUSH1 0x64 DUP2 LT PUSH2 0x1589 JUMPI PUSH2 0x1589 PUSH2 0x18F7 JUMP JUMPDEST ADD SSTORE PUSH1 0x0 DUP3 DUP2 MSTORE PUSH1 0xA PUSH1 0x20 MSTORE PUSH1 0x40 SWAP1 KECCAK256 DUP1 SLOAD PUSH1 0xFF NOT AND PUSH1 0x1 SWAP1 DUP2 OR SWAP1 SWAP2 SSTORE PUSH1 0x70 SLOAD PUSH1 0x64 SWAP2 PUSH2 0x15B7 SWAP2 SWAP1 PUSH2 0x18E4 JUMP JUMPDEST PUSH2 0x15C1 SWAP2 SWAP1 PUSH2 0x19FE JUMP JUMPDEST PUSH1 0x70 SSTORE POP POP JUMP JUMPDEST PUSH1 0x40 MLOAD PUSH4 0x104BE72B PUSH1 0xE2 SHL DUP2 MSTORE PUSH1 0x4 DUP2 ADD DUP4 SWAP1 MSTORE PUSH1 0x24 DUP2 ADD DUP3 SWAP1 MSTORE PUSH1 0x0 SWAP1 PUSH32 0x0 PUSH1 0x1 PUSH1 0x1 PUSH1 0xA0 SHL SUB AND SWAP1 PUSH4 0x412F9CAC SWAP1 PUSH1 0x44 ADD PUSH1 0x20 PUSH1 0x40 MLOAD DUP1 DUP4 SUB DUP2 DUP7 GAS STATICCALL ISZERO DUP1 ISZERO PUSH2 0x1637 JUMPI RETURNDATASIZE PUSH1 0x0 DUP1 RETURNDATACOPY RETURNDATASIZE PUSH1 0x0 REVERT JUMPDEST POP POP POP POP PUSH1 0x40 MLOAD RETURNDATASIZE PUSH1 0x1F NOT PUSH1 0x1F DUP3 ADD AND DUP3 ADD DUP1 PUSH1 0x40 MSTORE POP DUP2 ADD SWAP1 PUSH2 0x165B SWAP2 SWAP1 PUSH2 0x1A12 JUMP JUMPDEST SWAP1 POP JUMPDEST SWAP3 SWAP2 POP POP JUMP JUMPDEST PUSH1 0x0 PUSH1 0x20 DUP3 DUP5 SUB SLT ISZERO PUSH2 0x1676 JUMPI PUSH1 0x0 DUP1 REVERT JUMPDEST POP CALLDATALOAD SWAP2 SWAP1 POP JUMP JUMPDEST PUSH1 0x1 PUSH1 0x1 PUSH1 0xA0 SHL SUB DUP2 AND DUP2 EQ PUSH2 0xF9F JUMPI PUSH1 0x0 DUP1 REVERT JUMPDEST DUP1 CALLDATALOAD PUSH2 0x169D DUP2 PUSH2 0x167D JUMP JUMPDEST SWAP2 SWAP1 POP JUMP JUMPDEST PUSH1 0x0 DUP1 PUSH1 0x0 DUP1 PUSH1 0x0 DUP1 PUSH1 0x0 DUP1 PUSH1 0xE0 DUP10 DUP12 SUB SLT ISZERO PUSH2 0x16BE JUMPI PUSH1 0x0 DUP1 REVERT JUMPDEST DUP9 CALLDATALOAD PUSH8 0xFFFFFFFFFFFFFFFF DUP1 DUP3 GT ISZERO PUSH2 0x16D6 JUMPI PUSH1 0x0 DUP1 REVERT JUMPDEST DUP2 DUP12 ADD SWAP2 POP DUP12 PUSH1 0x1F DUP4 ADD SLT PUSH2 0x16EA JUMPI PUSH1 0x0 DUP1 REVERT JUMPDEST DUP2 CALLDATALOAD DUP2 DUP2 GT ISZERO PUSH2 0x16F9 JUMPI PUSH1 0x0 DUP1 REVERT JUMPDEST DUP13 PUSH1 0x20 DUP3 DUP6 ADD ADD GT ISZERO PUSH2 0x170B JUMPI PUSH1 0x0 DUP1 REVERT JUMPDEST PUSH1 0x20 SWAP3 DUP4 ADD SWAP11 POP SWAP9 POP POP DUP10 ADD CALLDATALOAD SWAP6 POP PUSH1 0x40 DUP10 ADD CALLDATALOAD SWAP5 POP PUSH2 0x172D PUSH1 0x60 DUP11 ADD PUSH2 0x1692 JUMP JUMPDEST SWAP4 POP PUSH2 0x173B PUSH1 0x80 DUP11 ADD PUSH2 0x1692 JUMP JUMPDEST SWAP3 POP PUSH1 0xA0 DUP10 ADD CALLDATALOAD SWAP2 POP PUSH1 0xC0 DUP10 ADD CALLDATALOAD SWAP1 POP SWAP3 SWAP6 SWAP9 POP SWAP3 SWAP6 SWAP9 SWAP1 SWAP4 SWAP7 POP JUMP JUMPDEST DUP1 PUSH2 0x280 DUP2 ADD DUP4 LT ISZERO PUSH2 0x165E JUMPI PUSH1 0x0 DUP1 REVERT JUMPDEST DUP1 CALLDATALOAD PUSH4 0xFFFFFFFF DUP2 AND DUP2 EQ PUSH2 0x169D JUMPI PUSH1 0x0 DUP1 REVERT JUMPDEST PUSH1 0x0 DUP1 PUSH1 0x0 DUP1 PUSH2 0x2E0 DUP6 DUP8 SUB SLT ISZERO PUSH2 0x1795 JUMPI PUSH1 0x0 DUP1 REVERT JUMPDEST DUP5 CALLDATALOAD SWAP4 POP PUSH2 0x17A6 DUP7 PUSH1 0x20 DUP8 ADD PUSH2 0x1758 JUMP JUMPDEST SWAP3 POP PUSH2 0x17B5 PUSH2 0x2A0 DUP7 ADD PUSH2 0x176A JUMP JUMPDEST SWAP4 SWAP7 SWAP3 SWAP6 POP SWAP3 SWAP4 PUSH2 0x2C0 ADD CALLDATALOAD SWAP3 POP POP JUMP JUMPDEST PUSH1 0x0 DUP1 PUSH1 0x0 PUSH2 0x2C0 DUP5 DUP7 SUB SLT ISZERO PUSH2 0x17DC JUMPI PUSH1 0x0 DUP1 REVERT JUMPDEST DUP4 CALLDATALOAD SWAP3 POP PUSH2 0x17ED DUP6 PUSH1 0x20 DUP7 ADD PUSH2 0x1758 JUMP JUMPDEST SWAP2 POP PUSH2 0x17FC PUSH2 0x2A0 DUP6 ADD PUSH2 0x176A JUMP JUMPDEST SWAP1 POP SWAP3 POP SWAP3 POP SWAP3 JUMP JUMPDEST DUP1 ISZERO ISZERO DUP2 EQ PUSH2 0xF9F JUMPI PUSH1 0x0 DUP1 REVERT JUMPDEST PUSH1 0x0 PUSH1 0x20 DUP3 DUP5 SUB SLT ISZERO PUSH2 0x1825 JUMPI PUSH1 0x0 DUP1 REVERT JUMPDEST DUP2 CALLDATALOAD PUSH2 0x1830 DUP2 PUSH2 0x1805 JUMP JUMPDEST SWAP4 SWAP3 POP POP POP JUMP JUMPDEST PUSH1 0x0 PUSH1 0x20 DUP3 DUP5 SUB SLT ISZERO PUSH2 0x1849 JUMPI PUSH1 0x0 DUP1 REVERT JUMPDEST DUP2 CALLDATALOAD PUSH2 0x1830 DUP2 PUSH2 0x167D JUMP JUMPDEST PUSH1 0x0 DUP1 PUSH1 0x40 DUP4 DUP6 SUB SLT ISZERO PUSH2 0x1867 JUMPI PUSH1 0x0 DUP1 REVERT JUMPDEST DUP3 CALLDATALOAD PUSH2 0x1872 DUP2 PUSH2 0x167D JUMP JUMPDEST SWAP2 POP PUSH1 0x20 DUP4 ADD CALLDATALOAD PUSH2 0x1882 DUP2 PUSH2 0x1805 JUMP JUMPDEST DUP1 SWAP2 POP POP SWAP3 POP SWAP3 SWAP1 POP JUMP JUMPDEST PUSH4 0x4E487B71 PUSH1 0xE0 SHL PUSH1 0x0 MSTORE PUSH1 0x11 PUSH1 0x4 MSTORE PUSH1 0x24 PUSH1 0x0 REVERT JUMPDEST DUP1 DUP3 MUL DUP2 ISZERO DUP3 DUP3 DIV DUP5 EQ OR PUSH2 0x165E JUMPI PUSH2 0x165E PUSH2 0x188D JUMP JUMPDEST PUSH4 0x4E487B71 PUSH1 0xE0 SHL PUSH1 0x0 MSTORE PUSH1 0x12 PUSH1 0x4 MSTORE PUSH1 0x24 PUSH1 0x0 REVERT JUMPDEST PUSH1 0x0 DUP3 PUSH2 0x18DF JUMPI PUSH2 0x18DF PUSH2 0x18BA JUMP JUMPDEST POP DIV SWAP1 JUMP JUMPDEST DUP1 DUP3 ADD DUP1 DUP3 GT ISZERO PUSH2 0x165E JUMPI PUSH2 0x165E PUSH2 0x188D JUMP JUMPDEST PUSH4 0x4E487B71 PUSH1 0xE0 SHL PUSH1 0x0 MSTORE PUSH1 0x32 PUSH1 0x4 MSTORE PUSH1 0x24 PUSH1 0x0 REVERT JUMPDEST PUSH1 0x40 DUP2 MSTORE DUP3 PUSH1 0x40 DUP3 ADD MSTORE DUP3 DUP5 PUSH1 0x60 DUP4 ADD CALLDATACOPY PUSH1 0x0 PUSH1 0x60 DUP5 DUP4 ADD ADD MSTORE PUSH1 0x0 PUSH1 0x1F NOT PUSH1 0x1F DUP6 ADD AND DUP3 ADD PUSH1 0x60 DUP2 ADD PUSH1 0x20 PUSH1 0x60 DUP6 DUP5 SUB ADD PUSH1 0x20 DUP7 ADD MSTORE DUP2 DUP7 MLOAD DUP1 DUP5 MSTORE PUSH1 0x80 DUP6 ADD SWAP2 POP PUSH1 0x20 DUP9 ADD SWAP5 POP PUSH1 0x0 SWAP4 POP JUMPDEST DUP1 DUP5 LT ISZERO PUSH2 0x197B JUMPI DUP5 MLOAD DUP3 MSTORE SWAP4 DUP3 ADD SWAP4 PUSH1 0x1 SWAP4 SWAP1 SWAP4 ADD SWAP3 SWAP1 DUP3 ADD SWAP1 PUSH2 0x195B JUMP JUMPDEST POP SWAP9 SWAP8 POP POP POP POP POP POP POP POP JUMP JUMPDEST PUSH1 0x0 PUSH1 0x20 DUP3 DUP5 SUB SLT ISZERO PUSH2 0x199A JUMPI PUSH1 0x0 DUP1 REVERT JUMPDEST DUP2 MLOAD PUSH2 0x1830 DUP2 PUSH2 0x1805 JUMP JUMPDEST DUP2 DUP2 SUB DUP2 DUP2 GT ISZERO PUSH2 0x165E JUMPI PUSH2 0x165E PUSH2 0x188D JUMP JUMPDEST PUSH1 0x0 PUSH4 0xFFFFFFFF DUP1 DUP5 AND DUP1 PUSH2 0x19CF JUMPI PUSH2 0x19CF PUSH2 0x18BA JUMP JUMPDEST SWAP3 AND SWAP2 SWAP1 SWAP2 MOD SWAP3 SWAP2 POP POP JUMP JUMPDEST PUSH1 0x0 PUSH4 0xFFFFFFFF DUP1 DUP5 AND DUP1 PUSH2 0x19F2 JUMPI PUSH2 0x19F2 PUSH2 0x18BA JUMP JUMPDEST SWAP3 AND SWAP2 SWAP1 SWAP2 DIV SWAP3 SWAP2 POP POP JUMP JUMPDEST PUSH1 0x0 DUP3 PUSH2 0x1A0D JUMPI PUSH2 0x1A0D PUSH2 0x18BA JUMP JUMPDEST POP MOD SWAP1 JUMP JUMPDEST PUSH1 0x0 PUSH1 0x20 DUP3 DUP5 SUB SLT ISZERO PUSH2 0x1A24 JUMPI PUSH1 0x0 DUP1 REVERT JUMPDEST POP MLOAD SWAP2 SWAP1 POP JUMP INVALID LOG2 PUSH5 0x6970667358 0x22 SLT KECCAK256 DUP4 RETURN PUSH25 0xD908DDE31750FA7A91EBDBD38C28D99E93B85A19CD2BF91D50 0xF SWAP5 0xC5 PUSH26 0x64736F6C63430008180033000000000000000000000000000000 "},"methodIdentifiers":{"FEE_BPS_DENOMINATOR()":"583d434f","ROOT_HISTORY_SIZE()":"cd87a3b4","TREE_LEVELS()":"2a894a73","approvedRelayers(address)":"8cba8b6a","approvedRelayersOnly()":"71d5a1dd","baseRelayerFee()":"0f3b566a","commitmentUsed(bytes32)":"156428ba","computeRootFromPath(bytes32,bytes32[20],uint32)":"304ce729","currentRoot()":"fdab463d","denomination()":"8bca6d16","deposit(bytes32)":"b214faa5","depositCount()":"2dfdf0b5","filledSubtrees(uint256)":"f178e47c","hasher()":"ed33639f","isKnownRoot(bytes32)":"6d9833e3","nextLeafIndex()":"0be4f422","nullifierSpent(bytes32)":"38c86911","owner()":"8da5cb5b","protocolFeeBps()":"35659fb8","relayerOnly()":"e7549e82","renounceOwnership()":"715018a6","rootHistory(uint256)":"f1c621ee","rootHistoryIndex()":"263516a8","rootKnown(bytes32)":"fe1c4251","setApprovedRelayersOnly(bool)":"4e4c416a","setBaseRelayerFee(uint256)":"2a21b72e","setProtocolFeeBps(uint256)":"c0417e58","setRelayerApproval(address,bool)":"f62ac70f","setRelayerOnly(bool)":"c6ccf7ce","setTreasury(address)":"f0f44260","transferOwnership(address)":"f2fde38b","treasury()":"61d027b3","verifier()":"2b7ac3f3","verifyMerklePath(bytes32,bytes32[20],uint32,bytes32)":"239a25e5","withdraw(bytes,bytes32,bytes32,address,address,uint256,uint256)":"21a0adb6","zeros(uint256)":"e8295588"}}}}}