{"contracts/PrivacyPool.sol":{"PrivacyPool":{"abi":[{"inputs":[{"internalType":"address","name":"verifier_","type":"address"},{"internalType":"uint256","name":"denomination_","type":"uint256"},{"internalType":"uint256","name":"baseRelayerFee_","type":"uint256"},{"internalType":"uint256","name":"protocolFeeBps_","type":"uint256"},{"internalType":"address payable","name":"treasury_","type":"address"}],"stateMutability":"nonpayable","type":"constructor"},{"inputs":[],"name":"DirectEthDisabled","type":"error"},{"inputs":[{"internalType":"address","name":"owner","type":"address"}],"name":"OwnableInvalidOwner","type":"error"},{"inputs":[{"internalType":"address","name":"account","type":"address"}],"name":"OwnableUnauthorizedAccount","type":"error"},{"inputs":[],"name":"ReentrancyGuardReentrantCall","type":"error"},{"anonymous":false,"inputs":[{"indexed":false,"internalType":"bool","name":"previousValue","type":"bool"},{"indexed":false,"internalType":"bool","name":"newValue","type":"bool"}],"name":"ApprovedRelayersOnlyUpdated","type":"event"},{"anonymous":false,"inputs":[{"indexed":false,"internalType":"uint256","name":"previousValue","type":"uint256"},{"indexed":false,"internalType":"uint256","name":"newValue","type":"uint256"}],"name":"BaseRelayerFeeUpdated","type":"event"},{"anonymous":false,"inputs":[{"indexed":true,"internalType":"bytes32","name":"commitment","type":"bytes32"},{"indexed":false,"internalType":"uint256","name":"leafIndex","type":"uint256"},{"indexed":false,"internalType":"bytes32","name":"root","type":"bytes32"},{"indexed":false,"internalType":"uint256","name":"timestamp","type":"uint256"}],"name":"Deposit","type":"event"},{"anonymous":false,"inputs":[{"indexed":true,"internalType":"address","name":"previousOwner","type":"address"},{"indexed":true,"internalType":"address","name":"newOwner","type":"address"}],"name":"OwnershipTransferred","type":"event"},{"anonymous":false,"inputs":[{"indexed":false,"internalType":"uint256","name":"previousValue","type":"uint256"},{"indexed":false,"internalType":"uint256","name":"newValue","type":"uint256"}],"name":"ProtocolFeeBpsUpdated","type":"event"},{"anonymous":false,"inputs":[{"indexed":true,"internalType":"address","name":"relayer","type":"address"},{"indexed":false,"internalType":"bool","name":"approved","type":"bool"}],"name":"RelayerApprovalUpdated","type":"event"},{"anonymous":false,"inputs":[{"indexed":false,"internalType":"bool","name":"previousValue","type":"bool"},{"indexed":false,"internalType":"bool","name":"newValue","type":"bool"}],"name":"RelayerOnlyUpdated","type":"event"},{"anonymous":false,"inputs":[{"indexed":true,"internalType":"address","name":"previousTreasury","type":"address"},{"indexed":true,"internalType":"address","name":"newTreasury","type":"address"}],"name":"TreasuryUpdated","type":"event"},{"anonymous":false,"inputs":[{"indexed":true,"internalType":"bytes32","name":"nullifierHash","type":"bytes32"},{"indexed":true,"internalType":"address","name":"recipient","type":"address"},{"indexed":true,"internalType":"address","name":"relayer","type":"address"},{"indexed":false,"internalType":"uint256","name":"fee","type":"uint256"}],"name":"Withdrawal","type":"event"},{"stateMutability":"payable","type":"fallback"},{"inputs":[],"name":"FEE_BPS_DENOMINATOR","outputs":[{"internalType":"uint256","name":"","type":"uint256"}],"stateMutability":"view","type":"function"},{"inputs":[],"name":"ROOT_HISTORY_SIZE","outputs":[{"internalType":"uint256","name":"","type":"uint256"}],"stateMutability":"view","type":"function"},{"inputs":[],"name":"TREE_LEVELS","outputs":[{"internalType":"uint32","name":"","type":"uint32"}],"stateMutability":"view","type":"function"},{"inputs":[{"internalType":"address","name":"","type":"address"}],"name":"approvedRelayers","outputs":[{"internalType":"bool","name":"","type":"bool"}],"stateMutability":"view","type":"function"},{"inputs":[],"name":"approvedRelayersOnly","outputs":[{"internalType":"bool","name":"","type":"bool"}],"stateMutability":"view","type":"function"},{"inputs":[],"name":"baseRelayerFee","outputs":[{"internalType":"uint256","name":"","type":"uint256"}],"stateMutability":"view","type":"function"},{"inputs":[{"internalType":"bytes32","name":"","type":"bytes32"}],"name":"commitmentUsed","outputs":[{"internalType":"bool","name":"","type":"bool"}],"stateMutability":"view","type":"function"},{"inputs":[{"internalType":"bytes32","name":"leaf","type":"bytes32"},{"internalType":"bytes32[20]","name":"siblings","type":"bytes32[20]"},{"internalType":"uint32","name":"leafIndex","type":"uint32"}],"name":"computeRootFromPath","outputs":[{"internalType":"bytes32","name":"","type":"bytes32"}],"stateMutability":"pure","type":"function"},{"inputs":[],"name":"currentRoot","outputs":[{"internalType":"bytes32","name":"","type":"bytes32"}],"stateMutability":"view","type":"function"},{"inputs":[],"name":"denomination","outputs":[{"internalType":"uint256","name":"","type":"uint256"}],"stateMutability":"view","type":"function"},{"inputs":[{"internalType":"bytes32","name":"commitment","type":"bytes32"}],"name":"deposit","outputs":[],"stateMutability":"payable","type":"function"},{"inputs":[],"name":"depositCount","outputs":[{"internalType":"uint256","name":"","type":"uint256"}],"stateMutability":"view","type":"function"},{"inputs":[{"internalType":"uint256","name":"","type":"uint256"}],"name":"filledSubtrees","outputs":[{"internalType":"bytes32","name":"","type":"bytes32"}],"stateMutability":"view","type":"function"},{"inputs":[{"internalType":"bytes32","name":"root","type":"bytes32"}],"name":"isKnownRoot","outputs":[{"internalType":"bool","name":"","type":"bool"}],"stateMutability":"view","type":"function"},{"inputs":[],"name":"nextLeafIndex","outputs":[{"internalType":"uint32","name":"","type":"uint32"}],"stateMutability":"view","type":"function"},{"inputs":[{"internalType":"bytes32","name":"","type":"bytes32"}],"name":"nullifierSpent","outputs":[{"internalType":"bool","name":"","type":"bool"}],"stateMutability":"view","type":"function"},{"inputs":[],"name":"owner","outputs":[{"internalType":"address","name":"","type":"address"}],"stateMutability":"view","type":"function"},{"inputs":[],"name":"protocolFeeBps","outputs":[{"internalType":"uint256","name":"","type":"uint256"}],"stateMutability":"view","type":"function"},{"inputs":[],"name":"relayerOnly","outputs":[{"internalType":"bool","name":"","type":"bool"}],"stateMutability":"view","type":"function"},{"inputs":[],"name":"renounceOwnership","outputs":[],"stateMutability":"nonpayable","type":"function"},{"inputs":[{"internalType":"uint256","name":"","type":"uint256"}],"name":"rootHistory","outputs":[{"internalType":"bytes32","name":"","type":"bytes32"}],"stateMutability":"view","type":"function"},{"inputs":[],"name":"rootHistoryIndex","outputs":[{"internalType":"uint256","name":"","type":"uint256"}],"stateMutability":"view","type":"function"},{"inputs":[{"internalType":"bytes32","name":"","type":"bytes32"}],"name":"rootKnown","outputs":[{"internalType":"bool","name":"","type":"bool"}],"stateMutability":"view","type":"function"},{"inputs":[{"internalType":"bool","name":"enabled","type":"bool"}],"name":"setApprovedRelayersOnly","outputs":[],"stateMutability":"nonpayable","type":"function"},{"inputs":[{"internalType":"uint256","name":"newBaseRelayerFee","type":"uint256"}],"name":"setBaseRelayerFee","outputs":[],"stateMutability":"nonpayable","type":"function"},{"inputs":[{"internalType":"uint256","name":"newProtocolFeeBps","type":"uint256"}],"name":"setProtocolFeeBps","outputs":[],"stateMutability":"nonpayable","type":"function"},{"inputs":[{"internalType":"address","name":"relayer","type":"address"},{"internalType":"bool","name":"approved","type":"bool"}],"name":"setRelayerApproval","outputs":[],"stateMutability":"nonpayable","type":"function"},{"inputs":[{"internalType":"bool","name":"enabled","type":"bool"}],"name":"setRelayerOnly","outputs":[],"stateMutability":"nonpayable","type":"function"},{"inputs":[{"internalType":"address payable","name":"newTreasury","type":"address"}],"name":"setTreasury","outputs":[],"stateMutability":"nonpayable","type":"function"},{"inputs":[{"internalType":"address","name":"newOwner","type":"address"}],"name":"transferOwnership","outputs":[],"stateMutability":"nonpayable","type":"function"},{"inputs":[],"name":"treasury","outputs":[{"internalType":"address payable","name":"","type":"address"}],"stateMutability":"view","type":"function"},{"inputs":[],"name":"verifier","outputs":[{"internalType":"contract IVerifier","name":"","type":"address"}],"stateMutability":"view","type":"function"},{"inputs":[{"internalType":"bytes32","name":"leaf","type":"bytes32"},{"internalType":"bytes32[20]","name":"siblings","type":"bytes32[20]"},{"internalType":"uint32","name":"leafIndex","type":"uint32"},{"internalType":"bytes32","name":"expectedRoot","type":"bytes32"}],"name":"verifyMerklePath","outputs":[{"internalType":"bool","name":"","type":"bool"}],"stateMutability":"pure","type":"function"},{"inputs":[{"internalType":"bytes","name":"proof","type":"bytes"},{"internalType":"bytes32","name":"root","type":"bytes32"},{"internalType":"bytes32","name":"nullifierHash","type":"bytes32"},{"internalType":"address payable","name":"recipient","type":"address"},{"internalType":"address payable","name":"relayer","type":"address"},{"internalType":"uint256","name":"fee","type":"uint256"},{"internalType":"uint256","name":"refund","type":"uint256"}],"name":"withdraw","outputs":[],"stateMutability":"nonpayable","type":"function"},{"inputs":[{"internalType":"uint256","name":"","type":"uint256"}],"name":"zeros","outputs":[{"internalType":"bytes32","name":"","type":"bytes32"}],"stateMutability":"view","type":"function"},{"stateMutability":"payable","type":"receive"}],"evm":{"bytecode":{"linkReferences":{},"object":"60c06040523480156200001157600080fd5b5060405162001f0b38038062001f0b83398101604081905262000034916200043d565b33806200005c57604051631e4fbdf760e01b8152600060048201526024015b60405180910390fd5b6200006781620001f3565b50600180556001600160a01b038516620000b15760405162461bcd60e51b815260206004820152600a602482015269076657269666965723d360b41b604482015260640162000053565b60008411620000f45760405162461bcd60e51b815260206004820152600e60248201526d064656e6f6d696e6174696f6e3d360941b604482015260640162000053565b612710821115620001485760405162461bcd60e51b815260206004820152601560248201527f70726f746f636f6c2066656520746f6f20686967680000000000000000000000604482015260640162000053565b6001600160a01b0381166200018d5760405162461bcd60e51b815260206004820152600a602482015269074726561737572793d360b41b604482015260640162000053565b6001600160a01b0385811660805260a08590526005849055600683905560078054600160a01b9284166001600160a81b0319909116179190911760ff60a81b19169055620001da62000243565b600454620001e8906200035d565b505050505062000526565b600080546001600160a01b038381166001600160a01b0319831681178455604051919092169283917f8be0079c531659141344cd1fd0a4f28419497f9722a3daafe3b4186f6b6457e09190a35050565b60405170424c55454152435f545245455f5a45524f60781b602082015246603182015260009060510160408051808303601f1901815291905280516020909101206071819055905060005b601463ffffffff82161015620003535760718163ffffffff1660158110620002ba57620002ba6200049a565b015460868263ffffffff1660148110620002d857620002d86200049a565b015562000320607163ffffffff831660158110620002fa57620002fa6200049a565b015460718363ffffffff16601581106200031857620003186200049a565b0154620003f5565b60716200032f836001620004c6565b63ffffffff16601581106200034857620003486200049a565b01556001016200028e565b5050608554600455565b6000600c607054606481106200037757620003776200049a565b01549050801562000399576000818152600a60205260409020805460ff191690555b81600c60705460648110620003b257620003b26200049a565b01556000828152600a60205260409020805460ff19166001908117909155607054606491620003e29190620004ed565b620003ee919062000503565b6070555050565b604080516020808201859052818301849052825180830384018152606090920190925280519101205b92915050565b6001600160a01b03811681146200043a57600080fd5b50565b600080600080600060a086880312156200045657600080fd5b8551620004638162000424565b8095505060208601519350604086015192506060860151915060808601516200048c8162000424565b809150509295509295909350565b634e487b7160e01b600052603260045260246000fd5b634e487b7160e01b600052601160045260246000fd5b63ffffffff818116838216019080821115620004e657620004e6620004b0565b5092915050565b808201808211156200041e576200041e620004b0565b6000826200052157634e487b7160e01b600052601260045260246000fd5b500690565b60805160a05161199c6200056f600039600081816104fd0152818161094e0152818161098501528181610bf40152610dbe0152600081816103790152610b1e015261199c6000f3fe6080604052600436106102085760003560e01c8063715018a611610118578063e7549e82116100a0578063f1c621ee1161006f578063f1c621ee14610656578063f2fde38b14610676578063f62ac70f14610696578063fdab463d146106b6578063fe1c4251146106cc57610226565b8063e7549e82146105d5578063e8295588146105f6578063f0f4426014610616578063f178e47c1461063657610226565b80638da5cb5b116100e75780638da5cb5b1461054f578063b214faa51461056d578063c0417e5814610580578063c6ccf7ce146105a0578063cd87a3b4146105c057610226565b8063715018a6146104b557806371d5a1dd146104ca5780638bca6d16146104eb5780638cba8b6a1461051f57610226565b80632b7ac3f31161019b57806338c869111161016a57806338c86911146103ff5780634e4c416a1461042f578063583d434f1461044f57806361d027b3146104655780636d9833e31461048557610226565b80632b7ac3f3146103675780632dfdf0b5146103b3578063304ce729146103c957806335659fb8146103e957610226565b8063239a25e5116101d7578063239a25e5146102fc578063263516a81461031c5780632a21b72e146103325780632a894a731461035257610226565b80630be4f4221461023f5780630f3b566a14610276578063156428ba1461029a57806321a0adb6146102da57610226565b3661022657604051630265cbaf60e51b815260040160405180910390fd5b604051630265cbaf60e51b815260040160405180910390fd5b34801561024b57600080fd5b5060035461025c9063ffffffff1681565b60405163ffffffff90911681526020015b60405180910390f35b34801561028257600080fd5b5061028c60055481565b60405190815260200161026d565b3480156102a657600080fd5b506102ca6102b53660046115b8565b60086020526000908152604090205460ff1681565b604051901515815260200161026d565b3480156102e657600080fd5b506102fa6102f53660046115f6565b6106fc565b005b34801561030857600080fd5b506102ca6103173660046116d2565b610cbe565b34801561032857600080fd5b5061028c60705481565b34801561033e57600080fd5b506102fa61034d3660046115b8565b610cd6565b34801561035e57600080fd5b5061025c601481565b34801561037357600080fd5b5061039b7f000000000000000000000000000000000000000000000000000000000000000081565b6040516001600160a01b03909116815260200161026d565b3480156103bf57600080fd5b5061028c60025481565b3480156103d557600080fd5b5061028c6103e436600461171a565b610d24565b3480156103f557600080fd5b5061028c60065481565b34801561040b57600080fd5b506102ca61041a3660046115b8565b60096020526000908152604090205460ff1681565b34801561043b57600080fd5b506102fa61044a366004611767565b610d39565b34801561045b57600080fd5b5061028c61271081565b34801561047157600080fd5b5060075461039b906001600160a01b031681565b34801561049157600080fd5b506102ca6104a03660046115b8565b6000908152600a602052604090205460ff1690565b3480156104c157600080fd5b506102fa610da0565b3480156104d657600080fd5b506007546102ca90600160a81b900460ff1681565b3480156104f757600080fd5b5061028c7f000000000000000000000000000000000000000000000000000000000000000081565b34801561052b57600080fd5b506102ca61053a36600461178b565b600b6020526000908152604090205460ff1681565b34801561055b57600080fd5b506000546001600160a01b031661039b565b6102fa61057b3660046115b8565b610db4565b34801561058c57600080fd5b506102fa61059b3660046115b8565b610f63565b3480156105ac57600080fd5b506102fa6105bb366004611767565b610ff3565b3480156105cc57600080fd5b5061028c606481565b3480156105e157600080fd5b506007546102ca90600160a01b900460ff1681565b34801561060257600080fd5b5061028c6106113660046115b8565b61105a565b34801561062257600080fd5b506102fa61063136600461178b565b611071565b34801561064257600080fd5b5061028c6106513660046115b8565b61110e565b34801561066257600080fd5b5061028c6106713660046115b8565b61111e565b34801561068257600080fd5b506102fa61069136600461178b565b61112e565b3480156106a257600080fd5b506102fa6106b13660046117a8565b611169565b3480156106c257600080fd5b5061028c60045481565b3480156106d857600080fd5b506102ca6106e73660046115b8565b600a6020526000908152604090205460ff1681565b610704611212565b6001600160a01b03841661074d5760405162461bcd60e51b815260206004820152600b60248201526a0726563697069656e743d360ac1b60448201526064015b60405180910390fd5b6001600160a01b03831661078f5760405162461bcd60e51b8152602060048201526009602482015268072656c617965723d360bc1b6044820152606401610744565b600754600160a01b900460ff16156107f257336001600160a01b038416146107f25760405162461bcd60e51b815260206004820152601660248201527539b2b73232b91036bab9ba103132903932b630bcb2b960511b6044820152606401610744565b600754600160a81b900460ff1615610863576001600160a01b0383166000908152600b602052604090205460ff166108635760405162461bcd60e51b81526020600482015260146024820152731c995b185e595c881b9bdd08185c1c1c9bdd995960621b6044820152606401610744565b60008581526009602052604090205460ff16156108b45760405162461bcd60e51b815260206004820152600f60248201526e1b9d5b1b1a599a595c881cdc195b9d608a1b6044820152606401610744565b6000868152600a602052604090205460ff166109015760405162461bcd60e51b815260206004820152600c60248201526b1d5b9adb9bdddb881c9bdbdd60a21b6044820152606401610744565b6005548210156109445760405162461bcd60e51b815260206004820152600e60248201526d6665652062656c6f77206261736560901b6044820152606401610744565b60006127106006547f000000000000000000000000000000000000000000000000000000000000000061097791906117f7565b6109819190611824565b90507f00000000000000000000000000000000000000000000000000000000000000006109ae8285611838565b11156109ec5760405162461bcd60e51b815260206004820152600d60248201526c0cccacae640e8dede40d0d2ced609b1b6044820152606401610744565b60408051600780825261010082019092526000916020820160e0803683370190505090508760001c81600081518110610a2757610a2761184b565b6020026020010181815250508660001c81600181518110610a4a57610a4a61184b565b602002602001018181525050856001600160a01b031681600281518110610a7357610a7361184b565b602002602001018181525050846001600160a01b031681600381518110610a9c57610a9c61184b565b6020026020010181815250508381600481518110610abc57610abc61184b565b6020026020010181815250508281600581518110610adc57610adc61184b565b6020026020010181815250504681600681518110610afc57610afc61184b565b6020908102919091010152604051631e8e1e1360e01b81526001600160a01b037f00000000000000000000000000000000000000000000000000000000000000001690631e8e1e1390610b57908d908d908690600401611861565b602060405180830381865afa158015610b74573d6000803e3d6000fd5b505050506040513d601f19601f82011682018060405250810190610b9891906118dc565b610bd45760405162461bcd60e51b815260206004820152600d60248201526c34b73b30b634b210383937b7b360991b6044820152606401610744565b6000878152600960205260408120805460ff1916600117905582610c18867f00000000000000000000000000000000000000000000000000000000000000006118f9565b610c2291906118f9565b9050610c2e878261123c565b8415610c3e57610c3e868661123c565b8215610c5a57600754610c5a906001600160a01b03168461123c565b856001600160a01b0316876001600160a01b0316897f6c3a45613039e0a1117bd6ce110ab3c920271709c010983d921a2cd268e2ea4788604051610ca091815260200190565b60405180910390a4505050610cb460018055565b5050505050505050565b600081610ccc8686866112da565b1495945050505050565b610cde6113b9565b600580549082905560408051828152602081018490527f02e87ceabfa0e381e169014833b5c0798e7de6068c766961d962847388a426fe91015b60405180910390a15050565b6000610d318484846112da565b949350505050565b610d416113b9565b6007805460ff60a81b198116600160a81b84151581810292909217909355604080519390920460ff1680151584526020840191909152917fac8a542e802a136959c104624d34be608945dacbfa86af270dae2405957c64399101610d18565b610da86113b9565b610db260006113e6565b565b610dbc611212565b7f00000000000000000000000000000000000000000000000000000000000000003414610e185760405162461bcd60e51b815260206004820152600a60248201526918985908185b5bdd5b9d60b21b6044820152606401610744565b60008181526008602052604090205460ff1615610e695760405162461bcd60e51b815260206004820152600f60248201526e18dbdb5b5a5d1b595b9d081d5cd959608a1b6044820152606401610744565b6003546210000063ffffffff90911610610eb45760405162461bcd60e51b815260206004820152600c60248201526b1d1c9959481a5cc8199d5b1b60a21b6044820152606401610744565b6000818152600860205260409020805460ff19166001179055610ed681611436565b6004819055610ee4906114fc565b6003546004546040805163ffffffff90931683526020830191909152429082015281907f8154af7b1b360f500640de68c82af19c52c4ad4189d7a7c7a41506e19a1fdd6c9060600160405180910390a26003805463ffffffff198116600163ffffffff9283168101909216179091556002805482019055805550565b50565b610f6b6113b9565b612710811115610fb55760405162461bcd60e51b81526020600482015260156024820152740e0e4dee8dec6ded840cccaca40e8dede40d0d2ced605b1b6044820152606401610744565b600680549082905560408051828152602081018490527ff247e7445763d3e9a01aee4b64de35f02273d6a1d7264694bb9298109319c8be9101610d18565b610ffb6113b9565b6007805460ff60a01b198116600160a01b84151581810292909217909355604080519390920460ff1680151584526020840191909152917fb8902f76e68eedf9d19810500094a11c4da1e45ff8e1a6d119b92b21653c021e9101610d18565b6071816015811061106a57600080fd5b0154905081565b6110796113b9565b6001600160a01b0381166110bc5760405162461bcd60e51b815260206004820152600a602482015269074726561737572793d360b41b6044820152606401610744565b600780546001600160a01b038381166001600160a01b0319831681179093556040519116919082907f4ab5be82436d353e61ca18726e984e561f5c1cc7c6d38b29d2553c790434705a90600090a35050565b6086816014811061106a57600080fd5b600c816064811061106a57600080fd5b6111366113b9565b6001600160a01b03811661116057604051631e4fbdf760e01b815260006004820152602401610744565b610f60816113e6565b6111716113b9565b6001600160a01b0382166111b35760405162461bcd60e51b8152602060048201526009602482015268072656c617965723d360bc1b6044820152606401610744565b6001600160a01b0382166000818152600b6020908152604091829020805460ff191685151590811790915591519182527fc18c96b23e5afbaf72346174b2e46029640a336fed31d8eb543c7d9e38ca5d76910160405180910390a25050565b60026001540361123557604051633ee5aeb560e01b815260040160405180910390fd5b6002600155565b6000826001600160a01b03168260405160006040518083038185875af1925050503d8060008114611289576040519150601f19603f3d011682016040523d82523d6000602084013e61128e565b606091505b50509050806112d55760405162461bcd60e51b8152602060048201526013602482015272195d1a081d1c985b9cd9995c8819985a5b1959606a1b6044820152606401610744565b505050565b60006210000063ffffffff83161061132d5760405162461bcd60e51b81526020600482015260166024820152756c656166496e646578206f7574206f662072616e676560501b6044820152606401610744565b838260005b601463ffffffff821610156113ae576000868263ffffffff166014811061135b5761135b61184b565b6020020135905061136d60028461190c565b63ffffffff1660000361138b576113848482611589565b9350611398565b6113958185611589565b93505b6113a360028461192f565b925050600101611332565b509095945050505050565b6000546001600160a01b03163314610db25760405163118cdaa760e01b8152336004820152602401610744565b600080546001600160a01b038381166001600160a01b0319831681178455604051919092169283917f8be0079c531659141344cd1fd0a4f28419497f9722a3daafe3b4186f6b6457e09190a35050565b60035460009063ffffffff16828280805b601463ffffffff821610156114f15761146160028661190c565b63ffffffff166000036114af5783925060718163ffffffff166015811061148a5761148a61184b565b015491508360868263ffffffff16601481106114a8576114a861184b565b01556114d0565b60868163ffffffff16601481106114c8576114c861184b565b015492508391505b6114da8383611589565b93506114e760028661192f565b9450600101611447565b509195945050505050565b6000600c607054606481106115135761151361184b565b015490508015611534576000818152600a60205260409020805460ff191690555b81600c6070546064811061154a5761154a61184b565b01556000828152600a60205260409020805460ff191660019081179091556070546064916115789190611838565b6115829190611952565b6070555050565b604080516020808201859052818301849052825180830384018152606090920190925280519101205b92915050565b6000602082840312156115ca57600080fd5b5035919050565b6001600160a01b0381168114610f6057600080fd5b80356115f1816115d1565b919050565b60008060008060008060008060e0898b03121561161257600080fd5b883567ffffffffffffffff8082111561162a57600080fd5b818b0191508b601f83011261163e57600080fd5b81358181111561164d57600080fd5b8c602082850101111561165f57600080fd5b60209283019a5098505089013595506040890135945061168160608a016115e6565b935061168f60808a016115e6565b925060a0890135915060c089013590509295985092959890939650565b8061028081018310156115b257600080fd5b803563ffffffff811681146115f157600080fd5b6000806000806102e085870312156116e957600080fd5b843593506116fa86602087016116ac565b92506117096102a086016116be565b939692955092936102c00135925050565b60008060006102c0848603121561173057600080fd5b8335925061174185602086016116ac565b91506117506102a085016116be565b90509250925092565b8015158114610f6057600080fd5b60006020828403121561177957600080fd5b813561178481611759565b9392505050565b60006020828403121561179d57600080fd5b8135611784816115d1565b600080604083850312156117bb57600080fd5b82356117c6816115d1565b915060208301356117d681611759565b809150509250929050565b634e487b7160e01b600052601160045260246000fd5b80820281158282048414176115b2576115b26117e1565b634e487b7160e01b600052601260045260246000fd5b6000826118335761183361180e565b500490565b808201808211156115b2576115b26117e1565b634e487b7160e01b600052603260045260246000fd5b60408152826040820152828460608301376000606084830101526000601f19601f85011682016060810160206060858403016020860152818651808452608085019150602088019450600093505b808410156118cf57845182529382019360019390930192908201906118af565b5098975050505050505050565b6000602082840312156118ee57600080fd5b815161178481611759565b818103818111156115b2576115b26117e1565b600063ffffffff808416806119235761192361180e565b92169190910692915050565b600063ffffffff808416806119465761194661180e565b92169190910492915050565b6000826119615761196161180e565b50069056fea26469706673582212200d15da596a087c2fe43ae010e7990829145ffd19c3a0d223ddb44c14ce4bcdff64736f6c63430008180033","opcodes":"PUSH1 0xC0 PUSH1 0x40 MSTORE CALLVALUE DUP1 ISZERO PUSH3 0x11 JUMPI PUSH1 0x0 DUP1 REVERT JUMPDEST POP PUSH1 0x40 MLOAD PUSH3 0x1F0B CODESIZE SUB DUP1 PUSH3 0x1F0B DUP4 CODECOPY DUP2 ADD PUSH1 0x40 DUP2 SWAP1 MSTORE PUSH3 0x34 SWAP2 PUSH3 0x43D JUMP JUMPDEST CALLER DUP1 PUSH3 0x5C JUMPI PUSH1 0x40 MLOAD PUSH4 0x1E4FBDF7 PUSH1 0xE0 SHL DUP2 MSTORE PUSH1 0x0 PUSH1 0x4 DUP3 ADD MSTORE PUSH1 0x24 ADD JUMPDEST PUSH1 0x40 MLOAD DUP1 SWAP2 SUB SWAP1 REVERT JUMPDEST PUSH3 0x67 DUP2 PUSH3 0x1F3 JUMP JUMPDEST POP PUSH1 0x1 DUP1 SSTORE PUSH1 0x1 PUSH1 0x1 PUSH1 0xA0 SHL SUB DUP6 AND PUSH3 0xB1 JUMPI PUSH1 0x40 MLOAD PUSH3 0x461BCD PUSH1 0xE5 SHL DUP2 MSTORE PUSH1 0x20 PUSH1 0x4 DUP3 ADD MSTORE PUSH1 0xA PUSH1 0x24 DUP3 ADD MSTORE PUSH10 0x76657269666965723D3 PUSH1 0xB4 SHL PUSH1 0x44 DUP3 ADD MSTORE PUSH1 0x64 ADD PUSH3 0x53 JUMP JUMPDEST PUSH1 0x0 DUP5 GT PUSH3 0xF4 JUMPI PUSH1 0x40 MLOAD PUSH3 0x461BCD PUSH1 0xE5 SHL DUP2 MSTORE PUSH1 0x20 PUSH1 0x4 DUP3 ADD MSTORE PUSH1 0xE PUSH1 0x24 DUP3 ADD MSTORE PUSH14 0x64656E6F6D696E6174696F6E3D3 PUSH1 0x94 SHL PUSH1 0x44 DUP3 ADD MSTORE PUSH1 0x64 ADD PUSH3 0x53 JUMP JUMPDEST PUSH2 0x2710 DUP3 GT ISZERO PUSH3 0x148 JUMPI PUSH1 0x40 MLOAD PUSH3 0x461BCD PUSH1 0xE5 SHL DUP2 MSTORE PUSH1 0x20 PUSH1 0x4 DUP3 ADD MSTORE PUSH1 0x15 PUSH1 0x24 DUP3 ADD MSTORE PUSH32 0x70726F746F636F6C2066656520746F6F20686967680000000000000000000000 PUSH1 0x44 DUP3 ADD MSTORE PUSH1 0x64 ADD PUSH3 0x53 JUMP JUMPDEST PUSH1 0x1 PUSH1 0x1 PUSH1 0xA0 SHL SUB DUP2 AND PUSH3 0x18D JUMPI PUSH1 0x40 MLOAD PUSH3 0x461BCD PUSH1 0xE5 SHL DUP2 MSTORE PUSH1 0x20 PUSH1 0x4 DUP3 ADD MSTORE PUSH1 0xA PUSH1 0x24 DUP3 ADD MSTORE PUSH10 0x74726561737572793D3 PUSH1 0xB4 SHL PUSH1 0x44 DUP3 ADD MSTORE PUSH1 0x64 ADD PUSH3 0x53 JUMP JUMPDEST PUSH1 0x1 PUSH1 0x1 PUSH1 0xA0 SHL SUB DUP6 DUP2 AND PUSH1 0x80 MSTORE PUSH1 0xA0 DUP6 SWAP1 MSTORE PUSH1 0x5 DUP5 SWAP1 SSTORE PUSH1 0x6 DUP4 SWAP1 SSTORE PUSH1 0x7 DUP1 SLOAD PUSH1 0x1 PUSH1 0xA0 SHL SWAP3 DUP5 AND PUSH1 0x1 PUSH1 0x1 PUSH1 0xA8 SHL SUB NOT SWAP1 SWAP2 AND OR SWAP2 SWAP1 SWAP2 OR PUSH1 0xFF PUSH1 0xA8 SHL NOT AND SWAP1 SSTORE PUSH3 0x1DA PUSH3 0x243 JUMP JUMPDEST PUSH1 0x4 SLOAD PUSH3 0x1E8 SWAP1 PUSH3 0x35D JUMP JUMPDEST POP POP POP POP POP PUSH3 0x526 JUMP JUMPDEST PUSH1 0x0 DUP1 SLOAD PUSH1 0x1 PUSH1 0x1 PUSH1 0xA0 SHL SUB DUP4 DUP2 AND PUSH1 0x1 PUSH1 0x1 PUSH1 0xA0 SHL SUB NOT DUP4 AND DUP2 OR DUP5 SSTORE PUSH1 0x40 MLOAD SWAP2 SWAP1 SWAP3 AND SWAP3 DUP4 SWAP2 PUSH32 0x8BE0079C531659141344CD1FD0A4F28419497F9722A3DAAFE3B4186F6B6457E0 SWAP2 SWAP1 LOG3 POP POP JUMP JUMPDEST PUSH1 0x40 MLOAD PUSH17 0x424C55454152435F545245455F5A45524F PUSH1 0x78 SHL PUSH1 0x20 DUP3 ADD MSTORE CHAINID PUSH1 0x31 DUP3 ADD MSTORE PUSH1 0x0 SWAP1 PUSH1 0x51 ADD PUSH1 0x40 DUP1 MLOAD DUP1 DUP4 SUB PUSH1 0x1F NOT ADD DUP2 MSTORE SWAP2 SWAP1 MSTORE DUP1 MLOAD PUSH1 0x20 SWAP1 SWAP2 ADD KECCAK256 PUSH1 0x71 DUP2 SWAP1 SSTORE SWAP1 POP PUSH1 0x0 JUMPDEST PUSH1 0x14 PUSH4 0xFFFFFFFF DUP3 AND LT ISZERO PUSH3 0x353 JUMPI PUSH1 0x71 DUP2 PUSH4 0xFFFFFFFF AND PUSH1 0x15 DUP2 LT PUSH3 0x2BA JUMPI PUSH3 0x2BA PUSH3 0x49A JUMP JUMPDEST ADD SLOAD PUSH1 0x86 DUP3 PUSH4 0xFFFFFFFF AND PUSH1 0x14 DUP2 LT PUSH3 0x2D8 JUMPI PUSH3 0x2D8 PUSH3 0x49A JUMP JUMPDEST ADD SSTORE PUSH3 0x320 PUSH1 0x71 PUSH4 0xFFFFFFFF DUP4 AND PUSH1 0x15 DUP2 LT PUSH3 0x2FA JUMPI PUSH3 0x2FA PUSH3 0x49A JUMP JUMPDEST ADD SLOAD PUSH1 0x71 DUP4 PUSH4 0xFFFFFFFF AND PUSH1 0x15 DUP2 LT PUSH3 0x318 JUMPI PUSH3 0x318 PUSH3 0x49A JUMP JUMPDEST ADD SLOAD PUSH3 0x3F5 JUMP JUMPDEST PUSH1 0x71 PUSH3 0x32F DUP4 PUSH1 0x1 PUSH3 0x4C6 JUMP JUMPDEST PUSH4 0xFFFFFFFF AND PUSH1 0x15 DUP2 LT PUSH3 0x348 JUMPI PUSH3 0x348 PUSH3 0x49A JUMP JUMPDEST ADD SSTORE PUSH1 0x1 ADD PUSH3 0x28E JUMP JUMPDEST POP POP PUSH1 0x85 SLOAD PUSH1 0x4 SSTORE JUMP JUMPDEST PUSH1 0x0 PUSH1 0xC PUSH1 0x70 SLOAD PUSH1 0x64 DUP2 LT PUSH3 0x377 JUMPI PUSH3 0x377 PUSH3 0x49A JUMP JUMPDEST ADD SLOAD SWAP1 POP DUP1 ISZERO PUSH3 0x399 JUMPI PUSH1 0x0 DUP2 DUP2 MSTORE PUSH1 0xA PUSH1 0x20 MSTORE PUSH1 0x40 SWAP1 KECCAK256 DUP1 SLOAD PUSH1 0xFF NOT AND SWAP1 SSTORE JUMPDEST DUP2 PUSH1 0xC PUSH1 0x70 SLOAD PUSH1 0x64 DUP2 LT PUSH3 0x3B2 JUMPI PUSH3 0x3B2 PUSH3 0x49A JUMP JUMPDEST ADD SSTORE PUSH1 0x0 DUP3 DUP2 MSTORE PUSH1 0xA PUSH1 0x20 MSTORE PUSH1 0x40 SWAP1 KECCAK256 DUP1 SLOAD PUSH1 0xFF NOT AND PUSH1 0x1 SWAP1 DUP2 OR SWAP1 SWAP2 SSTORE PUSH1 0x70 SLOAD PUSH1 0x64 SWAP2 PUSH3 0x3E2 SWAP2 SWAP1 PUSH3 0x4ED JUMP JUMPDEST PUSH3 0x3EE SWAP2 SWAP1 PUSH3 0x503 JUMP JUMPDEST PUSH1 0x70 SSTORE POP POP JUMP JUMPDEST PUSH1 0x40 DUP1 MLOAD PUSH1 0x20 DUP1 DUP3 ADD DUP6 SWAP1 MSTORE DUP2 DUP4 ADD DUP5 SWAP1 MSTORE DUP3 MLOAD DUP1 DUP4 SUB DUP5 ADD DUP2 MSTORE PUSH1 0x60 SWAP1 SWAP3 ADD SWAP1 SWAP3 MSTORE DUP1 MLOAD SWAP2 ADD KECCAK256 JUMPDEST SWAP3 SWAP2 POP POP JUMP JUMPDEST PUSH1 0x1 PUSH1 0x1 PUSH1 0xA0 SHL SUB DUP2 AND DUP2 EQ PUSH3 0x43A JUMPI PUSH1 0x0 DUP1 REVERT JUMPDEST POP JUMP JUMPDEST PUSH1 0x0 DUP1 PUSH1 0x0 DUP1 PUSH1 0x0 PUSH1 0xA0 DUP7 DUP9 SUB SLT ISZERO PUSH3 0x456 JUMPI PUSH1 0x0 DUP1 REVERT JUMPDEST DUP6 MLOAD PUSH3 0x463 DUP2 PUSH3 0x424 JUMP JUMPDEST DUP1 SWAP6 POP POP PUSH1 0x20 DUP7 ADD MLOAD SWAP4 POP PUSH1 0x40 DUP7 ADD MLOAD SWAP3 POP PUSH1 0x60 DUP7 ADD MLOAD SWAP2 POP PUSH1 0x80 DUP7 ADD MLOAD PUSH3 0x48C DUP2 PUSH3 0x424 JUMP JUMPDEST DUP1 SWAP2 POP POP SWAP3 SWAP6 POP SWAP3 SWAP6 SWAP1 SWAP4 POP JUMP JUMPDEST PUSH4 0x4E487B71 PUSH1 0xE0 SHL PUSH1 0x0 MSTORE PUSH1 0x32 PUSH1 0x4 MSTORE PUSH1 0x24 PUSH1 0x0 REVERT JUMPDEST PUSH4 0x4E487B71 PUSH1 0xE0 SHL PUSH1 0x0 MSTORE PUSH1 0x11 PUSH1 0x4 MSTORE PUSH1 0x24 PUSH1 0x0 REVERT JUMPDEST PUSH4 0xFFFFFFFF DUP2 DUP2 AND DUP4 DUP3 AND ADD SWAP1 DUP1 DUP3 GT ISZERO PUSH3 0x4E6 JUMPI PUSH3 0x4E6 PUSH3 0x4B0 JUMP JUMPDEST POP SWAP3 SWAP2 POP POP JUMP JUMPDEST DUP1 DUP3 ADD DUP1 DUP3 GT ISZERO PUSH3 0x41E JUMPI PUSH3 0x41E PUSH3 0x4B0 JUMP JUMPDEST PUSH1 0x0 DUP3 PUSH3 0x521 JUMPI PUSH4 0x4E487B71 PUSH1 0xE0 SHL PUSH1 0x0 MSTORE PUSH1 0x12 PUSH1 0x4 MSTORE PUSH1 0x24 PUSH1 0x0 REVERT JUMPDEST POP MOD SWAP1 JUMP JUMPDEST PUSH1 0x80 MLOAD PUSH1 0xA0 MLOAD PUSH2 0x199C PUSH3 0x56F PUSH1 0x0 CODECOPY PUSH1 0x0 DUP2 DUP2 PUSH2 0x4FD ADD MSTORE DUP2 DUP2 PUSH2 0x94E ADD MSTORE DUP2 DUP2 PUSH2 0x985 ADD MSTORE DUP2 DUP2 PUSH2 0xBF4 ADD MSTORE PUSH2 0xDBE ADD MSTORE PUSH1 0x0 DUP2 DUP2 PUSH2 0x379 ADD MSTORE PUSH2 0xB1E ADD MSTORE PUSH2 0x199C PUSH1 0x0 RETURN INVALID PUSH1 0x80 PUSH1 0x40 MSTORE PUSH1 0x4 CALLDATASIZE LT PUSH2 0x208 JUMPI PUSH1 0x0 CALLDATALOAD PUSH1 0xE0 SHR DUP1 PUSH4 0x715018A6 GT PUSH2 0x118 JUMPI DUP1 PUSH4 0xE7549E82 GT PUSH2 0xA0 JUMPI DUP1 PUSH4 0xF1C621EE GT PUSH2 0x6F JUMPI DUP1 PUSH4 0xF1C621EE EQ PUSH2 0x656 JUMPI DUP1 PUSH4 0xF2FDE38B EQ PUSH2 0x676 JUMPI DUP1 PUSH4 0xF62AC70F EQ PUSH2 0x696 JUMPI DUP1 PUSH4 0xFDAB463D EQ PUSH2 0x6B6 JUMPI DUP1 PUSH4 0xFE1C4251 EQ PUSH2 0x6CC JUMPI PUSH2 0x226 JUMP JUMPDEST DUP1 PUSH4 0xE7549E82 EQ PUSH2 0x5D5 JUMPI DUP1 PUSH4 0xE8295588 EQ PUSH2 0x5F6 JUMPI DUP1 PUSH4 0xF0F44260 EQ PUSH2 0x616 JUMPI DUP1 PUSH4 0xF178E47C EQ PUSH2 0x636 JUMPI PUSH2 0x226 JUMP JUMPDEST DUP1 PUSH4 0x8DA5CB5B GT PUSH2 0xE7 JUMPI DUP1 PUSH4 0x8DA5CB5B EQ PUSH2 0x54F JUMPI DUP1 PUSH4 0xB214FAA5 EQ PUSH2 0x56D JUMPI DUP1 PUSH4 0xC0417E58 EQ PUSH2 0x580 JUMPI DUP1 PUSH4 0xC6CCF7CE EQ PUSH2 0x5A0 JUMPI DUP1 PUSH4 0xCD87A3B4 EQ PUSH2 0x5C0 JUMPI PUSH2 0x226 JUMP JUMPDEST DUP1 PUSH4 0x715018A6 EQ PUSH2 0x4B5 JUMPI DUP1 PUSH4 0x71D5A1DD EQ PUSH2 0x4CA JUMPI DUP1 PUSH4 0x8BCA6D16 EQ PUSH2 0x4EB JUMPI DUP1 PUSH4 0x8CBA8B6A EQ PUSH2 0x51F JUMPI PUSH2 0x226 JUMP JUMPDEST DUP1 PUSH4 0x2B7AC3F3 GT PUSH2 0x19B JUMPI DUP1 PUSH4 0x38C86911 GT PUSH2 0x16A JUMPI DUP1 PUSH4 0x38C86911 EQ PUSH2 0x3FF JUMPI DUP1 PUSH4 0x4E4C416A EQ PUSH2 0x42F JUMPI DUP1 PUSH4 0x583D434F EQ PUSH2 0x44F JUMPI DUP1 PUSH4 0x61D027B3 EQ PUSH2 0x465 JUMPI DUP1 PUSH4 0x6D9833E3 EQ PUSH2 0x485 JUMPI PUSH2 0x226 JUMP JUMPDEST DUP1 PUSH4 0x2B7AC3F3 EQ PUSH2 0x367 JUMPI DUP1 PUSH4 0x2DFDF0B5 EQ PUSH2 0x3B3 JUMPI DUP1 PUSH4 0x304CE729 EQ PUSH2 0x3C9 JUMPI DUP1 PUSH4 0x35659FB8 EQ PUSH2 0x3E9 JUMPI PUSH2 0x226 JUMP JUMPDEST DUP1 PUSH4 0x239A25E5 GT PUSH2 0x1D7 JUMPI DUP1 PUSH4 0x239A25E5 EQ PUSH2 0x2FC JUMPI DUP1 PUSH4 0x263516A8 EQ PUSH2 0x31C JUMPI DUP1 PUSH4 0x2A21B72E EQ PUSH2 0x332 JUMPI DUP1 PUSH4 0x2A894A73 EQ PUSH2 0x352 JUMPI PUSH2 0x226 JUMP JUMPDEST DUP1 PUSH4 0xBE4F422 EQ PUSH2 0x23F JUMPI DUP1 PUSH4 0xF3B566A EQ PUSH2 0x276 JUMPI DUP1 PUSH4 0x156428BA EQ PUSH2 0x29A JUMPI DUP1 PUSH4 0x21A0ADB6 EQ PUSH2 0x2DA JUMPI PUSH2 0x226 JUMP JUMPDEST CALLDATASIZE PUSH2 0x226 JUMPI PUSH1 0x40 MLOAD PUSH4 0x265CBAF PUSH1 0xE5 SHL DUP2 MSTORE PUSH1 0x4 ADD PUSH1 0x40 MLOAD DUP1 SWAP2 SUB SWAP1 REVERT JUMPDEST PUSH1 0x40 MLOAD PUSH4 0x265CBAF PUSH1 0xE5 SHL DUP2 MSTORE PUSH1 0x4 ADD PUSH1 0x40 MLOAD DUP1 SWAP2 SUB SWAP1 REVERT JUMPDEST CALLVALUE DUP1 ISZERO PUSH2 0x24B JUMPI PUSH1 0x0 DUP1 REVERT JUMPDEST POP PUSH1 0x3 SLOAD PUSH2 0x25C SWAP1 PUSH4 0xFFFFFFFF AND DUP2 JUMP JUMPDEST PUSH1 0x40 MLOAD PUSH4 0xFFFFFFFF SWAP1 SWAP2 AND DUP2 MSTORE PUSH1 0x20 ADD JUMPDEST PUSH1 0x40 MLOAD DUP1 SWAP2 SUB SWAP1 RETURN JUMPDEST CALLVALUE DUP1 ISZERO PUSH2 0x282 JUMPI PUSH1 0x0 DUP1 REVERT JUMPDEST POP PUSH2 0x28C PUSH1 0x5 SLOAD DUP2 JUMP JUMPDEST PUSH1 0x40 MLOAD SWAP1 DUP2 MSTORE PUSH1 0x20 ADD PUSH2 0x26D JUMP JUMPDEST CALLVALUE DUP1 ISZERO PUSH2 0x2A6 JUMPI PUSH1 0x0 DUP1 REVERT JUMPDEST POP PUSH2 0x2CA PUSH2 0x2B5 CALLDATASIZE PUSH1 0x4 PUSH2 0x15B8 JUMP JUMPDEST PUSH1 0x8 PUSH1 0x20 MSTORE PUSH1 0x0 SWAP1 DUP2 MSTORE PUSH1 0x40 SWAP1 KECCAK256 SLOAD PUSH1 0xFF AND DUP2 JUMP JUMPDEST PUSH1 0x40 MLOAD SWAP1 ISZERO ISZERO DUP2 MSTORE PUSH1 0x20 ADD PUSH2 0x26D JUMP JUMPDEST CALLVALUE DUP1 ISZERO PUSH2 0x2E6 JUMPI PUSH1 0x0 DUP1 REVERT JUMPDEST POP PUSH2 0x2FA PUSH2 0x2F5 CALLDATASIZE PUSH1 0x4 PUSH2 0x15F6 JUMP JUMPDEST PUSH2 0x6FC JUMP JUMPDEST STOP JUMPDEST CALLVALUE DUP1 ISZERO PUSH2 0x308 JUMPI PUSH1 0x0 DUP1 REVERT JUMPDEST POP PUSH2 0x2CA PUSH2 0x317 CALLDATASIZE PUSH1 0x4 PUSH2 0x16D2 JUMP JUMPDEST PUSH2 0xCBE JUMP JUMPDEST CALLVALUE DUP1 ISZERO PUSH2 0x328 JUMPI PUSH1 0x0 DUP1 REVERT JUMPDEST POP PUSH2 0x28C PUSH1 0x70 SLOAD DUP2 JUMP JUMPDEST CALLVALUE DUP1 ISZERO PUSH2 0x33E JUMPI PUSH1 0x0 DUP1 REVERT JUMPDEST POP PUSH2 0x2FA PUSH2 0x34D CALLDATASIZE PUSH1 0x4 PUSH2 0x15B8 JUMP JUMPDEST PUSH2 0xCD6 JUMP JUMPDEST CALLVALUE DUP1 ISZERO PUSH2 0x35E JUMPI PUSH1 0x0 DUP1 REVERT JUMPDEST POP PUSH2 0x25C PUSH1 0x14 DUP2 JUMP JUMPDEST CALLVALUE DUP1 ISZERO PUSH2 0x373 JUMPI PUSH1 0x0 DUP1 REVERT JUMPDEST POP PUSH2 0x39B PUSH32 0x0 DUP2 JUMP JUMPDEST PUSH1 0x40 MLOAD PUSH1 0x1 PUSH1 0x1 PUSH1 0xA0 SHL SUB SWAP1 SWAP2 AND DUP2 MSTORE PUSH1 0x20 ADD PUSH2 0x26D JUMP JUMPDEST CALLVALUE DUP1 ISZERO PUSH2 0x3BF JUMPI PUSH1 0x0 DUP1 REVERT JUMPDEST POP PUSH2 0x28C PUSH1 0x2 SLOAD DUP2 JUMP JUMPDEST CALLVALUE DUP1 ISZERO PUSH2 0x3D5 JUMPI PUSH1 0x0 DUP1 REVERT JUMPDEST POP PUSH2 0x28C PUSH2 0x3E4 CALLDATASIZE PUSH1 0x4 PUSH2 0x171A JUMP JUMPDEST PUSH2 0xD24 JUMP JUMPDEST CALLVALUE DUP1 ISZERO PUSH2 0x3F5 JUMPI PUSH1 0x0 DUP1 REVERT JUMPDEST POP PUSH2 0x28C PUSH1 0x6 SLOAD DUP2 JUMP JUMPDEST CALLVALUE DUP1 ISZERO PUSH2 0x40B JUMPI PUSH1 0x0 DUP1 REVERT JUMPDEST POP PUSH2 0x2CA PUSH2 0x41A CALLDATASIZE PUSH1 0x4 PUSH2 0x15B8 JUMP JUMPDEST PUSH1 0x9 PUSH1 0x20 MSTORE PUSH1 0x0 SWAP1 DUP2 MSTORE PUSH1 0x40 SWAP1 KECCAK256 SLOAD PUSH1 0xFF AND DUP2 JUMP JUMPDEST CALLVALUE DUP1 ISZERO PUSH2 0x43B JUMPI PUSH1 0x0 DUP1 REVERT JUMPDEST POP PUSH2 0x2FA PUSH2 0x44A CALLDATASIZE PUSH1 0x4 PUSH2 0x1767 JUMP JUMPDEST PUSH2 0xD39 JUMP JUMPDEST CALLVALUE DUP1 ISZERO PUSH2 0x45B JUMPI PUSH1 0x0 DUP1 REVERT JUMPDEST POP PUSH2 0x28C PUSH2 0x2710 DUP2 JUMP JUMPDEST CALLVALUE DUP1 ISZERO PUSH2 0x471 JUMPI PUSH1 0x0 DUP1 REVERT JUMPDEST POP PUSH1 0x7 SLOAD PUSH2 0x39B SWAP1 PUSH1 0x1 PUSH1 0x1 PUSH1 0xA0 SHL SUB AND DUP2 JUMP JUMPDEST CALLVALUE DUP1 ISZERO PUSH2 0x491 JUMPI PUSH1 0x0 DUP1 REVERT JUMPDEST POP PUSH2 0x2CA PUSH2 0x4A0 CALLDATASIZE PUSH1 0x4 PUSH2 0x15B8 JUMP JUMPDEST PUSH1 0x0 SWAP1 DUP2 MSTORE PUSH1 0xA PUSH1 0x20 MSTORE PUSH1 0x40 SWAP1 KECCAK256 SLOAD PUSH1 0xFF AND SWAP1 JUMP JUMPDEST CALLVALUE DUP1 ISZERO PUSH2 0x4C1 JUMPI PUSH1 0x0 DUP1 REVERT JUMPDEST POP PUSH2 0x2FA PUSH2 0xDA0 JUMP JUMPDEST CALLVALUE DUP1 ISZERO PUSH2 0x4D6 JUMPI PUSH1 0x0 DUP1 REVERT JUMPDEST POP PUSH1 0x7 SLOAD PUSH2 0x2CA SWAP1 PUSH1 0x1 PUSH1 0xA8 SHL SWAP1 DIV PUSH1 0xFF AND DUP2 JUMP JUMPDEST CALLVALUE DUP1 ISZERO PUSH2 0x4F7 JUMPI PUSH1 0x0 DUP1 REVERT JUMPDEST POP PUSH2 0x28C PUSH32 0x0 DUP2 JUMP JUMPDEST CALLVALUE DUP1 ISZERO PUSH2 0x52B JUMPI PUSH1 0x0 DUP1 REVERT JUMPDEST POP PUSH2 0x2CA PUSH2 0x53A CALLDATASIZE PUSH1 0x4 PUSH2 0x178B JUMP JUMPDEST PUSH1 0xB PUSH1 0x20 MSTORE PUSH1 0x0 SWAP1 DUP2 MSTORE PUSH1 0x40 SWAP1 KECCAK256 SLOAD PUSH1 0xFF AND DUP2 JUMP JUMPDEST CALLVALUE DUP1 ISZERO PUSH2 0x55B JUMPI PUSH1 0x0 DUP1 REVERT JUMPDEST POP PUSH1 0x0 SLOAD PUSH1 0x1 PUSH1 0x1 PUSH1 0xA0 SHL SUB AND PUSH2 0x39B JUMP JUMPDEST PUSH2 0x2FA PUSH2 0x57B CALLDATASIZE PUSH1 0x4 PUSH2 0x15B8 JUMP JUMPDEST PUSH2 0xDB4 JUMP JUMPDEST CALLVALUE DUP1 ISZERO PUSH2 0x58C JUMPI PUSH1 0x0 DUP1 REVERT JUMPDEST POP PUSH2 0x2FA PUSH2 0x59B CALLDATASIZE PUSH1 0x4 PUSH2 0x15B8 JUMP JUMPDEST PUSH2 0xF63 JUMP JUMPDEST CALLVALUE DUP1 ISZERO PUSH2 0x5AC JUMPI PUSH1 0x0 DUP1 REVERT JUMPDEST POP PUSH2 0x2FA PUSH2 0x5BB CALLDATASIZE PUSH1 0x4 PUSH2 0x1767 JUMP JUMPDEST PUSH2 0xFF3 JUMP JUMPDEST CALLVALUE DUP1 ISZERO PUSH2 0x5CC JUMPI PUSH1 0x0 DUP1 REVERT JUMPDEST POP PUSH2 0x28C PUSH1 0x64 DUP2 JUMP JUMPDEST CALLVALUE DUP1 ISZERO PUSH2 0x5E1 JUMPI PUSH1 0x0 DUP1 REVERT JUMPDEST POP PUSH1 0x7 SLOAD PUSH2 0x2CA SWAP1 PUSH1 0x1 PUSH1 0xA0 SHL SWAP1 DIV PUSH1 0xFF AND DUP2 JUMP JUMPDEST CALLVALUE DUP1 ISZERO PUSH2 0x602 JUMPI PUSH1 0x0 DUP1 REVERT JUMPDEST POP PUSH2 0x28C PUSH2 0x611 CALLDATASIZE PUSH1 0x4 PUSH2 0x15B8 JUMP JUMPDEST PUSH2 0x105A JUMP JUMPDEST CALLVALUE DUP1 ISZERO PUSH2 0x622 JUMPI PUSH1 0x0 DUP1 REVERT JUMPDEST POP PUSH2 0x2FA PUSH2 0x631 CALLDATASIZE PUSH1 0x4 PUSH2 0x178B JUMP JUMPDEST PUSH2 0x1071 JUMP JUMPDEST CALLVALUE DUP1 ISZERO PUSH2 0x642 JUMPI PUSH1 0x0 DUP1 REVERT JUMPDEST POP PUSH2 0x28C PUSH2 0x651 CALLDATASIZE PUSH1 0x4 PUSH2 0x15B8 JUMP JUMPDEST PUSH2 0x110E JUMP JUMPDEST CALLVALUE DUP1 ISZERO PUSH2 0x662 JUMPI PUSH1 0x0 DUP1 REVERT JUMPDEST POP PUSH2 0x28C PUSH2 0x671 CALLDATASIZE PUSH1 0x4 PUSH2 0x15B8 JUMP JUMPDEST PUSH2 0x111E JUMP JUMPDEST CALLVALUE DUP1 ISZERO PUSH2 0x682 JUMPI PUSH1 0x0 DUP1 REVERT JUMPDEST POP PUSH2 0x2FA PUSH2 0x691 CALLDATASIZE PUSH1 0x4 PUSH2 0x178B JUMP JUMPDEST PUSH2 0x112E JUMP JUMPDEST CALLVALUE DUP1 ISZERO PUSH2 0x6A2 JUMPI PUSH1 0x0 DUP1 REVERT JUMPDEST POP PUSH2 0x2FA PUSH2 0x6B1 CALLDATASIZE PUSH1 0x4 PUSH2 0x17A8 JUMP JUMPDEST PUSH2 0x1169 JUMP JUMPDEST CALLVALUE DUP1 ISZERO PUSH2 0x6C2 JUMPI PUSH1 0x0 DUP1 REVERT JUMPDEST POP PUSH2 0x28C PUSH1 0x4 SLOAD DUP2 JUMP JUMPDEST CALLVALUE DUP1 ISZERO PUSH2 0x6D8 JUMPI PUSH1 0x0 DUP1 REVERT JUMPDEST POP PUSH2 0x2CA PUSH2 0x6E7 CALLDATASIZE PUSH1 0x4 PUSH2 0x15B8 JUMP JUMPDEST PUSH1 0xA PUSH1 0x20 MSTORE PUSH1 0x0 SWAP1 DUP2 MSTORE PUSH1 0x40 SWAP1 KECCAK256 SLOAD PUSH1 0xFF AND DUP2 JUMP JUMPDEST PUSH2 0x704 PUSH2 0x1212 JUMP JUMPDEST PUSH1 0x1 PUSH1 0x1 PUSH1 0xA0 SHL SUB DUP5 AND PUSH2 0x74D JUMPI PUSH1 0x40 MLOAD PUSH3 0x461BCD PUSH1 0xE5 SHL DUP2 MSTORE PUSH1 0x20 PUSH1 0x4 DUP3 ADD MSTORE PUSH1 0xB PUSH1 0x24 DUP3 ADD MSTORE PUSH11 0x726563697069656E743D3 PUSH1 0xAC SHL PUSH1 0x44 DUP3 ADD MSTORE PUSH1 0x64 ADD JUMPDEST PUSH1 0x40 MLOAD DUP1 SWAP2 SUB SWAP1 REVERT JUMPDEST PUSH1 0x1 PUSH1 0x1 PUSH1 0xA0 SHL SUB DUP4 AND PUSH2 0x78F JUMPI PUSH1 0x40 MLOAD PUSH3 0x461BCD PUSH1 0xE5 SHL DUP2 MSTORE PUSH1 0x20 PUSH1 0x4 DUP3 ADD MSTORE PUSH1 0x9 PUSH1 0x24 DUP3 ADD MSTORE PUSH9 0x72656C617965723D3 PUSH1 0xBC SHL PUSH1 0x44 DUP3 ADD MSTORE PUSH1 0x64 ADD PUSH2 0x744 JUMP JUMPDEST PUSH1 0x7 SLOAD PUSH1 0x1 PUSH1 0xA0 SHL SWAP1 DIV PUSH1 0xFF AND ISZERO PUSH2 0x7F2 JUMPI CALLER PUSH1 0x1 PUSH1 0x1 PUSH1 0xA0 SHL SUB DUP5 AND EQ PUSH2 0x7F2 JUMPI PUSH1 0x40 MLOAD PUSH3 0x461BCD PUSH1 0xE5 SHL DUP2 MSTORE PUSH1 0x20 PUSH1 0x4 DUP3 ADD MSTORE PUSH1 0x16 PUSH1 0x24 DUP3 ADD MSTORE PUSH22 0x39B2B73232B91036BAB9BA103132903932B630BCB2B9 PUSH1 0x51 SHL PUSH1 0x44 DUP3 ADD MSTORE PUSH1 0x64 ADD PUSH2 0x744 JUMP JUMPDEST PUSH1 0x7 SLOAD PUSH1 0x1 PUSH1 0xA8 SHL SWAP1 DIV PUSH1 0xFF AND ISZERO PUSH2 0x863 JUMPI PUSH1 0x1 PUSH1 0x1 PUSH1 0xA0 SHL SUB DUP4 AND PUSH1 0x0 SWAP1 DUP2 MSTORE PUSH1 0xB PUSH1 0x20 MSTORE PUSH1 0x40 SWAP1 KECCAK256 SLOAD PUSH1 0xFF AND PUSH2 0x863 JUMPI PUSH1 0x40 MLOAD PUSH3 0x461BCD PUSH1 0xE5 SHL DUP2 MSTORE PUSH1 0x20 PUSH1 0x4 DUP3 ADD MSTORE PUSH1 0x14 PUSH1 0x24 DUP3 ADD MSTORE PUSH20 0x1C995B185E595C881B9BDD08185C1C1C9BDD9959 PUSH1 0x62 SHL PUSH1 0x44 DUP3 ADD MSTORE PUSH1 0x64 ADD PUSH2 0x744 JUMP JUMPDEST PUSH1 0x0 DUP6 DUP2 MSTORE PUSH1 0x9 PUSH1 0x20 MSTORE PUSH1 0x40 SWAP1 KECCAK256 SLOAD PUSH1 0xFF AND ISZERO PUSH2 0x8B4 JUMPI PUSH1 0x40 MLOAD PUSH3 0x461BCD PUSH1 0xE5 SHL DUP2 MSTORE PUSH1 0x20 PUSH1 0x4 DUP3 ADD MSTORE PUSH1 0xF PUSH1 0x24 DUP3 ADD MSTORE PUSH15 0x1B9D5B1B1A599A595C881CDC195B9D PUSH1 0x8A SHL PUSH1 0x44 DUP3 ADD MSTORE PUSH1 0x64 ADD PUSH2 0x744 JUMP JUMPDEST PUSH1 0x0 DUP7 DUP2 MSTORE PUSH1 0xA PUSH1 0x20 MSTORE PUSH1 0x40 SWAP1 KECCAK256 SLOAD PUSH1 0xFF AND PUSH2 0x901 JUMPI PUSH1 0x40 MLOAD PUSH3 0x461BCD PUSH1 0xE5 SHL DUP2 MSTORE PUSH1 0x20 PUSH1 0x4 DUP3 ADD MSTORE PUSH1 0xC PUSH1 0x24 DUP3 ADD MSTORE PUSH12 0x1D5B9ADB9BDDDB881C9BDBDD PUSH1 0xA2 SHL PUSH1 0x44 DUP3 ADD MSTORE PUSH1 0x64 ADD PUSH2 0x744 JUMP JUMPDEST PUSH1 0x5 SLOAD DUP3 LT ISZERO PUSH2 0x944 JUMPI PUSH1 0x40 MLOAD PUSH3 0x461BCD PUSH1 0xE5 SHL DUP2 MSTORE PUSH1 0x20 PUSH1 0x4 DUP3 ADD MSTORE PUSH1 0xE PUSH1 0x24 DUP3 ADD MSTORE PUSH14 0x6665652062656C6F772062617365 PUSH1 0x90 SHL PUSH1 0x44 DUP3 ADD MSTORE PUSH1 0x64 ADD PUSH2 0x744 JUMP JUMPDEST PUSH1 0x0 PUSH2 0x2710 PUSH1 0x6 SLOAD PUSH32 0x0 PUSH2 0x977 SWAP2 SWAP1 PUSH2 0x17F7 JUMP JUMPDEST PUSH2 0x981 SWAP2 SWAP1 PUSH2 0x1824 JUMP JUMPDEST SWAP1 POP PUSH32 0x0 PUSH2 0x9AE DUP3 DUP6 PUSH2 0x1838 JUMP JUMPDEST GT ISZERO PUSH2 0x9EC JUMPI PUSH1 0x40 MLOAD PUSH3 0x461BCD PUSH1 0xE5 SHL DUP2 MSTORE PUSH1 0x20 PUSH1 0x4 DUP3 ADD MSTORE PUSH1 0xD PUSH1 0x24 DUP3 ADD MSTORE PUSH13 0xCCCACAE640E8DEDE40D0D2CED PUSH1 0x9B SHL PUSH1 0x44 DUP3 ADD MSTORE PUSH1 0x64 ADD PUSH2 0x744 JUMP JUMPDEST PUSH1 0x40 DUP1 MLOAD PUSH1 0x7 DUP1 DUP3 MSTORE PUSH2 0x100 DUP3 ADD SWAP1 SWAP3 MSTORE PUSH1 0x0 SWAP2 PUSH1 0x20 DUP3 ADD PUSH1 0xE0 DUP1 CALLDATASIZE DUP4 CALLDATACOPY ADD SWAP1 POP POP SWAP1 POP DUP8 PUSH1 0x0 SHR DUP2 PUSH1 0x0 DUP2 MLOAD DUP2 LT PUSH2 0xA27 JUMPI PUSH2 0xA27 PUSH2 0x184B JUMP JUMPDEST PUSH1 0x20 MUL PUSH1 0x20 ADD ADD DUP2 DUP2 MSTORE POP POP DUP7 PUSH1 0x0 SHR DUP2 PUSH1 0x1 DUP2 MLOAD DUP2 LT PUSH2 0xA4A JUMPI PUSH2 0xA4A PUSH2 0x184B JUMP JUMPDEST PUSH1 0x20 MUL PUSH1 0x20 ADD ADD DUP2 DUP2 MSTORE POP POP DUP6 PUSH1 0x1 PUSH1 0x1 PUSH1 0xA0 SHL SUB AND DUP2 PUSH1 0x2 DUP2 MLOAD DUP2 LT PUSH2 0xA73 JUMPI PUSH2 0xA73 PUSH2 0x184B JUMP JUMPDEST PUSH1 0x20 MUL PUSH1 0x20 ADD ADD DUP2 DUP2 MSTORE POP POP DUP5 PUSH1 0x1 PUSH1 0x1 PUSH1 0xA0 SHL SUB AND DUP2 PUSH1 0x3 DUP2 MLOAD DUP2 LT PUSH2 0xA9C JUMPI PUSH2 0xA9C PUSH2 0x184B JUMP JUMPDEST PUSH1 0x20 MUL PUSH1 0x20 ADD ADD DUP2 DUP2 MSTORE POP POP DUP4 DUP2 PUSH1 0x4 DUP2 MLOAD DUP2 LT PUSH2 0xABC JUMPI PUSH2 0xABC PUSH2 0x184B JUMP JUMPDEST PUSH1 0x20 MUL PUSH1 0x20 ADD ADD DUP2 DUP2 MSTORE POP POP DUP3 DUP2 PUSH1 0x5 DUP2 MLOAD DUP2 LT PUSH2 0xADC JUMPI PUSH2 0xADC PUSH2 0x184B JUMP JUMPDEST PUSH1 0x20 MUL PUSH1 0x20 ADD ADD DUP2 DUP2 MSTORE POP POP CHAINID DUP2 PUSH1 0x6 DUP2 MLOAD DUP2 LT PUSH2 0xAFC JUMPI PUSH2 0xAFC PUSH2 0x184B JUMP JUMPDEST PUSH1 0x20 SWAP1 DUP2 MUL SWAP2 SWAP1 SWAP2 ADD ADD MSTORE PUSH1 0x40 MLOAD PUSH4 0x1E8E1E13 PUSH1 0xE0 SHL DUP2 MSTORE PUSH1 0x1 PUSH1 0x1 PUSH1 0xA0 SHL SUB PUSH32 0x0 AND SWAP1 PUSH4 0x1E8E1E13 SWAP1 PUSH2 0xB57 SWAP1 DUP14 SWAP1 DUP14 SWAP1 DUP7 SWAP1 PUSH1 0x4 ADD PUSH2 0x1861 JUMP JUMPDEST PUSH1 0x20 PUSH1 0x40 MLOAD DUP1 DUP4 SUB DUP2 DUP7 GAS STATICCALL ISZERO DUP1 ISZERO PUSH2 0xB74 JUMPI RETURNDATASIZE PUSH1 0x0 DUP1 RETURNDATACOPY RETURNDATASIZE PUSH1 0x0 REVERT JUMPDEST POP POP POP POP PUSH1 0x40 MLOAD RETURNDATASIZE PUSH1 0x1F NOT PUSH1 0x1F DUP3 ADD AND DUP3 ADD DUP1 PUSH1 0x40 MSTORE POP DUP2 ADD SWAP1 PUSH2 0xB98 SWAP2 SWAP1 PUSH2 0x18DC JUMP JUMPDEST PUSH2 0xBD4 JUMPI PUSH1 0x40 MLOAD PUSH3 0x461BCD PUSH1 0xE5 SHL DUP2 MSTORE PUSH1 0x20 PUSH1 0x4 DUP3 ADD MSTORE PUSH1 0xD PUSH1 0x24 DUP3 ADD MSTORE PUSH13 0x34B73B30B634B210383937B7B3 PUSH1 0x99 SHL PUSH1 0x44 DUP3 ADD MSTORE PUSH1 0x64 ADD PUSH2 0x744 JUMP JUMPDEST PUSH1 0x0 DUP8 DUP2 MSTORE PUSH1 0x9 PUSH1 0x20 MSTORE PUSH1 0x40 DUP2 KECCAK256 DUP1 SLOAD PUSH1 0xFF NOT AND PUSH1 0x1 OR SWAP1 SSTORE DUP3 PUSH2 0xC18 DUP7 PUSH32 0x0 PUSH2 0x18F9 JUMP JUMPDEST PUSH2 0xC22 SWAP2 SWAP1 PUSH2 0x18F9 JUMP JUMPDEST SWAP1 POP PUSH2 0xC2E DUP8 DUP3 PUSH2 0x123C JUMP JUMPDEST DUP5 ISZERO PUSH2 0xC3E JUMPI PUSH2 0xC3E DUP7 DUP7 PUSH2 0x123C JUMP JUMPDEST DUP3 ISZERO PUSH2 0xC5A JUMPI PUSH1 0x7 SLOAD PUSH2 0xC5A SWAP1 PUSH1 0x1 PUSH1 0x1 PUSH1 0xA0 SHL SUB AND DUP5 PUSH2 0x123C JUMP JUMPDEST DUP6 PUSH1 0x1 PUSH1 0x1 PUSH1 0xA0 SHL SUB AND DUP8 PUSH1 0x1 PUSH1 0x1 PUSH1 0xA0 SHL SUB AND DUP10 PUSH32 0x6C3A45613039E0A1117BD6CE110AB3C920271709C010983D921A2CD268E2EA47 DUP9 PUSH1 0x40 MLOAD PUSH2 0xCA0 SWAP2 DUP2 MSTORE PUSH1 0x20 ADD SWAP1 JUMP JUMPDEST PUSH1 0x40 MLOAD DUP1 SWAP2 SUB SWAP1 LOG4 POP POP POP PUSH2 0xCB4 PUSH1 0x1 DUP1 SSTORE JUMP JUMPDEST POP POP POP POP POP POP POP POP JUMP JUMPDEST PUSH1 0x0 DUP2 PUSH2 0xCCC DUP7 DUP7 DUP7 PUSH2 0x12DA JUMP JUMPDEST EQ SWAP6 SWAP5 POP POP POP POP POP JUMP JUMPDEST PUSH2 0xCDE PUSH2 0x13B9 JUMP JUMPDEST PUSH1 0x5 DUP1 SLOAD SWAP1 DUP3 SWAP1 SSTORE PUSH1 0x40 DUP1 MLOAD DUP3 DUP2 MSTORE PUSH1 0x20 DUP2 ADD DUP5 SWAP1 MSTORE PUSH32 0x2E87CEABFA0E381E169014833B5C0798E7DE6068C766961D962847388A426FE SWAP2 ADD JUMPDEST PUSH1 0x40 MLOAD DUP1 SWAP2 SUB SWAP1 LOG1 POP POP JUMP JUMPDEST PUSH1 0x0 PUSH2 0xD31 DUP5 DUP5 DUP5 PUSH2 0x12DA JUMP JUMPDEST SWAP5 SWAP4 POP POP POP POP JUMP JUMPDEST PUSH2 0xD41 PUSH2 0x13B9 JUMP JUMPDEST PUSH1 0x7 DUP1 SLOAD PUSH1 0xFF PUSH1 0xA8 SHL NOT DUP2 AND PUSH1 0x1 PUSH1 0xA8 SHL DUP5 ISZERO ISZERO DUP2 DUP2 MUL SWAP3 SWAP1 SWAP3 OR SWAP1 SWAP4 SSTORE PUSH1 0x40 DUP1 MLOAD SWAP4 SWAP1 SWAP3 DIV PUSH1 0xFF AND DUP1 ISZERO ISZERO DUP5 MSTORE PUSH1 0x20 DUP5 ADD SWAP2 SWAP1 SWAP2 MSTORE SWAP2 PUSH32 0xAC8A542E802A136959C104624D34BE608945DACBFA86AF270DAE2405957C6439 SWAP2 ADD PUSH2 0xD18 JUMP JUMPDEST PUSH2 0xDA8 PUSH2 0x13B9 JUMP JUMPDEST PUSH2 0xDB2 PUSH1 0x0 PUSH2 0x13E6 JUMP JUMPDEST JUMP JUMPDEST PUSH2 0xDBC PUSH2 0x1212 JUMP JUMPDEST PUSH32 0x0 CALLVALUE EQ PUSH2 0xE18 JUMPI PUSH1 0x40 MLOAD PUSH3 0x461BCD PUSH1 0xE5 SHL DUP2 MSTORE PUSH1 0x20 PUSH1 0x4 DUP3 ADD MSTORE PUSH1 0xA PUSH1 0x24 DUP3 ADD MSTORE PUSH10 0x18985908185B5BDD5B9D PUSH1 0xB2 SHL PUSH1 0x44 DUP3 ADD MSTORE PUSH1 0x64 ADD PUSH2 0x744 JUMP JUMPDEST PUSH1 0x0 DUP2 DUP2 MSTORE PUSH1 0x8 PUSH1 0x20 MSTORE PUSH1 0x40 SWAP1 KECCAK256 SLOAD PUSH1 0xFF AND ISZERO PUSH2 0xE69 JUMPI PUSH1 0x40 MLOAD PUSH3 0x461BCD PUSH1 0xE5 SHL DUP2 MSTORE PUSH1 0x20 PUSH1 0x4 DUP3 ADD MSTORE PUSH1 0xF PUSH1 0x24 DUP3 ADD MSTORE PUSH15 0x18DBDB5B5A5D1B595B9D081D5CD959 PUSH1 0x8A SHL PUSH1 0x44 DUP3 ADD MSTORE PUSH1 0x64 ADD PUSH2 0x744 JUMP JUMPDEST PUSH1 0x3 SLOAD PUSH3 0x100000 PUSH4 0xFFFFFFFF SWAP1 SWAP2 AND LT PUSH2 0xEB4 JUMPI PUSH1 0x40 MLOAD PUSH3 0x461BCD PUSH1 0xE5 SHL DUP2 MSTORE PUSH1 0x20 PUSH1 0x4 DUP3 ADD MSTORE PUSH1 0xC PUSH1 0x24 DUP3 ADD MSTORE PUSH12 0x1D1C9959481A5CC8199D5B1B PUSH1 0xA2 SHL PUSH1 0x44 DUP3 ADD MSTORE PUSH1 0x64 ADD PUSH2 0x744 JUMP JUMPDEST PUSH1 0x0 DUP2 DUP2 MSTORE PUSH1 0x8 PUSH1 0x20 MSTORE PUSH1 0x40 SWAP1 KECCAK256 DUP1 SLOAD PUSH1 0xFF NOT AND PUSH1 0x1 OR SWAP1 SSTORE PUSH2 0xED6 DUP2 PUSH2 0x1436 JUMP JUMPDEST PUSH1 0x4 DUP2 SWAP1 SSTORE PUSH2 0xEE4 SWAP1 PUSH2 0x14FC JUMP JUMPDEST PUSH1 0x3 SLOAD PUSH1 0x4 SLOAD PUSH1 0x40 DUP1 MLOAD PUSH4 0xFFFFFFFF SWAP1 SWAP4 AND DUP4 MSTORE PUSH1 0x20 DUP4 ADD SWAP2 SWAP1 SWAP2 MSTORE TIMESTAMP SWAP1 DUP3 ADD MSTORE DUP2 SWAP1 PUSH32 0x8154AF7B1B360F500640DE68C82AF19C52C4AD4189D7A7C7A41506E19A1FDD6C SWAP1 PUSH1 0x60 ADD PUSH1 0x40 MLOAD DUP1 SWAP2 SUB SWAP1 LOG2 PUSH1 0x3 DUP1 SLOAD PUSH4 0xFFFFFFFF NOT DUP2 AND PUSH1 0x1 PUSH4 0xFFFFFFFF SWAP3 DUP4 AND DUP2 ADD SWAP1 SWAP3 AND OR SWAP1 SWAP2 SSTORE PUSH1 0x2 DUP1 SLOAD DUP3 ADD SWAP1 SSTORE DUP1 SSTORE POP JUMP JUMPDEST POP JUMP JUMPDEST PUSH2 0xF6B PUSH2 0x13B9 JUMP JUMPDEST PUSH2 0x2710 DUP2 GT ISZERO PUSH2 0xFB5 JUMPI PUSH1 0x40 MLOAD PUSH3 0x461BCD PUSH1 0xE5 SHL DUP2 MSTORE PUSH1 0x20 PUSH1 0x4 DUP3 ADD MSTORE PUSH1 0x15 PUSH1 0x24 DUP3 ADD MSTORE PUSH21 0xE0E4DEE8DEC6DED840CCCACA40E8DEDE40D0D2CED PUSH1 0x5B SHL PUSH1 0x44 DUP3 ADD MSTORE PUSH1 0x64 ADD PUSH2 0x744 JUMP JUMPDEST PUSH1 0x6 DUP1 SLOAD SWAP1 DUP3 SWAP1 SSTORE PUSH1 0x40 DUP1 MLOAD DUP3 DUP2 MSTORE PUSH1 0x20 DUP2 ADD DUP5 SWAP1 MSTORE PUSH32 0xF247E7445763D3E9A01AEE4B64DE35F02273D6A1D7264694BB9298109319C8BE SWAP2 ADD PUSH2 0xD18 JUMP JUMPDEST PUSH2 0xFFB PUSH2 0x13B9 JUMP JUMPDEST PUSH1 0x7 DUP1 SLOAD PUSH1 0xFF PUSH1 0xA0 SHL NOT DUP2 AND PUSH1 0x1 PUSH1 0xA0 SHL DUP5 ISZERO ISZERO DUP2 DUP2 MUL SWAP3 SWAP1 SWAP3 OR SWAP1 SWAP4 SSTORE PUSH1 0x40 DUP1 MLOAD SWAP4 SWAP1 SWAP3 DIV PUSH1 0xFF AND DUP1 ISZERO ISZERO DUP5 MSTORE PUSH1 0x20 DUP5 ADD SWAP2 SWAP1 SWAP2 MSTORE SWAP2 PUSH32 0xB8902F76E68EEDF9D19810500094A11C4DA1E45FF8E1A6D119B92B21653C021E SWAP2 ADD PUSH2 0xD18 JUMP JUMPDEST PUSH1 0x71 DUP2 PUSH1 0x15 DUP2 LT PUSH2 0x106A JUMPI PUSH1 0x0 DUP1 REVERT JUMPDEST ADD SLOAD SWAP1 POP DUP2 JUMP JUMPDEST PUSH2 0x1079 PUSH2 0x13B9 JUMP JUMPDEST PUSH1 0x1 PUSH1 0x1 PUSH1 0xA0 SHL SUB DUP2 AND PUSH2 0x10BC JUMPI PUSH1 0x40 MLOAD PUSH3 0x461BCD PUSH1 0xE5 SHL DUP2 MSTORE PUSH1 0x20 PUSH1 0x4 DUP3 ADD MSTORE PUSH1 0xA PUSH1 0x24 DUP3 ADD MSTORE PUSH10 0x74726561737572793D3 PUSH1 0xB4 SHL PUSH1 0x44 DUP3 ADD MSTORE PUSH1 0x64 ADD PUSH2 0x744 JUMP JUMPDEST PUSH1 0x7 DUP1 SLOAD PUSH1 0x1 PUSH1 0x1 PUSH1 0xA0 SHL SUB DUP4 DUP2 AND PUSH1 0x1 PUSH1 0x1 PUSH1 0xA0 SHL SUB NOT DUP4 AND DUP2 OR SWAP1 SWAP4 SSTORE PUSH1 0x40 MLOAD SWAP2 AND SWAP2 SWAP1 DUP3 SWAP1 PUSH32 0x4AB5BE82436D353E61CA18726E984E561F5C1CC7C6D38B29D2553C790434705A SWAP1 PUSH1 0x0 SWAP1 LOG3 POP POP JUMP JUMPDEST PUSH1 0x86 DUP2 PUSH1 0x14 DUP2 LT PUSH2 0x106A JUMPI PUSH1 0x0 DUP1 REVERT JUMPDEST PUSH1 0xC DUP2 PUSH1 0x64 DUP2 LT PUSH2 0x106A JUMPI PUSH1 0x0 DUP1 REVERT JUMPDEST PUSH2 0x1136 PUSH2 0x13B9 JUMP JUMPDEST PUSH1 0x1 PUSH1 0x1 PUSH1 0xA0 SHL SUB DUP2 AND PUSH2 0x1160 JUMPI PUSH1 0x40 MLOAD PUSH4 0x1E4FBDF7 PUSH1 0xE0 SHL DUP2 MSTORE PUSH1 0x0 PUSH1 0x4 DUP3 ADD MSTORE PUSH1 0x24 ADD PUSH2 0x744 JUMP JUMPDEST PUSH2 0xF60 DUP2 PUSH2 0x13E6 JUMP JUMPDEST PUSH2 0x1171 PUSH2 0x13B9 JUMP JUMPDEST PUSH1 0x1 PUSH1 0x1 PUSH1 0xA0 SHL SUB DUP3 AND PUSH2 0x11B3 JUMPI PUSH1 0x40 MLOAD PUSH3 0x461BCD PUSH1 0xE5 SHL DUP2 MSTORE PUSH1 0x20 PUSH1 0x4 DUP3 ADD MSTORE PUSH1 0x9 PUSH1 0x24 DUP3 ADD MSTORE PUSH9 0x72656C617965723D3 PUSH1 0xBC SHL PUSH1 0x44 DUP3 ADD MSTORE PUSH1 0x64 ADD PUSH2 0x744 JUMP JUMPDEST PUSH1 0x1 PUSH1 0x1 PUSH1 0xA0 SHL SUB DUP3 AND PUSH1 0x0 DUP2 DUP2 MSTORE PUSH1 0xB PUSH1 0x20 SWAP1 DUP2 MSTORE PUSH1 0x40 SWAP2 DUP3 SWAP1 KECCAK256 DUP1 SLOAD PUSH1 0xFF NOT AND DUP6 ISZERO ISZERO SWAP1 DUP2 OR SWAP1 SWAP2 SSTORE SWAP2 MLOAD SWAP2 DUP3 MSTORE PUSH32 0xC18C96B23E5AFBAF72346174B2E46029640A336FED31D8EB543C7D9E38CA5D76 SWAP2 ADD PUSH1 0x40 MLOAD DUP1 SWAP2 SUB SWAP1 LOG2 POP POP JUMP JUMPDEST PUSH1 0x2 PUSH1 0x1 SLOAD SUB PUSH2 0x1235 JUMPI PUSH1 0x40 MLOAD PUSH4 0x3EE5AEB5 PUSH1 0xE0 SHL DUP2 MSTORE PUSH1 0x4 ADD PUSH1 0x40 MLOAD DUP1 SWAP2 SUB SWAP1 REVERT JUMPDEST PUSH1 0x2 PUSH1 0x1 SSTORE JUMP JUMPDEST PUSH1 0x0 DUP3 PUSH1 0x1 PUSH1 0x1 PUSH1 0xA0 SHL SUB AND DUP3 PUSH1 0x40 MLOAD PUSH1 0x0 PUSH1 0x40 MLOAD DUP1 DUP4 SUB DUP2 DUP6 DUP8 GAS CALL SWAP3 POP POP POP RETURNDATASIZE DUP1 PUSH1 0x0 DUP2 EQ PUSH2 0x1289 JUMPI PUSH1 0x40 MLOAD SWAP2 POP PUSH1 0x1F NOT PUSH1 0x3F RETURNDATASIZE ADD AND DUP3 ADD PUSH1 0x40 MSTORE RETURNDATASIZE DUP3 MSTORE RETURNDATASIZE PUSH1 0x0 PUSH1 0x20 DUP5 ADD RETURNDATACOPY PUSH2 0x128E JUMP JUMPDEST PUSH1 0x60 SWAP2 POP JUMPDEST POP POP SWAP1 POP DUP1 PUSH2 0x12D5 JUMPI PUSH1 0x40 MLOAD PUSH3 0x461BCD PUSH1 0xE5 SHL DUP2 MSTORE PUSH1 0x20 PUSH1 0x4 DUP3 ADD MSTORE PUSH1 0x13 PUSH1 0x24 DUP3 ADD MSTORE PUSH19 0x195D1A081D1C985B9CD9995C8819985A5B1959 PUSH1 0x6A SHL PUSH1 0x44 DUP3 ADD MSTORE PUSH1 0x64 ADD PUSH2 0x744 JUMP JUMPDEST POP POP POP JUMP JUMPDEST PUSH1 0x0 PUSH3 0x100000 PUSH4 0xFFFFFFFF DUP4 AND LT PUSH2 0x132D JUMPI PUSH1 0x40 MLOAD PUSH3 0x461BCD PUSH1 0xE5 SHL DUP2 MSTORE PUSH1 0x20 PUSH1 0x4 DUP3 ADD MSTORE PUSH1 0x16 PUSH1 0x24 DUP3 ADD MSTORE PUSH22 0x6C656166496E646578206F7574206F662072616E6765 PUSH1 0x50 SHL PUSH1 0x44 DUP3 ADD MSTORE PUSH1 0x64 ADD PUSH2 0x744 JUMP JUMPDEST DUP4 DUP3 PUSH1 0x0 JUMPDEST PUSH1 0x14 PUSH4 0xFFFFFFFF DUP3 AND LT ISZERO PUSH2 0x13AE JUMPI PUSH1 0x0 DUP7 DUP3 PUSH4 0xFFFFFFFF AND PUSH1 0x14 DUP2 LT PUSH2 0x135B JUMPI PUSH2 0x135B PUSH2 0x184B JUMP JUMPDEST PUSH1 0x20 MUL ADD CALLDATALOAD SWAP1 POP PUSH2 0x136D PUSH1 0x2 DUP5 PUSH2 0x190C JUMP JUMPDEST PUSH4 0xFFFFFFFF AND PUSH1 0x0 SUB PUSH2 0x138B JUMPI PUSH2 0x1384 DUP5 DUP3 PUSH2 0x1589 JUMP JUMPDEST SWAP4 POP PUSH2 0x1398 JUMP JUMPDEST PUSH2 0x1395 DUP2 DUP6 PUSH2 0x1589 JUMP JUMPDEST SWAP4 POP JUMPDEST PUSH2 0x13A3 PUSH1 0x2 DUP5 PUSH2 0x192F JUMP JUMPDEST SWAP3 POP POP PUSH1 0x1 ADD PUSH2 0x1332 JUMP JUMPDEST POP SWAP1 SWAP6 SWAP5 POP POP POP POP POP JUMP JUMPDEST PUSH1 0x0 SLOAD PUSH1 0x1 PUSH1 0x1 PUSH1 0xA0 SHL SUB AND CALLER EQ PUSH2 0xDB2 JUMPI PUSH1 0x40 MLOAD PUSH4 0x118CDAA7 PUSH1 0xE0 SHL DUP2 MSTORE CALLER PUSH1 0x4 DUP3 ADD MSTORE PUSH1 0x24 ADD PUSH2 0x744 JUMP JUMPDEST PUSH1 0x0 DUP1 SLOAD PUSH1 0x1 PUSH1 0x1 PUSH1 0xA0 SHL SUB DUP4 DUP2 AND PUSH1 0x1 PUSH1 0x1 PUSH1 0xA0 SHL SUB NOT DUP4 AND DUP2 OR DUP5 SSTORE PUSH1 0x40 MLOAD SWAP2 SWAP1 SWAP3 AND SWAP3 DUP4 SWAP2 PUSH32 0x8BE0079C531659141344CD1FD0A4F28419497F9722A3DAAFE3B4186F6B6457E0 SWAP2 SWAP1 LOG3 POP POP JUMP JUMPDEST PUSH1 0x3 SLOAD PUSH1 0x0 SWAP1 PUSH4 0xFFFFFFFF AND DUP3 DUP3 DUP1 DUP1 JUMPDEST PUSH1 0x14 PUSH4 0xFFFFFFFF DUP3 AND LT ISZERO PUSH2 0x14F1 JUMPI PUSH2 0x1461 PUSH1 0x2 DUP7 PUSH2 0x190C JUMP JUMPDEST PUSH4 0xFFFFFFFF AND PUSH1 0x0 SUB PUSH2 0x14AF JUMPI DUP4 SWAP3 POP PUSH1 0x71 DUP2 PUSH4 0xFFFFFFFF AND PUSH1 0x15 DUP2 LT PUSH2 0x148A JUMPI PUSH2 0x148A PUSH2 0x184B JUMP JUMPDEST ADD SLOAD SWAP2 POP DUP4 PUSH1 0x86 DUP3 PUSH4 0xFFFFFFFF AND PUSH1 0x14 DUP2 LT PUSH2 0x14A8 JUMPI PUSH2 0x14A8 PUSH2 0x184B JUMP JUMPDEST ADD SSTORE PUSH2 0x14D0 JUMP JUMPDEST PUSH1 0x86 DUP2 PUSH4 0xFFFFFFFF AND PUSH1 0x14 DUP2 LT PUSH2 0x14C8 JUMPI PUSH2 0x14C8 PUSH2 0x184B JUMP JUMPDEST ADD SLOAD SWAP3 POP DUP4 SWAP2 POP JUMPDEST PUSH2 0x14DA DUP4 DUP4 PUSH2 0x1589 JUMP JUMPDEST SWAP4 POP PUSH2 0x14E7 PUSH1 0x2 DUP7 PUSH2 0x192F JUMP JUMPDEST SWAP5 POP PUSH1 0x1 ADD PUSH2 0x1447 JUMP JUMPDEST POP SWAP2 SWAP6 SWAP5 POP POP POP POP POP JUMP JUMPDEST PUSH1 0x0 PUSH1 0xC PUSH1 0x70 SLOAD PUSH1 0x64 DUP2 LT PUSH2 0x1513 JUMPI PUSH2 0x1513 PUSH2 0x184B JUMP JUMPDEST ADD SLOAD SWAP1 POP DUP1 ISZERO PUSH2 0x1534 JUMPI PUSH1 0x0 DUP2 DUP2 MSTORE PUSH1 0xA PUSH1 0x20 MSTORE PUSH1 0x40 SWAP1 KECCAK256 DUP1 SLOAD PUSH1 0xFF NOT AND SWAP1 SSTORE JUMPDEST DUP2 PUSH1 0xC PUSH1 0x70 SLOAD PUSH1 0x64 DUP2 LT PUSH2 0x154A JUMPI PUSH2 0x154A PUSH2 0x184B JUMP JUMPDEST ADD SSTORE PUSH1 0x0 DUP3 DUP2 MSTORE PUSH1 0xA PUSH1 0x20 MSTORE PUSH1 0x40 SWAP1 KECCAK256 DUP1 SLOAD PUSH1 0xFF NOT AND PUSH1 0x1 SWAP1 DUP2 OR SWAP1 SWAP2 SSTORE PUSH1 0x70 SLOAD PUSH1 0x64 SWAP2 PUSH2 0x1578 SWAP2 SWAP1 PUSH2 0x1838 JUMP JUMPDEST PUSH2 0x1582 SWAP2 SWAP1 PUSH2 0x1952 JUMP JUMPDEST PUSH1 0x70 SSTORE POP POP JUMP JUMPDEST PUSH1 0x40 DUP1 MLOAD PUSH1 0x20 DUP1 DUP3 ADD DUP6 SWAP1 MSTORE DUP2 DUP4 ADD DUP5 SWAP1 MSTORE DUP3 MLOAD DUP1 DUP4 SUB DUP5 ADD DUP2 MSTORE PUSH1 0x60 SWAP1 SWAP3 ADD SWAP1 SWAP3 MSTORE DUP1 MLOAD SWAP2 ADD KECCAK256 JUMPDEST SWAP3 SWAP2 POP POP JUMP JUMPDEST PUSH1 0x0 PUSH1 0x20 DUP3 DUP5 SUB SLT ISZERO PUSH2 0x15CA JUMPI PUSH1 0x0 DUP1 REVERT JUMPDEST POP CALLDATALOAD SWAP2 SWAP1 POP JUMP JUMPDEST PUSH1 0x1 PUSH1 0x1 PUSH1 0xA0 SHL SUB DUP2 AND DUP2 EQ PUSH2 0xF60 JUMPI PUSH1 0x0 DUP1 REVERT JUMPDEST DUP1 CALLDATALOAD PUSH2 0x15F1 DUP2 PUSH2 0x15D1 JUMP JUMPDEST SWAP2 SWAP1 POP JUMP JUMPDEST PUSH1 0x0 DUP1 PUSH1 0x0 DUP1 PUSH1 0x0 DUP1 PUSH1 0x0 DUP1 PUSH1 0xE0 DUP10 DUP12 SUB SLT ISZERO PUSH2 0x1612 JUMPI PUSH1 0x0 DUP1 REVERT JUMPDEST DUP9 CALLDATALOAD PUSH8 0xFFFFFFFFFFFFFFFF DUP1 DUP3 GT ISZERO PUSH2 0x162A JUMPI PUSH1 0x0 DUP1 REVERT JUMPDEST DUP2 DUP12 ADD SWAP2 POP DUP12 PUSH1 0x1F DUP4 ADD SLT PUSH2 0x163E JUMPI PUSH1 0x0 DUP1 REVERT JUMPDEST DUP2 CALLDATALOAD DUP2 DUP2 GT ISZERO PUSH2 0x164D JUMPI PUSH1 0x0 DUP1 REVERT JUMPDEST DUP13 PUSH1 0x20 DUP3 DUP6 ADD ADD GT ISZERO PUSH2 0x165F JUMPI PUSH1 0x0 DUP1 REVERT JUMPDEST PUSH1 0x20 SWAP3 DUP4 ADD SWAP11 POP SWAP9 POP POP DUP10 ADD CALLDATALOAD SWAP6 POP PUSH1 0x40 DUP10 ADD CALLDATALOAD SWAP5 POP PUSH2 0x1681 PUSH1 0x60 DUP11 ADD PUSH2 0x15E6 JUMP JUMPDEST SWAP4 POP PUSH2 0x168F PUSH1 0x80 DUP11 ADD PUSH2 0x15E6 JUMP JUMPDEST SWAP3 POP PUSH1 0xA0 DUP10 ADD CALLDATALOAD SWAP2 POP PUSH1 0xC0 DUP10 ADD CALLDATALOAD SWAP1 POP SWAP3 SWAP6 SWAP9 POP SWAP3 SWAP6 SWAP9 SWAP1 SWAP4 SWAP7 POP JUMP JUMPDEST DUP1 PUSH2 0x280 DUP2 ADD DUP4 LT ISZERO PUSH2 0x15B2 JUMPI PUSH1 0x0 DUP1 REVERT JUMPDEST DUP1 CALLDATALOAD PUSH4 0xFFFFFFFF DUP2 AND DUP2 EQ PUSH2 0x15F1 JUMPI PUSH1 0x0 DUP1 REVERT JUMPDEST PUSH1 0x0 DUP1 PUSH1 0x0 DUP1 PUSH2 0x2E0 DUP6 DUP8 SUB SLT ISZERO PUSH2 0x16E9 JUMPI PUSH1 0x0 DUP1 REVERT JUMPDEST DUP5 CALLDATALOAD SWAP4 POP PUSH2 0x16FA DUP7 PUSH1 0x20 DUP8 ADD PUSH2 0x16AC JUMP JUMPDEST SWAP3 POP PUSH2 0x1709 PUSH2 0x2A0 DUP7 ADD PUSH2 0x16BE JUMP JUMPDEST SWAP4 SWAP7 SWAP3 SWAP6 POP SWAP3 SWAP4 PUSH2 0x2C0 ADD CALLDATALOAD SWAP3 POP POP JUMP JUMPDEST PUSH1 0x0 DUP1 PUSH1 0x0 PUSH2 0x2C0 DUP5 DUP7 SUB SLT ISZERO PUSH2 0x1730 JUMPI PUSH1 0x0 DUP1 REVERT JUMPDEST DUP4 CALLDATALOAD SWAP3 POP PUSH2 0x1741 DUP6 PUSH1 0x20 DUP7 ADD PUSH2 0x16AC JUMP JUMPDEST SWAP2 POP PUSH2 0x1750 PUSH2 0x2A0 DUP6 ADD PUSH2 0x16BE JUMP JUMPDEST SWAP1 POP SWAP3 POP SWAP3 POP SWAP3 JUMP JUMPDEST DUP1 ISZERO ISZERO DUP2 EQ PUSH2 0xF60 JUMPI PUSH1 0x0 DUP1 REVERT JUMPDEST PUSH1 0x0 PUSH1 0x20 DUP3 DUP5 SUB SLT ISZERO PUSH2 0x1779 JUMPI PUSH1 0x0 DUP1 REVERT JUMPDEST DUP2 CALLDATALOAD PUSH2 0x1784 DUP2 PUSH2 0x1759 JUMP JUMPDEST SWAP4 SWAP3 POP POP POP JUMP JUMPDEST PUSH1 0x0 PUSH1 0x20 DUP3 DUP5 SUB SLT ISZERO PUSH2 0x179D JUMPI PUSH1 0x0 DUP1 REVERT JUMPDEST DUP2 CALLDATALOAD PUSH2 0x1784 DUP2 PUSH2 0x15D1 JUMP JUMPDEST PUSH1 0x0 DUP1 PUSH1 0x40 DUP4 DUP6 SUB SLT ISZERO PUSH2 0x17BB JUMPI PUSH1 0x0 DUP1 REVERT JUMPDEST DUP3 CALLDATALOAD PUSH2 0x17C6 DUP2 PUSH2 0x15D1 JUMP JUMPDEST SWAP2 POP PUSH1 0x20 DUP4 ADD CALLDATALOAD PUSH2 0x17D6 DUP2 PUSH2 0x1759 JUMP JUMPDEST DUP1 SWAP2 POP POP SWAP3 POP SWAP3 SWAP1 POP JUMP JUMPDEST PUSH4 0x4E487B71 PUSH1 0xE0 SHL PUSH1 0x0 MSTORE PUSH1 0x11 PUSH1 0x4 MSTORE PUSH1 0x24 PUSH1 0x0 REVERT JUMPDEST DUP1 DUP3 MUL DUP2 ISZERO DUP3 DUP3 DIV DUP5 EQ OR PUSH2 0x15B2 JUMPI PUSH2 0x15B2 PUSH2 0x17E1 JUMP JUMPDEST PUSH4 0x4E487B71 PUSH1 0xE0 SHL PUSH1 0x0 MSTORE PUSH1 0x12 PUSH1 0x4 MSTORE PUSH1 0x24 PUSH1 0x0 REVERT JUMPDEST PUSH1 0x0 DUP3 PUSH2 0x1833 JUMPI PUSH2 0x1833 PUSH2 0x180E JUMP JUMPDEST POP DIV SWAP1 JUMP JUMPDEST DUP1 DUP3 ADD DUP1 DUP3 GT ISZERO PUSH2 0x15B2 JUMPI PUSH2 0x15B2 PUSH2 0x17E1 JUMP JUMPDEST PUSH4 0x4E487B71 PUSH1 0xE0 SHL PUSH1 0x0 MSTORE PUSH1 0x32 PUSH1 0x4 MSTORE PUSH1 0x24 PUSH1 0x0 REVERT JUMPDEST PUSH1 0x40 DUP2 MSTORE DUP3 PUSH1 0x40 DUP3 ADD MSTORE DUP3 DUP5 PUSH1 0x60 DUP4 ADD CALLDATACOPY PUSH1 0x0 PUSH1 0x60 DUP5 DUP4 ADD ADD MSTORE PUSH1 0x0 PUSH1 0x1F NOT PUSH1 0x1F DUP6 ADD AND DUP3 ADD PUSH1 0x60 DUP2 ADD PUSH1 0x20 PUSH1 0x60 DUP6 DUP5 SUB ADD PUSH1 0x20 DUP7 ADD MSTORE DUP2 DUP7 MLOAD DUP1 DUP5 MSTORE PUSH1 0x80 DUP6 ADD SWAP2 POP PUSH1 0x20 DUP9 ADD SWAP5 POP PUSH1 0x0 SWAP4 POP JUMPDEST DUP1 DUP5 LT ISZERO PUSH2 0x18CF JUMPI DUP5 MLOAD DUP3 MSTORE SWAP4 DUP3 ADD SWAP4 PUSH1 0x1 SWAP4 SWAP1 SWAP4 ADD SWAP3 SWAP1 DUP3 ADD SWAP1 PUSH2 0x18AF JUMP JUMPDEST POP SWAP9 SWAP8 POP POP POP POP POP POP POP POP JUMP JUMPDEST PUSH1 0x0 PUSH1 0x20 DUP3 DUP5 SUB SLT ISZERO PUSH2 0x18EE JUMPI PUSH1 0x0 DUP1 REVERT JUMPDEST DUP2 MLOAD PUSH2 0x1784 DUP2 PUSH2 0x1759 JUMP JUMPDEST DUP2 DUP2 SUB DUP2 DUP2 GT ISZERO PUSH2 0x15B2 JUMPI PUSH2 0x15B2 PUSH2 0x17E1 JUMP JUMPDEST PUSH1 0x0 PUSH4 0xFFFFFFFF DUP1 DUP5 AND DUP1 PUSH2 0x1923 JUMPI PUSH2 0x1923 PUSH2 0x180E JUMP JUMPDEST SWAP3 AND SWAP2 SWAP1 SWAP2 MOD SWAP3 SWAP2 POP POP JUMP JUMPDEST PUSH1 0x0 PUSH4 0xFFFFFFFF DUP1 DUP5 AND DUP1 PUSH2 0x1946 JUMPI PUSH2 0x1946 PUSH2 0x180E JUMP JUMPDEST SWAP3 AND SWAP2 SWAP1 SWAP2 DIV SWAP3 SWAP2 POP POP JUMP JUMPDEST PUSH1 0x0 DUP3 PUSH2 0x1961 JUMPI PUSH2 0x1961 PUSH2 0x180E JUMP JUMPDEST POP MOD SWAP1 JUMP INVALID LOG2 PUSH5 0x6970667358 0x22 SLT KECCAK256 0xD ISZERO 0xDA MSIZE PUSH11 0x87C2FE43AE010E7990829 EQ PUSH0 REVERT NOT 0xC3 LOG0 0xD2 0x23 0xDD 0xB4 0x4C EQ 0xCE 0x4B 0xCD SELFDESTRUCT PUSH5 0x736F6C6343 STOP ADDMOD XOR STOP CALLER "},"methodIdentifiers":{"FEE_BPS_DENOMINATOR()":"583d434f","ROOT_HISTORY_SIZE()":"cd87a3b4","TREE_LEVELS()":"2a894a73","approvedRelayers(address)":"8cba8b6a","approvedRelayersOnly()":"71d5a1dd","baseRelayerFee()":"0f3b566a","commitmentUsed(bytes32)":"156428ba","computeRootFromPath(bytes32,bytes32[20],uint32)":"304ce729","currentRoot()":"fdab463d","denomination()":"8bca6d16","deposit(bytes32)":"b214faa5","depositCount()":"2dfdf0b5","filledSubtrees(uint256)":"f178e47c","isKnownRoot(bytes32)":"6d9833e3","nextLeafIndex()":"0be4f422","nullifierSpent(bytes32)":"38c86911","owner()":"8da5cb5b","protocolFeeBps()":"35659fb8","relayerOnly()":"e7549e82","renounceOwnership()":"715018a6","rootHistory(uint256)":"f1c621ee","rootHistoryIndex()":"263516a8","rootKnown(bytes32)":"fe1c4251","setApprovedRelayersOnly(bool)":"4e4c416a","setBaseRelayerFee(uint256)":"2a21b72e","setProtocolFeeBps(uint256)":"c0417e58","setRelayerApproval(address,bool)":"f62ac70f","setRelayerOnly(bool)":"c6ccf7ce","setTreasury(address)":"f0f44260","transferOwnership(address)":"f2fde38b","treasury()":"61d027b3","verifier()":"2b7ac3f3","verifyMerklePath(bytes32,bytes32[20],uint32,bytes32)":"239a25e5","withdraw(bytes,bytes32,bytes32,address,address,uint256,uint256)":"21a0adb6","zeros(uint256)":"e8295588"}}}}}