{"contracts/PqVerifierAdapter.sol":{"PqVerifierAdapter":{"abi":[{"inputs":[{"internalType":"address","name":"externalVerifier_","type":"address"},{"internalType":"enum PqVerifierAdapter.BackendType","name":"backendType_","type":"uint8"}],"stateMutability":"nonpayable","type":"constructor"},{"inputs":[{"internalType":"address","name":"owner","type":"address"}],"name":"OwnableInvalidOwner","type":"error"},{"inputs":[{"internalType":"address","name":"account","type":"address"}],"name":"OwnableUnauthorizedAccount","type":"error"},{"anonymous":false,"inputs":[{"indexed":false,"internalType":"enum PqVerifierAdapter.BackendType","name":"previousType","type":"uint8"},{"indexed":false,"internalType":"enum PqVerifierAdapter.BackendType","name":"newType","type":"uint8"}],"name":"BackendTypeUpdated","type":"event"},{"anonymous":false,"inputs":[{"indexed":true,"internalType":"address","name":"previousVerifier","type":"address"},{"indexed":true,"internalType":"address","name":"newVerifier","type":"address"}],"name":"ExternalVerifierUpdated","type":"event"},{"anonymous":false,"inputs":[{"indexed":true,"internalType":"address","name":"previousOwner","type":"address"},{"indexed":true,"internalType":"address","name":"newOwner","type":"address"}],"name":"OwnershipTransferred","type":"event"},{"inputs":[],"name":"backendType","outputs":[{"internalType":"enum PqVerifierAdapter.BackendType","name":"","type":"uint8"}],"stateMutability":"view","type":"function"},{"inputs":[],"name":"externalVerifier","outputs":[{"internalType":"address","name":"","type":"address"}],"stateMutability":"view","type":"function"},{"inputs":[],"name":"owner","outputs":[{"internalType":"address","name":"","type":"address"}],"stateMutability":"view","type":"function"},{"inputs":[],"name":"renounceOwnership","outputs":[],"stateMutability":"nonpayable","type":"function"},{"inputs":[{"internalType":"enum PqVerifierAdapter.BackendType","name":"backendType_","type":"uint8"}],"name":"setBackendType","outputs":[],"stateMutability":"nonpayable","type":"function"},{"inputs":[{"internalType":"address","name":"externalVerifier_","type":"address"}],"name":"setExternalVerifier","outputs":[],"stateMutability":"nonpayable","type":"function"},{"inputs":[{"internalType":"address","name":"newOwner","type":"address"}],"name":"transferOwnership","outputs":[],"stateMutability":"nonpayable","type":"function"},{"inputs":[{"internalType":"bytes","name":"proof","type":"bytes"},{"internalType":"uint256[]","name":"input","type":"uint256[]"}],"name":"verifyProof","outputs":[{"internalType":"bool","name":"","type":"bool"}],"stateMutability":"view","type":"function"}],"evm":{"bytecode":{"linkReferences":{},"object":"608060405234801561001057600080fd5b50604051610a80380380610a8083398101604081905261002f91610148565b338061005657604051631e4fbdf760e01b8152600060048201526024015b60405180910390fd5b61005f816100f8565b506001600160a01b0382166100ab5760405162461bcd60e51b8152602060048201526012602482015271065787465726e616c56657269666965723d360741b604482015260640161004d565b600180546001600160a01b0384166001600160a01b03198216811783558392916001600160a81b03191617600160a01b83838111156100ec576100ec610192565b021790555050506101a8565b600080546001600160a01b038381166001600160a01b0319831681178455604051919092169283917f8be0079c531659141344cd1fd0a4f28419497f9722a3daafe3b4186f6b6457e09190a35050565b6000806040838503121561015b57600080fd5b82516001600160a01b038116811461017257600080fd5b60208401519092506002811061018757600080fd5b809150509250929050565b634e487b7160e01b600052602160045260246000fd5b6108c9806101b76000396000f3fe608060405234801561001057600080fd5b50600436106100885760003560e01c8063715018a61161005b578063715018a61461011a5780638da5cb5b14610122578063a913059d14610133578063f2fde38b1461014657600080fd5b80630b41fbb01461008d5780631e8e1e13146100b7578063227e9286146100da5780632e3c7b4e146100ef575b600080fd5b6001546100a190600160a01b900460ff1681565b6040516100ae9190610605565b60405180910390f35b6100ca6100c5366004610619565b610159565b60405190151581526020016100ae565b6100ed6100e83660046106de565b6101ce565b005b600154610102906001600160a01b031681565b6040516001600160a01b0390911681526020016100ae565b6100ed610247565b6000546001600160a01b0316610102565b6100ed610141366004610706565b61025b565b6100ed610154366004610706565b610305565b60008060018054600160a01b900460ff169081111561017a5761017a6105cd565b036101925761018b85858585610343565b90506101c6565b6001808054600160a01b900460ff16908111156101b1576101b16105cd565b036101c25761018b8585858561045c565b5060005b949350505050565b6101d6610550565b60018054600160a01b80820460ff16928492909160ff60a01b19909116908383811115610205576102056105cd565b02179055507fa208d9b87860f8c1601ace1bbe21c6a1d305a2c301fcbe8407b5533706f832bc818360405161023b92919061072f565b60405180910390a15050565b61024f610550565b610259600061057d565b565b610263610550565b6001600160a01b0381166102b35760405162461bcd60e51b8152602060048201526012602482015271065787465726e616c56657269666965723d360741b60448201526064015b60405180910390fd5b600180546001600160a01b038381166001600160a01b0319831681179093556040519116919082907ff6bcadbdb000f7f9de7f317bd85594481b9e26477d4e56109bb7933e58af24e490600090a35050565b61030d610550565b6001600160a01b03811661033757604051631e4fbdf760e01b8152600060048201526024016102aa565b6103408161057d565b50565b600080838360405160200161035992919061077c565b60408051601f198184030181529082905260015490925060009182916001600160a01b031690637bf41d7760e11b9061039a908b908b9088906024016107dd565b60408051601f198184030181529181526020820180516001600160e01b03166001600160e01b03199094169390931790925290516103d89190610823565b600060405180830381855afa9150503d8060008114610413576040519150601f19603f3d011682016040523d82523d6000602084013e610418565b606091505b509150915081801561042b575080516020145b1561044e5780806020019051810190610444919061083f565b93505050506101c6565b506000979650505050505050565b600154604051600091829182916001600160a01b031690631e8e1e1360e01b90610490908a908a908a908a90602401610861565b60408051601f198184030181529181526020820180516001600160e01b03166001600160e01b03199094169390931790925290516104ce9190610823565b600060405180830381855afa9150503d8060008114610509576040519150601f19603f3d011682016040523d82523d6000602084013e61050e565b606091505b5091509150818015610521575080516020145b15610543578080602001905181019061053a919061083f565b925050506101c6565b5060009695505050505050565b6000546001600160a01b031633146102595760405163118cdaa760e01b81523360048201526024016102aa565b600080546001600160a01b038381166001600160a01b0319831681178455604051919092169283917f8be0079c531659141344cd1fd0a4f28419497f9722a3daafe3b4186f6b6457e09190a35050565b634e487b7160e01b600052602160045260246000fd5b6002811061060157634e487b7160e01b600052602160045260246000fd5b9052565b6020810161061382846105e3565b92915050565b6000806000806040858703121561062f57600080fd5b843567ffffffffffffffff8082111561064757600080fd5b818701915087601f83011261065b57600080fd5b81358181111561066a57600080fd5b88602082850101111561067c57600080fd5b60209283019650945090860135908082111561069757600080fd5b818701915087601f8301126106ab57600080fd5b8135818111156106ba57600080fd5b8860208260051b85010111156106cf57600080fd5b95989497505060200194505050565b6000602082840312156106f057600080fd5b8135600281106106ff57600080fd5b9392505050565b60006020828403121561071857600080fd5b81356001600160a01b03811681146106ff57600080fd5b6040810161073d82856105e3565b6106ff60208301846105e3565b81835260006001600160fb1b0383111561076357600080fd5b8260051b80836020870137939093016020019392505050565b6020815260006101c660208301848661074a565b81835281816020850137506000828201602090810191909152601f909101601f19169091010190565b60005b838110156107d45781810151838201526020016107bc565b50506000910152565b6040815260006107f1604083018587610790565b8281036020840152835180825261080f8160208401602088016107b9565b601f01601f19160160200195945050505050565b600082516108358184602087016107b9565b9190910192915050565b60006020828403121561085157600080fd5b815180151581146106ff57600080fd5b604081526000610875604083018688610790565b828103602084015261088881858761074a565b97965050505050505056fea264697066735822122089504ef6816f315501e420ad761036ad541351d568ead6921244bc34fb1cf7cc64736f6c63430008180033","opcodes":"PUSH1 0x80 PUSH1 0x40 MSTORE CALLVALUE DUP1 ISZERO PUSH2 0x10 JUMPI PUSH1 0x0 DUP1 REVERT JUMPDEST POP PUSH1 0x40 MLOAD PUSH2 0xA80 CODESIZE SUB DUP1 PUSH2 0xA80 DUP4 CODECOPY DUP2 ADD PUSH1 0x40 DUP2 SWAP1 MSTORE PUSH2 0x2F SWAP2 PUSH2 0x148 JUMP JUMPDEST CALLER DUP1 PUSH2 0x56 JUMPI PUSH1 0x40 MLOAD PUSH4 0x1E4FBDF7 PUSH1 0xE0 SHL DUP2 MSTORE PUSH1 0x0 PUSH1 0x4 DUP3 ADD MSTORE PUSH1 0x24 ADD JUMPDEST PUSH1 0x40 MLOAD DUP1 SWAP2 SUB SWAP1 REVERT JUMPDEST PUSH2 0x5F DUP2 PUSH2 0xF8 JUMP JUMPDEST POP PUSH1 0x1 PUSH1 0x1 PUSH1 0xA0 SHL SUB DUP3 AND PUSH2 0xAB JUMPI PUSH1 0x40 MLOAD PUSH3 0x461BCD PUSH1 0xE5 SHL DUP2 MSTORE PUSH1 0x20 PUSH1 0x4 DUP3 ADD MSTORE PUSH1 0x12 PUSH1 0x24 DUP3 ADD MSTORE PUSH18 0x65787465726E616C56657269666965723D3 PUSH1 0x74 SHL PUSH1 0x44 DUP3 ADD MSTORE PUSH1 0x64 ADD PUSH2 0x4D JUMP JUMPDEST PUSH1 0x1 DUP1 SLOAD PUSH1 0x1 PUSH1 0x1 PUSH1 0xA0 SHL SUB DUP5 AND PUSH1 0x1 PUSH1 0x1 PUSH1 0xA0 SHL SUB NOT DUP3 AND DUP2 OR DUP4 SSTORE DUP4 SWAP3 SWAP2 PUSH1 0x1 PUSH1 0x1 PUSH1 0xA8 SHL SUB NOT AND OR PUSH1 0x1 PUSH1 0xA0 SHL DUP4 DUP4 DUP2 GT ISZERO PUSH2 0xEC JUMPI PUSH2 0xEC PUSH2 0x192 JUMP JUMPDEST MUL OR SWAP1 SSTORE POP POP POP PUSH2 0x1A8 JUMP JUMPDEST PUSH1 0x0 DUP1 SLOAD PUSH1 0x1 PUSH1 0x1 PUSH1 0xA0 SHL SUB DUP4 DUP2 AND PUSH1 0x1 PUSH1 0x1 PUSH1 0xA0 SHL SUB NOT DUP4 AND DUP2 OR DUP5 SSTORE PUSH1 0x40 MLOAD SWAP2 SWAP1 SWAP3 AND SWAP3 DUP4 SWAP2 PUSH32 0x8BE0079C531659141344CD1FD0A4F28419497F9722A3DAAFE3B4186F6B6457E0 SWAP2 SWAP1 LOG3 POP POP JUMP JUMPDEST PUSH1 0x0 DUP1 PUSH1 0x40 DUP4 DUP6 SUB SLT ISZERO PUSH2 0x15B JUMPI PUSH1 0x0 DUP1 REVERT JUMPDEST DUP3 MLOAD PUSH1 0x1 PUSH1 0x1 PUSH1 0xA0 SHL SUB DUP2 AND DUP2 EQ PUSH2 0x172 JUMPI PUSH1 0x0 DUP1 REVERT JUMPDEST PUSH1 0x20 DUP5 ADD MLOAD SWAP1 SWAP3 POP PUSH1 0x2 DUP2 LT PUSH2 0x187 JUMPI PUSH1 0x0 DUP1 REVERT JUMPDEST DUP1 SWAP2 POP POP SWAP3 POP SWAP3 SWAP1 POP JUMP JUMPDEST PUSH4 0x4E487B71 PUSH1 0xE0 SHL PUSH1 0x0 MSTORE PUSH1 0x21 PUSH1 0x4 MSTORE PUSH1 0x24 PUSH1 0x0 REVERT JUMPDEST PUSH2 0x8C9 DUP1 PUSH2 0x1B7 PUSH1 0x0 CODECOPY PUSH1 0x0 RETURN INVALID PUSH1 0x80 PUSH1 0x40 MSTORE CALLVALUE DUP1 ISZERO PUSH2 0x10 JUMPI PUSH1 0x0 DUP1 REVERT JUMPDEST POP PUSH1 0x4 CALLDATASIZE LT PUSH2 0x88 JUMPI PUSH1 0x0 CALLDATALOAD PUSH1 0xE0 SHR DUP1 PUSH4 0x715018A6 GT PUSH2 0x5B JUMPI DUP1 PUSH4 0x715018A6 EQ PUSH2 0x11A JUMPI DUP1 PUSH4 0x8DA5CB5B EQ PUSH2 0x122 JUMPI DUP1 PUSH4 0xA913059D EQ PUSH2 0x133 JUMPI DUP1 PUSH4 0xF2FDE38B EQ PUSH2 0x146 JUMPI PUSH1 0x0 DUP1 REVERT JUMPDEST DUP1 PUSH4 0xB41FBB0 EQ PUSH2 0x8D JUMPI DUP1 PUSH4 0x1E8E1E13 EQ PUSH2 0xB7 JUMPI DUP1 PUSH4 0x227E9286 EQ PUSH2 0xDA JUMPI DUP1 PUSH4 0x2E3C7B4E EQ PUSH2 0xEF JUMPI JUMPDEST PUSH1 0x0 DUP1 REVERT JUMPDEST PUSH1 0x1 SLOAD PUSH2 0xA1 SWAP1 PUSH1 0x1 PUSH1 0xA0 SHL SWAP1 DIV PUSH1 0xFF AND DUP2 JUMP JUMPDEST PUSH1 0x40 MLOAD PUSH2 0xAE SWAP2 SWAP1 PUSH2 0x605 JUMP JUMPDEST PUSH1 0x40 MLOAD DUP1 SWAP2 SUB SWAP1 RETURN JUMPDEST PUSH2 0xCA PUSH2 0xC5 CALLDATASIZE PUSH1 0x4 PUSH2 0x619 JUMP JUMPDEST PUSH2 0x159 JUMP JUMPDEST PUSH1 0x40 MLOAD SWAP1 ISZERO ISZERO DUP2 MSTORE PUSH1 0x20 ADD PUSH2 0xAE JUMP JUMPDEST PUSH2 0xED PUSH2 0xE8 CALLDATASIZE PUSH1 0x4 PUSH2 0x6DE JUMP JUMPDEST PUSH2 0x1CE JUMP JUMPDEST STOP JUMPDEST PUSH1 0x1 SLOAD PUSH2 0x102 SWAP1 PUSH1 0x1 PUSH1 0x1 PUSH1 0xA0 SHL SUB AND DUP2 JUMP JUMPDEST PUSH1 0x40 MLOAD PUSH1 0x1 PUSH1 0x1 PUSH1 0xA0 SHL SUB SWAP1 SWAP2 AND DUP2 MSTORE PUSH1 0x20 ADD PUSH2 0xAE JUMP JUMPDEST PUSH2 0xED PUSH2 0x247 JUMP JUMPDEST PUSH1 0x0 SLOAD PUSH1 0x1 PUSH1 0x1 PUSH1 0xA0 SHL SUB AND PUSH2 0x102 JUMP JUMPDEST PUSH2 0xED PUSH2 0x141 CALLDATASIZE PUSH1 0x4 PUSH2 0x706 JUMP JUMPDEST PUSH2 0x25B JUMP JUMPDEST PUSH2 0xED PUSH2 0x154 CALLDATASIZE PUSH1 0x4 PUSH2 0x706 JUMP JUMPDEST PUSH2 0x305 JUMP JUMPDEST PUSH1 0x0 DUP1 PUSH1 0x1 DUP1 SLOAD PUSH1 0x1 PUSH1 0xA0 SHL SWAP1 DIV PUSH1 0xFF AND SWAP1 DUP2 GT ISZERO PUSH2 0x17A JUMPI PUSH2 0x17A PUSH2 0x5CD JUMP JUMPDEST SUB PUSH2 0x192 JUMPI PUSH2 0x18B DUP6 DUP6 DUP6 DUP6 PUSH2 0x343 JUMP JUMPDEST SWAP1 POP PUSH2 0x1C6 JUMP JUMPDEST PUSH1 0x1 DUP1 DUP1 SLOAD PUSH1 0x1 PUSH1 0xA0 SHL SWAP1 DIV PUSH1 0xFF AND SWAP1 DUP2 GT ISZERO PUSH2 0x1B1 JUMPI PUSH2 0x1B1 PUSH2 0x5CD JUMP JUMPDEST SUB PUSH2 0x1C2 JUMPI PUSH2 0x18B DUP6 DUP6 DUP6 DUP6 PUSH2 0x45C JUMP JUMPDEST POP PUSH1 0x0 JUMPDEST SWAP5 SWAP4 POP POP POP POP JUMP JUMPDEST PUSH2 0x1D6 PUSH2 0x550 JUMP JUMPDEST PUSH1 0x1 DUP1 SLOAD PUSH1 0x1 PUSH1 0xA0 SHL DUP1 DUP3 DIV PUSH1 0xFF AND SWAP3 DUP5 SWAP3 SWAP1 SWAP2 PUSH1 0xFF PUSH1 0xA0 SHL NOT SWAP1 SWAP2 AND SWAP1 DUP4 DUP4 DUP2 GT ISZERO PUSH2 0x205 JUMPI PUSH2 0x205 PUSH2 0x5CD JUMP JUMPDEST MUL OR SWAP1 SSTORE POP PUSH32 0xA208D9B87860F8C1601ACE1BBE21C6A1D305A2C301FCBE8407B5533706F832BC DUP2 DUP4 PUSH1 0x40 MLOAD PUSH2 0x23B SWAP3 SWAP2 SWAP1 PUSH2 0x72F JUMP JUMPDEST PUSH1 0x40 MLOAD DUP1 SWAP2 SUB SWAP1 LOG1 POP POP JUMP JUMPDEST PUSH2 0x24F PUSH2 0x550 JUMP JUMPDEST PUSH2 0x259 PUSH1 0x0 PUSH2 0x57D JUMP JUMPDEST JUMP JUMPDEST PUSH2 0x263 PUSH2 0x550 JUMP JUMPDEST PUSH1 0x1 PUSH1 0x1 PUSH1 0xA0 SHL SUB DUP2 AND PUSH2 0x2B3 JUMPI PUSH1 0x40 MLOAD PUSH3 0x461BCD PUSH1 0xE5 SHL DUP2 MSTORE PUSH1 0x20 PUSH1 0x4 DUP3 ADD MSTORE PUSH1 0x12 PUSH1 0x24 DUP3 ADD MSTORE PUSH18 0x65787465726E616C56657269666965723D3 PUSH1 0x74 SHL PUSH1 0x44 DUP3 ADD MSTORE PUSH1 0x64 ADD JUMPDEST PUSH1 0x40 MLOAD DUP1 SWAP2 SUB SWAP1 REVERT JUMPDEST PUSH1 0x1 DUP1 SLOAD PUSH1 0x1 PUSH1 0x1 PUSH1 0xA0 SHL SUB DUP4 DUP2 AND PUSH1 0x1 PUSH1 0x1 PUSH1 0xA0 SHL SUB NOT DUP4 AND DUP2 OR SWAP1 SWAP4 SSTORE PUSH1 0x40 MLOAD SWAP2 AND SWAP2 SWAP1 DUP3 SWAP1 PUSH32 0xF6BCADBDB000F7F9DE7F317BD85594481B9E26477D4E56109BB7933E58AF24E4 SWAP1 PUSH1 0x0 SWAP1 LOG3 POP POP JUMP JUMPDEST PUSH2 0x30D PUSH2 0x550 JUMP JUMPDEST PUSH1 0x1 PUSH1 0x1 PUSH1 0xA0 SHL SUB DUP2 AND PUSH2 0x337 JUMPI PUSH1 0x40 MLOAD PUSH4 0x1E4FBDF7 PUSH1 0xE0 SHL DUP2 MSTORE PUSH1 0x0 PUSH1 0x4 DUP3 ADD MSTORE PUSH1 0x24 ADD PUSH2 0x2AA JUMP JUMPDEST PUSH2 0x340 DUP2 PUSH2 0x57D JUMP JUMPDEST POP JUMP JUMPDEST PUSH1 0x0 DUP1 DUP4 DUP4 PUSH1 0x40 MLOAD PUSH1 0x20 ADD PUSH2 0x359 SWAP3 SWAP2 SWAP1 PUSH2 0x77C JUMP JUMPDEST PUSH1 0x40 DUP1 MLOAD PUSH1 0x1F NOT DUP2 DUP5 SUB ADD DUP2 MSTORE SWAP1 DUP3 SWAP1 MSTORE PUSH1 0x1 SLOAD SWAP1 SWAP3 POP PUSH1 0x0 SWAP2 DUP3 SWAP2 PUSH1 0x1 PUSH1 0x1 PUSH1 0xA0 SHL SUB AND SWAP1 PUSH4 0x7BF41D77 PUSH1 0xE1 SHL SWAP1 PUSH2 0x39A SWAP1 DUP12 SWAP1 DUP12 SWAP1 DUP9 SWAP1 PUSH1 0x24 ADD PUSH2 0x7DD JUMP JUMPDEST PUSH1 0x40 DUP1 MLOAD PUSH1 0x1F NOT DUP2 DUP5 SUB ADD DUP2 MSTORE SWAP2 DUP2 MSTORE PUSH1 0x20 DUP3 ADD DUP1 MLOAD PUSH1 0x1 PUSH1 0x1 PUSH1 0xE0 SHL SUB AND PUSH1 0x1 PUSH1 0x1 PUSH1 0xE0 SHL SUB NOT SWAP1 SWAP5 AND SWAP4 SWAP1 SWAP4 OR SWAP1 SWAP3 MSTORE SWAP1 MLOAD PUSH2 0x3D8 SWAP2 SWAP1 PUSH2 0x823 JUMP JUMPDEST PUSH1 0x0 PUSH1 0x40 MLOAD DUP1 DUP4 SUB DUP2 DUP6 GAS STATICCALL SWAP2 POP POP RETURNDATASIZE DUP1 PUSH1 0x0 DUP2 EQ PUSH2 0x413 JUMPI PUSH1 0x40 MLOAD SWAP2 POP PUSH1 0x1F NOT PUSH1 0x3F RETURNDATASIZE ADD AND DUP3 ADD PUSH1 0x40 MSTORE RETURNDATASIZE DUP3 MSTORE RETURNDATASIZE PUSH1 0x0 PUSH1 0x20 DUP5 ADD RETURNDATACOPY PUSH2 0x418 JUMP JUMPDEST PUSH1 0x60 SWAP2 POP JUMPDEST POP SWAP2 POP SWAP2 POP DUP2 DUP1 ISZERO PUSH2 0x42B JUMPI POP DUP1 MLOAD PUSH1 0x20 EQ JUMPDEST ISZERO PUSH2 0x44E JUMPI DUP1 DUP1 PUSH1 0x20 ADD SWAP1 MLOAD DUP2 ADD SWAP1 PUSH2 0x444 SWAP2 SWAP1 PUSH2 0x83F JUMP JUMPDEST SWAP4 POP POP POP POP PUSH2 0x1C6 JUMP JUMPDEST POP PUSH1 0x0 SWAP8 SWAP7 POP POP POP POP POP POP POP JUMP JUMPDEST PUSH1 0x1 SLOAD PUSH1 0x40 MLOAD PUSH1 0x0 SWAP2 DUP3 SWAP2 DUP3 SWAP2 PUSH1 0x1 PUSH1 0x1 PUSH1 0xA0 SHL SUB AND SWAP1 PUSH4 0x1E8E1E13 PUSH1 0xE0 SHL SWAP1 PUSH2 0x490 SWAP1 DUP11 SWAP1 DUP11 SWAP1 DUP11 SWAP1 DUP11 SWAP1 PUSH1 0x24 ADD PUSH2 0x861 JUMP JUMPDEST PUSH1 0x40 DUP1 MLOAD PUSH1 0x1F NOT DUP2 DUP5 SUB ADD DUP2 MSTORE SWAP2 DUP2 MSTORE PUSH1 0x20 DUP3 ADD DUP1 MLOAD PUSH1 0x1 PUSH1 0x1 PUSH1 0xE0 SHL SUB AND PUSH1 0x1 PUSH1 0x1 PUSH1 0xE0 SHL SUB NOT SWAP1 SWAP5 AND SWAP4 SWAP1 SWAP4 OR SWAP1 SWAP3 MSTORE SWAP1 MLOAD PUSH2 0x4CE SWAP2 SWAP1 PUSH2 0x823 JUMP JUMPDEST PUSH1 0x0 PUSH1 0x40 MLOAD DUP1 DUP4 SUB DUP2 DUP6 GAS STATICCALL SWAP2 POP POP RETURNDATASIZE DUP1 PUSH1 0x0 DUP2 EQ PUSH2 0x509 JUMPI PUSH1 0x40 MLOAD SWAP2 POP PUSH1 0x1F NOT PUSH1 0x3F RETURNDATASIZE ADD AND DUP3 ADD PUSH1 0x40 MSTORE RETURNDATASIZE DUP3 MSTORE RETURNDATASIZE PUSH1 0x0 PUSH1 0x20 DUP5 ADD RETURNDATACOPY PUSH2 0x50E JUMP JUMPDEST PUSH1 0x60 SWAP2 POP JUMPDEST POP SWAP2 POP SWAP2 POP DUP2 DUP1 ISZERO PUSH2 0x521 JUMPI POP DUP1 MLOAD PUSH1 0x20 EQ JUMPDEST ISZERO PUSH2 0x543 JUMPI DUP1 DUP1 PUSH1 0x20 ADD SWAP1 MLOAD DUP2 ADD SWAP1 PUSH2 0x53A SWAP2 SWAP1 PUSH2 0x83F JUMP JUMPDEST SWAP3 POP POP POP PUSH2 0x1C6 JUMP JUMPDEST POP PUSH1 0x0 SWAP7 SWAP6 POP POP POP POP POP POP JUMP JUMPDEST PUSH1 0x0 SLOAD PUSH1 0x1 PUSH1 0x1 PUSH1 0xA0 SHL SUB AND CALLER EQ PUSH2 0x259 JUMPI PUSH1 0x40 MLOAD PUSH4 0x118CDAA7 PUSH1 0xE0 SHL DUP2 MSTORE CALLER PUSH1 0x4 DUP3 ADD MSTORE PUSH1 0x24 ADD PUSH2 0x2AA JUMP JUMPDEST PUSH1 0x0 DUP1 SLOAD PUSH1 0x1 PUSH1 0x1 PUSH1 0xA0 SHL SUB DUP4 DUP2 AND PUSH1 0x1 PUSH1 0x1 PUSH1 0xA0 SHL SUB NOT DUP4 AND DUP2 OR DUP5 SSTORE PUSH1 0x40 MLOAD SWAP2 SWAP1 SWAP3 AND SWAP3 DUP4 SWAP2 PUSH32 0x8BE0079C531659141344CD1FD0A4F28419497F9722A3DAAFE3B4186F6B6457E0 SWAP2 SWAP1 LOG3 POP POP JUMP JUMPDEST PUSH4 0x4E487B71 PUSH1 0xE0 SHL PUSH1 0x0 MSTORE PUSH1 0x21 PUSH1 0x4 MSTORE PUSH1 0x24 PUSH1 0x0 REVERT JUMPDEST PUSH1 0x2 DUP2 LT PUSH2 0x601 JUMPI PUSH4 0x4E487B71 PUSH1 0xE0 SHL PUSH1 0x0 MSTORE PUSH1 0x21 PUSH1 0x4 MSTORE PUSH1 0x24 PUSH1 0x0 REVERT JUMPDEST SWAP1 MSTORE JUMP JUMPDEST PUSH1 0x20 DUP2 ADD PUSH2 0x613 DUP3 DUP5 PUSH2 0x5E3 JUMP JUMPDEST SWAP3 SWAP2 POP POP JUMP JUMPDEST PUSH1 0x0 DUP1 PUSH1 0x0 DUP1 PUSH1 0x40 DUP6 DUP8 SUB SLT ISZERO PUSH2 0x62F JUMPI PUSH1 0x0 DUP1 REVERT JUMPDEST DUP5 CALLDATALOAD PUSH8 0xFFFFFFFFFFFFFFFF DUP1 DUP3 GT ISZERO PUSH2 0x647 JUMPI PUSH1 0x0 DUP1 REVERT JUMPDEST DUP2 DUP8 ADD SWAP2 POP DUP8 PUSH1 0x1F DUP4 ADD SLT PUSH2 0x65B JUMPI PUSH1 0x0 DUP1 REVERT JUMPDEST DUP2 CALLDATALOAD DUP2 DUP2 GT ISZERO PUSH2 0x66A JUMPI PUSH1 0x0 DUP1 REVERT JUMPDEST DUP9 PUSH1 0x20 DUP3 DUP6 ADD ADD GT ISZERO PUSH2 0x67C JUMPI PUSH1 0x0 DUP1 REVERT JUMPDEST PUSH1 0x20 SWAP3 DUP4 ADD SWAP7 POP SWAP5 POP SWAP1 DUP7 ADD CALLDATALOAD SWAP1 DUP1 DUP3 GT ISZERO PUSH2 0x697 JUMPI PUSH1 0x0 DUP1 REVERT JUMPDEST DUP2 DUP8 ADD SWAP2 POP DUP8 PUSH1 0x1F DUP4 ADD SLT PUSH2 0x6AB JUMPI PUSH1 0x0 DUP1 REVERT JUMPDEST DUP2 CALLDATALOAD DUP2 DUP2 GT ISZERO PUSH2 0x6BA JUMPI PUSH1 0x0 DUP1 REVERT JUMPDEST DUP9 PUSH1 0x20 DUP3 PUSH1 0x5 SHL DUP6 ADD ADD GT ISZERO PUSH2 0x6CF JUMPI PUSH1 0x0 DUP1 REVERT JUMPDEST SWAP6 SWAP9 SWAP5 SWAP8 POP POP PUSH1 0x20 ADD SWAP5 POP POP POP JUMP JUMPDEST PUSH1 0x0 PUSH1 0x20 DUP3 DUP5 SUB SLT ISZERO PUSH2 0x6F0 JUMPI PUSH1 0x0 DUP1 REVERT JUMPDEST DUP2 CALLDATALOAD PUSH1 0x2 DUP2 LT PUSH2 0x6FF JUMPI PUSH1 0x0 DUP1 REVERT JUMPDEST SWAP4 SWAP3 POP POP POP JUMP JUMPDEST PUSH1 0x0 PUSH1 0x20 DUP3 DUP5 SUB SLT ISZERO PUSH2 0x718 JUMPI PUSH1 0x0 DUP1 REVERT JUMPDEST DUP2 CALLDATALOAD PUSH1 0x1 PUSH1 0x1 PUSH1 0xA0 SHL SUB DUP2 AND DUP2 EQ PUSH2 0x6FF JUMPI PUSH1 0x0 DUP1 REVERT JUMPDEST PUSH1 0x40 DUP2 ADD PUSH2 0x73D DUP3 DUP6 PUSH2 0x5E3 JUMP JUMPDEST PUSH2 0x6FF PUSH1 0x20 DUP4 ADD DUP5 PUSH2 0x5E3 JUMP JUMPDEST DUP2 DUP4 MSTORE PUSH1 0x0 PUSH1 0x1 PUSH1 0x1 PUSH1 0xFB SHL SUB DUP4 GT ISZERO PUSH2 0x763 JUMPI PUSH1 0x0 DUP1 REVERT JUMPDEST DUP3 PUSH1 0x5 SHL DUP1 DUP4 PUSH1 0x20 DUP8 ADD CALLDATACOPY SWAP4 SWAP1 SWAP4 ADD PUSH1 0x20 ADD SWAP4 SWAP3 POP POP POP JUMP JUMPDEST PUSH1 0x20 DUP2 MSTORE PUSH1 0x0 PUSH2 0x1C6 PUSH1 0x20 DUP4 ADD DUP5 DUP7 PUSH2 0x74A JUMP JUMPDEST DUP2 DUP4 MSTORE DUP2 DUP2 PUSH1 0x20 DUP6 ADD CALLDATACOPY POP PUSH1 0x0 DUP3 DUP3 ADD PUSH1 0x20 SWAP1 DUP2 ADD SWAP2 SWAP1 SWAP2 MSTORE PUSH1 0x1F SWAP1 SWAP2 ADD PUSH1 0x1F NOT AND SWAP1 SWAP2 ADD ADD SWAP1 JUMP JUMPDEST PUSH1 0x0 JUMPDEST DUP4 DUP2 LT ISZERO PUSH2 0x7D4 JUMPI DUP2 DUP2 ADD MLOAD DUP4 DUP3 ADD MSTORE PUSH1 0x20 ADD PUSH2 0x7BC JUMP JUMPDEST POP POP PUSH1 0x0 SWAP2 ADD MSTORE JUMP JUMPDEST PUSH1 0x40 DUP2 MSTORE PUSH1 0x0 PUSH2 0x7F1 PUSH1 0x40 DUP4 ADD DUP6 DUP8 PUSH2 0x790 JUMP JUMPDEST DUP3 DUP2 SUB PUSH1 0x20 DUP5 ADD MSTORE DUP4 MLOAD DUP1 DUP3 MSTORE PUSH2 0x80F DUP2 PUSH1 0x20 DUP5 ADD PUSH1 0x20 DUP9 ADD PUSH2 0x7B9 JUMP JUMPDEST PUSH1 0x1F ADD PUSH1 0x1F NOT AND ADD PUSH1 0x20 ADD SWAP6 SWAP5 POP POP POP POP POP JUMP JUMPDEST PUSH1 0x0 DUP3 MLOAD PUSH2 0x835 DUP2 DUP5 PUSH1 0x20 DUP8 ADD PUSH2 0x7B9 JUMP JUMPDEST SWAP2 SWAP1 SWAP2 ADD SWAP3 SWAP2 POP POP JUMP JUMPDEST PUSH1 0x0 PUSH1 0x20 DUP3 DUP5 SUB SLT ISZERO PUSH2 0x851 JUMPI PUSH1 0x0 DUP1 REVERT JUMPDEST DUP2 MLOAD DUP1 ISZERO ISZERO DUP2 EQ PUSH2 0x6FF JUMPI PUSH1 0x0 DUP1 REVERT JUMPDEST PUSH1 0x40 DUP2 MSTORE PUSH1 0x0 PUSH2 0x875 PUSH1 0x40 DUP4 ADD DUP7 DUP9 PUSH2 0x790 JUMP JUMPDEST DUP3 DUP2 SUB PUSH1 0x20 DUP5 ADD MSTORE PUSH2 0x888 DUP2 DUP6 DUP8 PUSH2 0x74A JUMP JUMPDEST SWAP8 SWAP7 POP POP POP POP POP POP POP JUMP INVALID LOG2 PUSH5 0x6970667358 0x22 SLT KECCAK256 DUP10 POP 0x4E 0xF6 DUP2 PUSH16 0x315501E420AD761036AD541351D568EA 0xD6 SWAP3 SLT PREVRANDAO 0xBC CALLVALUE 0xFB SHR 0xF7 0xCC PUSH5 0x736F6C6343 STOP ADDMOD XOR STOP CALLER "},"methodIdentifiers":{"backendType()":"0b41fbb0","externalVerifier()":"2e3c7b4e","owner()":"8da5cb5b","renounceOwnership()":"715018a6","setBackendType(uint8)":"227e9286","setExternalVerifier(address)":"a913059d","transferOwnership(address)":"f2fde38b","verifyProof(bytes,uint256[])":"1e8e1e13"}}}}}