{
  "_format": "hh-sol-artifact-1",
  "contractName": "PoseidonHasherMock",
  "sourceName": "contracts/PoseidonHasherMock.sol",
  "abi": [
    {
      "inputs": [
        {
          "internalType": "bytes32",
          "name": "left",
          "type": "bytes32"
        },
        {
          "internalType": "bytes32",
          "name": "right",
          "type": "bytes32"
        }
      ],
      "name": "hash",
      "outputs": [
        {
          "internalType": "bytes32",
          "name": "",
          "type": "bytes32"
        }
      ],
      "stateMutability": "pure",
      "type": "function"
    }
  ],
  "bytecode": "0x608060405234801561001057600080fd5b5060ef8061001f6000396000f3fe6080604052348015600f57600080fd5b506004361060285760003560e01c8063412f9cac14602d575b600080fd5b608660383660046098565b6040516f504f534549444f4e5f4d4f434b5f563160801b6020820152603081018390526050810182905260009060700160405160208183030381529060405280519060200120905092915050565b60405190815260200160405180910390f35b6000806040838503121560aa57600080fd5b5050803592602090910135915056fea264697066735822122093b8242f0ddf01f46f8265d8a62fc3385372c5ce8ebe457ee8cde9eecebb637a64736f6c63430008180033",
  "linkReferences": {},
  "deployedLinkReferences": {}
}