{
  "_format": "hh-sol-artifact-1",
  "contractName": "DevExternalPqVerifier",
  "sourceName": "contracts/DevExternalPqVerifier.sol",
  "abi": [
    {
      "inputs": [
        {
          "internalType": "bytes",
          "name": "proof",
          "type": "bytes"
        },
        {
          "internalType": "bytes",
          "name": "publicInputs",
          "type": "bytes"
        }
      ],
      "name": "verify",
      "outputs": [
        {
          "internalType": "bool",
          "name": "",
          "type": "bool"
        }
      ],
      "stateMutability": "pure",
      "type": "function"
    }
  ],
  "bytecode": "0x608060405234801561001057600080fd5b50610245806100206000396000f3fe608060405234801561001057600080fd5b506004361061002b5760003560e01c8063f7e83aee14610030575b600080fd5b61004361003e3660046100cf565b610057565b604051901515815260200160405180910390f35b60008381036100685750600061007e565b600061007683850185610151565b516007149150505b949350505050565b60008083601f84011261009857600080fd5b50813567ffffffffffffffff8111156100b057600080fd5b6020830191508360208285010111156100c857600080fd5b9250929050565b600080600080604085870312156100e557600080fd5b843567ffffffffffffffff808211156100fd57600080fd5b61010988838901610086565b9096509450602087013591508082111561012257600080fd5b5061012f87828801610086565b95989497509550505050565b634e487b7160e01b600052604160045260246000fd5b6000602080838503121561016457600080fd5b823567ffffffffffffffff8082111561017c57600080fd5b818501915085601f83011261019057600080fd5b8135818111156101a2576101a261013b565b8060051b604051601f19603f830116810181811085821117156101c7576101c761013b565b6040529182528482019250838101850191888311156101e557600080fd5b938501935b82851015610203578435845293850193928501926101ea565b9897505050505050505056fea2646970667358221220ee99513355db1faf34ffadb2046d57f6da8b35d9b5533f87d7c0dcbcfbdf54ec64736f6c63430008180033",
  "linkReferences": {},
  "deployedLinkReferences": {}
}