{
  "_format": "hh-sol-artifact-1",
  "contractName": "FieldBoundedExternalVerifier",
  "sourceName": "contracts/test/FieldBoundedExternalVerifier.sol",
  "abi": [
    {
      "inputs": [
        {
          "internalType": "bytes",
          "name": "proof",
          "type": "bytes"
        },
        {
          "internalType": "bytes",
          "name": "publicInputs",
          "type": "bytes"
        }
      ],
      "name": "verify",
      "outputs": [
        {
          "internalType": "bool",
          "name": "",
          "type": "bool"
        }
      ],
      "stateMutability": "pure",
      "type": "function"
    },
    {
      "inputs": [
        {
          "internalType": "bytes",
          "name": "proof",
          "type": "bytes"
        },
        {
          "internalType": "uint256[]",
          "name": "publicInputs",
          "type": "uint256[]"
        }
      ],
      "name": "verifyProof",
      "outputs": [
        {
          "internalType": "bool",
          "name": "",
          "type": "bool"
        }
      ],
      "stateMutability": "pure",
      "type": "function"
    }
  ],
  "bytecode": "0x608060405234801561001057600080fd5b506103e9806100206000396000f3fe608060405234801561001057600080fd5b50600436106100365760003560e01c80631e8e1e131461003b578063f7e83aee14610062575b600080fd5b61004e6100493660046101c3565b610075565b604051901515815260200160405180910390f35b61004e61007036600461025d565b6100cd565b6000838103610086575060006100c5565b6100c283838080602002602001604051908101604052809392919081815260200183836020028082843760009201919091525061010192505050565b90505b949350505050565b60008381036100de575060006100c5565b60006100ec838501856102df565b90506100f781610101565b9695505050505050565b6000815160071461011457506000919050565b60005b8251811015610171577f30644e72e131a029b85045b68181585d2833e84879b9709143e1f593f00000018382815181106101535761015361039d565b6020026020010151106101695750600092915050565b600101610117565b50600192915050565b60008083601f84011261018c57600080fd5b50813567ffffffffffffffff8111156101a457600080fd5b6020830191508360208285010111156101bc57600080fd5b9250929050565b600080600080604085870312156101d957600080fd5b843567ffffffffffffffff808211156101f157600080fd5b6101fd8883890161017a565b9096509450602087013591508082111561021657600080fd5b818701915087601f83011261022a57600080fd5b81358181111561023957600080fd5b8860208260051b850101111561024e57600080fd5b95989497505060200194505050565b6000806000806040858703121561027357600080fd5b843567ffffffffffffffff8082111561028b57600080fd5b6102978883890161017a565b909650945060208701359150808211156102b057600080fd5b506102bd8782880161017a565b95989497509550505050565b634e487b7160e01b600052604160045260246000fd5b600060208083850312156102f257600080fd5b823567ffffffffffffffff8082111561030a57600080fd5b818501915085601f83011261031e57600080fd5b813581811115610330576103306102c9565b8060051b604051601f19603f83011681018181108582111715610355576103556102c9565b60405291825284820192508381018501918883111561037357600080fd5b938501935b8285101561039157843584529385019392850192610378565b98975050505050505050565b634e487b7160e01b600052603260045260246000fdfea2646970667358221220659b5b72a04d9311d36514d1c91d91e58505524e934b095fde25ecb5db46ca9464736f6c63430008180033",
  "linkReferences": {},
  "deployedLinkReferences": {}
}