{
  "_format": "hh-sol-artifact-1",
  "contractName": "PrivacyPoolV2",
  "sourceName": "contracts/PrivacyPoolV2.sol",
  "abi": [
    {
      "inputs": [
        {
          "internalType": "address",
          "name": "verifier_",
          "type": "address"
        },
        {
          "internalType": "address",
          "name": "hasher_",
          "type": "address"
        },
        {
          "internalType": "uint256",
          "name": "denomination_",
          "type": "uint256"
        },
        {
          "internalType": "uint256",
          "name": "baseRelayerFee_",
          "type": "uint256"
        },
        {
          "internalType": "uint256",
          "name": "protocolFeeBps_",
          "type": "uint256"
        },
        {
          "internalType": "address payable",
          "name": "treasury_",
          "type": "address"
        }
      ],
      "stateMutability": "nonpayable",
      "type": "constructor"
    },
    {
      "inputs": [],
      "name": "DirectEthDisabled",
      "type": "error"
    },
    {
      "inputs": [
        {
          "internalType": "address",
          "name": "owner",
          "type": "address"
        }
      ],
      "name": "OwnableInvalidOwner",
      "type": "error"
    },
    {
      "inputs": [
        {
          "internalType": "address",
          "name": "account",
          "type": "address"
        }
      ],
      "name": "OwnableUnauthorizedAccount",
      "type": "error"
    },
    {
      "inputs": [],
      "name": "ReentrancyGuardReentrantCall",
      "type": "error"
    },
    {
      "anonymous": false,
      "inputs": [
        {
          "indexed": false,
          "internalType": "bool",
          "name": "previousValue",
          "type": "bool"
        },
        {
          "indexed": false,
          "internalType": "bool",
          "name": "newValue",
          "type": "bool"
        }
      ],
      "name": "ApprovedRelayersOnlyUpdated",
      "type": "event"
    },
    {
      "anonymous": false,
      "inputs": [
        {
          "indexed": false,
          "internalType": "uint256",
          "name": "previousValue",
          "type": "uint256"
        },
        {
          "indexed": false,
          "internalType": "uint256",
          "name": "newValue",
          "type": "uint256"
        }
      ],
      "name": "BaseRelayerFeeUpdated",
      "type": "event"
    },
    {
      "anonymous": false,
      "inputs": [
        {
          "indexed": true,
          "internalType": "bytes32",
          "name": "commitment",
          "type": "bytes32"
        },
        {
          "indexed": false,
          "internalType": "uint256",
          "name": "leafIndex",
          "type": "uint256"
        },
        {
          "indexed": false,
          "internalType": "bytes32",
          "name": "root",
          "type": "bytes32"
        },
        {
          "indexed": false,
          "internalType": "uint256",
          "name": "timestamp",
          "type": "uint256"
        }
      ],
      "name": "Deposit",
      "type": "event"
    },
    {
      "anonymous": false,
      "inputs": [
        {
          "indexed": true,
          "internalType": "address",
          "name": "previousOwner",
          "type": "address"
        },
        {
          "indexed": true,
          "internalType": "address",
          "name": "newOwner",
          "type": "address"
        }
      ],
      "name": "OwnershipTransferred",
      "type": "event"
    },
    {
      "anonymous": false,
      "inputs": [
        {
          "indexed": false,
          "internalType": "uint256",
          "name": "previousValue",
          "type": "uint256"
        },
        {
          "indexed": false,
          "internalType": "uint256",
          "name": "newValue",
          "type": "uint256"
        }
      ],
      "name": "ProtocolFeeBpsUpdated",
      "type": "event"
    },
    {
      "anonymous": false,
      "inputs": [
        {
          "indexed": true,
          "internalType": "address",
          "name": "relayer",
          "type": "address"
        },
        {
          "indexed": false,
          "internalType": "bool",
          "name": "approved",
          "type": "bool"
        }
      ],
      "name": "RelayerApprovalUpdated",
      "type": "event"
    },
    {
      "anonymous": false,
      "inputs": [
        {
          "indexed": false,
          "internalType": "bool",
          "name": "previousValue",
          "type": "bool"
        },
        {
          "indexed": false,
          "internalType": "bool",
          "name": "newValue",
          "type": "bool"
        }
      ],
      "name": "RelayerOnlyUpdated",
      "type": "event"
    },
    {
      "anonymous": false,
      "inputs": [
        {
          "indexed": true,
          "internalType": "address",
          "name": "previousTreasury",
          "type": "address"
        },
        {
          "indexed": true,
          "internalType": "address",
          "name": "newTreasury",
          "type": "address"
        }
      ],
      "name": "TreasuryUpdated",
      "type": "event"
    },
    {
      "anonymous": false,
      "inputs": [
        {
          "indexed": true,
          "internalType": "bytes32",
          "name": "nullifierHash",
          "type": "bytes32"
        },
        {
          "indexed": true,
          "internalType": "address",
          "name": "recipient",
          "type": "address"
        },
        {
          "indexed": true,
          "internalType": "address",
          "name": "relayer",
          "type": "address"
        },
        {
          "indexed": false,
          "internalType": "uint256",
          "name": "fee",
          "type": "uint256"
        }
      ],
      "name": "Withdrawal",
      "type": "event"
    },
    {
      "stateMutability": "payable",
      "type": "fallback"
    },
    {
      "inputs": [],
      "name": "FEE_BPS_DENOMINATOR",
      "outputs": [
        {
          "internalType": "uint256",
          "name": "",
          "type": "uint256"
        }
      ],
      "stateMutability": "view",
      "type": "function"
    },
    {
      "inputs": [],
      "name": "ROOT_HISTORY_SIZE",
      "outputs": [
        {
          "internalType": "uint256",
          "name": "",
          "type": "uint256"
        }
      ],
      "stateMutability": "view",
      "type": "function"
    },
    {
      "inputs": [],
      "name": "TREE_LEVELS",
      "outputs": [
        {
          "internalType": "uint32",
          "name": "",
          "type": "uint32"
        }
      ],
      "stateMutability": "view",
      "type": "function"
    },
    {
      "inputs": [
        {
          "internalType": "address",
          "name": "",
          "type": "address"
        }
      ],
      "name": "approvedRelayers",
      "outputs": [
        {
          "internalType": "bool",
          "name": "",
          "type": "bool"
        }
      ],
      "stateMutability": "view",
      "type": "function"
    },
    {
      "inputs": [],
      "name": "approvedRelayersOnly",
      "outputs": [
        {
          "internalType": "bool",
          "name": "",
          "type": "bool"
        }
      ],
      "stateMutability": "view",
      "type": "function"
    },
    {
      "inputs": [],
      "name": "baseRelayerFee",
      "outputs": [
        {
          "internalType": "uint256",
          "name": "",
          "type": "uint256"
        }
      ],
      "stateMutability": "view",
      "type": "function"
    },
    {
      "inputs": [
        {
          "internalType": "bytes32",
          "name": "",
          "type": "bytes32"
        }
      ],
      "name": "commitmentUsed",
      "outputs": [
        {
          "internalType": "bool",
          "name": "",
          "type": "bool"
        }
      ],
      "stateMutability": "view",
      "type": "function"
    },
    {
      "inputs": [
        {
          "internalType": "bytes32",
          "name": "leaf",
          "type": "bytes32"
        },
        {
          "internalType": "bytes32[20]",
          "name": "siblings",
          "type": "bytes32[20]"
        },
        {
          "internalType": "uint32",
          "name": "leafIndex",
          "type": "uint32"
        }
      ],
      "name": "computeRootFromPath",
      "outputs": [
        {
          "internalType": "bytes32",
          "name": "",
          "type": "bytes32"
        }
      ],
      "stateMutability": "view",
      "type": "function"
    },
    {
      "inputs": [],
      "name": "currentRoot",
      "outputs": [
        {
          "internalType": "bytes32",
          "name": "",
          "type": "bytes32"
        }
      ],
      "stateMutability": "view",
      "type": "function"
    },
    {
      "inputs": [],
      "name": "denomination",
      "outputs": [
        {
          "internalType": "uint256",
          "name": "",
          "type": "uint256"
        }
      ],
      "stateMutability": "view",
      "type": "function"
    },
    {
      "inputs": [
        {
          "internalType": "bytes32",
          "name": "commitment",
          "type": "bytes32"
        }
      ],
      "name": "deposit",
      "outputs": [],
      "stateMutability": "payable",
      "type": "function"
    },
    {
      "inputs": [],
      "name": "depositCount",
      "outputs": [
        {
          "internalType": "uint256",
          "name": "",
          "type": "uint256"
        }
      ],
      "stateMutability": "view",
      "type": "function"
    },
    {
      "inputs": [
        {
          "internalType": "uint256",
          "name": "",
          "type": "uint256"
        }
      ],
      "name": "filledSubtrees",
      "outputs": [
        {
          "internalType": "bytes32",
          "name": "",
          "type": "bytes32"
        }
      ],
      "stateMutability": "view",
      "type": "function"
    },
    {
      "inputs": [],
      "name": "hasher",
      "outputs": [
        {
          "internalType": "contract IPoseidonHasher",
          "name": "",
          "type": "address"
        }
      ],
      "stateMutability": "view",
      "type": "function"
    },
    {
      "inputs": [
        {
          "internalType": "bytes32",
          "name": "root",
          "type": "bytes32"
        }
      ],
      "name": "isKnownRoot",
      "outputs": [
        {
          "internalType": "bool",
          "name": "",
          "type": "bool"
        }
      ],
      "stateMutability": "view",
      "type": "function"
    },
    {
      "inputs": [],
      "name": "nextLeafIndex",
      "outputs": [
        {
          "internalType": "uint32",
          "name": "",
          "type": "uint32"
        }
      ],
      "stateMutability": "view",
      "type": "function"
    },
    {
      "inputs": [
        {
          "internalType": "bytes32",
          "name": "",
          "type": "bytes32"
        }
      ],
      "name": "nullifierSpent",
      "outputs": [
        {
          "internalType": "bool",
          "name": "",
          "type": "bool"
        }
      ],
      "stateMutability": "view",
      "type": "function"
    },
    {
      "inputs": [],
      "name": "owner",
      "outputs": [
        {
          "internalType": "address",
          "name": "",
          "type": "address"
        }
      ],
      "stateMutability": "view",
      "type": "function"
    },
    {
      "inputs": [],
      "name": "protocolFeeBps",
      "outputs": [
        {
          "internalType": "uint256",
          "name": "",
          "type": "uint256"
        }
      ],
      "stateMutability": "view",
      "type": "function"
    },
    {
      "inputs": [],
      "name": "relayerOnly",
      "outputs": [
        {
          "internalType": "bool",
          "name": "",
          "type": "bool"
        }
      ],
      "stateMutability": "view",
      "type": "function"
    },
    {
      "inputs": [],
      "name": "renounceOwnership",
      "outputs": [],
      "stateMutability": "nonpayable",
      "type": "function"
    },
    {
      "inputs": [
        {
          "internalType": "uint256",
          "name": "",
          "type": "uint256"
        }
      ],
      "name": "rootHistory",
      "outputs": [
        {
          "internalType": "bytes32",
          "name": "",
          "type": "bytes32"
        }
      ],
      "stateMutability": "view",
      "type": "function"
    },
    {
      "inputs": [],
      "name": "rootHistoryIndex",
      "outputs": [
        {
          "internalType": "uint256",
          "name": "",
          "type": "uint256"
        }
      ],
      "stateMutability": "view",
      "type": "function"
    },
    {
      "inputs": [
        {
          "internalType": "bytes32",
          "name": "",
          "type": "bytes32"
        }
      ],
      "name": "rootKnown",
      "outputs": [
        {
          "internalType": "bool",
          "name": "",
          "type": "bool"
        }
      ],
      "stateMutability": "view",
      "type": "function"
    },
    {
      "inputs": [
        {
          "internalType": "bool",
          "name": "enabled",
          "type": "bool"
        }
      ],
      "name": "setApprovedRelayersOnly",
      "outputs": [],
      "stateMutability": "nonpayable",
      "type": "function"
    },
    {
      "inputs": [
        {
          "internalType": "uint256",
          "name": "newBaseRelayerFee",
          "type": "uint256"
        }
      ],
      "name": "setBaseRelayerFee",
      "outputs": [],
      "stateMutability": "nonpayable",
      "type": "function"
    },
    {
      "inputs": [
        {
          "internalType": "uint256",
          "name": "newProtocolFeeBps",
          "type": "uint256"
        }
      ],
      "name": "setProtocolFeeBps",
      "outputs": [],
      "stateMutability": "nonpayable",
      "type": "function"
    },
    {
      "inputs": [
        {
          "internalType": "address",
          "name": "relayer",
          "type": "address"
        },
        {
          "internalType": "bool",
          "name": "approved",
          "type": "bool"
        }
      ],
      "name": "setRelayerApproval",
      "outputs": [],
      "stateMutability": "nonpayable",
      "type": "function"
    },
    {
      "inputs": [
        {
          "internalType": "bool",
          "name": "enabled",
          "type": "bool"
        }
      ],
      "name": "setRelayerOnly",
      "outputs": [],
      "stateMutability": "nonpayable",
      "type": "function"
    },
    {
      "inputs": [
        {
          "internalType": "address payable",
          "name": "newTreasury",
          "type": "address"
        }
      ],
      "name": "setTreasury",
      "outputs": [],
      "stateMutability": "nonpayable",
      "type": "function"
    },
    {
      "inputs": [
        {
          "internalType": "address",
          "name": "newOwner",
          "type": "address"
        }
      ],
      "name": "transferOwnership",
      "outputs": [],
      "stateMutability": "nonpayable",
      "type": "function"
    },
    {
      "inputs": [],
      "name": "treasury",
      "outputs": [
        {
          "internalType": "address payable",
          "name": "",
          "type": "address"
        }
      ],
      "stateMutability": "view",
      "type": "function"
    },
    {
      "inputs": [],
      "name": "verifier",
      "outputs": [
        {
          "internalType": "contract IVerifier",
          "name": "",
          "type": "address"
        }
      ],
      "stateMutability": "view",
      "type": "function"
    },
    {
      "inputs": [
        {
          "internalType": "bytes32",
          "name": "leaf",
          "type": "bytes32"
        },
        {
          "internalType": "bytes32[20]",
          "name": "siblings",
          "type": "bytes32[20]"
        },
        {
          "internalType": "uint32",
          "name": "leafIndex",
          "type": "uint32"
        },
        {
          "internalType": "bytes32",
          "name": "expectedRoot",
          "type": "bytes32"
        }
      ],
      "name": "verifyMerklePath",
      "outputs": [
        {
          "internalType": "bool",
          "name": "",
          "type": "bool"
        }
      ],
      "stateMutability": "view",
      "type": "function"
    },
    {
      "inputs": [
        {
          "internalType": "bytes",
          "name": "proof",
          "type": "bytes"
        },
        {
          "internalType": "bytes32",
          "name": "root",
          "type": "bytes32"
        },
        {
          "internalType": "bytes32",
          "name": "nullifierHash",
          "type": "bytes32"
        },
        {
          "internalType": "address payable",
          "name": "recipient",
          "type": "address"
        },
        {
          "internalType": "address payable",
          "name": "relayer",
          "type": "address"
        },
        {
          "internalType": "uint256",
          "name": "fee",
          "type": "uint256"
        },
        {
          "internalType": "uint256",
          "name": "refund",
          "type": "uint256"
        }
      ],
      "name": "withdraw",
      "outputs": [],
      "stateMutability": "nonpayable",
      "type": "function"
    },
    {
      "inputs": [
        {
          "internalType": "uint256",
          "name": "",
          "type": "uint256"
        }
      ],
      "name": "zeros",
      "outputs": [
        {
          "internalType": "bytes32",
          "name": "",
          "type": "bytes32"
        }
      ],
      "stateMutability": "view",
      "type": "function"
    },
    {
      "stateMutability": "payable",
      "type": "receive"
    }
  ],
  "bytecode": "0x60e06040523480156200001157600080fd5b506040516200206938038062002069833981016040819052620000349162000497565b33806200005c57604051631e4fbdf760e01b8152600060048201526024015b60405180910390fd5b62000067816200023d565b50600180556001600160a01b038616620000b15760405162461bcd60e51b815260206004820152600a602482015269076657269666965723d360b41b604482015260640162000053565b6001600160a01b038516620000f45760405162461bcd60e51b815260206004820152600860248201526706861736865723d360c41b604482015260640162000053565b60008411620001375760405162461bcd60e51b815260206004820152600e60248201526d064656e6f6d696e6174696f6e3d360941b604482015260640162000053565b6127108211156200018b5760405162461bcd60e51b815260206004820152601560248201527f70726f746f636f6c2066656520746f6f20686967680000000000000000000000604482015260640162000053565b6001600160a01b038116620001d05760405162461bcd60e51b815260206004820152600a602482015269074726561737572793d360b41b604482015260640162000053565b6001600160a01b0386811660805285811660a05260c08590526005849055600683905560078054600160a01b9284166001600160a81b0319909116179190911760ff60a81b19169055620002236200028d565b600454620002319062000365565b505050505050620005ae565b600080546001600160a01b038381166001600160a01b0319831681178455604051919092169283917f8be0079c531659141344cd1fd0a4f28419497f9722a3daafe3b4186f6b6457e09190a35050565b46607181905560005b601463ffffffff821610156200035b5760718163ffffffff1660158110620002c257620002c262000508565b015460868263ffffffff1660148110620002e057620002e062000508565b015562000328607163ffffffff83166015811062000302576200030262000508565b015460718363ffffffff166015811062000320576200032062000508565b0154620003fd565b60716200033783600162000534565b63ffffffff166015811062000350576200035062000508565b015560010162000296565b5050608554600455565b6000600c607054606481106200037f576200037f62000508565b015490508015620003a1576000818152600a60205260409020805460ff191690555b81600c60705460648110620003ba57620003ba62000508565b01556000828152600a60205260409020805460ff19166001908117909155607054606491620003ea91906200055b565b620003f6919062000571565b6070555050565b60a05160405163104be72b60e21b815260048101849052602481018390526000916001600160a01b03169063412f9cac90604401602060405180830381865afa1580156200044f573d6000803e3d6000fd5b505050506040513d601f19601f8201168201806040525081019062000475919062000594565b90505b92915050565b6001600160a01b03811681146200049457600080fd5b50565b60008060008060008060c08789031215620004b157600080fd5b8651620004be816200047e565b6020880151909650620004d1816200047e565b8095505060408701519350606087015192506080870151915060a0870151620004fa816200047e565b809150509295509295509295565b634e487b7160e01b600052603260045260246000fd5b634e487b7160e01b600052601160045260246000fd5b63ffffffff8181168382160190808211156200055457620005546200051e565b5092915050565b808201808211156200047857620004786200051e565b6000826200058f57634e487b7160e01b600052601260045260246000fd5b500690565b600060208284031215620005a757600080fd5b5051919050565b60805160a05160c051611a6162000608600039600081816105080152818161098d015281816109c401528181610c330152610dfd01526000818161063301526115e80152600081816103840152610b5d0152611a616000f3fe6080604052600436106102135760003560e01c806371d5a1dd11610118578063e8295588116100a0578063f1c621ee1161006f578063f1c621ee14610695578063f2fde38b146106b5578063f62ac70f146106d5578063fdab463d146106f5578063fe1c42511461070b57610231565b8063e829558814610601578063ed33639f14610621578063f0f4426014610655578063f178e47c1461067557610231565b8063b214faa5116100e7578063b214faa514610578578063c0417e581461058b578063c6ccf7ce146105ab578063cd87a3b4146105cb578063e7549e82146105e057610231565b806371d5a1dd146104d55780638bca6d16146104f65780638cba8b6a1461052a5780638da5cb5b1461055a57610231565b80632dfdf0b51161019b5780634e4c416a1161016a5780634e4c416a1461043a578063583d434f1461045a57806361d027b3146104705780636d9833e314610490578063715018a6146104c057610231565b80632dfdf0b5146103be578063304ce729146103d457806335659fb8146103f457806338c869111461040a57610231565b8063239a25e5116101e2578063239a25e514610307578063263516a8146103275780632a21b72e1461033d5780632a894a731461035d5780632b7ac3f31461037257610231565b80630be4f4221461024a5780630f3b566a14610281578063156428ba146102a557806321a0adb6146102e557610231565b3661023157604051630265cbaf60e51b815260040160405180910390fd5b604051630265cbaf60e51b815260040160405180910390fd5b34801561025657600080fd5b506003546102679063ffffffff1681565b60405163ffffffff90911681526020015b60405180910390f35b34801561028d57600080fd5b5061029760055481565b604051908152602001610278565b3480156102b157600080fd5b506102d56102c0366004611664565b60086020526000908152604090205460ff1681565b6040519015158152602001610278565b3480156102f157600080fd5b506103056103003660046116a2565b61073b565b005b34801561031357600080fd5b506102d561032236600461177e565b610cfd565b34801561033357600080fd5b5061029760705481565b34801561034957600080fd5b50610305610358366004611664565b610d15565b34801561036957600080fd5b50610267601481565b34801561037e57600080fd5b506103a67f000000000000000000000000000000000000000000000000000000000000000081565b6040516001600160a01b039091168152602001610278565b3480156103ca57600080fd5b5061029760025481565b3480156103e057600080fd5b506102976103ef3660046117c6565b610d63565b34801561040057600080fd5b5061029760065481565b34801561041657600080fd5b506102d5610425366004611664565b60096020526000908152604090205460ff1681565b34801561044657600080fd5b50610305610455366004611813565b610d78565b34801561046657600080fd5b5061029761271081565b34801561047c57600080fd5b506007546103a6906001600160a01b031681565b34801561049c57600080fd5b506102d56104ab366004611664565b6000908152600a602052604090205460ff1690565b3480156104cc57600080fd5b50610305610ddf565b3480156104e157600080fd5b506007546102d590600160a81b900460ff1681565b34801561050257600080fd5b506102977f000000000000000000000000000000000000000000000000000000000000000081565b34801561053657600080fd5b506102d5610545366004611837565b600b6020526000908152604090205460ff1681565b34801561056657600080fd5b506000546001600160a01b03166103a6565b610305610586366004611664565b610df3565b34801561059757600080fd5b506103056105a6366004611664565b610fa2565b3480156105b757600080fd5b506103056105c6366004611813565b611032565b3480156105d757600080fd5b50610297606481565b3480156105ec57600080fd5b506007546102d590600160a01b900460ff1681565b34801561060d57600080fd5b5061029761061c366004611664565b611099565b34801561062d57600080fd5b506103a67f000000000000000000000000000000000000000000000000000000000000000081565b34801561066157600080fd5b50610305610670366004611837565b6110b0565b34801561068157600080fd5b50610297610690366004611664565b61114d565b3480156106a157600080fd5b506102976106b0366004611664565b61115d565b3480156106c157600080fd5b506103056106d0366004611837565b61116d565b3480156106e157600080fd5b506103056106f0366004611854565b6111a8565b34801561070157600080fd5b5061029760045481565b34801561071757600080fd5b506102d5610726366004611664565b600a6020526000908152604090205460ff1681565b610743611251565b6001600160a01b03841661078c5760405162461bcd60e51b815260206004820152600b60248201526a0726563697069656e743d360ac1b60448201526064015b60405180910390fd5b6001600160a01b0383166107ce5760405162461bcd60e51b8152602060048201526009602482015268072656c617965723d360bc1b6044820152606401610783565b600754600160a01b900460ff161561083157336001600160a01b038416146108315760405162461bcd60e51b815260206004820152601660248201527539b2b73232b91036bab9ba103132903932b630bcb2b960511b6044820152606401610783565b600754600160a81b900460ff16156108a2576001600160a01b0383166000908152600b602052604090205460ff166108a25760405162461bcd60e51b81526020600482015260146024820152731c995b185e595c881b9bdd08185c1c1c9bdd995960621b6044820152606401610783565b60008581526009602052604090205460ff16156108f35760405162461bcd60e51b815260206004820152600f60248201526e1b9d5b1b1a599a595c881cdc195b9d608a1b6044820152606401610783565b6000868152600a602052604090205460ff166109405760405162461bcd60e51b815260206004820152600c60248201526b1d5b9adb9bdddb881c9bdbdd60a21b6044820152606401610783565b6005548210156109835760405162461bcd60e51b815260206004820152600e60248201526d6665652062656c6f77206261736560901b6044820152606401610783565b60006127106006547f00000000000000000000000000000000000000000000000000000000000000006109b691906118a3565b6109c091906118d0565b90507f00000000000000000000000000000000000000000000000000000000000000006109ed82856118e4565b1115610a2b5760405162461bcd60e51b815260206004820152600d60248201526c0cccacae640e8dede40d0d2ced609b1b6044820152606401610783565b60408051600780825261010082019092526000916020820160e0803683370190505090508760001c81600081518110610a6657610a666118f7565b6020026020010181815250508660001c81600181518110610a8957610a896118f7565b602002602001018181525050856001600160a01b031681600281518110610ab257610ab26118f7565b602002602001018181525050846001600160a01b031681600381518110610adb57610adb6118f7565b6020026020010181815250508381600481518110610afb57610afb6118f7565b6020026020010181815250508281600581518110610b1b57610b1b6118f7565b6020026020010181815250504681600681518110610b3b57610b3b6118f7565b6020908102919091010152604051631e8e1e1360e01b81526001600160a01b037f00000000000000000000000000000000000000000000000000000000000000001690631e8e1e1390610b96908d908d90869060040161190d565b602060405180830381865afa158015610bb3573d6000803e3d6000fd5b505050506040513d601f19601f82011682018060405250810190610bd79190611988565b610c135760405162461bcd60e51b815260206004820152600d60248201526c34b73b30b634b210383937b7b360991b6044820152606401610783565b6000878152600960205260408120805460ff1916600117905582610c57867f00000000000000000000000000000000000000000000000000000000000000006119a5565b610c6191906119a5565b9050610c6d878261127b565b8415610c7d57610c7d868661127b565b8215610c9957600754610c99906001600160a01b03168461127b565b856001600160a01b0316876001600160a01b0316897f6c3a45613039e0a1117bd6ce110ab3c920271709c010983d921a2cd268e2ea4788604051610cdf91815260200190565b60405180910390a4505050610cf360018055565b5050505050505050565b600081610d0b868686611319565b1495945050505050565b610d1d6113f8565b600580549082905560408051828152602081018490527f02e87ceabfa0e381e169014833b5c0798e7de6068c766961d962847388a426fe91015b60405180910390a15050565b6000610d70848484611319565b949350505050565b610d806113f8565b6007805460ff60a81b198116600160a81b84151581810292909217909355604080519390920460ff1680151584526020840191909152917fac8a542e802a136959c104624d34be608945dacbfa86af270dae2405957c64399101610d57565b610de76113f8565b610df16000611425565b565b610dfb611251565b7f00000000000000000000000000000000000000000000000000000000000000003414610e575760405162461bcd60e51b815260206004820152600a60248201526918985908185b5bdd5b9d60b21b6044820152606401610783565b60008181526008602052604090205460ff1615610ea85760405162461bcd60e51b815260206004820152600f60248201526e18dbdb5b5a5d1b595b9d081d5cd959608a1b6044820152606401610783565b6003546210000063ffffffff90911610610ef35760405162461bcd60e51b815260206004820152600c60248201526b1d1c9959481a5cc8199d5b1b60a21b6044820152606401610783565b6000818152600860205260409020805460ff19166001179055610f1581611475565b6004819055610f239061153b565b6003546004546040805163ffffffff90931683526020830191909152429082015281907f8154af7b1b360f500640de68c82af19c52c4ad4189d7a7c7a41506e19a1fdd6c9060600160405180910390a26003805463ffffffff198116600163ffffffff9283168101909216179091556002805482019055805550565b50565b610faa6113f8565b612710811115610ff45760405162461bcd60e51b81526020600482015260156024820152740e0e4dee8dec6ded840cccaca40e8dede40d0d2ced605b1b6044820152606401610783565b600680549082905560408051828152602081018490527ff247e7445763d3e9a01aee4b64de35f02273d6a1d7264694bb9298109319c8be9101610d57565b61103a6113f8565b6007805460ff60a01b198116600160a01b84151581810292909217909355604080519390920460ff1680151584526020840191909152917fb8902f76e68eedf9d19810500094a11c4da1e45ff8e1a6d119b92b21653c021e9101610d57565b607181601581106110a957600080fd5b0154905081565b6110b86113f8565b6001600160a01b0381166110fb5760405162461bcd60e51b815260206004820152600a602482015269074726561737572793d360b41b6044820152606401610783565b600780546001600160a01b038381166001600160a01b0319831681179093556040519116919082907f4ab5be82436d353e61ca18726e984e561f5c1cc7c6d38b29d2553c790434705a90600090a35050565b608681601481106110a957600080fd5b600c81606481106110a957600080fd5b6111756113f8565b6001600160a01b03811661119f57604051631e4fbdf760e01b815260006004820152602401610783565b610f9f81611425565b6111b06113f8565b6001600160a01b0382166111f25760405162461bcd60e51b8152602060048201526009602482015268072656c617965723d360bc1b6044820152606401610783565b6001600160a01b0382166000818152600b6020908152604091829020805460ff191685151590811790915591519182527fc18c96b23e5afbaf72346174b2e46029640a336fed31d8eb543c7d9e38ca5d76910160405180910390a25050565b60026001540361127457604051633ee5aeb560e01b815260040160405180910390fd5b6002600155565b6000826001600160a01b03168260405160006040518083038185875af1925050503d80600081146112c8576040519150601f19603f3d011682016040523d82523d6000602084013e6112cd565b606091505b50509050806113145760405162461bcd60e51b8152602060048201526013602482015272195d1a081d1c985b9cd9995c8819985a5b1959606a1b6044820152606401610783565b505050565b60006210000063ffffffff83161061136c5760405162461bcd60e51b81526020600482015260166024820152756c656166496e646578206f7574206f662072616e676560501b6044820152606401610783565b838260005b601463ffffffff821610156113ed576000868263ffffffff166014811061139a5761139a6118f7565b602002013590506113ac6002846119b8565b63ffffffff166000036113ca576113c384826115c8565b93506113d7565b6113d481856115c8565b93505b6113e26002846119db565b925050600101611371565b509095945050505050565b6000546001600160a01b03163314610df15760405163118cdaa760e01b8152336004820152602401610783565b600080546001600160a01b038381166001600160a01b0319831681178455604051919092169283917f8be0079c531659141344cd1fd0a4f28419497f9722a3daafe3b4186f6b6457e09190a35050565b60035460009063ffffffff16828280805b601463ffffffff82161015611530576114a06002866119b8565b63ffffffff166000036114ee5783925060718163ffffffff16601581106114c9576114c96118f7565b015491508360868263ffffffff16601481106114e7576114e76118f7565b015561150f565b60868163ffffffff1660148110611507576115076118f7565b015492508391505b61151983836115c8565b93506115266002866119db565b9450600101611486565b509195945050505050565b6000600c60705460648110611552576115526118f7565b015490508015611573576000818152600a60205260409020805460ff191690555b81600c60705460648110611589576115896118f7565b01556000828152600a60205260409020805460ff191660019081179091556070546064916115b791906118e4565b6115c191906119fe565b6070555050565b60405163104be72b60e21b815260048101839052602481018290526000907f00000000000000000000000000000000000000000000000000000000000000006001600160a01b03169063412f9cac90604401602060405180830381865afa158015611637573d6000803e3d6000fd5b505050506040513d601f19601f8201168201806040525081019061165b9190611a12565b90505b92915050565b60006020828403121561167657600080fd5b5035919050565b6001600160a01b0381168114610f9f57600080fd5b803561169d8161167d565b919050565b60008060008060008060008060e0898b0312156116be57600080fd5b883567ffffffffffffffff808211156116d657600080fd5b818b0191508b601f8301126116ea57600080fd5b8135818111156116f957600080fd5b8c602082850101111561170b57600080fd5b60209283019a5098505089013595506040890135945061172d60608a01611692565b935061173b60808a01611692565b925060a0890135915060c089013590509295985092959890939650565b80610280810183101561165e57600080fd5b803563ffffffff8116811461169d57600080fd5b6000806000806102e0858703121561179557600080fd5b843593506117a68660208701611758565b92506117b56102a0860161176a565b939692955092936102c00135925050565b60008060006102c084860312156117dc57600080fd5b833592506117ed8560208601611758565b91506117fc6102a0850161176a565b90509250925092565b8015158114610f9f57600080fd5b60006020828403121561182557600080fd5b813561183081611805565b9392505050565b60006020828403121561184957600080fd5b81356118308161167d565b6000806040838503121561186757600080fd5b82356118728161167d565b9150602083013561188281611805565b809150509250929050565b634e487b7160e01b600052601160045260246000fd5b808202811582820484141761165e5761165e61188d565b634e487b7160e01b600052601260045260246000fd5b6000826118df576118df6118ba565b500490565b8082018082111561165e5761165e61188d565b634e487b7160e01b600052603260045260246000fd5b60408152826040820152828460608301376000606084830101526000601f19601f85011682016060810160206060858403016020860152818651808452608085019150602088019450600093505b8084101561197b578451825293820193600193909301929082019061195b565b5098975050505050505050565b60006020828403121561199a57600080fd5b815161183081611805565b8181038181111561165e5761165e61188d565b600063ffffffff808416806119cf576119cf6118ba565b92169190910692915050565b600063ffffffff808416806119f2576119f26118ba565b92169190910492915050565b600082611a0d57611a0d6118ba565b500690565b600060208284031215611a2457600080fd5b505191905056fea264697066735822122083f378d908dde31750fa7a91ebdbd38c28d99e93b85a19cd2bf91d500f94c57964736f6c63430008180033",
  "linkReferences": {},
  "deployedLinkReferences": {}
}