{
  "_format": "hh-sol-artifact-1",
  "contractName": "ReenterWithdrawRecipient",
  "sourceName": "contracts/test/ReenterWithdrawRecipient.sol",
  "abi": [
    {
      "inputs": [
        {
          "internalType": "address",
          "name": "targetPool_",
          "type": "address"
        },
        {
          "internalType": "bytes",
          "name": "proof",
          "type": "bytes"
        },
        {
          "internalType": "bytes32",
          "name": "root",
          "type": "bytes32"
        },
        {
          "internalType": "bytes32",
          "name": "nullifierHash",
          "type": "bytes32"
        },
        {
          "internalType": "address payable",
          "name": "relayer",
          "type": "address"
        },
        {
          "internalType": "uint256",
          "name": "fee",
          "type": "uint256"
        },
        {
          "internalType": "uint256",
          "name": "refund",
          "type": "uint256"
        }
      ],
      "name": "arm",
      "outputs": [],
      "stateMutability": "nonpayable",
      "type": "function"
    },
    {
      "inputs": [],
      "name": "attempted",
      "outputs": [
        {
          "internalType": "bool",
          "name": "",
          "type": "bool"
        }
      ],
      "stateMutability": "view",
      "type": "function"
    },
    {
      "inputs": [],
      "name": "payload",
      "outputs": [
        {
          "internalType": "bytes",
          "name": "",
          "type": "bytes"
        }
      ],
      "stateMutability": "view",
      "type": "function"
    },
    {
      "inputs": [],
      "name": "reenterSucceeded",
      "outputs": [
        {
          "internalType": "bool",
          "name": "",
          "type": "bool"
        }
      ],
      "stateMutability": "view",
      "type": "function"
    },
    {
      "inputs": [],
      "name": "targetPool",
      "outputs": [
        {
          "internalType": "address",
          "name": "",
          "type": "address"
        }
      ],
      "stateMutability": "view",
      "type": "function"
    },
    {
      "stateMutability": "payable",
      "type": "receive"
    }
  ],
  "bytecode": "0x608060405234801561001057600080fd5b5061069a806100206000396000f3fe60806040526004361061004e5760003560e01c8063867fcd9b14610104578063917f51b414610126578063a878f85814610155578063bf8b604014610177578063e60e24171461019657600080fd5b366100ff5760025460ff168061007057506001805461006c906102f4565b1590505b1561007757005b6002805460ff191660019081179091556000805460405191926001600160a01b03909116916100a6919061032e565b6000604051808303816000865af19150503d80600081146100e3576040519150601f19603f3d011682016040523d82523d6000602084013e6100e8565b606091505b50506002805461ff00191661010083151502179055005b600080fd5b34801561011057600080fd5b5061012461011f3660046103cc565b6101ce565b005b34801561013257600080fd5b506002546101409060ff1681565b60405190151581526020015b60405180910390f35b34801561016157600080fd5b5061016a610266565b60405161014c9190610488565b34801561018357600080fd5b5060025461014090610100900460ff1681565b3480156101a257600080fd5b506000546101b6906001600160a01b031681565b6040516001600160a01b03909116815260200161014c565b600080546001600160a01b0319166001600160a01b038a161790556040516310d056db60e11b9061021190899089908990899030908a908a908a906024016104d7565b60408051601f198184030181529190526020810180516001600160e01b03166001600160e01b03199093169290921790915260019061025090826105a4565b50506002805461ffff1916905550505050505050565b60018054610273906102f4565b80601f016020809104026020016040519081016040528092919081815260200182805461029f906102f4565b80156102ec5780601f106102c1576101008083540402835291602001916102ec565b820191906000526020600020905b8154815290600101906020018083116102cf57829003601f168201915b505050505081565b600181811c9082168061030857607f821691505b60208210810361032857634e487b7160e01b600052602260045260246000fd5b50919050565b600080835461033c816102f4565b60018281168015610354576001811461036957610398565b60ff1984168752821515830287019450610398565b8760005260208060002060005b8581101561038f5781548a820152908401908201610376565b50505082870194505b50929695505050505050565b6001600160a01b03811681146103b957600080fd5b50565b80356103c7816103a4565b919050565b60008060008060008060008060e0898b0312156103e857600080fd5b88356103f3816103a4565b9750602089013567ffffffffffffffff8082111561041057600080fd5b818b0191508b601f83011261042457600080fd5b81358181111561043357600080fd5b8c602082850101111561044557600080fd5b602083019950809850505050604089013594506060890135935061046b60808a016103bc565b925060a0890135915060c089013590509295985092959890939650565b60006020808352835180602085015260005b818110156104b65785810183015185820160400152820161049a565b506000604082860101526040601f19601f8301168501019250505092915050565b60e081528760e08201526000610100898b828501376000838b0182015260208301989098525060408101959095526001600160a01b03938416606086015291909216608084015260a083019190915260c0820152601f909201601f191690910101919050565b634e487b7160e01b600052604160045260246000fd5b601f82111561059f576000816000526020600020601f850160051c8101602086101561057c5750805b601f850160051c820191505b8181101561059b57828155600101610588565b5050505b505050565b815167ffffffffffffffff8111156105be576105be61053d565b6105d2816105cc84546102f4565b84610553565b602080601f83116001811461060757600084156105ef5750858301515b600019600386901b1c1916600185901b17855561059b565b600085815260208120601f198616915b8281101561063657888601518255948401946001909101908401610617565b50858210156106545787850151600019600388901b60f8161c191681555b5050505050600190811b0190555056fea2646970667358221220062fe54ea7130d8a989a45754e86eb8d9ce42b7b17386350b08cffd751b0958264736f6c63430008180033",
  "linkReferences": {},
  "deployedLinkReferences": {}
}