{
  "_format": "hh-sol-artifact-1",
  "contractName": "ProtocolTreasury",
  "sourceName": "contracts/ProtocolTreasury.sol",
  "abi": [
    {
      "inputs": [
        {
          "internalType": "uint256",
          "name": "withdrawDelay_",
          "type": "uint256"
        }
      ],
      "stateMutability": "nonpayable",
      "type": "constructor"
    },
    {
      "inputs": [],
      "name": "DirectFallbackDisabled",
      "type": "error"
    },
    {
      "inputs": [
        {
          "internalType": "address",
          "name": "owner",
          "type": "address"
        }
      ],
      "name": "OwnableInvalidOwner",
      "type": "error"
    },
    {
      "inputs": [
        {
          "internalType": "address",
          "name": "account",
          "type": "address"
        }
      ],
      "name": "OwnableUnauthorizedAccount",
      "type": "error"
    },
    {
      "inputs": [],
      "name": "ReentrancyGuardReentrantCall",
      "type": "error"
    },
    {
      "anonymous": false,
      "inputs": [
        {
          "indexed": true,
          "internalType": "address",
          "name": "previousOwner",
          "type": "address"
        },
        {
          "indexed": true,
          "internalType": "address",
          "name": "newOwner",
          "type": "address"
        }
      ],
      "name": "OwnershipTransferred",
      "type": "event"
    },
    {
      "anonymous": false,
      "inputs": [
        {
          "indexed": false,
          "internalType": "uint256",
          "name": "previousValue",
          "type": "uint256"
        },
        {
          "indexed": false,
          "internalType": "uint256",
          "name": "newValue",
          "type": "uint256"
        }
      ],
      "name": "WithdrawDelayUpdated",
      "type": "event"
    },
    {
      "anonymous": false,
      "inputs": [
        {
          "indexed": true,
          "internalType": "uint256",
          "name": "requestId",
          "type": "uint256"
        },
        {
          "indexed": true,
          "internalType": "address",
          "name": "to",
          "type": "address"
        },
        {
          "indexed": false,
          "internalType": "uint256",
          "name": "amount",
          "type": "uint256"
        }
      ],
      "name": "WithdrawalExecuted",
      "type": "event"
    },
    {
      "anonymous": false,
      "inputs": [
        {
          "indexed": true,
          "internalType": "uint256",
          "name": "requestId",
          "type": "uint256"
        },
        {
          "indexed": true,
          "internalType": "address",
          "name": "to",
          "type": "address"
        },
        {
          "indexed": false,
          "internalType": "uint256",
          "name": "amount",
          "type": "uint256"
        },
        {
          "indexed": false,
          "internalType": "uint256",
          "name": "unlockTime",
          "type": "uint256"
        }
      ],
      "name": "WithdrawalQueued",
      "type": "event"
    },
    {
      "stateMutability": "payable",
      "type": "fallback"
    },
    {
      "inputs": [
        {
          "internalType": "uint256",
          "name": "requestId",
          "type": "uint256"
        }
      ],
      "name": "executeWithdrawal",
      "outputs": [],
      "stateMutability": "nonpayable",
      "type": "function"
    },
    {
      "inputs": [],
      "name": "nextRequestId",
      "outputs": [
        {
          "internalType": "uint256",
          "name": "",
          "type": "uint256"
        }
      ],
      "stateMutability": "view",
      "type": "function"
    },
    {
      "inputs": [],
      "name": "owner",
      "outputs": [
        {
          "internalType": "address",
          "name": "",
          "type": "address"
        }
      ],
      "stateMutability": "view",
      "type": "function"
    },
    {
      "inputs": [
        {
          "internalType": "address payable",
          "name": "to",
          "type": "address"
        },
        {
          "internalType": "uint256",
          "name": "amount",
          "type": "uint256"
        }
      ],
      "name": "queueWithdrawal",
      "outputs": [
        {
          "internalType": "uint256",
          "name": "requestId",
          "type": "uint256"
        }
      ],
      "stateMutability": "nonpayable",
      "type": "function"
    },
    {
      "inputs": [],
      "name": "renounceOwnership",
      "outputs": [],
      "stateMutability": "nonpayable",
      "type": "function"
    },
    {
      "inputs": [
        {
          "internalType": "uint256",
          "name": "",
          "type": "uint256"
        }
      ],
      "name": "requests",
      "outputs": [
        {
          "internalType": "address payable",
          "name": "to",
          "type": "address"
        },
        {
          "internalType": "uint256",
          "name": "amount",
          "type": "uint256"
        },
        {
          "internalType": "uint256",
          "name": "unlockTime",
          "type": "uint256"
        },
        {
          "internalType": "bool",
          "name": "executed",
          "type": "bool"
        }
      ],
      "stateMutability": "view",
      "type": "function"
    },
    {
      "inputs": [
        {
          "internalType": "uint256",
          "name": "newWithdrawDelay",
          "type": "uint256"
        }
      ],
      "name": "setWithdrawDelay",
      "outputs": [],
      "stateMutability": "nonpayable",
      "type": "function"
    },
    {
      "inputs": [
        {
          "internalType": "address",
          "name": "newOwner",
          "type": "address"
        }
      ],
      "name": "transferOwnership",
      "outputs": [],
      "stateMutability": "nonpayable",
      "type": "function"
    },
    {
      "inputs": [],
      "name": "withdrawDelay",
      "outputs": [
        {
          "internalType": "uint256",
          "name": "",
          "type": "uint256"
        }
      ],
      "stateMutability": "view",
      "type": "function"
    },
    {
      "stateMutability": "payable",
      "type": "receive"
    }
  ],
  "bytecode": "0x608060405234801561001057600080fd5b506040516108e03803806108e083398101604081905261002f916100bb565b338061005557604051631e4fbdf760e01b81526000600482015260240160405180910390fd5b61005e8161006b565b50600180556002556100d4565b600080546001600160a01b038381166001600160a01b0319831681178455604051919092169283917f8be0079c531659141344cd1fd0a4f28419497f9722a3daafe3b4186f6b6457e09190a35050565b6000602082840312156100cd57600080fd5b5051919050565b6107fd806100e36000396000f3fe60806040526004361061008a5760003560e01c806372f0cb301161005957806372f0cb301461012057806381d12c58146101405780638da5cb5b146101bb578063ecd24bbe146101e3578063f2fde38b1461020357610091565b80630288a39c146100aa57806324f13a76146100d35780636a84a985146100f5578063715018a61461010b57610091565b3661009157005b604051630d4a7c8960e11b815260040160405180910390fd5b3480156100b657600080fd5b506100c060025481565b6040519081526020015b60405180910390f35b3480156100df57600080fd5b506100f36100ee366004610722565b610223565b005b34801561010157600080fd5b506100c060035481565b34801561011757600080fd5b506100f36103ea565b34801561012c57600080fd5b506100f361013b366004610722565b6103fe565b34801561014c57600080fd5b5061018f61015b366004610722565b60046020526000908152604090208054600182015460028301546003909301546001600160a01b0390921692909160ff1684565b604080516001600160a01b039095168552602085019390935291830152151560608201526080016100ca565b3480156101c757600080fd5b506000546040516001600160a01b0390911681526020016100ca565b3480156101ef57600080fd5b506100c06101fe366004610750565b61044b565b34801561020f57600080fd5b506100f361021e36600461077c565b6105a2565b61022b6105dd565b61023361060a565b6000818152600460205260409020600381015460ff161561028e5760405162461bcd60e51b815260206004820152601060248201526f185b1c9958591e48195e1958dd5d195960821b60448201526064015b60405180910390fd5b80546001600160a01b03166102d75760405162461bcd60e51b815260206004820152600f60248201526e72657175657374206d697373696e6760881b6044820152606401610285565b806002015442101561031f5760405162461bcd60e51b81526020600482015260116024820152701dda5d1a191c985dd85b081b1bd8dad959607a1b6044820152606401610285565b806001015447101561036a5760405162461bcd60e51b8152602060048201526014602482015273696e73756666696369656e742062616c616e636560601b6044820152606401610285565b60038101805460ff19166001908117909155815490820154610395916001600160a01b031690610634565b805460018201546040519081526001600160a01b039091169083907fd6cddb3d69146e96ebc2c87b1b3dd0b20ee2d3b0eadf134e011afb434a3e56e69060200160405180910390a3506103e760018055565b50565b6103f26105dd565b6103fc60006106d2565b565b6104066105dd565b600280549082905560408051828152602081018490527f608f88597c1be343fb8b88747f4efa4d4f71538b3e3203d084d9e5e6fed29d61910160405180910390a15050565b60006104556105dd565b6001600160a01b0383166104945760405162461bcd60e51b8152600401610285906020808252600490820152630746f3d360e41b604082015260600190565b600082116104cf5760405162461bcd60e51b81526020600482015260086024820152670616d6f756e743d360c41b6044820152606401610285565b5060038054600181019091556002546000906104eb90426107a0565b604080516080810182526001600160a01b0387811680835260208084018981528486018781526000606087018181528b82526004855290889020965187546001600160a01b03191696169590951786559051600186015551600285015591516003909301805460ff19169315159390931790925582518781529081018490529293509184917fecc966b282a372469fa4d3e497c2ac17983c3eaed03f3f17c9acf4b15591663e910160405180910390a35092915050565b6105aa6105dd565b6001600160a01b0381166105d457604051631e4fbdf760e01b815260006004820152602401610285565b6103e7816106d2565b6000546001600160a01b031633146103fc5760405163118cdaa760e01b8152336004820152602401610285565b60026001540361062d57604051633ee5aeb560e01b815260040160405180910390fd5b6002600155565b6000826001600160a01b03168260405160006040518083038185875af1925050503d8060008114610681576040519150601f19603f3d011682016040523d82523d6000602084013e610686565b606091505b50509050806106cd5760405162461bcd60e51b8152602060048201526013602482015272195d1a081d1c985b9cd9995c8819985a5b1959606a1b6044820152606401610285565b505050565b600080546001600160a01b038381166001600160a01b0319831681178455604051919092169283917f8be0079c531659141344cd1fd0a4f28419497f9722a3daafe3b4186f6b6457e09190a35050565b60006020828403121561073457600080fd5b5035919050565b6001600160a01b03811681146103e757600080fd5b6000806040838503121561076357600080fd5b823561076e8161073b565b946020939093013593505050565b60006020828403121561078e57600080fd5b81356107998161073b565b9392505050565b808201808211156107c157634e487b7160e01b600052601160045260246000fd5b9291505056fea264697066735822122022a52fac04e35eab856410e21416b9506e33710500bfc27da24247ea5e75010f64736f6c63430008180033",
  "linkReferences": {},
  "deployedLinkReferences": {}
}